:040000005FEF00F0BE
:100008005F82FACFB4F0FBCFB5F0E9CFB6F0EACF14
:10001800B7F0E1CFB8F0E2CFB9F0D9CFBAF0DACF84
:10002800BBF0F3CFBCF0F4CFBDF0F6CFBEF0F7CF06
:10003800BFF0F8CFC0F0F5CFC1F0F2B47FEC32F0EA
:10004800A4BAA3AA01D0A49AF2A217D044EC10F043
:1000580073C09DF074C09EF075C09FF0F5C0A0F00D
:10006800CA0E0001A16F65EC2AF0300E036E010E76
:10007800046E530E98EC24F0F292C1C0F5FFC0C094
:10008800F8FFBFC0F7FFBEC0F6FFBDC0F4FFBCC09D
:10009800F3FFBBC0DAFFBAC0D9FFB9C0E2FFB8C0EE
:1000A800E1FFB7C0EAFFB6C0E9FFB5C0FBFFB4C0C7
:0A00B800FAFF5F92110050EF30F0E4
:1010000000010000000A00000064000000E8030086
:101010000010270000A086010040420F0080969833
:101020000000E1F50500CA9A3B00803FCDCC3DD7DA
:10103000233C12833AB7D138C62737388635C0D615
:1010400033CC2B32708930E7DB2EE53C1E42A20DFB
:1010500000803F00204100C842007A44401C4650B6
:10106000C34724744997184BBCBE4C6B6E4E031596
:101070005079AD60F3497100000000803FF0FFBE81
:10108000E2A93E8376BEAE2B3E3CC3BDD2133D7873
:10109000D3BB0A092054656D703A20256609464382
:1010A0003A25640920506F733A2025642000536D5F
:1010B0006172742053686972742076312E3000009A
:1010C000BF0E0201C86F020E0201C96FE7D3250EE1
:1010D0000201DB19D8B405D00201DB5157EC34F022
:1010E000DDD3000E0201CB6F000ECA6F03D00201E8
:1010F000CB8518D0BDC2F6FFBEC2F7FF0201BD4BC3
:10110000BE2B0800F5CFDBF20201DB51000AD8B498
:101110001200640AD8B406D0020AD8B4E8D70F0A7D
:10112000D8A4BCD3070E0201CB15D8B404D3000E4B
:101130000201CD6F060ECC6FC8C2D9FFC9C2DAFF5B
:10114000DECFD8F2DECFD9F2DDCFDAF2030E020124
:10115000C827000EC9230201DAAF11D0D8C27EF22F
:10116000D9C27FF2DAC280F25AEC33F07EC2D8F2F2
:101170007FC2D9F280C2DAF2030E0201CA13000E56
:101180000201D36F000ED26F0201D8510201D911B2
:101190000201DA11D8B49BD0820E0201BF6FFF0E9C
:1011A0000201C06FD8C2C1F2D9C2C2F2DAC2C3F220
:1011B000DBC2C4F2100E06D00201D890C433C33390
:1011C000C233C133E82EF8D70201C1510201BF2555
:1011D0000201D26F000E0201C0210201D36F020191
:1011E000D207D8A0D307D2C28CF2D3C28DF2000EA0
:1011F00002018F6F030E8E6FD9EC32F08CC2D2F2E7
:101200008DC2D3F2D2C284F2D3C285F2000E0201A3
:10121000876F0A0E866FC8EC2AF084C2D2F285C2AC
:10122000D3F20201D3AF04D00201D207D8A0D30772
:101230000201D251000863EC13F0A1C2D4F2A2C2A1
:10124000D5F2A3C2D6F2D4C292F2D5C293F2D6C2DC
:1012500094F2D8C295F2D9C296F2DAC297F2FCECB7
:1012600021F092C2D4F293C2D5F294C2D6F2D4C283
:101270007EF2D5C27FF2D6C280F2000E0201816FEB
:10128000800E0201826F3F0E0201836F01EC2AF093
:101290000201D8B005D00201D207D8A0D30717D0D9
:1012A000D4C27EF2D5C27FF2D6C280F2000E020115
:1012B000816F200E0201826F410E0201836F01ECEB
:1012C0002AF00201D8A003D00201D24BD32B020195
:1012D000CDBF08D00201CD511DE10D0E0201CC5D44
:1012E000D8B018D0D8C2ABF2D9C2ACF2DAC2ADF2E3
:1012F0000201CC5112EC1BF0A1C2AEF2A2C2AFF2BD
:10130000A3C2B0F268EC1CF0ABC2D8F2ACC2D9F206
:10131000ADC2DAF20201D3BF08D00201D3512AE1F3
:101320000A0E0201D25DD8B025D00201D8510201C7
:10133000D9110201DA11D8B463D0D8C2A8F2D9C247
:10134000A9F2DAC2AAF256EC23F00201A851020176
:10135000A9110201AA110201AB11D8A451D00201B6
:10136000D3BF4ED00201D35105E1020E0201D25D7E
:10137000D8A046D0D4C27EF2D5C27FF2D6C280F2C7
:10138000700E0201816F890E0201826F400E020110
:10139000836F01EC2AF00201D8B003D00201F70EEE
:1013A00002D00201F80ED227FF0ED3230201D25140
:1013B00063EC13F0A1C2D4F2A2C2D5F2A3C2D6F25A
:1013C000D8C27EF2D9C27FF2DAC280F2D4C281F2F0
:1013D000D5C282F2D6C283F269EC20F07EC2CEF290
:1013E0007FC2CFF280C2D0F281C2D1F2000E0201E0
:1013F000D86F000E0201D96F000E0201DA6F33D0F0
:10140000D8C2A8F2D9C2A9F2DAC2AAF256EC23F0E5
:10141000A8C2CEF2A9C2CFF2AAC2D0F2ABC2D1F218
:10142000D8C2B7F2D9C2B8F2DAC2B9F2CEC286F2E5
:10143000CFC287F2D0C288F2D1C289F2B6EC2EF0C8
:1014400086C2BAF287C2BBF288C2BCF2CEEC31F0DF
:10145000B7C2D8F2B8C2D9F2B9C2DAF2000E0201AC
:10146000D36F000ED26F010E0201DB6F0A0E020174
:10147000DB19D8B41ED00201DB51040D010EF32498
:10148000F66E100EF420F76E0900F5500201CE5DE5
:101490000900F5500201CF590900F5500201D05959
:1014A0000900F5500201D159D8A003D00201DB2B6D
:1014B000DDD7030E0201CA150201BF6F000E020143
:1014C000CB150201C06F0201BF510201C011D8B497
:1014D0004BD02D0E57EC34F047D0CEC27EF2CFC2A7
:1014E0007FF2D0C280F2D1C281F20201DB51040D41
:1014F000010EF324F66E100EF420F76E0900F5CFFE
:1015000082F20900F5CF83F20900F5CF84F20A00D8
:10151000F5CF85F227EC2BF07EC2D4F27FC2D5F254
:1015200080C2D6F281C2D7F2D4C28BF2D5C28CF27D
:10153000D6C28DF2D7C28EF20A0E02018F6F000E54
:10154000906F000E916F000E926F8AEC2CF08BC2A0
:10155000D4F28CC2D5F28DC2D6F28EC2D7F202017D
:10156000D451300F57EC34F00201DB070201DB29C4
:10157000D8B408D0B2D7300E57EC34F00201D207FD
:10158000D8A0D3070201D3BF07D00201D351F3E1A2
:101590000201D205D8B0EFD70201CDBF0CD00201B5
:1015A000CD5105E1090E0201CC5DD8A004D0080E92
:1015B0000201DB6F02D0CCC2DBF20201DB5102017F
:1015C000CC5F000E0201DBBFFF0E0201CD5B02010A
:1015D000DB510201D8B403D02E0E57EC34F00201D7
:1015E000DB5163EC13F0A1C2C5F2A2C2C6F2A3C2E2
:1015F000C7F2D8C295F2D9C296F2DAC297F2C5C242
:1016000092F2C6C293F2C7C294F2FCEC21F092C2ED
:10161000A8F293C2A9F294C2AAF256EC23F0A8C28F
:10162000CEF2A9C2CFF2AAC2D0F2ABC2D1F26ED032
:10163000CEC27EF2CFC27FF2D0C280F2D1C281F29E
:101640000201DB51040D010EF324F66E100EF4209E
:10165000F76E0900F5CF82F20900F5CF83F2090099
:10166000F5CF84F20A00F5CF85F227EC2BF07EC28D
:10167000D4F27FC2D5F280C2D6F281C2D7F2D4C2F0
:101680008BF2D5C28CF2D6C28DF2D7C28EF20A0E80
:1016900002018F6F000E906F000E916F000E926F1F
:1016A0008AEC2CF08BC2D4F28CC2D5F28DC2D6F269
:1016B0008EC2D7F20201D451300F57EC34F0CEC2B3
:1016C0008BF2CFC28CF2D0C28DF2D1C28EF2020167
:1016D000DB51040D010EF324F66E100EF420F76EAC
:1016E0000900F5CF8FF20900F5CF90F20900F5CF90
:1016F00091F20A00F5CF92F28AEC2CF08BC2CEF276
:101700008CC2CFF28DC2D0F28EC2D1F20201DB07C1
:101710000201DB29D8B408D08BD7300E57EC34F057
:101720000201CC07D8A0CD070201CC510201CD1196
:10173000D8B4B4D0F2D7C8C2D9FFC9C2DAFFDECF5D
:10174000CEF2DDCFCFF20201000ECFBFFF0ED06F81
:10175000D16F020E0201C827000EC9230201D1AFCA
:101760000CD0030E0201CA130201D11FD01FCF1FDC
:10177000CE6D000ECF23D023D123010E0201DB6FEB
:101780000A0E0201DB19D8B41ED00201DB51040D90
:10179000010EF324F66E100EF420F76E0900F550DA
:1017A0000201CE5D0900F5500201CF590900F55044
:1017B0000201D0590900F5500201D159D8A003D037
:1017C0000201DB2BDDD7030E0201CA150201BF6F38
:1017D000000E0201CB150201C06F0201BF510201D0
:1017E000C011D8B403D02D0E57EC34F00201DB51F8
:1017F0000201CC6FCD6BCCBFCD0745D0CCC2BFF2C0
:10180000CDC2C0F20201D890BF37C0370201D890D4
:10181000BF37C037010E0201BF25F66E100EC02182
:10182000F76E0900F5CF82F20900F5CF83F20900C7
:10183000F5CF84F20A00F5CF85F2CEC27EF2CFC298
:101840007FF2D0C280F2D1C281F227EC2BF07EC2AF
:101850008BF27FC28CF280C28DF281C28EF20A0EB0
:1018600002018F6F000E906F000E916F000E926F4D
:101870008AEC2CF002018B51300F0201DB6F020168
:10188000DB5157EC34F00201CC07D8A0CD070201A0
:10189000CC29B4E10201CD29D8A4B0D7BDC2F6FF4E
:1018A000BEC2F7FF0201BD4BBE2B0800F5CFDBF235
:1018B0000201DB51D8B412000AD48A0E00019A6FDB
:1018C000000E00019B6FD1D3250E0001AD19D8B4D5
:1018D00005D00001AD516BEC34F0C7D3000E000110
:1018E0009D6F000E9C6F03D000019D8518D088C0AD
:1018F000F6FF89C0F7FF0001884B892B0800F5CF60
:10190000ADF00001AD51000AD8B41200640AD8B499
:1019100006D0020AD8B4E8D70F0AD8A4A6D3070E77
:1019200000019D15D8B4F0D2000E00019F6F060E85
:101930009E6F9AC0D9FF9BC0DAFFDECFAAF0DECF40
:10194000ABF0DDCFACF0030E00019A27000E9B2315
:101950000001ACAF11D0AAC04CF0ABC04DF0ACC090
:101960004EF0BEEC33F04CC0AAF04DC0ABF04EC010
:10197000ACF0030E00019C13000E0001A56F000ED9
:10198000A46F0001AA510001AB110001AC11D8B441
:1019900091D0820E0001916FFF0E0001926FAAC0DC
:1019A00093F0ABC094F0ACC095F0ADC096F0100EC3
:1019B00006D00001D8909633953394339333E82EB4
:1019C000F8D700019351000191250001A46F000E8A
:1019D000000192210001A56F0001A407D8A0A5076E
:1019E000A4C00FF0A5C010F0000E126E030E116E11
:1019F00099EC33F00FC0A4F010C0A5F0A4C007F01C
:101A0000A5C008F0000E0A6E0A0E096EF2EC2DF069
:101A100007C0A4F008C0A5F00001A5AF04D00001E4
:101A2000A407D8A0A5070001A4510008BAEC15F03E
:101A300024C0A6F025C0A7F026C0A8F0A6C015F0C7
:101A4000A7C016F0A8C017F0AAC018F0ABC019F0D4
:101A5000ACC01AF0A1EC28F015C0A6F016C0A7F093
:101A600017C0A8F0A6C00DF0A7C00EF0A8C00FF0D8
:101A7000000E106E800E116E3F0E126ED7EC2CF021
:101A8000D8B005D00001A407D8A0A50713D0A6C0E0
:101A90000DF0A7C00EF0A8C00FF0000E106E200EC3
:101AA000116E410E126ED7EC2CF0D8A003D00001BD
:101AB000A44BA52B00019FBF08D000019F511DE141
:101AC0000D0E00019E5DD8B018D0AAC04FF0ABC07B
:101AD00050F0ACC051F000019E519CEC1DF024C0B0
:101AE00052F025C053F026C054F0BFEC1EF04FC09A
:101AF000AAF050C0ABF051C0ACF00001A5BF08D0B7
:101B00000001A55126E10A0E0001A45DD8B021D044
:101B10000001AA510001AB110001AC11D8B45BD097
:101B2000AAC02BF0ABC02CF0ACC02DF01BEC29F000
:101B30002B502C102D102E10D8A44DD00001A5BF75
:101B40004AD00001A55105E1020E0001A45DD8A014
:101B500042D0A6C00DF0A7C00EF0A8C00FF0700EC6
:101B6000106E890E116E400E126ED7EC2CF0D8B0AC
:101B700003D00001F70E02D00001F80EA427FF0EDB
:101B8000A5230001A451BAEC15F024C0A6F025C08D
:101B9000A7F026C0A8F0AAC001F0ABC002F0ACC00C
:101BA00003F0A6C004F0A7C005F0A8C006F0D3EC6F
:101BB00025F001C0A0F002C0A1F003C0A2F004C053
:101BC000A3F0000E0001AA6F000E0001AB6F000E23
:101BD0000001AC6F33D0AAC02BF0ABC02CF0ACC06E
:101BE0002DF01BEC29F02BC0A0F02CC0A1F02DC0D3
:101BF000A2F02EC0A3F0AAC060F0ABC061F0ACC0F0
:101C000062F0A0C009F0A1C00AF0A2C00BF0A3C00E
:101C10000CF077EC31F009C063F00AC064F00BC03F
:101C200065F0F4EC31F060C0AAF061C0ABF062C0C6
:101C3000ACF0000E0001A56F000EA46F010E0001B4
:101C4000AD6F0A0E0001AD19D8B41ED00001AD5120
:101C5000040D010EF324F66E100EF420F76E090049
:101C6000F5500001A05D0900F5500001A1590900DF
:101C7000F5500001A2590900F5500001A359D8A060
:101C800003D00001AD2BDDD7030E00019C15000130
:101C9000916F000E00019D150001926F000191519E
:101CA00000019211D8B44AD02D0E6BEC34F046D01E
:101CB000A0C001F0A1C002F0A2C003F0A3C004F0D4
:101CC0000001AD51040D010EF324F66E100EF42048
:101CD000F76E0900F5CF05F00900F5CF06F0090011
:101CE000F5CF07F00A00F5CF08F034EC2EF001C074
:101CF000A6F002C0A7F003C0A8F004C0A9F0A6C0D7
:101D00000EF0A7C00FF0A8C010F0A9C011F00A0E85
:101D1000126E000E136E000E146E000E156E83EC24
:101D200030F00EC0A6F00FC0A7F010C0A8F011C090
:101D3000A9F00001A651300F6BEC34F00001AD07A3
:101D40000001AD29D8B408D0B3D7300E6BEC34F015
:101D50000001A407D8A0A5070001A5BF07D0000176
:101D6000A551F3E10001A405D8B0EFD700019FBF52
:101D70000CD000019F5105E1090E00019E5DD8A025
:101D800004D0080E0001AD6F02D09EC0ADF000017E
:101D9000AD5100019E5F000E0001ADBFFF0E0001BE
:101DA0009F5B0001AD510001D8B403D02E0E6BEC47
:101DB00034F00001AD51BAEC15F024C097F025C005
:101DC00098F026C099F0AAC018F0ABC019F0ACC0CA
:101DD0001AF097C015F098C016F099C017F0A1EC52
:101DE00028F015C02BF016C02CF017C02DF01BECFE
:101DF00029F02BC0A0F02CC0A1F02DC0A2F02EC065
:101E0000A3F06DD0A0C001F0A1C002F0A2C003F009
:101E1000A3C004F00001AD51040D010EF324F66ED1
:101E2000100EF420F76E0900F5CF05F00900F5CF8C
:101E300006F00900F5CF07F00A00F5CF08F034EC02
:101E40002EF001C0A6F002C0A7F003C0A8F004C0A5
:101E5000A9F0A6C00EF0A7C00FF0A8C010F0A9C04E
:101E600011F00A0E126E000E136E000E146E000EAC
:101E7000156E83EC30F00EC0A6F00FC0A7F010C0B6
:101E8000A8F011C0A9F00001A651300F6BEC34F09E
:101E9000A0C00EF0A1C00FF0A2C010F0A3C011F0BE
:101EA0000001AD51040D010EF324F66E100EF42066
:101EB000F76E0900F5CF12F00900F5CF13F0090015
:101EC000F5CF14F00A00F5CF15F083EC30F00EC01A
:101ED000A0F00FC0A1F010C0A2F011C0A3F000014B
:101EE000AD070001AD29D8B408D08CD7300E6BEC0B
:101EF00034F000019E07D8A09F0700019E51000109
:101F00009F11D8B4B2D0F2D79AC0D9FF9BC0DAFFE4
:101F1000DECFA0F0DDCFA1F00001000EA1BFFF0ECB
:101F2000A26FA36F020E00019A27000E9B230001EF
:101F3000A3AF0CD0030E00019C130001A31FA21F2E
:101F4000A11FA06D000EA123A223A323010E000157
:101F5000AD6F0A0E0001AD19D8B41ED00001AD510D
:101F6000040D010EF324F66E100EF420F76E090036
:101F7000F5500001A05D0900F5500001A1590900CC
:101F8000F5500001A2590900F5500001A359D8A04D
:101F900003D00001AD2BDDD7030E00019C1500011D
:101FA000916F000E00019D150001926F000191518B
:101FB00000019211D8B403D02D0E6BEC34F0000167
:101FC000AD5100019E6F9F6B9EBF9F0743D09EC087
:101FD00091F09FC092F00001D890913792370001A4
:101FE000D89091379237010E00019125F66E100EB0
:101FF0009221F76E0900F5CF05F00900F5CF06F044
:102000000900F5CF07F00A00F5CF08F0A0C001F0F5
:10201000A1C002F0A2C003F0A3C004F034EC2EF083
:1020200001C00EF002C00FF003C010F004C011F0A8
:102030000A0E126E000E136E000E146E000E156E58
:1020400083EC30F00E50300F0001AD6F0001AD5148
:102050006BEC34F000019E07D8A09F0700019E2979
:10206000B6E100019F29D8A4B2D788C0F6FF89C085
:10207000F7FF0001884B892B0800F5CFADF0000178
:10208000AD51D8B4120020D4000E0001796FA00E1B
:1020900000017A6F400E00017B6F330E0001766FF6
:1020A000530E0001776F400E0001786FF00E0001B3
:1020B0007C6F3F0E00017D6F400E00017E6FC00EF1
:1020C00000017F6F8F0E0001806F450E0001816F50
:1020D000900E0001826F8E0E0001836F450E00018D
:1020E000846F000E00018B6F4D0E00018C6F440E4B
:1020F00000018D6F330E186E530E196E400E1A6E5E
:1021000028EC33F005C009F006C00AF0BDEC32F04F
:1021100009C015F00AC016F00BC017F0A1EC28F0AA
:1021200015C060F016C061F017C062F0000E00012B
:10213000636F800E0001646F440E0001656FF8EC60
:1021400023F060C091F061C092F062C093F091C042
:1021500060F092C061F093C062F079C063F07AC021
:1021600064F07BC065F0F8EC23F060C091F061C0D2
:1021700092F062C093F07FC052F080C053F081C0F3
:1021800054F08BC04FF08CC050F08DC051F0BFECBC
:102190001EF04FC063F050C064F051C065F08BC0BA
:1021A00060F08CC061F08DC062F0F8EC23F060C08C
:1021B00085F061C086F062C087F07CC063F07DC0AE
:1021C00064F07EC065F091C060F092C061F093C091
:1021D00062F0F8EC23F060C04FF061C050F062C0D4
:1021E00051F085C052F086C053F087C054F0BFEC68
:1021F0001EF04FC08EF050C08FF051C090F08EC0D6
:1022000018F08FC019F090C01AF082C015F083C08A
:1022100016F084C017F0A1EC28F015C060F016C0CD
:1022200061F017C062F0000E526E800E536E3F0ECA
:10223000546E8EC04CF08FC04DF090C04EF0BEEC8E
:1022400033F04CC04FF04DC050F04EC051F0BFECD9
:102250001EF04FC063F050C064F051C065F0F8EC60
:1022600023F060C09AF061C09BF062C09CF09AC0FD
:102270000DF09BC00EF09CC00FF0DA0E106EE30E56
:10228000116E440E126ED7EC2CF0D8A05BD0720EFB
:102290000001636FCF0E0001646F450E0001656F92
:1022A0009AC060F09BC061F09CC062F0F8EC23F033
:1022B00060C06DF061C06EF062C06FF03DEC32F056
:1022C0006DC094F06EC095F06FC096F02B0E0001BB
:1022D0006D6F750E00016E6F3F0E00016F6F3DEC6C
:1022E00032F06DC063F06EC064F06FC065F0000E38
:1022F000186E800E196EBF0E1A6E94C015F095C040
:1023000016F096C017F0A1EC28F015C060F016C0CA
:1023100061F017C062F0F8EC23F060C097F061C084
:1023200098F062C099F097C015F098C016F099C067
:1023300017F0000E186E800E196EBF0E1A6EA1EC0B
:1023400028F0ABD19AC00DF09BC00EF09CC00FF0EE
:10235000A30E106EB80E116E440E126ED7EC2CF058
:10236000D8A05BD01C0E0001636FC80E0001646F23
:10237000450E0001656F9AC060F09BC061F09CC083
:1023800062F0F8EC23F060C06DF061C06EF062C0E6
:102390006FF03DEC32F06DC094F06EC095F06FC000
:1023A00096F0760E00016D6F750E00016E6F3F0E98
:1023B00000016F6F3DEC32F06DC063F06EC064F0F1
:1023C0006FC065F0000E186E800E196EBF0E1A6E8B
:1023D00094C015F095C016F096C017F0A1EC28F047
:1023E00015C060F016C061F017C062F0F8EC23F081
:1023F00060C097F061C098F062C099F097C015F086
:1024000098C016F099C017F0000E186E800E196E65
:10241000BF0E1A6EA1EC28F040D19AC00DF09BC0FF
:102420000EF09CC00FF09A0E106E960E116E440EB8
:10243000126ED7EC2CF0D8A05BD0300E0001636F89
:10244000BF0E0001646F450E0001656F9AC060F019
:102450009BC061F09CC062F0F8EC23F060C06DF0AE
:1024600061C06EF062C06FF03DEC32F06DC094F070
:102470006EC095F06FC096F0C80E00016D6F750EBE
:1024800000016E6F3F0E00016F6F3DEC32F06DC0CA
:1024900063F06EC064F06FC065F0000E186E800EC1
:1024A000196EBF0E1A6E94C015F095C016F096C046
:1024B00017F0A1EC28F015C060F016C061F017C04D
:1024C00062F0F8EC23F060C097F061C098F062C051
:1024D00099F097C015F098C016F099C017F0000E4B
:1024E000186E800E196EBF0E1A6EA1EC28F0D5D0B2
:1024F0009AC00DF09BC00EF09CC00FF0060E106E3F
:10250000770E116E440E126ED7EC2CF0D8A05BD073
:10251000190E0001636FB70E0001646F450E0001D4
:10252000656F9AC060F09BC061F09CC062F0F8ECEF
:1025300023F060C06DF061C06EF062C06FF03DECE2
:1025400032F06DC094F06EC095F06FC096F00C0E36
:1025500000016D6F760E00016E6F3F0E00016F6F10
:102560003DEC32F06DC063F06EC064F06FC065F09A
:10257000000E186E800E196EBF0E1A6E94C015F004
:1025800095C016F096C017F0A1EC28F015C060F0C9
:1025900016C061F017C062F0F8EC23F060C097F04D
:1025A00061C098F062C099F097C015F098C016F01D
:1025B00099C017F0000E186E800E196EBF0E1A6EBD
:1025C000A1EC28F06AD09AC00DF09BC00EF09CC020
:1025D0000FF0ED0E106E4A0E116E440E126ED7EC17
:1025E0002CF0D8A060D0400E0001636FAE0E000149
:1025F000646F450E0001656F9AC060F09BC061F08A
:102600009CC062F0F8EC23F060C06DF061C06EF029
:1026100062C06FF03DEC32F06DC094F06EC095F08A
:102620006FC096F0510E00016D6F760E00016E6F57
:102630003F0E00016F6F3DEC32F06DC063F06EC075
:1026400064F06FC065F0000E186E800E196EBF0E3C
:102650001A6E94C015F095C016F096C017F0A1EC54
:1026600028F015C060F016C061F017C062F0F8ECF9
:1026700023F060C097F061C098F062C099F097C0F5
:1026800015F098C016F099C017F0000E186E800E65
:10269000196EBF0E1A6EA1EC28F015C088F016C096
:1026A00089F017C08AF088C0DFF089C0E0F08AC0E6
:1026B000E1F0000E0001736F800E0001746F3F0E99
:1026C0000001756F12000201A76F0201A7AF2AD1A6
:1026D0000201A76D0201A751800A120FD8A0ACD049
:1026E000000E02018F6F030E8E6F000E0201876FC6
:1026F0000A0E866F000E0201816F640E806F020168
:10270000A75102017E6F7F6B7EBF7F0739EC2CF0F3
:102710007EC284F27FC285F2C8EC2AF0090E020163
:10272000842502018C6F000E0201852102018D6F4C
:10273000D9EC32F0290E02018C25F66E100E020142
:102740008D21F76E0900F5CF95F20900F5CF96F2CD
:102750000A00F5CF97F2000E0201876F640E866FB4
:102760000201A7510201846F856B84BF8507C8EC05
:102770002AF0120E0201842502018C6F000E020164
:10278000852102018D6F000E02018F6F030E8E6F87
:10279000D9EC32F0290E02018C25F66E100E0201E2
:1027A0008D21F76E0900F5CF92F20900F5CF93F273
:1027B0000A00F5CF94F2FCEC21F092C2A4F293C28D
:1027C000A5F294C2A6F2A4C292F2A5C293F2A6C246
:1027D00094F2000E02018F6F030E8E6F000E020145
:1027E000816F0A0E806F0201A75102017E6F7F6B1D
:1027F0007EBF7F0739EC2CF07EC28CF27FC28DF257
:10280000D9EC32F0290E02018C25F66E100E020171
:102810008D21F76E0900F5CF95F20900F5CF96F2FC
:102820000A00F5CF97F2FCEC21F092C2A1F293C21C
:10283000A2F294C2A3F212000201A751800A750FFE
:10284000D8A05DD0000E0201876F0A0E866F0201CC
:10285000A7510201846F856B84BF8507C8EC2AF0FD
:10286000090E0201842502018C6F000E02018521F0
:1028700002018D6F000E02018F6F030E8E6FD9EC77
:1028800032F0290E02018C25F66E100E02018D2108
:10289000F76E0900F5CF92F20900F5CF93F20A0026
:1028A000F5CF94F2000E02018F6F030E8E6F000EB3
:1028B0000201816F0A0E806F0201A75102017E6F33
:1028C0007F6B7EBF7F0739EC2CF07EC28CF27FC21B
:1028D0008DF2D9EC32F0290E02018C25F66E100E25
:1028E00002018D21F76E0900F5CF95F20900F5CFB1
:1028F00096F20A00F5CF97F2FCEC21F096D7020190
:10290000A751030D290EF324F66E100EF420F76E76
:102910000900F5CFA1F20900F5CFA2F20A00F5CF28
:10292000A3F212000201A751800A120FD8A0ACD066
:10293000000E02018F6F030E8E6F000E0201876F73
:102940000A0E866F000E0201816F640E806F020115
:10295000A75102017E6F7F6B7EBF7F0739EC2CF0A1
:102960007EC284F27FC285F2C8EC2AF0090E020111
:10297000842502018C6F000E0201852102018D6FFA
:10298000D9EC32F0500E02018C25F66E100E0201C9
:102990008D21F76E0900F5CF95F20900F5CF96F27B
:1029A0000A00F5CF97F2000E0201876F640E866F62
:1029B0000201A7510201846F856B84BF8507C8ECB3
:1029C0002AF0120E0201842502018C6F000E020112
:1029D000852102018D6F000E02018F6F030E8E6F35
:1029E000D9EC32F0500E02018C25F66E100E020169
:1029F0008D21F76E0900F5CF92F20900F5CF93F221
:102A00000A00F5CF94F2FCEC21F092C2A4F293C23A
:102A1000A5F294C2A6F2A4C292F2A5C293F2A6C2F3
:102A200094F2000E02018F6F030E8E6F000E0201F2
:102A3000816F0A0E806F0201A75102017E6F7F6BCA
:102A40007EBF7F0739EC2CF07EC28CF27FC28DF204
:102A5000D9EC32F0500E02018C25F66E100E0201F8
:102A60008D21F76E0900F5CF95F20900F5CF96F2AA
:102A70000A00F5CF97F2FCEC21F092C2A1F293C2CA
:102A8000A2F294C2A3F212000201A751800A750FAC
:102A9000D8A05DD0000E0201876F0A0E866F02017A
:102AA000A7510201846F856B84BF8507C8EC2AF0AB
:102AB000090E0201842502018C6F000E020185219E
:102AC00002018D6F000E02018F6F030E8E6FD9EC25
:102AD00032F0500E02018C25F66E100E02018D218F
:102AE000F76E0900F5CF92F20900F5CF93F20A00D4
:102AF000F5CF94F2000E02018F6F030E8E6F000E61
:102B00000201816F0A0E806F0201A75102017E6FE0
:102B10007F6B7EBF7F0739EC2CF07EC28CF27FC2C8
:102B20008DF2D9EC32F0500E02018C25F66E100EAB
:102B300002018D21F76E0900F5CF95F20900F5CF5E
:102B400096F20A00F5CF97F2FCEC21F096D702013D
:102B5000A751030D500EF324F66E100EF420F76EFD
:102B60000900F5CFA1F20900F5CFA2F20A00F5CFD6
:102B7000A3F212002A6E2AAEFBD02A6C2A50800AD9
:102B8000120FD8A091D0000E126E030E116E000E1F
:102B90000A6E0A0E096E000E046E640E036E2A5051
:102BA000016E026A01BE0206E1EC2FF001C007F0DF
:102BB00002C008F0F2EC2DF0090E07240F6E000E93
:102BC0000820106E99EC33F0290E0F24F66E100ECB
:102BD0001020F76E0900F5CF18F00900F5CF19F0B5
:102BE0000A00F5CF1AF0000E0A6E640E096E2A5024
:102BF000076E086A07BE0806F2EC2DF0120E0724D5
:102C00000F6E000E0820106E000E126E030E116E75
:102C100099EC33F0290E0F24F66E100E1020F76E8B
:102C20000900F5CF15F00900F5CF16F00A00F5CF31
:102C300017F0A1EC28F015C027F016C028F017C037
:102C400029F027C015F028C016F029C017F0000E93
:102C5000126E030E116E000E046E0A0E036E2A50E1
:102C6000016E026A01BE0206E1EC2FF001C00FF016
:102C700002C010F099EC33F0290E0F24F66E100EFE
:102C80001020F76E0900F5CF18F00900F5CF19F004
:102C90000A00F5CF1AF0A1EC28F015C024F016C0F8
:102CA00025F017C026F012002A50800A750FD8A010
:102CB0004DD0000E0A6E0A0E096E2A50076E086A81
:102CC00007BE0806F2EC2DF0090E07240F6E000E69
:102CD0000820106E000E126E030E116E99EC33F088
:102CE000290E0F24F66E100E1020F76E0900F5CF96
:102CF00015F00900F5CF16F00A00F5CF17F0000E19
:102D0000126E030E116E000E046E0A0E036E2A5030
:102D1000016E026A01BE0206E1EC2FF001C00FF065
:102D200002C010F099EC33F0290E0F24F66E100E4D
:102D30001020F76E0900F5CF18F00900F5CF19F053
:102D40000A00F5CF1AF0A1EC28F0A7D72A50030DFE
:102D5000290EF324F66E100EF420F76E0900F5CF5D
:102D600024F00900F5CF25F00A00F5CF26F0120077
:102D70002A50800A120FD8A091D0000E126E030EB6
:102D8000116E000E0A6E0A0E096E000E046E640EBD
:102D9000036E2A50016E026A01BE0206E1EC2FF0BA
:102DA00001C007F002C008F0F2EC2DF0090E072474
:102DB0000F6E000E0820106E99EC33F0500E0F24A9
:102DC000F66E100E1020F76E0900F5CF18F009000E
:102DD000F5CF19F00A00F5CF1AF0000E0A6E640E56
:102DE000096E2A50076E086A07BE0806F2EC2DF03D
:102DF000120E07240F6E000E0820106E000E126EC9
:102E0000030E116E99EC33F0500E0F24F66E100E77
:102E10001020F76E0900F5CF15F00900F5CF16F078
:102E20000A00F5CF17F0A1EC28F015C027F016C066
:102E300028F017C029F027C015F028C016F029C0C7
:102E400017F0000E126E030E116E000E046E0A0EC5
:102E5000036E2A50016E026A01BE0206E1EC2FF0F9
:102E600001C00FF002C010F099EC33F0500E0F24A7
:102E7000F66E100E1020F76E0900F5CF18F009005D
:102E8000F5CF19F00A00F5CF1AF0A1EC28F015C023
:102E900024F016C025F017C026F012002A50800A30
:102EA000750FD8A04DD0000E0A6E0A0E096E2A507A
:102EB000076E086A07BE0806F2EC2DF0090E07241B
:102EC0000F6E000E0820106E000E126E030E116EB3
:102ED00099EC33F0500E0F24F66E100E1020F76EA2
:102EE0000900F5CF15F00900F5CF16F00A00F5CF6F
:102EF00017F0000E126E030E116E000E046E0A0E15
:102F0000036E2A50016E026A01BE0206E1EC2FF048
:102F100001C00FF002C010F099EC33F0500E0F24F6
:102F2000F66E100E1020F76E0900F5CF18F00900AC
:102F3000F5CF19F00A00F5CF1AF0A1EC28F0A7D7C9
:102F40002A50030D500EF324F66E100EF420F76E87
:102F50000900F5CF24F00900F5CF25F00A00F5CFE0
:102F600026F01200000E0101D56F000ED46F000E86
:102F70000101D26F000E0101D36F21EEE4F011EEDA
:102F8000C8F0090EDBCFE3FFE806FCE2000E01010A
:102F9000DB6F000EDA6F000E0101DC6F000E010125
:102FA000E16F000E0101E36F000EE26F000E010100
:102FB000D76F000ED66F000E0101D96F000EE8CF5B
:102FC000ACFA000E0101E36F010EE26FE80E0101A1
:102FD000E25D030E0101E359D8B048D0AC0E010107
:102FE000E225D96E0A0E0101E321DA6EE2C13AF060
:102FF000E3C13BF0D8903A363B36020E3A26000E3B
:103000003B22DC0E3A24E16E020E3B20E26EE6CF5C
:103010003CF0E5CF3DF0FE0E3E6EFF0E3F6EE2C18E
:1030200040F0E3C141F0D890403641363E50402652
:103030003F504122DC0E4024E16E020E4120E26E40
:10304000E6CF42F0E5CF43F0421E431E424A432AF8
:103050003C504224016E3D504320026E72EC33F02E
:103060000150DF6E0101E24BE32BB0D7000E0101EE
:10307000E36F000EE26F0101E35113E11F0E010146
:10308000E25DD8B00ED0AC0E0101E225D96E0A0E79
:103090000101E321DA6E000EDF6E0101E24BE32B4A
:1030A000EAD7000E0101DE6F000EDD6F0101DEBF09
:1030B00008D0E80E0101DD5D030E0101DE59D8B034
:1030C00023D0AC0E0101DD25D96E0A0E0101DE21EF
:1030D000DA6EDF503A6E3A500101D65D000ED759D4
:1030E000D8B00ED0AC0E0101DD25D96E0A0E01015B
:1030F000DE21DA6EDF503A6E3A500101D66FD76B9F
:103100000101DD4BDE2BD2D7330E186E330E196E54
:103110003F0E1A6ED6C109F0D7C10AF0ACEC33F0FD
:1031200009C015F00AC016F00BC017F0A1EC28F08A
:1031300015C02BF016C02CF017C02DF01BEC29F099
:103140002BC0EEF12CC0EFF1000E0101E06F000E7C
:10315000DF6F0101E0BF08D0E90E0101DF5D030E62
:103160000101E059D8B09ED0AC0E0101DF25D96E27
:103170000A0E0101E021DA6EDF503A6E3A50010189
:10318000EE5D000EEF59D8B079D00101D95101019F
:10319000D8A474D0AC0E0101DF25D96E0A0E01014E
:1031A000E021DA6EDF503A6E3B6A0101E151020D17
:1031B000140EF326000EF422000EF324D96E010E35
:1031C000F420DA6E3AC0DEFF3BC0DDFF0101E151C1
:1031D000020D280EF326000EF422000EF324D96E01
:1031E000010EF420DA6EDFC1DEFFE0C1DDFF010178
:1031F000E1510101D8B43DD00101E151020D280E89
:10320000F326000EF422000EF324D96E010EF420F2
:10321000DA6EDECF3AF0DDCF3BF00101E1513C6EDA
:103220003D6AD8903C363D36260E3C26000E3D22A7
:10323000000E3C24D96E010E3D20DA6EDECF3EF04A
:10324000DDCF3FF03E1E3F1E3E4A3F2A3A503E260B
:103250003B503F220101DC51020DC80EF324D96E10
:10326000010EF420DA6E3EC0DEFF3FC0DDFF01013B
:10327000DC2B0101E12B010E0101D96F0101D90500
:10328000D8A40CD01E0E0101D36506D0000E01019A
:10329000D96F000E0101D36F0101D32B0101DF4B68
:1032A000E02B57D7000E0101D86F19D00101D8517A
:1032B000020DC80EF324D96E010EF420DA6EDECFB3
:1032C0003AF0DDCF3BF00101DA513A240101DA6F27
:1032D0000101DB513B200101DB6F0101D82B010112
:1032E000DC510101D85DD8A0E1D7DAC107F0DBC11C
:1032F00008F0DCC109F00A6AF2EC2DF007C0DAF13F
:1033000008C0DBF13A0E026E980E016EDAC103F0CE
:10331000DBC104F0A5EC31F001C0D4F102C0D5F15D
:10332000D4C1D2F10101D4511200000E0001706F1E
:10333000200E0001716F410E0001726F20EECBF084
:1033400010EE74F0080EDBCFE3FFE806FCE2000E9F
:1033500000016F6F000E6E6F41D000EC27F074C05B
:103360004FF075C050F076C051F0C2C052F0C3C0EB
:1033700053F0C4C054F0BFEC1EF04FC074F050C006
:1033800075F051C076F077C04FF078C050F079C03A
:1033900051F0C5C052F0C6C053F0C7C054F0BFECE6
:1033A0001EF04FC077F050C078F051C079F07AC06D
:1033B0004FF07BC050F07CC051F0C8C052F0C9C083
:1033C00053F0CAC054F0BFEC1EF04FC07AF050C0AA
:1033D0007BF051C07CF000016E4B6F2B6EC009F08A
:1033E0006FC00AF0BDEC32F009C00DF00AC00EF05B
:1033F0000BC00FF070C010F071C011F072C012F06D
:10340000D7EC2CF0D8A0A9D7000E00017E6F000EDB
:103410007D6F00017EBF08D000017E513DE1030EAB
:1034200000017D5DD8B038D07DC00FF07EC010F0B7
:10343000000E126E030E116E99EC33F0740E0F2411
:10344000D96E000E1020DA6E7DC00FF07EC010F035
:10345000000E126E030E116E99EC33F0740E0F24F1
:10346000E16E000E1020E26EE6CF60F0E6CF61F074
:10347000E5CF62F070C063F071C064F072C065F0B7
:10348000F8EC23F060C0DEFF61C0DEFF62C0DEFF4B
:1034900000017D4B7E2BBDD774C05BF075C05CF026
:1034A00076C05DF067EC2DF05BC07FF05CC080F013
:1034B0005DC081F077C05BF078C05CF079C05DF0F2
:1034C00067EC2DF05BC082F05CC083F05DC084F0DF
:1034D0007AC05BF07BC05CF07CC05DF067EC2DF0E7
:1034E0005BC085F05CC086F05DC087F0000E000117
:1034F000736F00017F510001801100018111D8A478
:1035000015D0000182510001831100018411D8A45B
:103510000DD0800E0001861909E13F0E00018719C8
:1035200000018511D8A402D0010E75D000017F5191
:103530000001801100018111D8A415D00001825131
:103540000001831100018411D8A40DD0800E000168
:10355000861909E1BF0E0001871900018511D8A461
:1035600002D0020E58D000017F51000180110001ED
:103570008111D8A415D0800E0001831911E1BF0E6E
:103580000001841900018211D8A40AD000018551DC
:103590000001861100018711D8A402D0030E3BD090
:1035A00000017F510001801100018111D8A415D0C4
:1035B000800E0001831911E13F0E00018419000102
:1035C0008211D8A40AD000018551000186110001A2
:1035D0008711D8A402D0040E1ED0800E00018019DD
:1035E00019E1BF0E0001811900017F11D8A412D08A
:1035F000000182510001831100018411D8A40AD076
:10360000000185510001861100018711D8A402D064
:10361000050E01D0000E0001736F73C06CF0000145
:103620006D6B12000201AA6F6D0E0201AA65BAD07D
:10363000000E02018F6F030E8E6F000E0201876F66
:103640000A0E866F000E0201816F640E806FAAC29F
:103650007EF202017F6B39EC2CF07EC284F27FC2D5
:1036600085F2C8EC2AF0090E0201842502018C6F54
:10367000000E0201852102018D6FD9EC32F0290E76
:1036800002018C25F66E100E02018D21F76E0900E5
:10369000F5CF95F20900F5CF96F20A00F5CF97F233
:1036A000000E0201876F640E866FAAC284F20201C7
:1036B000856BC8EC2AF0120E0201842502018C6F82
:1036C000000E0201852102018D6F000E02018F6F35
:1036D000030E8E6FD9EC32F0290E02018C25F66EA6
:1036E000100E02018D21F76E0900F5CF92F209004C
:1036F000F5CF93F20A00F5CF94F2FCEC21F092C2E0
:10370000A7F293C2A8F294C2A9F2000E02018F6F31
:10371000030E8E6F000E0201816F0A0E806FAAC227
:103720007EF202017F6B39EC2CF07EC28CF27FC2FC
:103730008DF2D9EC32F0290E02018C25F66E100EB6
:1037400002018D21F76E0900F5CF95F20900F5CF42
:1037500096F20A00F5CF97F2A7C292F2A8C293F2AE
:10376000A9C294F2FCEC21F092C2A4F293C2A5F299
:1037700094C2A6F2A4C292F2A5C293F2A6C294F297
:10378000000E0201956F000E0201966F3F0E0201BE
:10379000976FFCEC21F092C2A1F293C2A2F294C204
:1037A000A3F212000A0E0201AA656ED0000E0201F9
:1037B0008F6F030E8E6F000E0201816F0A0E806FF5
:1037C000AAC27EF202017F6B39EC2CF07EC28CF231
:1037D0007FC28DF2D9EC32F0290E02018C25F66EF3
:1037E000100E02018D21F76E0900F5CF95F2090048
:1037F000F5CF96F20A00F5CF97F2000E0201876F1F
:103800000A0E866FAAC284F20201856BC8EC2AF008
:10381000090E0201842502018C6F000E0201852130
:1038200002018D6F000E02018F6F030E8E6FD9ECB7
:1038300032F0290E02018C25F66E100E02018D2148
:10384000F76E0900F5CF92F20900F5CF93F20A0066
:10385000F5CF94F2FCEC21F092C2A7F293C2A8F249
:1038600094C2A9F2A7C292F2A8C293F2A9C294F29A
:10387000000E0201956F000E0201966F3F0E0201CD
:10388000976FFCEC21F087D70201AA51030D290E96
:10389000F324F66E100EF420F76E0900F5CF92F2C5
:1038A0000900F5CF93F20A00F5CF94F2000E020161
:1038B000956F000E0201966F3F0E0201976FFCECB0
:1038C00021F092C2A1F293C2A2F294C2A3F212001A
:1038D000ADC2B1F20201B26BB36B0201AC350201B1
:1038E000B13701E3B2810201B1510201B66FB0C23A
:1038F000B1F20201B26BB36B0201AF350201B13715
:1039000001E3B2810201B1510201B56F0201B6516A
:103910000201D8B411D00201B5510201B65DD8B090
:1039200012D00201B65100080201B5250201B16FA3
:10393000180E0201B16507D0AEC2ABF2AFC2ACF255
:10394000B0C2ADF212000201B5510201D8B411D0DB
:103950000201B6510201B55DD8B012D00201B551D5
:1039600000080201B6250201B16F180E0201B1650F
:1039700007D0ABC2ABF2ACC2ACF2ADC2ADF212003A
:10398000060E0201B46F0201ADAF02D00201B48F86
:103990000201B0AF02D00201B48D0201AC8FFF0E64
:1039A0000201AB17FF0E0201AC17000E0201AD17AA
:1039B0000201AF8FFF0E0201AE17FF0E0201AF171B
:1039C000000E0201B0170201B5510201B65DD8B078
:1039D00025D00201D890AE37AF37B0370201B50716
:1039E0000201B6510201B519D8B411D00201B407D1
:1039F000B4C2B1F2070E0201B117D8B408D0E9D7AA
:103A00000201D890AD33AC33AB330201B62B0201C7
:103A1000B5510201B619D8B42BD0F2D70201B65174
:103A20000201B55DD8B024D00201D890AB37AC37D5
:103A3000AD370201B6070201B6510201B519D8B47B
:103A400011D00201B407B4C2B1F2070E0201B117DE
:103A5000D8B408D0E9D70201D890B033AF33AE3331
:103A60000201B52B0201B5510201B619D8A4F3D752
:103A70000201B4AF12D0FF0E0201AB1BFF0E020118
:103A8000AC1BFF0E0201AD1B010E0201AB27000EA5
:103A90000201AC23000E0201AD230201B4AD12D02D
:103AA000FF0E0201AE1BFF0E0201AF1BFF0E020153
:103AB000B01B010E0201AE27000E0201AF23000E63
:103AC0000201B023000E0201B46F0201AB510201EA
:103AD000AE270201AC510201AF230201AD51020138
:103AE000B0230201B0AF15D0FF0E0201AE1BFF0ED6
:103AF0000201AF1BFF0E0201B01B010E0201AE2737
:103B0000000E0201AF23000E0201B023010E0201DC
:103B1000B46FAEC27EF2AFC27FF2B0C280F2B6C264
:103B200081F2B4C282F21BEC28F07EC2ABF27FC2FB
:103B3000ACF280C2ADF212002D6E6D0E2D649FD0DE
:103B4000000E126E030E116E000E0A6E0A0E096E42
:103B5000000E046E640E036E2DC001F0026AE1ECEB
:103B60002FF001C007F002C008F0F2EC2DF0090EB2
:103B700007240F6E000E0820106E99EC33F0290E0A
:103B80000F24F66E100E1020F76E0900F5CF18F016
:103B90000900F5CF19F00A00F5CF1AF0000E0A6EF1
:103BA000640E096E2DC007F0086AF2EC2DF0120EBB
:103BB00007240F6E000E0820106E000E126E030E0A
:103BC000116E99EC33F0290E0F24F66E100E1020B2
:103BD000F76E0900F5CF15F00900F5CF16F00A00D1
:103BE000F5CF17F0A1EC28F015C02AF016C02BF085
:103BF00017C02CF0000E126E030E116E000E046E34
:103C00000A0E036E2DC001F0026AE1EC2FF001C034
:103C10000FF002C010F099EC33F0290E0F24F66E6D
:103C2000100E1020F76E0900F5CF18F00900F5CF3F
:103C300019F00A00F5CF1AF02AC015F02BC016F0C3
:103C40002CC017F0A1EC28F015C027F016C028F002
:103C500017C029F027C015F028C016F029C017F0AA
:103C6000000E186E000E196E3F0E1A6EA1EC28F0B1
:103C700015C024F016C025F017C026F012000A0E59
:103C80002D645DD0000E126E030E116E000E046ED8
:103C90000A0E036E2DC001F0026AE1EC2FF001C0A4
:103CA0000FF002C010F099EC33F0290E0F24F66EDD
:103CB000100E1020F76E0900F5CF18F00900F5CFAF
:103CC00019F00A00F5CF1AF0000E0A6E0A0E096EFE
:103CD0002DC007F0086AF2EC2DF0090E07240F6ED4
:103CE000000E0820106E000E126E030E116E99EC7D
:103CF00033F0290E0F24F66E100E1020F76E090017
:103D0000F5CF15F00900F5CF16F00A00F5CF17F042
:103D1000A1EC28F015C02AF016C02BF017C02CF02B
:103D20002AC015F02BC016F02CC017F0000E186E2C
:103D3000000E196E3F0E1A6EA1EC28F099D72D5087
:103D4000030D290EF324F66E100EF420F76E090011
:103D5000F5CF15F00900F5CF16F00A00F5CF17F0F2
:103D6000000E186E000E196E3F0E1A6EA1EC28F0B0
:103D700015C024F016C025F017C026F0120051C05F
:103D800055F0566A576A5034553601E356805550FF
:103D90005A6E54C055F0566A576A5334553601E38B
:103DA00056805550596E5A50D8B40BD059505A5C61
:103DB000D8B00ED05A5000085924556E180E5564CC
:103DC00007D052C04FF053C050F054C051F0120011
:103DD0005950D8B40BD05A50595CD8B00ED0595065
:103DE00000085A24556E180E556407D04FC04FF086
:103DF00050C050F051C051F01200060E586E51BE26
:103E0000588E54BE588C508EFF0E4F16FF0E501613
:103E1000000E5116538EFF0E5216FF0E5316000E53
:103E2000541659505A5CD8B01BD0D89052365336DD
:103E3000543659065A505918D8B40DD0580658C09F
:103E400055F0070E5516D8B406D0EFD7D89051329A
:103E500050324F325A2A59505A18D8B41FD0F6D778
:103E60005A50595CD8B01AD0D8904F365036513687
:103E70005A065A505918D8B40DD0580658C055F0A3
:103E8000070E5516D8B406D0EFD7D8905432533217
:103E90005232592A59505A18D8A4F7D758AE0CD0D4
:103EA000FF0E4F1AFF0E501AFF0E511A010E4F2629
:103EB000000E5022000E512258AC0CD0FF0E521AA8
:103EC000FF0E531AFF0E541A010E5226000E5322F3
:103ED000000E5422000E586E4F505226505053225E
:103EE0005150542254AE0ED0FF0E521AFF0E531AE8
:103EF000FF0E541A010E5226000E5322000E5422B9
:103F0000010E586E52C001F053C002F054C003F0CD
:103F10005AC004F058C005F0E2EC2BF001C04FF09D
:103F200002C050F003C051F0120002018A6F000E6F
:103F30000201896FC580C5B0FED702018A518A256A
:103F400002018A6FC9CF89F202018A51FE0BF4EC9B
:103F50002EF002018C6F02018C29D8A403D0C9CFA6
:103F600089F2C69E02018C510201D8A4EDD7000E41
:103F700002018C6FC7A404D00201826B822B02D095
:103F80000201826BC5501F0B020182110009D8A4E7
:103F9000F1D702018051F4EC2EF002018C6F020186
:103FA0008C29D8A403D0C9CF89F2C69E02018C51B6
:103FB0000201D8A4EED7000E02018C6FC7A404D072
:103FC0000201826B822B02D00201826BC5501F0B53
:103FD000020182110009D8A4F1D7C582C5B2FED76B
:103FE000C9CF89F202018A510109F4EC2EF00201D5
:103FF0008C6F02018C29D8A403D0C9CF89F2C69E48
:1040000002018C510201D8A4EDD7000E02018C6F81
:10401000C7A404D00201826B822B02D00201826B02
:10402000C5501F0B020182110009D8A4F1D7000E60
:1040300002018B6F000E02018B6F41D002018B5188
:10404000010D710EF324D96E020EF420DA6EF0EC3D
:1040500033F0DF6EFF0E0201826FFF0E0201836FED
:10406000020181510201846F856B020182510201BC
:104070008427020183510201852302018B51020131
:10408000866F876B020184510201865D02018751B0
:10409000800A0201886F02018551800A0201885955
:1040A000D8B005D0C59AC588C5A807D0FDD7C58AA0
:1040B000C588C5B8FED7C5B8FED702018B2B020153
:1040C000815102018B5DD8A0B9D7C584C5A4120067
:1040D000FDD780C284F20201856B866B02017F35B9
:1040E0000201843701E385810201845102018C6F52
:1040F00002018C51D8A40AD0000E02017E6F000E7E
:104100007F6F000E806F000E816F120083C284F2F9
:104110000201856B866B020182350201843701E35F
:1041200085810201845102018B6F02018B51D8A459
:104130000AD0000E02017E6F000E7F6F000E806FAE
:10414000000E816F120002017F8FFF0E02017E17A9
:10415000FF0E02017F17000E020180170201828FFD
:10416000FF0E02018117FF0E02018217000E0201ED
:104170008317000E0201876F000E886F000E896F93
:10418000000E8A6F7F0E02018C5F02018B51980F27
:1041900002018C5F180E02018B6F0201D8908737E5
:1041A000883789378A370201815102017E5D020119
:1041B000825102017F590201835102018059D8A026
:1041C0000ED00201815102017E5F02018251020183
:1041D0007F5B020183510201805B02018781020142
:1041E000D8907E377F37803702018B2FD6D70201D8
:1041F0008CAF1AD002018C51800A970FD8B00AD028
:10420000000E02017E6F000E7F6F000E806F000EA9
:10421000816F12000201D8908A3389338833873343
:1042200002018C3FF7D71BD0170E02018C6512D00C
:10423000000E02017E6F000E7F6F000E806F000E79
:10424000816F12000201D8908737883789378A3703
:1042500002018C0702018C510201D8A4F3D787C256
:104260007EF288C27FF289C280F28AC281F2120095
:104270000201803581350201896F02018951D8A47C
:104280000AD0000E02017E6F000E7F6F000E806F5D
:10429000000E816F12000201833584350201886FA0
:1042A00002018851D8A40AD0000E02017E6F000ED0
:1042B0007F6F000E806F000E816F12000201808FF1
:1042C000FF0E02017E17FF0E7F17FF0E8017000EF4
:1042D00081170201838FFF0E02018117FF0E8217E3
:1042E000FF0E8317000E8417000E0201846F000E6C
:1042F000856F000E866F000E876F7F0E0201895F4B
:1043000002018851A00F0201895F200E0201886F0F
:104310000201D8908437853786378737020181516B
:1043200002017E5D0201825102017F590201835127
:10433000020180590201845102018159D8A012D092
:104340000201815102017E5F0201825102017F5B05
:10435000020183510201805B020184510201815BF1
:10436000020184810201D8907E377F378037813700
:104370000201882FCDD7020189AF1AD002018951DD
:10438000800A9F0FD8B00AD0000E02017E6F000E87
:104390007F6F000E806F000E816F12000201D890B7
:1043A00087338633853384330201893FF7D71BD0A7
:1043B0001F0E0201896512D0000E02017E6F000EF1
:1043C0007F6F000E806F000E816F12000201D89087
:1043D000843785378637873702018907020189517B
:1043E0000201D8A4F3D784C27EF285C27FF286C2CE
:1043F00080F287C281F2120094C298F20201996B96
:104400009A6B020193350201983701E39981020109
:10441000985102019B6F02019B51D8A40AD0000E53
:104420000201926F000E0201936F000E0201946F61
:10443000120097C298F20201996B9A6B02019635AD
:104440000201983701E39981020198510201A06F9E
:104450000201A051D8A40AD0000E0201926F000EF2
:104460000201936F000E0201946F12000201A0512D
:104470007B0F02019B2794C2A0F202019751020117
:10448000A01B800E0201A0170201938F0201968FDC
:10449000FF0E02019517FF0E02019617000E020192
:1044A0009717000E02019C6F000E02019D6F000E17
:1044B00002019E6F070E02019F6F020192A10CD0B4
:1044C0000201955102019C270201965102019D2390
:1044D0000201975102019E230201D8909433933335
:1044E00092330201D89095379637973702019F2F64
:1044F000E4D7090E02019F6F020192A10CD00201C4
:10450000955102019C270201965102019D2302014F
:10451000975102019E230201D89094339333923332
:104520000201D8909E339D339C3302019F2FE4D724
:104530009CC27EF29DC27FF29EC280F29BC281F23B
:10454000A0C282F21BEC28F07EC292F27FC293F2EC
:1045500080C294F21200000E0001B06F41EC33F003
:1045600005C0B1F006C0B2F0D8900001F035D96EA8
:104570000001F135DA6EDC0ED926020EDA22B1C066
:10458000DEFFB2C0DDFFE80E0001F05D030E0001AA
:10459000F159D8A00FD0B2EC17F00001F26F000172
:1045A000F251D8A4F2C0F5F0000E0001F16F000E38
:1045B000F06F03D00001F04BF12B0001FF51010D12
:1045C000000EF324D96E020EF420DA6EB1C001F0B1
:1045D000B2C002F0000E046E010E036EE0EC33F088
:1045E000DF6E0001FF510001AE6FAF6B010E0001E5
:1045F000AE27000EAF23000E0001AE25D96E020ECD
:104600000001AF21DA6EB1C001F0B2C002F0000EBD
:10461000046E020E036EE0EC33F0DF6E0001FF511A
:10462000020F0001FF6F650E0001FF6512004D0EC5
:104630000201006FFBC001F2000E0001B06F650EB9
:104640000001B06501D006D0020E0001FF6F00012D
:10465000B02BF5D70001FB2BFD0E0001FB651ED032
:10466000000E0001FB6F44EC10F0920E0001886F09
:10467000100E0001896FDFC08AF0E0C08BF0E1C04E
:104680008CF0F5C08DF000018E6B95EC19F06CC0CC
:104690008FF06DC090F05DEC0CF012007F0E000109
:1046A000FB19D8A4120044EC10F01200AAC2ACF21C
:1046B0000201AD6BAE6B0201A9350201AC3701E31B
:1046C000AD810201AC510201B66F0201B651D8A40E
:1046D0000AD0000E0201A86F000EA96F000EAA6F8B
:1046E000000EAB6F1200170E0201AC6FA8C2ADF244
:1046F000A9C2AEF2AAC2AFF20201AC290201B06FA8
:1047000005D00201D890AF33AE33AD330201B02FE4
:10471000F8D70201AD510201B16F0201A98FFF0E5E
:104720000201A817FF0E0201A917000E0201AA1725
:104730000201A8510201B26F0201A9510201B36F37
:104740000201AA510201B46F0201B56B8E0E020183
:10475000B65F0201B6AF1AD00201B651800A8F0FC0
:10476000D8B00AD0000E0201A86F000EA96F000E8B
:10477000AA6F000EAB6F12000201D890B533B433AC
:10478000B333B2330201B63FF7D71BD0170E020185
:10479000B66512D0000E0201A86F000EA96F000EC0
:1047A000AA6F000EAB6F12000201D890B237B33778
:1047B000B437B5370201B6070201B6510201D8A4D9
:1047C000F3D70201B1510201D8B409D00201B51FDB
:1047D000B41FB31FB26D000EB323B423B523B2C20E
:1047E000A8F2B3C2A9F2B4C2AAF2B5C2ABF21200E7
:1047F00062C05BF05C6A5D6A000161355B3601E3B3
:104800005C805B5000016A6F00016A51D8A40AD035
:10481000000E0001606F000E0001616F000E0001CC
:10482000626F120065C05BF05C6A5D6A000164350E
:104830005B3601E35C805B5000016B6F00016B51E4
:10484000D8A40AD0000E0001606F000E0001616F55
:10485000000E0001626F1200000E0001676F000E73
:104860000001686F000E0001696F00016B51890F34
:1048700000016A5F62C06BF00001655100016B1BB3
:10488000800E00016B170001618FFF0E00016017A1
:10489000FF0E00016117000E000162170001648F16
:1048A000FF0E00016317FF0E00016417000E0001E8
:1048B0006517180E0001666F0001D89067376837DA
:1048C0006937000163510001605D0001645100011E
:1048D00061590001655100016259D8A00ED0000154
:1048E00063510001605F000164510001615B0001E0
:1048F00065510001625B000167810001D89060375B
:10490000613762370001662FD7D767C001F068C0F2
:1049100002F069C003F06AC004F06BC005F0E2EC7D
:104920002BF001C060F002C061F003C062F0120021
:104930000C6E000E0D6EC580C5B0FED70C500C2459
:104940000C6EC9CF0DF00C50FE0BA8EC2FF00F6EC3
:104950000F28D8A403D0C9CF0DF0C69E0F50D8A4FD
:10496000F2D7000E0F6EC7A403D0056A052A01D046
:10497000056AC5501F0B05100009D8A4F4D70350D1
:10498000A8EC2FF00F6E0F28D8A403D0C9CF0DF0DC
:10499000C69E0F50D8A4F3D7000E0F6EC7A403D045
:1049A000056A052A01D0056AC5501F0B05100009CC
:1049B000D8A4F4D7C582C5B2FED7C9CF0DF00C502C
:1049C0000109A8EC2FF00F6E0F28D8A403D0C9CF8F
:1049D0000DF0C69E0F50D8A4F2D7000E0F6EC7A4DC
:1049E00003D0056A052A01D0056AC5501F0B0510C2
:1049F0000009D8A4F4D7000E0E6E000E0E6E2FD054
:104A00000E50010D710EF324D96E020EF420DA6EF1
:104A1000FEEC33F0DF6EFF0E056EFF0E066E0450E7
:104A2000076E086A05500726065008220E50096EC8
:104A30000A6A0750095C0A50800A0B6E0850800A07
:104A40000B58D8B005D0C59AC588C5A807D0FDD7E2
:104A5000C58AC588C5B8FED7C5B8FED70E2A04508A
:104A60000E5CD8A0CDD7C584C5A41200FDD7000127
:104A70006CAF0FD0000E0001EF6F210EEE6F000E35
:104A800000016A6F000E00016B6F000E00016C6F79
:104A9000120000016A5100016B1100016C11D8A4D1
:104AA0000FD0000E0001EF6F220EEE6F000E00011E
:104AB0006A6F000E00016B6F000E00016C6F120038
:104AC000000E186E000E196E400E1A6E5D0E046E0A
:104AD000000E056E6AC001F06BC002F06CC003F0FE
:104AE0001FEC2DF001C015F002C016F003C017F046
:104AF000A1EC28F015C04FF016C050F017C051F0CF
:104B0000000E526E800E536EBF0E546EBFEC1EF040
:104B10004FC06AF050C06BF051C06CF05D06D8A079
:104B20005E066AC060F06BC061F06CC062F0770E28
:104B30000001636F100E0001646F000E0001666FCC
:104B4000080E656F95EC29F060C06AF061C06BF0EB
:104B500062C06CF0720E186E310E196E3F0E1A6E36
:104B60005DC009F05EC00AF0BDEC32F009C015F07E
:104B70000AC016F00BC017F0A1EC28F015C04FF0DA
:104B800016C050F017C051F06AC052F06BC053F01D
:104B90006CC054F0BFEC1EF04FC06AF050C06BF018
:104BA00051C06CF0120003C007F0086A096A0234B1
:104BB000073601E3088007500F6E0F50D8A409D0C4
:104BC000000E016E000E026E000E036E000E046EEB
:104BD000120006C007F0086A096A0534073601E3C7
:104BE000088007500E6E0E50D8A409D0000E016E3A
:104BF000000E026E000E036E000E046E1200028E96
:104C0000FF0E0116FF0E0216000E0316058EFF0E94
:104C10000416FF0E0516000E0616000E0A6E000E94
:104C20000B6E000E0C6E000E0D6E7F0E0F5E0E50A2
:104C3000980F0F5E180E0E6ED8900A360B360C3693
:104C40000D360450015C0550025806500358D8A098
:104C500007D00450015E0550025A0650035A0A80DC
:104C6000D8900136023603360E2EE6D70FAE16D098
:104C70000F50800A970FD8B009D0000E016E000EB9
:104C8000026E000E036E000E046E1200D8900D32FC
:104C90000C320B320A320F3EF9D715D0170E0F64C3
:104CA0000FD0000E016E000E026E000E036E000E9D
:104CB000046E1200D8900A360B360C360D360F06ED
:104CC0000F50D8A4F7D70AC001F00BC002F00CC0F7
:104CD00003F00DC004F01200033404340C6E0C50C9
:104CE000D8A409D0000E016E000E026E000E036EF5
:104CF000000E046E1200063407340B6E0B50D8A45D
:104D000009D0000E016E000E026E000E036E000E42
:104D1000046E1200038EFF0E0116FF0E0216FF0E28
:104D20000316000E0416068EFF0E0416FF0E05165F
:104D3000FF0E0616000E0716000E076E000E086E18
:104D4000000E096E000E0A6E7F0E0C5E0B50A00F57
:104D50000C5E200E0B6ED8900736083609360A36E0
:104D60000450015C0550025806500358075004587F
:104D7000D8A009D00450015E0550025A0650035ACB
:104D80000750045A0780D89001360236033604369D
:104D90000B2EE1D70CAE16D00C50800A9F0FD8B066
:104DA00009D0000E016E000E026E000E036E000EA2
:104DB000046E1200D8900A320932083207320C3ED3
:104DC000F9D715D01F0E0C640FD0000E016E000E27
:104DD000026E000E036E000E046E1200D8900736AD
:104DE000083609360A360C060C50D8A4F7D707C087
:104DF00001F008C002F009C003F00AC004F012007C
:104E0000AEEC2DF068C24CF069C24DF06AC24EF0B3
:104E1000BEEC33F04CC052F04DC053F04EC054F0D5
:104E200077C209F078C20AF0BDEC32F009C04FF049
:104E30000AC050F00BC051F0BFEC1EF04FC015F08F
:104E400050C016F051C017F09A0E186E790E196EF8
:104E50003B0E1A6EA1EC28F015C0C2F016C0C3F0CC
:104E600017C0C4F06BC24CF06CC24DF06DC24EF076
:104E7000BEEC33F04CC052F04DC053F04EC054F075
:104E800079C209F07AC20AF0BDEC32F009C04FF0E5
:104E90000AC050F00BC051F0BFEC1EF04FC015F02F
:104EA00050C016F051C017F09A0E186E790E196E98
:104EB0003B0E1A6EA1EC28F015C0C5F016C0C6F066
:104EC00017C0C7F06EC24CF06FC24DF070C24EF00A
:104ED000BEEC33F04CC052F04DC053F04EC054F015
:104EE0007BC209F07CC20AF0BDEC32F009C04FF081
:104EF0000AC050F00BC051F0BFEC1EF04FC015F0CF
:104F000050C016F051C017F09A0E186E790E196E37
:104F10003B0E1A6EA1EC28F015C0C8F016C0C9F0FF
:104F200017C0CAF012000201846F000E0201836FE5
:104F3000C580C5B0FED70201845184250201846F6B
:104F4000C9CF83F202018451FE0BF4EC2EF0020172
:104F5000856F02018529D8A403D0C9CF83F2C69EEC
:104F6000020185510201D8A4EDD7000E0201856F20
:104F7000C7A404D00201826B822B02D00201826B93
:104F8000C5501F0B020182110009D8A4F1D70201FC
:104F90008051F4EC2EF00201856F02018529D8A41E
:104FA00003D0C9CF83F2C69E020185510201D8A465
:104FB000EED7000E0201856FC7A404D00201826BF8
:104FC000822B02D00201826BC5501F0B020182119D
:104FD0000009D8A4F1D7C9CF83F202018151F4ECC2
:104FE0002EF00201856F02018529D8A403D0C9CF14
:104FF00083F2C69E020185510201D8A4EED7000EAD
:105000000201856FC7A404D00201826B822B02D0FB
:105010000201826BC5501F0B020182110009D8A446
:10502000F1D7C58AC588C5B8FED7C5B8FED7C5842F
:10503000C5A41200FDD7020181510201D8B408D0E5
:1050400002017E5102017F1102018011D8A411D00A
:10505000000E02017E6F000E02017F6F000E020142
:10506000806F12000201812B0201D89080337F33C0
:105070007E33000E02017E150201836F000E0201D5
:105080007F150201846FFE0E020180150201856FFB
:10509000020183510201841102018511D8B411D09B
:1050A000E1D70201812B010E02017E27000E0201D1
:1050B0007F23000E020180230201D89080337F33CA
:1050C0007E33000E02017E150201836F000E020185
:1050D0007F150201846FFF0E020180150201856FAA
:1050E000020183510201841102018511D8B408D054
:1050F000D8D7020181070201D8907E377F378037E9
:1051000002017FBF04D0020E02018161F2D70201C9
:1051100081B102D002017F9F0201D8908133020148
:10512000815102018013020182510201D8B402D0E0
:105130000201808F7EC27EF27FC27FF280C280F247
:10514000120017C01BF01C6A1D6A16341B3601E3DF
:105150001C801B501E6E1E50D8A407D0000E156E6A
:10516000000E166E000E176E12001AC01BF01C6A9D
:105170001D6A19341B3601E31C801B50236E23501B
:10518000D8A407D0000E156E000E166E000E176E16
:10519000120023507B0F1E2617C023F01A50231A2B
:1051A000800E2316168E198EFF0E1816FF0E191676
:1051B000000E1A16000E1F6E000E206E000E216EDD
:1051C000070E226E15A006D018501F261950202257
:1051D0001A502122D890173216321532D89018362C
:1051E00019361A36222EEED7090E226E15A006D0D9
:1051F00018501F26195020221A502122D8901732F9
:1052000016321532D890213220321F32222EEED79C
:105210001FC001F020C002F021C003F01EC004F046
:1052200023C005F0E2EC2BF001C015F002C016F02F
:1052300003C017F012002DC02FF0306A316A2C34F1
:105240002F3601E330802F50396E3950D8A409D061
:10525000000E2B6E000E2C6E000E2D6E000E2E6EAC
:105260001200170E2F6E2BC030F02CC031F02DC065
:1052700032F02F28336E04D0D890323231323032AF
:10528000332EFAD73050346E2C8EFF0E2B16FF0EB5
:105290002C16000E2D162B50356E2C50366E2D50C0
:1052A000376E386A8E0E395E39AE16D03950800AA4
:1052B0008F0FD8B009D0000E2B6E000E2C6E000E92
:1052C0002D6E000E2E6E1200D890383237323632E4
:1052D0003532393EF9D715D0170E39640FD0000E8C
:1052E0002B6E000E2C6E000E2D6E000E2E6E120018
:1052F000D890353636363736383639063950D8A450
:10530000F7D73450D8B408D0381E371E361E356C47
:10531000000E36223722382235C02BF036C02CF052
:1053200037C02DF038C02EF0120065C00FF066C0F7
:1053300010F0000E126E030E116E99EC33F063C084
:105340005BF064C05CF00F505B2610505C225BC0C9
:10535000F6FF5CC0F7FF0900F5CF67F00900F5CF55
:1053600068F00A00F5CF69F03FD067C018F068C058
:1053700019F069C01AF060C015F061C016F062C083
:1053800017F0A1EC28F015C04FF016C050F017C070
:1053900051F0000E126E030E116E00016507D8A0C9
:1053A000660765C00FF066C010F099EC33F063C07B
:1053B0005BF064C05CF00F505B2610505C225BC059
:1053C000F6FF5CC0F7FF0900F5CF52F00900F5CFFA
:1053D00053F00A00F5CF54F0BFEC1EF04FC067F059
:1053E00050C068F051C069F00001655100016611BC
:1053F000D8A4BBD767C060F068C061F069C062F034
:105400001200020180AF1DD07EC284F27FC285F2FD
:1054100080C286F20201841F851F861F842B000E26
:1054200085238623000E0201842502017E6F000E73
:105430000201852102017F6F800E02018621020197
:10544000806F020183AF1DD081C284F282C285F2D7
:1054500083C286F20201841F851F861F842B000EE3
:1054600085238623000E020184250201816F000E30
:10547000020185210201826F800E02018621020154
:10548000836F000E02017E1B000E02017F1B800E47
:105490000201801B000E0201811B000E0201821B13
:1054A000800E0201831B0201815102017E5D020117
:1054B000825102017F590201835102018059D8B003
:1054C00002D0D8901200D880120020EED4F010EE56
:1054D000A5F0040EDBCFE3FFE806FCE29DC02BF055
:1054E0009EC02CF09FC02DF01BEC29F02B5000012A
:1054F000AA6F000E186EC80E196E420E1A6EAC0E10
:105500000001636F000E0001646F9DC060F09EC0DB
:1055100061F09FC062F06DEC2FF060C015F061C0CB
:1055200016F062C017F0A1EC28F015C0A2F016C06A
:10553000A3F017C0A4F0A2C02BF0A3C02CF0A4C00D
:105540002DF01BEC29F02B500001AB6FC70E0001B2
:10555000A56FAAC0A6F0ABC0A7F0A0C0A8F0A1C0DC
:10556000A9F0000E0001AF6F040E0001AF6501D07D
:1055700012000001AF51010DA50EF324D96E000EEB
:10558000F420DA6EDF506BEC34F00001AF2BECD777
:10559000000E0201896F020187AF08D00201866DFB
:1055A000871FD8B0872B010E0201896F020185AFDA
:1055B00008D00201846D851FD8B0852B010E020131
:1055C000891B000E02018B6F000E8A6F020186514B
:1055D00002018711D8B42CD0010E0201886F06D0C9
:1055E0000201D890863787370201882B020187AFE6
:1055F000F7D70201D8908A378B3702018651020112
:10560000845D0201875102018559D8A00AD00201A8
:1056100086510201845F020187510201855B02010C
:105620008A810201D890873386330201882FE1D71F
:10563000020189510201D8B405D002018A6D8B1F85
:10564000D8B08B2B8AC284F28BC285F21200000E76
:105650000201866F000E876F000E886F000E896F43
:10566000020182510201831102018411020185119C
:10567000D8B442D0010E02018A6F08D00201D8903E
:10568000823783378437853702018A2B020185AF41
:10569000F5D70201D89086378737883789370201D6
:1056A000825102017E5D0201835102017F59020194
:1056B0008451020180590201855102018159D8A00B
:1056C00012D00201825102017E5F02018351020168
:1056D0007F5B020184510201805B0201855102015E
:1056E000815B020186810201D89085338433833344
:1056F000823302018A2FCDD786C27EF287C27FF223
:1057000088C280F289C281F212002D0E0201806FE0
:10571000040E0201816F530E93EC27F0310E02014B
:10572000806F0B0E0201816F530E93EC27F02C0E4D
:105730000201806F0A0E0201816F530E93EC27F075
:105740002E0E0201806F000E0201816F530E93EC4A
:1057500027F0280E0201806F050E0201816F530EA3
:1057600093EC27F0290E0201806F140E0201816F65
:10577000530E93EC27F02F0E0201806F000E0201F2
:10578000816F530E93EC27F02E0E0201806F040EF2
:105790000201816F530E93EC27F02D0E0201806FF2
:1057A000080E0201816F530E93EC27F0000E0201E8
:1057B000806F010E0201816F530E95EC1FF0020104
:1057C000715112000450D8B405D0015002100310DA
:1057D000D8A40CD0000E016E000E026E000E036EF7
:1057E0001200042AD890033202320132000E011452
:1057F000066E000E0214076EFE0E0314086E0650AD
:1058000007100810D8B40CD0ECD7042A010E0126DA
:10581000000E0222000E0322D8900332023201321F
:10582000000E0114066E000E0214076EFF0E031424
:10583000086E065007100810D8B406D0E6D7040644
:10584000D89001360236033602BE03D0020E046041
:10585000F6D704A0029ED8900432045003120550DB
:10586000D8A4038E01C001F002C002F003C003F00F
:105870001200000E0201836F02017FAF08D0020107
:105880007E6D7F1FD8B07F2B010E0201836F020156
:1058900081AF05D00201806D811FD8B0812B02013C
:1058A000805102018111D8B426D0010E0201826F0D
:1058B00006D00201D890803781370201822B020185
:1058C00081AFF7D70201805102017E5D0201815153
:1058D00002017F59D8A008D00201805102017E5FE9
:1058E0000201815102017F5B0201D8908133803334
:1058F0000201822FE7D7020183510201D8B405D0FB
:1059000002017E6D7F1FD8B07F2B7EC27EF27FC2E8
:105910007FF2120002018F510201901102019111D8
:1059200002019211D8B43AD0010E0201936F08D04F
:105930000201D8908F379037913792370201932B1D
:10594000020192AFF5D702018F5102018B5D020176
:10595000905102018C590201915102018D590201AD
:10596000925102018E59D8A010D002018F5102012C
:105970008B5F0201905102018C5B02019151020187
:105980008D5B0201925102018E5B0201D89092332D
:10599000913390338F330201932FD5D78BC28BF283
:1059A0008CC28CF28DC28DF28EC28EF212000FAEBE
:1059B00016D00DC013F00EC014F00FC015F0131E5A
:1059C000141E151E132A000E14221522000E132475
:1059D0000D6E000E14200E6E800E15200F6E12AE8E
:1059E00016D010C013F011C014F012C015F0131E21
:1059F000141E151E132A000E14221522000E132445
:105A0000106E000E1420116E800E1520126E000E06
:105A10000D1A000E0E1A800E0F1A000E101A000E2C
:105A2000111A800E121A10500D5C11500E5812509F
:105A30000F58D8B002D0D8901200D8801200015070
:105A400002100310D8A40FD004C0D9FF05C0DAFF9C
:105A5000000EDE6E000EDD6E000E016E000E026E98
:105A6000000E036E120003507F0B066E076AD8907B
:105A70000636073604C0D9FF05C0DAFF06C0DEFFD0
:105A800007C0DDFF02AE03D0066A062A01D0066A0F
:105A9000065004C0D9FF05C0DAFFDE12000EDD1289
:105AA00004C0D9FF05C0DAFF820EDE26FF0EDD221C
:105AB00003800382038403860388038A039C029E77
:105AC00001C001F002C002F003C003F012005BC08D
:105AD00044F05CC045F05DC046F075EC2EF044C06B
:105AE0004CF045C04DF046C04EF0BEEC33F04CC01B
:105AF0004FF04DC050F04EC051F05BC052F05CC052
:105B000053F05DC054F0BFEC1EF04FC060F050C0C9
:105B100061F051C062F05BC04FF05CC050F05DC0FE
:105B200051F060C052F061C053F062C054F0BFEC5D
:105B30001EF04FC05BF050C05CF051C05DF05BC028
:105B400044F05CC045F05DC046F075EC2EF044C0FA
:105B50005BF045C05CF046C05DF01200320E036E93
:105B6000060E046E530E98EC24F071C201F002018F
:105B7000725119EC34F001C006F002C007F0000EBB
:105B8000096E100E086E19EC30F006C077F207C0EF
:105B900078F273C201F00201745119EC34F001C0C3
:105BA00006F002C007F0000E096E100E086E19EC28
:105BB00030F006C079F207C07AF275C201F0020136
:105BC000765119EC34F001C006F002C007F0000E67
:105BD000096E100E086E19EC30F006C07BF207C09B
:105BE0007CF21200000E0C6E0AAE06D0096C0A1E82
:105BF000D8B00A2A010E0C6E08AE06D0076C081E3B
:105C0000D8B0082A010E0C1A000E0E6E000E0D6E92
:105C100009500A10D8B41CD0010E0B6E04D0D890D5
:105C200009360A360B2A0AAEFAD7D8900D360E3648
:105C30000950075C0A500858D8A005D00950075EE3
:105C40000A50085A0D80D8900A3209320B2EEDD72F
:105C50000C50D8B404D00D6C0E1ED8B00E2A0DC056
:105C600007F00EC008F01200000E096E000E0A6E5A
:105C7000000E0B6E000E0C6E05500610071008107B
:105C8000D8B42AD0010E0D6E06D0D890053606364F
:105C9000073608360D2A08AEF8D7D89009360A36E6
:105CA0000B360C360550015C06500258075003585D
:105CB00008500458D8A009D00550015E0650025A79
:105CC0000750035A0850045A0980D8900832073206
:105CD000063205320D2EE1D709C001F00AC002F0EC
:105CE0000BC003F00CC004F0120044C001F045C02A
:105CF00002F046C003F04A0E046E000E056E1FEC63
:105D00002DF04BAE07D0000E446E000E456E000E17
:105D1000466E12004B5004E1150E4A5CD8A007D025
:105D200044C044F045C045F046C046F0120044C0AF
:105D30002BF045C02CF046C02DF01BEC29F02BC0F9
:105D40003AF02CC03BF02DC03CF02EC03DF031ECC1
:105D50002FF03AC047F03BC048F03CC049F047C084
:105D600044F048C045F049C046F012008E0E0201D2
:105D70008E6F08D00201D8908933883387338633F9
:105D800002018E2B000E0201861502018A6F000EA1
:105D90000201871502018B6F000E020188150201B6
:105DA0008C6FFF0E0201891502018D6F02018A516D
:105DB00002018B1102018C1102018D11D8A4DAD7D6
:105DC00086C27EF287C27FF288C280F28EC281F2E2
:105DD000000E0201826F1BEC28F07EC286F27FC2A9
:105DE00087F280C288F2120002017F6F7FC2C9FF72
:105DF000C6AE02D0FF0E1200C6500F0B080AD8B470
:105E00000FD0C6500F0B0B0AD8B40AD0C6889EA676
:105E1000FED7C7A4C7B002D0FE0E1200000E1200BB
:105E2000C6500F0B080AD8B405D0C6500F0B0B0A8A
:105E3000D8A41200C7B0FED7C7A404D002017E6B5D
:105E40007E2B02D002017E6BC5501F0B02017E111A
:105E50000009D8A4F1D7C5AC02D0FE0E1200000E86
:105E60001200000E436E8E0E426E3DAE11D03D1EEE
:105E70003C1E3B1E3A6C000E3B223C223D22010E92
:105E8000436E06D0D8903D323C323B323A32422A01
:105E9000000E3A143E6E000E3B143F6E000E3C1492
:105EA000406EFF0E3D14416E3E503F1040104110B9
:105EB000D8A4E8D73AC001F03BC002F03CC003F0E0
:105EC00042C004F043C005F0E2EC2BF001C03AF010
:105ED00002C03BF003C03CF0120060C02BF061C078
:105EE0002CF062C02DF01BEC29F02BC03AF02CC036
:105EF0003BF02DC03CF09EEC32F063C0D9FF64C093
:105F0000DAFF3AC0DEFF3BC0DEFF3CC0DEFF63C00D
:105F1000D9FF64C0DAFFDECF4CF0DECF4DF0DDCF2D
:105F20004EF0BEEC33F04CC04FF04DC050F04EC0C0
:105F300051F060C052F061C053F062C054F0BFEC49
:105F40001EF04FC060F050C061F051C062F012000E
:105F5000026E02C0C9FFC6AE02D0FF0E1200C650CC
:105F60000F0B080AD8B40FD0C6500F0B0B0AD8B4C9
:105F70000AD0C6889EA6FED7C7A4C7B002D0FE0E20
:105F80001200000E1200C6500F0B080AD8B405D03C
:105F9000C6500F0B0B0AD8A41200C7B0FED7C7A477
:105FA00003D0016A012A01D0016AC5501F0B0110FC
:105FB0000009D8A4F4D7C5AC02D0FE0E1200000E22
:105FC0001200000E066E02AE06D0016C021ED8B0A2
:105FD000022A010E066E04AE04D0036C041ED8B073
:105FE000042A03500410D8B418D0010E056E04D052
:105FF000D89003360436052A04AEFAD70350015C64
:1060000004500258D8A004D00350015E0450025A34
:10601000D89004320332052EF1D70650D8B404D0FC
:10602000016C021ED8B0022A01C001F002C002F0C9
:10603000120008C00AF0FF0E0A26010E0B6E000EB9
:106040000C6E0A2A03D0D8900B360C360A2EFBD7DA
:1060500006500B1607500C160B500C10D8B41BD062
:10606000000E0E6E000E0D6E061C0D6E071C0E6EE1
:10607000010E0D240D6E000E0E200E6E0DC00AF0E6
:106080000EC00BF00A1E0B1E0A4A0B2A0AC006F0AD
:106090000BC007F0120006C006F007C007F01200A0
:1060A00002EEDCF01BEEB8F0EE6AE550E150FCE1E8
:1060B000E250FAE102EE00F07E0EEE6AE806FDE143
:1060C00001EEE4F00C0EEE6AE806FDE100EEC2F02F
:1060D0003A0EEE6AE806FDE1F00EF66E680EF76E17
:1060E000000EF86E00EEFCF010EE04F00900F5CFA3
:1060F000EEFFE550E150FAE15F905F92000EF86E1E
:10610000000126EF34F01250131014101510D8B4FB
:1061100024D0010E166E06D0D890123613361436DF
:106120001536162A15AEF8D712500E5C13500F58BC
:106130001450105815501158D8A008D012500E5EA7
:1061400013500F5A1450105A1550115AD890153236
:10615000143213321232162EE7D70EC00EF00FC0D3
:106160000FF010C010F011C011F012000201826F88
:10617000000EC26E000EC16E000EC06E02017E5196
:106180007C0BC26E7FC2C1FF82C280F20201D89036
:1061900080370201D8908037380E0201801782C202
:1061A00081F20201813B0F0E8117070E0201811758
:1061B00002018251800B0201811102018011C06E27
:1061C00002017EAF03D09E9C9D8CF28CC280120097
:1061D0000201806F000EAC6E000EAB6E020180B14A
:1061E000AC88020180A302D0AC8CAB8C020180B5DC
:1061F000AC8E020180A702D0AB8801D0AB8A02012D
:1062000080B9AC84020180BBAB86020180AD02D0B4
:106210009D8A01D09D9A020180AF02D09D8801D055
:106220009D987EC2AFFF02017F51B06EAC8AAB8EEB
:1062300012000201836F11D0970E02017D6F850E4F
:106240000001E56FED0E07D0D70E02017D6F000E45
:106250000001E56FE50EE46F08D002018351010AE9
:10626000D8B4EAD7030AD8B4EFD7020183510201A8
:10627000D8A403D075EC34F0120002017D5186ECF5
:1062800033F0E4C07EF2E5C07FF245EC34F0F294E6
:1062900012000001E64BE72B0001E24BE32BE80E76
:1062A0000001E65D030E0001E759D8A007D0000108
:1062B000F92B000E0001E76F000EE66F040E0001DF
:1062C000E2190001E311D8A407D0ABEC22F0000ED4
:1062D0000001E36F000EE26F3C0E0001F919D8A433
:1062E00012000001F82B000E0001F96F12008E0E53
:1062F000116E06D0D8900C320B320A320932112AB4
:10630000000E09140D6E000E0A140E6E000E0B1412
:106310000F6EFF0E0C14106E0D500E100F1010109B
:10632000D8A4E8D709C001F00AC002F00BC003F0FE
:1063300011C004F0000E056EE2EC2BF001C009F074
:1063400002C00AF003C00BF01200000E066E000E31
:10635000056E03500410D8B41CD0010E076E04D093
:10636000D89003360436072A04AEFAD7D8900536FB
:1063700006360350015C04500258D8A005D00350E3
:10638000015E0450025A0580D89004320332072E71
:10639000EDD705C001F006C002F012000201BA51AB
:1063A0000201BB110201BC11D8B409D0000E0201D8
:1063B000BA1B000E0201BB1B800E0201BC1BB7C240
:1063C000ABF2B8C2ACF2B9C2ADF2BAC2AEF2BBC265
:1063D000AFF2BCC2B0F268EC1CF0ABC2B7F2ACC218
:1063E000B8F2ADC2B9F212000001635100016411AC
:1063F00000016511D8B409D0000E0001631B000E26
:106400000001641B800E0001651B60C04FF061C07D
:1064100050F062C051F063C052F064C053F065C0E8
:1064200054F0BFEC1EF04FC060F050C061F051C09E
:1064300062F01200000E0201836F000E0201826FF3
:10644000000E816F949C948E1C0E0201836F000ECF
:106450000201826F330E816F4F0EAB16AC9ACF0ED6
:106460009D1681C27EF282C27FF202018351E8EC66
:1064700030F09F8A9D8A9E9A12006DC06AF06EC0AD
:106480006BF06FC06CF037EC25F06AC070F06BC039
:1064900071F06CC072F070C015F071C016F072C06F
:1064A00017F05C0E186EDE0E196E3E0E1A6EA1EC21
:1064B00028F015C06DF016C06EF017C06FF0120016
:1064C0000F013A970F013A9994869488C69A000E64
:1064D00002017E6F080ED0EC33F0130EC86EC7A415
:1064E00004D00201806B802B02D00201806BC5506A
:1064F0001F0B020180110009D8B41200F0D7010E61
:106500000001FA6F82B604D00001B36BB32B02D046
:106510000001B36B0001B347B347B347825000019A
:10652000B319F70BB319826E49EC31F0E4C001F0F6
:10653000E5C002F04EEC34F0F2941200000E3D6E15
:106540003CAE08D03C1E3B1E3A6C000E3B223C2267
:10655000010E3D6E3AC001F03BC002F03CC003F0BA
:106560008E0E046E3DC005F0E2EC2BF001C03AF057
:1065700002C03BF003C03CF01200000E0C6E0AAEED
:1065800006D0096C0A1ED8B00A2A010E0C6E09C08A
:1065900001F00AC002F0036A8E0E046E0CC005F012
:1065A000E2EC2BF001C009F002C00AF003C00BF0CE
:1065B000120002018C5102018E03F3CF90F2F4CF4E
:1065C00091F202018C5102018F03F35002019127D5
:1065D00002018D5102018E03F3500201912790C2F6
:1065E0008CF291C28DF21200000E0201836F000E38
:1065F0000201846F000E0201856FA10E0201836FFC
:10660000270E0201846FFC0E0201856F84C27EF2A8
:1066100085C27FF202018351B6EC30F0120071ECBA
:1066200034F00CEC34F01AEC32F0000E0201826F00
:10663000020E19EC31F031EC34F0F4EC32F060EC95
:1066400032F085EC2BF002018D6FF28CF28E12008D
:10665000000E086E000E076EB70E3BEC34F07AECBD
:1066600034F065EC34F00009D8A4FBD75EEC34F0CC
:1066700001C007F002C008F007C005F008C006F02E
:106680001200000E086E000E076EAF0E3BEC34F0E9
:106690007AEC34F065EC34F00009D8A4FBD75EEC5A
:1066A00034F001C007F002C008F007C005F008C0D0
:1066B00006F0120002017E5102017F1102018011D9
:1066C000D8B409D0000E02017E1B000E02017F1B10
:1066D000800E0201801B7EC27EF27FC27FF280C2EA
:1066E00080F2120002AE0DD001C003F002C004F02F
:1066F000031E041E034A042A03C001F004C002F072
:10670000120001C001F002C002F0120002017E6F0F
:1067100002017E517F0BD56E000ED76E000ED66E35
:10672000F29402017EAF02D0F28A01D0F29AD58EA5
:1067300012000F501102F3CF13F0F4CF14F00F50EA
:106740001202F350142610501102F350142613C0F5
:106750000FF014C010F0120009C001F00AC002F0DE
:10676000036A8E0E046E000E056EE2EC2BF001C083
:1067700009F002C00AF003C00BF012004C504D109B
:106780004E10D8B406D0000E4C1A000E4D1A800ED2
:106790004E1A4CC04CF04DC04DF04EC04EF01200A1
:1067A00002017F6F3F0EC716000EC66E000EC56E4B
:1067B00002017F51C61202017E51C712C68A120021
:1067C000000E056E020E03180410D8B401C005F0C7
:1067D00003040410D8A402D00250056E0550120024
:1067E000C6500F0B080AD8B404D0C6500F0B0B0AC2
:1067F000D8B4C586C7A0FED7C9501200C6500F0B2B
:10680000080AD8B404D0C6500F0B0B0AD8B4C586FA
:10681000C7A0FED7C95012000F013A9594948294F4
:106820009296809693880F013989938A0F01398B4C
:106830001200056E015005C003F0046A03C004F0A5
:10684000036A0310016E0450026E12000FEC33F065
:10685000AE0E0201BD6F100E0201BE6F60EC08F0BB
:10686000FFD7F1949F8A9D8A9E9AF288F18CF19EBF
:10687000F28CF28E1200026E02C001F07C0E011644
:10688000C250830B0110C26E12007EC280F27FC222
:1068900081F281C2D7FF80C2D6FF120001C003F08F
:1068A00002C004F004C0D7FF03C0D6FF12000201EB
:1068B0007E6F9EA8FED77EC2ADFF1200C450036E4D
:1068C000C350016E03C002F01200C2A202D0010E3A
:1068D0001200000E1200016E9EA8FED701C0ADFF8F
:1068E0001200D388D38AD38C1200D59EF29A12005C
:0868F00000004002C282120008
:020000040020DA
:08000000FFFFFFFFFFFFFFFF00
:020000040030CA
:0E000000FF331F3CFFBF85FF0FC00FE00F4016
:00000001FF
