:040000005FEF00F0BE
:100008005F82FACFABF0FBCFACF0E9CFADF0EACF2F
:10001800AEF0E1CFAFF0E2CFB0F0D9CFB1F0DACFA8
:10002800B2F0F3CFB3F0F4CFB4F0F6CFB5F0F7CF2A
:10003800B6F0F8CFB7F0F5CFB8F0F2B41DEC1CF07D
:10004800A4BAA3AA01D0A49AF2A217D01FEC08F070
:1000580068C092F069C093F06AC094F0F2C095F05D
:10006800CA0E0001966F36EC16F0300E036E010EC4
:10007800046E530E8DEC11F0F292B8C0F5FFB7C0C4
:10008800F8FFB6C0F7FFB5C0F6FFB4C0F4FFB3C0C1
:10009800F3FFB2C0DAFFB1C0D9FFB0C0E2FFAFC012
:1000A800E1FFAEC0EAFFADC0E9FFACC0FBFFABC0EB
:0A00B800FAFF5F92110049EF1AF001
:101000000001000A006400E80310270000000080CF
:101010003FF0FFBEE2A93E8376BEAE2B3E3CC3BD91
:10102000D2133D78D3BB536D6172742053686972DB
:10103000742076312E300025640A0D000000000E69
:1010400000016E6FA00E00016F6F400E0001706F07
:10105000330E00016B6F530E00016C6F400E0001E8
:101060006D6FF00E0001716F3F0E0001726F400E48
:101070000001736FC00E0001746F8F0E0001756F59
:10108000450E0001766F900E0001776F8E0E000105
:10109000786F450E0001796F000E0001806F4D0ED4
:1010A0000001816F440E0001826F330E446E530EB7
:1010B000456E400E466EABEC1CF005C009F006C054
:1010C0000AF05BEC1CF009C041F00AC042F00BC012
:1010D00043F0E0EC14F041C050F042C051F043C086
:1010E00052F0000E536E800E546E440E556E5AEC44
:1010F00015F050C086F051C087F052C088F086C00D
:1011000050F087C051F088C052F06EC053F06FC0ED
:1011100054F070C055F05AEC15F050C086F051C034
:1011200087F052C088F074C033F075C034F076C0D8
:1011300035F080C030F081C031F082C032F08CECEC
:101140000EF030C053F031C054F032C055F080C0C2
:1011500050F081C051F082C052F05AEC15F050C0EE
:101160007AF051C07BF052C07CF071C053F072C075
:1011700054F073C055F086C050F087C051F088C05D
:1011800052F05AEC15F050C030F051C031F052C05E
:1011900032F07AC033F07BC034F07CC035F08CEC98
:1011A0000EF030C083F031C084F032C085F083C0CF
:1011B00044F084C045F085C046F077C041F078C067
:1011C00042F079C043F0E0EC14F041C050F042C06E
:1011D00051F043C052F0000E336E800E346E3F0E5D
:1011E000356E83C02DF084C02EF085C02FF017EC33
:1011F0001DF02DC030F02EC031F02FC032F08CEC3D
:101200000EF030C053F031C054F032C055F05AECFB
:1012100015F050C08FF051C090F052C091F08FC0C7
:101220000DF090C00EF091C00FF0DA0E106EE30ECC
:10123000116E440E126E93EC17F0D8A058D0720EB7
:10124000536ECF0E546E450E556E8FC050F090C049
:1012500051F091C052F05AEC15F050C062F051C0FC
:1012600063F052C064F0BAEC1BF062C089F063C056
:101270008AF064C08BF02B0E0001626F750E0001C6
:10128000636F3F0E0001646FBAEC1BF062C053F055
:1012900063C054F064C055F0000E446E800E456E7D
:1012A000BF0E466E89C041F08AC042F08BC043F049
:1012B000E0EC14F041C050F042C051F043C052F095
:1012C0005AEC15F050C08CF051C08DF052C08EF029
:1012D0008CC041F08DC042F08EC043F0000E446ED1
:1012E000800E456EBF0E466EE0EC14F09FD18FC0AD
:1012F0000DF090C00EF091C00FF0A30E106EB80E5E
:10130000116E440E126E93EC17F0D8A058D01C0E3C
:10131000536EC80E546E450E556E8FC050F090C07F
:1013200051F091C052F05AEC15F050C062F051C02B
:1013300063F052C064F0BAEC1BF062C089F063C085
:101340008AF064C08BF0760E0001626F750E0001AA
:10135000636F3F0E0001646FBAEC1BF062C053F084
:1013600063C054F064C055F0000E446E800E456EAC
:10137000BF0E466E89C041F08AC042F08BC043F078
:10138000E0EC14F041C050F042C051F043C052F0C4
:101390005AEC15F050C08CF051C08DF052C08EF058
:1013A0008CC041F08DC042F08EC043F0000E446E00
:1013B000800E456EBF0E466EE0EC14F037D18FC044
:1013C0000DF090C00EF091C00FF09A0E106E960EB8
:1013D000116E440E126E93EC17F0D8A058D0300E58
:1013E000536EBF0E546E450E556E8FC050F090C0B8
:1013F00051F091C052F05AEC15F050C062F051C05B
:1014000063F052C064F0BAEC1BF062C089F063C0B4
:101410008AF064C08BF0C80E0001626F750E000187
:10142000636F3F0E0001646FBAEC1BF062C053F0B3
:1014300063C054F064C055F0000E446E800E456EDB
:10144000BF0E466E89C041F08AC042F08BC043F0A7
:10145000E0EC14F041C050F042C051F043C052F0F3
:101460005AEC15F050C08CF051C08DF052C08EF087
:101470008CC041F08DC042F08EC043F0000E446E2F
:10148000800E456EBF0E466EE0EC14F0CFD08FC0DC
:101490000DF090C00EF091C00FF0060E106E770E9A
:1014A000116E440E126E93EC17F0D8A058D0190E9E
:1014B000536EB70E546E450E556E8FC050F090C0EF
:1014C00051F091C052F05AEC15F050C062F051C08A
:1014D00063F052C064F0BAEC1BF062C089F063C0E4
:1014E0008AF064C08BF00C0E0001626F760E000172
:1014F000636F3F0E0001646FBAEC1BF062C053F0E3
:1015000063C054F064C055F0000E446E800E456E0A
:10151000BF0E466E89C041F08AC042F08BC043F0D6
:10152000E0EC14F041C050F042C051F043C052F022
:101530005AEC15F050C08CF051C08DF052C08EF0B6
:101540008CC041F08DC042F08EC043F0000E446E5E
:10155000800E456EBF0E466EE0EC14F067D08FC073
:101560000DF090C00EF091C00FF0ED0E106E4A0E0F
:10157000116E440E126E93EC17F0D8A05DD0400EA1
:10158000536EAE0E546E450E556E8FC050F090C027
:1015900051F091C052F05AEC15F050C062F051C0B9
:1015A00063F052C064F0BAEC1BF062C089F063C013
:1015B0008AF064C08BF0510E0001626F760E00015C
:1015C000636F3F0E0001646FBAEC1BF062C053F012
:1015D00063C054F064C055F0000E446E800E456E3A
:1015E000BF0E466E89C041F08AC042F08BC043F006
:1015F000E0EC14F041C050F042C051F043C052F052
:101600005AEC15F050C08CF051C08DF052C08EF0E5
:101610008CC041F08DC042F08EC043F0000E446E8D
:10162000800E456EBF0E466EE0EC14F041C07DF0BA
:1016300042C07EF043C07FF07DC0DCF07EC0DDF0B4
:101640007FC0DEF0000E0001686F800E0001696F40
:101650003F0E00016A6F1200000E0101D56F000EEF
:10166000D46F000E0101D26F000E0101D36F21EE85
:10167000E4F011EEC8F0090EDBCFE3FFE806FCE270
:10168000000E0101DB6F000EDA6F000E0101DC6F4E
:10169000000E0101E16F000E0101E36F000EE26F29
:1016A000000E0101D76F000ED66F000E0101D96F39
:1016B000000EE8CF55FA000E0101E36F010EE26F54
:1016C000E80E0101E25D030E0101E359D8B048D0F4
:1016D000550E0101E225D96E0A0E0101E321DA6EF1
:1016E000E2C150F0E3C151F0D89050365136020EAD
:1016F0005026000E5122850E5024E16E020E51201C
:10170000E26EE6CF52F0E5CF53F0FE0E546EFF0EC0
:10171000556EE2C156F0E3C157F0D89056365736B1
:101720005450562655505722850E5624E16E020E0F
:101730005720E26EE6CF58F0E5CF59F0581E591EFB
:10174000584A592A52505824016E53505920026E5B
:10175000DDEC1CF00150DF6E0101E24BE32BB0D752
:10176000000E0101E36F000EE26F0101E35113E18E
:101770001F0E0101E25DD8B00ED0550E0101E22529
:10178000D96E0A0E0101E321DA6E000EDF6E01014F
:10179000E24BE32BEAD7000E0101DE6F000EDD6F96
:1017A0000101DEBF08D0E80E0101DD5D030E01017D
:1017B000DE59D8B023D0550E0101DD25D96E0A0EB1
:1017C0000101DE21DA6EDF50506E50500101D65D0E
:1017D000000ED759D8B00ED0550E0101DD25D96EB7
:1017E0000A0E0101DE21DA6EDF50506E5050010109
:1017F000D66FD76B0101DD4BDE2BD2D7330E446E93
:10180000330E456E3F0E466ED6C109F0D7C10AF0C1
:1018100029EC1DF009C041F00AC042F00BC043F0B2
:10182000E0EC14F041C00CF042C00DF043C00EF0EB
:1018300066EC14F00CC0F7F10DC0F8F1000E0101D8
:10184000E06F000EDF6F0101E0BF08D0E90E01017B
:10185000DF5D030E0101E059D8B09ED0550E0101A5
:10186000DF25D96E0A0E0101E021DA6EDF50506EDD
:1018700050500101F75D000EF859D8B079D0010140
:10188000D9510101D8A474D0550E0101DF25D96EBC
:101890000A0E0101E021DA6EDF50506E516A01013B
:1018A000E151020D140EF326000EF422000EF32473
:1018B000D96E010EF420DA6E50C0DEFF51C0DDFF9C
:1018C0000101E151020D280EF326000EF422000E54
:1018D000F324D96E010EF420DA6EDFC1DEFFE0C121
:1018E000DDFF0101E1510101D8B43DD00101E15119
:1018F000020D280EF326000EF422000EF324D96EFA
:10190000010EF420DA6EDECF50F0DDCF51F0010190
:10191000E151526E536AD89052365336260E5226F3
:10192000000E5322000E5224D96E010E5320DA6E9F
:10193000DECF54F0DDCF55F0541E551E544A552AC3
:1019400050505426515055220101DC51020DC80E51
:10195000F324D96E010EF420DA6E54C0DEFF55C0B8
:10196000DDFF0101DC2B0101E12B010E0101D96F2B
:101970000101D905D8A40CD01E0E0101D36506D0F3
:10198000000E0101D96F000E0101D36F0101D32BAD
:101990000101DF4BE02B57D7000E0101D86F19D0A2
:1019A0000101D851020DC80EF324D96E010EF420A6
:1019B000DA6EDECF50F0DDCF51F00101DA51502464
:1019C0000101DA6F0101DB5151200101DB6F0101DF
:1019D000D82B0101DC510101D85DD8A0E1D7DAC1D3
:1019E00001F0DBC102F0DCC103F0046A66EC18F020
:1019F00001C0DAF102C0DBF13A0E026E980E016E00
:101A0000DAC103F0DBC104F06EEC1BF001C0D4F1CD
:101A100002C0D5F1D4C1D2F10101D4511200000E9F
:101A20000001646F200E0001656F410E0001666FBA
:101A300021EEEEF010EE68F0080EDBCFE3FFE806D3
:101A4000FCE2000E0001636F000E626F41D02CECCF
:101A500012F068C030F069C031F06AC032F0B9C02D
:101A600033F0BAC034F0BBC035F08CEC0EF030C0AF
:101A700068F031C069F032C06AF06BC030F06CC001
:101A800031F06DC032F0BCC033F0BDC034F0BEC028
:101A900035F08CEC0EF030C06BF031C06CF032C021
:101AA0006DF06EC030F06FC031F070C032F0BFC06A
:101AB00033F0C0C034F0C1C035F08CEC0EF030C053
:101AC0006EF031C06FF032C070F00001624B632BDA
:101AD00062C009F063C00AF05BEC1CF009C00DF0B5
:101AE0000AC00EF00BC00FF064C010F065C011F01A
:101AF00066C012F093EC17F0D8A0A9D7000E000131
:101B0000726F000E716F000172BF08D00001725138
:101B10003DE1030E0001715DD8B038D071C001F015
:101B200072C002F0000E046E030E036E04EC1DF092
:101B3000680E0124D96E000E0220DA6E71C001F029
:101B400072C002F0000E046E030E036E04EC1DF072
:101B5000680E0124E16E000E0220E26EE6CF50F026
:101B6000E6CF51F0E5CF52F064C053F065C054F0B9
:101B700066C055F05AEC15F050C0DEFF51C0DEFFD4
:101B800052C0DEFF0001714B722BBDD768C03CF024
:101B900069C03DF06AC03EF0DBEC17F03CC073F06A
:101BA0003DC074F03EC075F06BC03CF06CC03DF0C1
:101BB0006DC03EF0DBEC17F03CC076F03DC077F036
:101BC0003EC078F06EC03CF06FC03DF070C03EF09B
:101BD000DBEC17F03CC079F03DC07AF03EC07BF002
:101BE000000E0001676F00017351000174110001C4
:101BF0007511D8A415D000017651000177110001AC
:101C00007811D8A40DD0800E00017A1909E13F0E99
:101C100000017B1900017911D8A402D0010E75D002
:101C2000000173510001741100017511D8A415D081
:101C3000000176510001771100017811D8A40DD070
:101C4000800E00017A1909E1BF0E00017B19000125
:101C50007911D8A402D0020E58D0000173510001AE
:101C6000741100017511D8A415D0800E00017719E8
:101C700011E1BF0E0001781900017611D8A40AD035
:101C80000001795100017A1100017B11D8A402D022
:101C9000030E3BD000017351000174110001751156
:101CA000D8A415D0800E0001771911E13F0E000174
:101CB000781900017611D8A40AD0000179510001E9
:101CC0007A1100017B11D8A402D0040E1ED0800E20
:101CD0000001741919E1BF0E00017519000173119B
:101CE000D8A412D0000176510001771100017811BB
:101CF000D8A40AD00001795100017A1100017B11AA
:101D0000D8A402D0050E01D0000E0001676F67C095
:101D100060F00001616B120032C036F0376A386A39
:101D20003134363601E3378036503B6E35C036F0FD
:101D3000376A386A3434363601E3378036503A6EC3
:101D40003B50D8B40BD03A503B5CD8B00ED03B508F
:101D500000083A24366E180E366407D033C030F0CF
:101D600034C031F035C032F012003A50D8B40BD044
:101D70003B503A5CD8B00ED03A5000083B24366E47
:101D8000180E366407D030C030F031C031F032C0A8
:101D900032F01200060E396E32BE398E35BE398CE5
:101DA000318EFF0E3016FF0E3116000E3216348EB5
:101DB000FF0E3316FF0E3416000E35163A503B5CFC
:101DC000D8B01BD0D8903336343635363A063B502F
:101DD0003A18D8B40DD0390639C036F0070E361689
:101DE000D8B406D0EFD7D8903232313230323B2AD5
:101DF0003A503B18D8B41FD0F6D73B503A5CD8B015
:101E00001AD0D8903036313632363B063B503A182D
:101E1000D8B40DD0390639C036F0070E3616D8B40E
:101E200006D0EFD7D8903532343233323A2A3A508E
:101E30003B18D8A4F7D739AE0CD0FF0E301AFF0EDE
:101E4000311AFF0E321A010E3026000E3122000E1A
:101E5000322239AC0CD0FF0E331AFF0E341AFF0EAB
:101E6000351A010E3326000E3422000E3522000EE4
:101E7000396E30503326315034223250352235AE4F
:101E80000ED0FF0E331AFF0E341AFF0E351A010E54
:101E90003326000E3422000E3522010E396E33C077
:101EA00001F034C002F035C003F03BC004F039C08B
:101EB00005F0F4EC16F001C030F002C031F003C0C0
:101EC00032F0120002017B6F000E02017A6FC580B2
:101ED000C5B0FED702017B517B2502017B6FC9CFC4
:101EE0007AF202017B51FE0BE9EC18F002017D6FE2
:101EF00002017D29D8A403D0C9CF7AF2C69E02017F
:101F00007D510201D8A4EDD7000E02017D6FC7A458
:101F100004D00201736B732B02D00201736BC550A6
:101F20001F0B020173110009D8A4F1D702017151EE
:101F3000E9EC18F002017D6F02017D29D8A403D0DD
:101F4000C9CF7AF2C69E02017D510201D8A4EED714
:101F5000000E02017D6FC7A404D00201736B732BC6
:101F600002D00201736BC5501F0B020173110009EF
:101F7000D8A4F1D7C582C5B2FED7C9CF7AF2020183
:101F80007B510109E9EC18F002017D6F02017D2906
:101F9000D8A403D0C9CF7AF2C69E02017D510201B6
:101FA000D8A4EDD7000E02017D6FC7A404D00201B2
:101FB000736B732B02D00201736BC5501F0B0201B0
:101FC00073110009D8A4F1D7000E02017C6F000E36
:101FD00002017C6F41D002017C51010D680EF32497
:101FE000D96E020EF420DA6E5BEC1DF0DF6EFF0E90
:101FF0000201736FFF0E0201746F02017251020140
:10200000756F766B020173510201752702017451DD
:102010000201762302017C510201776F786B020185
:1020200075510201775D02017851800A0201796FD2
:1020300002017651800A02017959D8B005D0C59ABB
:10204000C588C5A807D0FDD7C58AC588C5B8FED73D
:10205000C5B8FED702017C2B0201725102017C5DE2
:10206000D8A0B9D7C584C5A41200FDD7000E0001C1
:10207000A76FC4EC1CF005C0A8F006C0A9F0D8906A
:102080000001ED35D96E0001EE35DA6E850ED926E8
:10209000020EDA22A8C0DEFFA9C0DDFFE80E0001B3
:1020A000ED5D030E0001EE59D8A00FD02CEC0BF023
:1020B0000001EF6F0001EF51D8A4EFC0F2F0000E65
:1020C0000001EE6F000EED6F03D00001ED4BEE2B23
:1020D0000001FC51010D000EF324D96E020EF42014
:1020E000DA6EA8C001F0A9C002F0000E046E010E65
:1020F000036E4BEC1DF0DF6E0001FC510001A56F7B
:10210000A66B010E0001A527000EA623000E0001FC
:10211000A525D96E020E0001A621DA6EA8C001F035
:10212000A9C002F0000E046E020E036E4BEC1DF00F
:10213000DF6E0001FC51020F0001FC6F370E0D6EC7
:10214000100E0E6EA8C00FF0A9C010F04FEC13F0E7
:10215000650E0001FC6512004D0E0201006FF8C013
:1021600001F2000E0001A76F650E0001A76501D006
:1021700006D0020E0001FC6F0001A72BF5D700016D
:10218000F82BFD0E0001F86516D0000E0001F86F67
:102190001FEC08F0DCC092F0DDC093F0DEC094F0DC
:1021A000F2C095F00FEC0DF0000160510001966F48
:1021B00036EC16F012007F0E0001F819D8A41200B8
:1021C0001FEC08F012007D0E02017E6F020E02016C
:1021D0007F6F94D0250E02018419D8B405D0020176
:1021E0008451C2EC1DF08AD0000E0201806F7BC2C8
:1021F000F6FF7CC2F7FF02017B4B7C2B0800F5CF7A
:1022000084F202018451000AD8B41200640AD8B4DE
:1022100003D00D0AD8A472D07EC2D9FF7FC2DAFFE4
:10222000DECF82F2DDCF83F2020E02017E27000EA6
:102230007F23020183AF08D0030E02018013020145
:10224000826D831FD8B0832B010E0201846F050EAF
:1022500002018419D8B416D002018451020D010E76
:10226000F324F66E100EF420F76E0900F55002010B
:10227000825D0900F55002018359D8A003D0020104
:10228000842BE5D780C27DF2030E02017D17D8B4FE
:1022900003D02D0EC2EC1DF084C281F229D00201C0
:1022A0008151020D010EF324F66E100EF420F76E2C
:1022B0000900F5CF71F20A00F5CF72F282C26FF217
:1022C00083C270F226EC19F06FC276F270C277F218
:1022D000000E0201796F0A0E786FAEEC1AF002015F
:1022E0007651300F0201846F02018451C2EC1DF05F
:1022F0000201810702018129D8A4D1D77BC2F6FF50
:102300007CC2F7FF02017B4B7C2B0800F5CF84F2E7
:1023100002018451D8B412005DD70C6E000E0D6E10
:10232000C580C5B0FED70C500C240C6EC9CF0DF083
:102330000C50FE0BD9EC19F00F6E0F28D8A403D067
:10234000C9CF0DF0C69E0F50D8A4F2D7000E0F6E65
:10235000C7A403D0056A052A01D0056AC5501F0B22
:1023600005100009D8A4F4D70350D9EC19F00F6E6A
:102370000F28D8A403D0C9CF0DF0C69E0F50D8A403
:10238000F3D7000E0F6EC7A403D0056A052A01D04B
:10239000056AC5501F0B05100009D8A4F4D7C582E3
:1023A000C5B2FED7C9CF0DF00C500109D9EC19F018
:1023B0000F6E0F28D8A403D0C9CF0DF0C69E0F50C2
:1023C000D8A4F2D7000E0F6EC7A403D0056A052A61
:1023D00001D0056AC5501F0B05100009D8A4F4D719
:1023E000000E0E6E000E0E6E2FD00E50010D680EF8
:1023F000F324D96E020EF420DA6E69EC1DF0DF6E64
:10240000FF0E056EFF0E066E0450076E086A05503B
:102410000726065008220E50096E0A6A0750095C0A
:102420000A50800A0B6E0850800A0B58D8B005D0AD
:10243000C59AC588C5A807D0FDD7C58AC588C5B8BF
:10244000FED7C5B8FED70E2A04500E5CD8A0CDD753
:10245000C584C5A41200FDD722EC18F0C2C02DF02F
:10246000C3C02EF0C4C02FF017EC1DF02DC033F008
:102470002EC034F02FC035F0CBC009F0CCC00AF02C
:102480005BEC1CF009C030F00AC031F00BC032F038
:102490008CEC0EF030C041F031C042F032C043F05D
:1024A0009A0E446E790E456E3B0E466EE0EC14F0CB
:1024B00041C0B9F042C0BAF043C0BBF0C5C02DF076
:1024C000C6C02EF0C7C02FF017EC1DF02DC033F0A2
:1024D0002EC034F02FC035F0CDC009F0CEC00AF0C8
:1024E0005BEC1CF009C030F00AC031F00BC032F0D8
:1024F0008CEC0EF030C041F031C042F032C043F0FD
:102500009A0E446E790E456E3B0E466EE0EC14F06A
:1025100041C0BCF042C0BDF043C0BEF0C8C02DF009
:10252000C9C02EF0CAC02FF017EC1DF02DC033F03B
:102530002EC034F02FC035F0CFC009F0D0C00AF063
:102540005BEC1CF009C030F00AC031F00BC032F077
:102550008CEC0EF030C041F031C042F032C043F09C
:102560009A0E446E790E456E3B0E466EE0EC14F00A
:1025700041C0BFF042C0C0F043C0C1F012005EAE27
:102580000CD0000E0001EC6F210EEB6F000E5C6EA4
:10259000000E5D6E000E5E6E12005C505D105E10EF
:1025A000D8A40CD0000E0001EC6F220EEB6F000ED1
:1025B0005C6E000E5D6E000E5E6E1200000E446ECC
:1025C000000E456E400E466E600E046E000E056EE7
:1025D0005CC001F05DC002F05EC003F04BEC17F090
:1025E00001C041F002C042F003C043F0E0EC14F03F
:1025F00041C030F042C031F043C032F0000E336EC3
:10260000800E346EBF0E356E8CEC0EF030C05CF078
:1026100031C05DF032C05EF000016007D8A06107F4
:102620005CC050F05DC051F05EC052F00B0E536EB6
:10263000100E546E000E566E080E556ECDEC15F051
:1026400050C05CF051C05DF052C05EF0720E446E3E
:10265000310E456E3F0E466E60C009F061C00AF053
:102660005BEC1CF009C041F00AC042F00BC043F023
:10267000E0EC14F041C030F042C031F043C032F021
:102680005CC033F05DC034F05EC035F08CEC0EF011
:1026900030C05CF031C05DF032C05EF012000F0E51
:1026A000126E000E136E7DD0250E1818D8B404D00B
:1026B0001850D0EC1DF075D0000E146E0DC0F6FF52
:1026C0000EC0F7FF0D4A0E2A0800F5CF18F018507B
:1026D000000AD8B41200640AD8B403D00D0AD8A4F2
:1026E00060D012C0D9FF13C0DAFFDECF16F0DDCF05
:1026F00017F0020E1226000E132217AE06D0030E9C
:102700001412166C171ED8B0172A010E186E050E7B
:102710001818D8B412D01850020D010EF324F66E1A
:10272000100EF420F76E0900F550165C0900F55004
:102730001758D8A002D0182AEAD714C011F0030EF7
:102740001116D8B403D02D0ED0EC1DF018C015F022
:1027500024D01550020D010EF324F66E100EF42055
:10276000F76E0900F5CF03F00A00F5CF04F016C0AC
:1027700001F017C002F06EEC1BF001C008F002C0BF
:1027800009F0000E0B6E0A0E0A6EDDEC1BF008500D
:10279000300F186E1850D0EC1DF015061528D8A46F
:1027A000D8D70DC0F6FF0EC0F7FF0D4A0E2A08005D
:1027B000F5CF18F01850D8B4120076D70201756F13
:1027C000000E0201746FC580C5B0FED702017551BD
:1027D00075250201756FC9CF74F202017551FE0BA8
:1027E000E9EC18F00201766F02017629D8A403D033
:1027F000C9CF74F2C69E020176510201D8A4EDD76A
:10280000000E0201766FC7A404D00201736B732B14
:1028100002D00201736BC5501F0B02017311000936
:10282000D8A4F1D702017151E9EC18F00201766FDA
:1028300002017629D8A403D0C9CF74F2C69E020142
:1028400076510201D8A4EED7000E0201766FC7A41C
:1028500004D00201736B732B02D00201736BC5505D
:102860001F0B020173110009D8A4F1D7C9CF74F26C
:1028700002017251E9EC18F00201766F020176292B
:10288000D8A403D0C9CF74F2C69E020176510201CA
:10289000D8A4EED7000E0201766FC7A404D00201BF
:1028A000736B732B02D00201736BC5501F0B0201B7
:1028B00073110009D8A4F1D7C58AC588C5B8FED759
:1028C000C5B8FED7C584C5A41200FDD70EC010F050
:1028D000116A126A0D34103601E3118010501A6E1D
:1028E0001A50D8A409D0000E0C6E000E0D6E000E0A
:1028F0000E6E000E0F6E1200170E106E0CC011F04F
:102900000DC012F00EC013F01028146E04D0D89031
:10291000133212321132142EFAD71150156E0D8E59
:10292000FF0E0C16FF0E0D16000E0E160C50166E36
:102930000D50176E0E50186E196A8E0E1A5E1AAE72
:1029400016D01A50800A8F0FD8B009D0000E0C6E26
:10295000000E0D6E000E0E6E000E0F6E1200D8905F
:1029600019321832173216321A3EF9D715D0170E0F
:102970001A640FD0000E0C6E000E0D6E000E0E6E5F
:10298000000E0F6E1200D89016361736183619360C
:102990001A061A50D8A4F7D71550D8B408D0191E63
:1029A000181E171E166C000E17221822192216C0A8
:1029B0000CF017C00DF018C00EF019C00FF0120087
:1029C00043C047F0486A496A4234473601E34880C9
:1029D00047504A6E4A50D8A407D0000E416E000EF0
:1029E000426E000E436E120046C047F0486A496AC4
:1029F0004534473601E3488047504F6E4F50D8A4C6
:102A000007D0000E416E000E426E000E436E1200A3
:102A10004F507B0F4A2643C04FF046504F1A800E4E
:102A20004F16428E458EFF0E4416FF0E4516000EC1
:102A30004616000E4B6E000E4C6E000E4D6E070ECD
:102A40004E6E41A006D044504B2645504C22465075
:102A50004D22D890433242324132D89044364536E6
:102A600046364E2EEED7090E4E6E41A006D044508B
:102A70004B2645504C2246504D22D890433242328C
:102A80004132D8904D324C324B324E2EEED74BC0A5
:102A900001F04CC002F04DC003F04AC004F04FC03A
:102AA00005F0F4EC16F001C041F002C042F003C0A2
:102AB00043F0120052C056F0576A586A51345636E5
:102AC00001E3578056505D6E5D50D8A407D0000ECC
:102AD000506E000E516E000E526E120055C056F030
:102AE000576A586A5434563601E3578056505E6E22
:102AF0005E50D8A407D0000E506E000E516E000E2E
:102B0000526E1200000E5A6E000E5B6E000E5C6E6E
:102B10005E50890F5D5E52C05EF055505E1A800EA9
:102B20005E16518EFF0E5016FF0E5116000E5216F5
:102B3000548EFF0E5316FF0E5416000E5516180E27
:102B4000596ED8905A365B365C365350505C5450B0
:102B5000515855505258D8A007D05350505E545039
:102B6000515A5550525A5A80D89050365136523692
:102B7000592EE7D75AC001F05BC002F05CC003F0E9
:102B80005DC004F05EC005F0F4EC16F001C050F03A
:102B900002C051F003C052F0120055C001F056C0FF
:102BA00002F0000E046E030E036E04EC1DF053C021
:102BB00057F054C058F0015057260250582257C0C1
:102BC000F6FF58C0F7FF0900F5CF59F00900F5CF1F
:102BD0005AF00A00F5CF5BF03ED059C044F05AC01D
:102BE00045F05BC046F050C041F051C042F052C0C9
:102BF00043F0E0EC14F041C030F042C031F043C08B
:102C000032F0000E046E030E036E5506D8A0560671
:102C100055C001F056C002F004EC1DF053C057F04F
:102C200054C058F0015057260250582257C0F6FFA2
:102C300058C0F7FF0900F5CF33F00900F5CF34F0A5
:102C40000A00F5CF35F08CEC0EF030C059F031C0F1
:102C50005AF032C05BF055505610D8A4BED759C0B8
:102C600050F05AC051F05BC052F0120020EED1F08B
:102C700010EE9AF0040EDBCFE3FFE806FCE292C010
:102C80000CF093C00DF094C00EF066EC14F00C50F4
:102C900000019F6F000E446EC80E456E420E466ED8
:102CA000A10E3F6E000E406E92C03CF093C03DF00E
:102CB00094C03EF09EEC19F03CC041F03DC042F0A3
:102CC0003EC043F0E0EC14F041C097F042C098F0F1
:102CD00043C099F097C00CF098C00DF099C00EF069
:102CE00066EC14F00C500001A06FC70E00019A6F43
:102CF0009FC09BF0A0C09CF095C09DF096C09EF038
:102D0000000E0001A46F040E0001A46501D01200A2
:102D10000001A451010D9A0EF324D96E000EF42087
:102D2000DA6EDF50D0EC1DF00001A42BECD72D0E95
:102D30000201716F040E0201726F530EDEEC13F08C
:102D4000310E0201716F0B0E0201726F530EDEEC39
:102D500013F02C0E0201716F0A0E0201726F530EF6
:102D6000DEEC13F02E0E0201716F000E0201726F85
:102D7000530EDEEC13F0280E0201716F050E0201F6
:102D8000726F530EDEEC13F0290E0201716F140EF8
:102D90000201726F530EDEEC13F02F0E0201716F01
:102DA000000E0201726F530EDEEC13F02E0E0201C4
:102DB000716F040E0201726F530EDEEC13F02D0ED4
:102DC0000201716F080E0201726F530EDEEC13F0F8
:102DD000000E0201716F010E0201726F530E62EC60
:102DE0000FF00201685112000450D8B405D0015010
:102DF00002100310D8A40CD0000E016E000E026E5B
:102E0000000E036E1200042AD890033202320132FF
:102E1000000E0114066E000E0214076EFE0E03145F
:102E2000086E065007100810D8B40CD0ECD7042A4E
:102E3000010E0126000E0222000E0322D89003325A
:102E400002320132000E0114066E000E0214076EEB
:102E5000FF0E0314086E065007100810D8B406D0F1
:102E6000E6D70406D89001360236033602BE03D0F8
:102E7000020E0460F6D704A0029ED89004320450DB
:102E800003120550D8A4038E01C001F002C002F065
:102E900003C003F01200015002100310D8A40FD099
:102EA00004C0D9FF05C0DAFF000EDE6E000EDD6E35
:102EB000000E016E000E026E000E036E1200035033
:102EC0007F0B066E076AD8900636073604C0D9FF16
:102ED00005C0DAFF06C0DEFF07C0DDFF02AE03D08B
:102EE000066A062A01D0066A065004C0D9FF05C04A
:102EF000DAFFDE12000EDD1204C0D9FF05C0DAFFD2
:102F0000820EDE26FF0EDD22038003820384038609
:102F10000388038A039C029E01C001F002C002F0F4
:102F200003C003F012000FAE16D00DC013F00EC098
:102F300014F00FC015F0131E141E151E132A000ED8
:102F400014221522000E13240D6E000E14200E6E96
:102F5000800E15200F6E12AE16D010C013F011C0E7
:102F600014F012C015F0131E141E151E132A000EA5
:102F700014221522000E1324106E000E1420116E60
:102F8000800E1520126E000E0D1A000E0E1A800E05
:102F90000F1A000E101A000E111A800E121A10507D
:102FA0000D5C11500E5812500F58D8B002D0D89066
:102FB0001200D88012003CC025F03DC026F03EC073
:102FC00027F0A8EC18F025C02DF026C02EF027C061
:102FD0002FF017EC1DF02DC030F02EC031F02FC0B7
:102FE00032F03CC033F03DC034F03EC035F08CECE4
:102FF0000EF030C03FF031C040F032C041F03CC074
:1030000030F03DC031F03EC032F03FC033F040C040
:1030100034F041C035F08CEC0EF030C03CF031C0E3
:103020003DF032C03EF03CC025F03DC026F03EC031
:1030300027F0A8EC18F025C03CF026C03DF027C0D2
:103040003EF01200320E036E060E046E530E8DEC2F
:1030500011F068C201F00201695184EC1DF001C059
:1030600006F002C007F0000E096E100E086E12EC9A
:103070001AF006C0CBF007C0CCF06AC201F0020122
:103080006B5184EC1DF001C006F002C007F0000E89
:10309000096E100E086E12EC1AF006C0CDF007C0D3
:1030A000CEF06CC201F002016D5184EC1DF001C044
:1030B00006F002C007F0000E096E100E086E12EC4A
:1030C0001AF006C0CFF007C0D0F01200000E066E56
:1030D00004AE06D0036C041ED8B0042A010E066E9E
:1030E00002AE06D0016C021ED8B0022A010E061AEA
:1030F000000E086E000E076E03500410D8B41CD0EA
:10310000010E056E04D0D89003360436052A04AEAD
:10311000FAD7D890073608360350015C045002589D
:10312000D8A005D00350015E0450025A0780D89001
:1031300004320332052EEDD70650D8B404D0076C04
:10314000081ED8B0082A07C001F008C002F012001B
:1031500025C001F026C002F027C003F02B0E046E3C
:10316000000E056E4BEC17F02CAE07D0000E256E4E
:10317000000E266E000E276E12002C5004E1150E74
:103180002B5CD8A007D025C025F026C026F027C08C
:1031900027F0120025C00CF026C00DF027C00EF05D
:1031A00066EC14F00CC01BF00DC01CF00EC01DF03E
:1031B0000FC01EF062EC19F01BC028F01CC029F0F3
:1031C0001DC02AF028C025F029C026F02AC027F00B
:1031D00012000201706F70C2C9FFC6AE02D0FF0EAE
:1031E0001200C6500F0B080AD8B40FD0C6500F0BF0
:1031F0000B0AD8B40AD0C6889EA6FED7C7A4C7B00B
:1032000002D0FE0E1200000E1200C6500F0B080A6C
:10321000D8B405D0C6500F0B0B0AD8A41200C7B003
:10322000FED7C7A404D002016F6B6F2B02D002013E
:103230006F6BC5501F0B02016F110009D8A4F1D7A5
:10324000C5AC02D0FE0E1200000E1200000E0201EC
:10325000746F000E736F0201715102017211D8B4C4
:103260002CD0010E0201756F06D00201D890713783
:1032700072370201752B020172AFF7D70201D890A5
:10328000733774370201715102016F5D020172518F
:1032900002017059D8A00AD00201715102016F5F7A
:1032A000020172510201705B020173810201D89028
:1032B000723371330201752FE1D773C26FF274C29A
:1032C00070F21200000E246E8E0E236E1EAE11D010
:1032D0001E1E1D1E1C1E1B6C000E1C221D221E22EB
:1032E000010E246E06D0D8901E321D321C321B32C5
:1032F000232A000E1B141F6E000E1C14206E000EDD
:103300001D14216EFF0E1E14226E1F50201021105E
:103310002210D8A4E8D71BC001F01CC002F01DC0C9
:1033200003F023C004F024C005F0F4EC16F001C053
:103330001BF002C01CF003C01DF012003CC00CF0DA
:103340003DC00DF03EC00EF066EC14F00CC01BF05A
:103350000DC01CF00EC01DF03CEC1CF03FC0D9FFAE
:1033600040C0DAFF1BC0DEFF1CC0DEFF1DC0DEFF59
:103370003FC0D9FF40C0DAFFDECF2DF0DECF2EF008
:10338000DDCF2FF017EC1DF02DC030F02EC031F046
:103390002FC032F03CC033F03DC034F03EC035F0B9
:1033A0008CEC0EF030C03CF031C03DF032C03EF04D
:1033B0001200026E02C0C9FFC6AE02D0FF0E12009C
:1033C000C6500F0B080AD8B40FD0C6500F0B0B0A0B
:1033D000D8B40AD0C6889EA6FED7C7A4C7B002D06C
:1033E000FE0E1200000E1200C6500F0B080AD8B4D1
:1033F00005D0C6500F0B0B0AD8A41200C7B0FED7D9
:10340000C7A403D0016A012A01D0016AC5501F0B6D
:1034100001100009D8A4F4D7C5AC02D0FE0E1200EA
:10342000000E120008C00AF0FF0E0A26010E0B6EF5
:10343000000E0C6E0A2A03D0D8900B360C360A2EDA
:10344000FBD706500B1607500C160B500C10D8B4B7
:103450001BD0000E0E6E000E0D6E061C0D6E071CAE
:103460000E6E010E0D240D6E000E0E200E6E0DC0A0
:103470000AF00EC00BF00A1E0B1E0A4A0B2A0AC0E5
:1034800006F00BC007F0120006C006F007C007F0F8
:10349000120002EE85F01BEEB8F0EE6AE550E15046
:1034A000FCE1E250FAE102EE00F06F0EEE6AE8068F
:1034B000FDE101EEE4F0150EEE6AE806FDE100EE36
:1034C000B9F0400EEE6AE806FDE1C60EF66E3B0E60
:1034D000F76E000EF86E00EEF9F010EE04F0090041
:1034E000F5CFEEFFE550E150FAE15F905F92000EFC
:1034F000F86E000191EF1DF00201736F000EC26EB5
:10350000000EC16E000EC06E02016F517C0BC26EC8
:1035100070C2C1FF73C271F20201D890713702010B
:10352000D8907137380E0201711773C272F202011E
:10353000723B0F0E7217070E0201721702017351D0
:10354000800B0201721102017111C06E02016FAF96
:1035500003D09E9C9D8CF28CC28012000201785197
:1035600002017911D8B426D0010E02017A6F06D07B
:103570000201D8907837793702017A2B020179AFAE
:10358000F7D7020178510201765D020179510201FB
:103590007759D8A008D0020178510201765F020164
:1035A00079510201775B0201D890793378330201B7
:1035B0007A2FE7D776C276F277C277F2120002014D
:1035C000716F000EAC6E000EAB6E020171B1AC8873
:1035D000020171A302D0AC8CAB8C020171B5AC8E30
:1035E000020171A702D0AB8801D0AB8A020171B988
:1035F000AC84020171BBAB86020171AD02D09D8A21
:1036000001D09D9A020171AF02D09D8801D09D9892
:103610006FC2AFFF02017051B06EAC8AAB8E120068
:103620000201746F11D0970E02016E6F850E0001BA
:10363000E26FED0E07D0D70E02016E6F000E000193
:10364000E26FE50EE16F08D002017451010AD8B4AF
:10365000EAD7030AD8B4EFD7020174510201D8A403
:1036600003D0E0EC1DF0120002016E51F1EC1CF0F1
:10367000E1C06FF2E2C070F2B0EC1DF0F294120003
:103680000001E34BE42B0001DF4BE02BE80E0001CF
:10369000E35D030E0001E459D8A007D00001F62B2A
:1036A000000E0001E46F000EE36F040E0001DF194D
:1036B0000001E011D8A407D036EC10F0000E000194
:1036C000E06F000EDF6F3C0E0001F619D8A4120067
:1036D0000001F52B000E0001F66F1200000E066EC1
:1036E000000E056E03500410D8B41CD0010E076EF6
:1036F00004D0D89003360436072A04AEFAD7D890FF
:10370000053606360350015C04500258D8A005D097
:103710000350015E0450025A0580D89004320332EF
:10372000072EEDD705C001F006C002F01200000E12
:103730000201746F000E0201736F000E726F949C91
:10374000948E1C0E0201746F000E0201736F330E13
:10375000726F4F0EAB16AC9ACF0E9D1672C26FF2FF
:1037600073C270F202017451DFEC1AF09F8A9D8AD5
:103770009E9A120062C05CF063C05DF064C05EF0AF
:10378000BFEC12F05CC065F05DC066F05EC067F033
:1037900065C041F066C042F067C043F05C0E446E05
:1037A000DE0E456E3E0E466EE0EC14F041C062F057
:1037B00042C063F043C064F012000A500B10D8B44A
:1037C00018D0010E0C6E04D0D8900A360B360C2A95
:1037D0000BAEFAD70A50085C0B500958D8A004D099
:1037E0000A50085E0B50095AD8900B320A320C2E40
:1037F000F1D708C008F009C009F012000F013A978C
:103800000F013A9994869488C69A000E02016F6F50
:10381000080E3BEC1DF0130EC86EC7A404D00201C5
:10382000716B712B02D00201716BC5501F0B02012D
:1038300071110009D8B41200F0D7010E0001F76F22
:1038400082B604D00001AA6BAA2B02D00001AA6B99
:103850000001AA47AA47AA4782500001AA19F70BFC
:10386000AA19826E40EC1BF0E1C001F0E2C002F048
:10387000B9EC1DF0F2941200000E1E6E1DAE08D0C1
:103880001D1E1C1E1B6C000E1C221D22010E1E6E16
:103890001BC001F01CC002F01DC003F08E0E046EB0
:1038A0001EC005F0F4EC16F001C01BF002C01CF0C5
:1038B00003C01DF01200000E0C6E0AAE06D0096C9B
:1038C0000A1ED8B00A2A010E0C6E09C001F00AC007
:1038D00002F0036A8E0E046E0CC005F0F4EC16F0D4
:1038E00001C009F002C00AF003C00BF01200000E84
:1038F0000201746F000E0201756F000E0201766FF7
:10390000A10E0201746F270E0201756FFC0E0201F9
:10391000766F75C26FF276C270F2020174517CEC60
:103920001AF01200DCEC1DF077EC1DF097EC1BF0A8
:10393000000E0201736F020E10EC1BF09CEC1DF0E8
:1039400077EC1CF0FEEC1BF097EC16F002017E6F9A
:10395000F28CF28E1200000E086E000E076EB70E8B
:10396000A6EC1DF0E5EC1DF0D6EC1DF00009D8A486
:10397000FBD7C9EC1DF001C007F002C008F007C07A
:1039800005F008C006F01200000E086E000E076E6B
:10399000AF0EA6EC1DF0E5EC1DF0D6EC1DF0000915
:1039A000D8A4FBD7C9EC1DF001C007F002C008F095
:1039B00007C005F008C006F0120002AE0DD001C02D
:1039C00003F002C004F0031E041E034A042A03C0CD
:1039D00001F004C002F0120001C001F002C002F0C8
:1039E000120002016F6F02016F517F0BD56E000E46
:1039F000D76E000ED66EF29402016FAF02D0F28A3B
:103A000001D0F29AD58E120001500302F3CF05F0D7
:103A1000F4CF06F001500402F350062602500302D0
:103A2000F350062605C001F006C002F012002D502A
:103A30002E102F10D8B406D0000E2D1A000E2E1AFC
:103A4000800E2F1A2DC02DF02EC02EF02FC02FF07B
:103A5000120009C001F00AC002F0036A8E0E046E63
:103A6000000E056EF4EC16F001C009F002C00AF079
:103A700003C00BF012000201706F3F0EC716000E5C
:103A8000C66E000EC56E02017051C61202016F5162
:103A9000C712C68A1200000E056E020E031804102B
:103AA000D8B401C005F003040410D8A402D0025019
:103AB000056E05501200C6500F0B080AD8B404D08A
:103AC000C6500F0B0B0AD8B4C586C7A0FED7C95085
:103AD0001200C6500F0B080AD8B404D0C6500F0B02
:103AE0000B0AD8B4C586C7A0FED7C95012000F0173
:103AF0003A95949482949296809693880F0139898E
:103B0000938A0F01398B1200056E015005C003F036
:103B1000046A03C004F0036A0310016E0450026ECD
:103B2000120092EC1CF0260E02017B6F100E0201B7
:103B30007C6FE3EC10F0FFD7F1949F8A9D8A9E9AE8
:103B4000F288F18CF19EF28CF28E1200026E02C0AD
:103B500001F07C0E0116C250830B0110C26E1200E0
:103B60006FC271F270C272F272C2D7FF71C2D6FF19
:103B7000120001C003F002C004F004C0D7FF03C06C
:103B8000D6FF120002016F6F9EA8FED76FC2ADFF75
:103B90001200C450036EC350016E03C002F0120045
:103BA000016E9EA8FED701C0ADFF1200C2A202D0D6
:103BB000010E1200000E1200D388D38AD38C12009B
:0E3BC000D59EF29A120000004002C28212004E
:020000040020DA
:08000000FFFFFFFFFFFFFFFF00
:020000040030CA
:0E000000FF331F3CFFBF85FF0FC00FE00F4016
:00000001FF
