:040000006AEF00F0B3
:100008005F82FACF4FF0FBCF50F0E9CF51F0EACF43
:1000180052F0E1CF53F0E2CF54F0D9CF55F0DACF18
:1000280056F0F3CF57F0F4CF58F0F6CF59F0F7CF9A
:100038005AF0F8CF5BF0F5CF5CF0F2B4ADEC18F005
:100048009EAA03D013EC19F09E9AF2A221D02FECAD
:1000580008F03FC05DF040C05EF05DC009F05EC0D2
:100068000AF076EC18F009C0D9F00AC0DAF00BC033
:10007800DBF0F9C1DCF0CA0E0001DD6FD1EC13F042
:10008800300E036E010E046E530E5FEC0FF0F29209
:100098005CC0F5FF5BC0F8FF5AC0F7FF59C0F6FF18
:1000A80058C0F4FF57C0F3FF56C0DAFF55C0D9FF58
:1000B80054C0E2FF53C0E1FF52C0EAFF51C0E9FF5C
:1000C80050C0FBFF4FC0FAFF5F921100CDEF15F053
:101000000001000A006400E80310270000000080CF
:101010003FF0FFBEE2A93E8376BEAE2B3E3CC3BD91
:10102000D2133D78D3BB50756572746F20636F6EB9
:10103000666967757261646F2E2E2E0A00536D61AA
:1010400072742053686972742076312E30005265B4
:1010500063696269646F3A2025640A000000000E2B
:101060000001B56FA00E0001B66F400E0001B76F12
:10107000330E0001B26F530E0001B36F400E00013A
:10108000B46FF00E0001B86F3F0E0001B96F400E53
:101090000001BA6FC00E0001BB6F8F0E0001BC6F64
:1010A000450E0001BD6F900E0001BE6F8E0E000157
:1010B000BF6F450E0001C06F000E0001C76F4D0EDF
:1010C0000001C86F440E0001C96F330E106E530E3D
:1010D000116E400E126EFAEC18F005C009F006C051
:1010E0000AF076EC18F009C00DF00AC00EF00BC043
:1010F0000FF01EEC12F00DC028F00EC029F00FC04A
:101100002AF0000E2B6E800E2C6E440E2D6E98EC85
:1011100012F028C0CDF029C0CEF02AC0CFF0CDC04B
:1011200028F0CEC029F0CFC02AF0B5C02BF0B6C051
:101130002CF0B7C02DF098EC12F028C0CDF029C0EB
:10114000CEF02AC0CFF0BBC01FF0BCC020F0BDC0A5
:1011500021F0C7C01CF0C8C01DF0C9C01EF00BECC8
:101160000DF01CC02BF01DC02CF01EC02DF0C7C010
:1011700028F0C8C029F0C9C02AF098EC12F028C0A5
:10118000C1F029C0C2F02AC0C3F0B8C02BF0B9C06A
:101190002CF0BAC02DF0CDC028F0CEC029F0CFC0C1
:1011A0002AF098EC12F028C01CF029C01DF02AC0CB
:1011B0001EF0C1C01FF0C2C020F0C3C021F00BEC74
:1011C0000DF01CC0CAF01DC0CBF01EC0CCF0CAC0D0
:1011D00010F0CBC011F0CCC012F0BEC00DF0BFC0FB
:1011E0000EF0C0C00FF01EEC12F00DC028F00EC0C3
:1011F00029F00FC02AF0000E1F6E800E206E3F0EE9
:10120000216ECAC001F0CBC002F0CCC003F08DEC5F
:1012100019F001C01CF002C01DF003C01EF00BEC61
:101220000DF01CC02BF01DC02CF01EC02DF098EC52
:1012300012F028C0D6F029C0D7F02AC0D8F0D6C006
:1012400001F0D7C002F0D8C003F0DA0E046EE30E4E
:10125000056E440E066ECAEC14F0D8A055D0720E7E
:101260002B6ECF0E2C6E450E2D6ED6C028F0D7C03B
:1012700029F0D8C02AF098EC12F028C039F029C023
:101280003AF02AC03BF0F4EC17F039C0D0F03AC085
:10129000D1F03BC0D2F02B0E396E750E3A6E3F0E78
:1012A0003B6EF4EC17F039C02BF03AC02CF03BC089
:1012B0002DF0000E106E800E116EBF0E126ED0C09B
:1012C0000DF0D1C00EF0D2C00FF01EEC12F00DC028
:1012D00028F00EC029F00FC02AF098EC12F028C0B8
:1012E000D3F029C0D4F02AC0D5F0D3C00DF0D4C0BB
:1012F0000EF0D5C00FF0000E106E800E116EBF0EF6
:10130000126E1EEC12F093D1D6C001F0D7C002F0DD
:10131000D8C003F0A30E046EB80E056E440E066E20
:10132000CAEC14F0D8A055D01C0E2B6EC80E2C6E33
:10133000450E2D6ED6C028F0D7C029F0D8C02AF0AF
:1013400098EC12F028C039F029C03AF02AC03BF0DE
:10135000F4EC17F039C0D0F03AC0D1F03BC0D2F075
:10136000760E396E750E3A6E3F0E3B6EF4EC17F04A
:1013700039C02BF03AC02CF03BC02DF0000E106E9F
:10138000800E116EBF0E126ED0C00DF0D1C00EF0E7
:10139000D2C00FF01EEC12F00DC028F00EC029F0E4
:1013A0000FC02AF098EC12F028C0D3F029C0D4F076
:1013B0002AC0D5F0D3C00DF0D4C00EF0D5C00FF0C8
:1013C000000E106E800E116EBF0E126E1EEC12F02B
:1013D0002ED1D6C001F0D7C002F0D8C003F09A0ECB
:1013E000046E960E056E440E066ECAEC14F0D8A07C
:1013F00055D0300E2B6EBF0E2C6E450E2D6ED6C006
:1014000028F0D7C029F0D8C02AF098EC12F028C0F4
:1014100039F029C03AF02AC03BF0F4EC17F039C09B
:10142000D0F03AC0D1F03BC0D2F0C80E396E750E84
:101430003A6E3F0E3B6EF4EC17F039C02BF03AC019
:101440002CF03BC02DF0000E106E800E116EBF0E02
:10145000126ED0C00DF0D1C00EF0D2C00FF01EEC55
:1014600012F00DC028F00EC029F00FC02AF098EC41
:1014700012F028C0D3F029C0D4F02AC0D5F0D3C0D0
:101480000DF0D4C00EF0D5C00FF0000E106E800E1F
:10149000116EBF0E126E1EEC12F0C9D0D6C001F054
:1014A000D7C002F0D8C003F0060E046E770E056EAA
:1014B000440E066ECAEC14F0D8A055D0190E2B6E4F
:1014C000B70E2C6E450E2D6ED6C028F0D7C029F071
:1014D000D8C02AF098EC12F028C039F029C03AF0B0
:1014E0002AC03BF0F4EC17F039C0D0F03AC0D1F08C
:1014F0003BC0D2F00C0E396E760E3A6E3F0E3B6E4C
:10150000F4EC17F039C02BF03AC02CF03BC02DF0B2
:10151000000E106E800E116EBF0E126ED0C00DF058
:10152000D1C00EF0D2C00FF01EEC12F00DC028F0AA
:101530000EC029F00FC02AF098EC12F028C0D3F0AA
:1015400029C0D4F02AC0D5F0D3C00DF0D4C00EF01D
:10155000D5C00FF0000E106E800E116EBF0E126E11
:101560001EEC12F064D0D6C001F0D7C002F0D8C093
:1015700003F0ED0E046E4A0E056E440E066ECAECC4
:1015800014F0D8A05AD0400E2B6EAE0E2C6E450E25
:101590002D6ED6C028F0D7C029F0D8C02AF098EC1C
:1015A00012F028C039F029C03AF02AC03BF0F4EC20
:1015B00017F039C0D0F03AC0D1F03BC0D2F0510E94
:1015C000396E760E3A6E3F0E3B6EF4EC17F039C072
:1015D0002BF03AC02CF03BC02DF0000E106E800EA8
:1015E000116EBF0E126ED0C00DF0D1C00EF0D2C081
:1015F0000FF01EEC12F00DC028F00EC029F00FC045
:101600002AF098EC12F028C0D3F029C0D4F02AC0F8
:10161000D5F0D3C00DF0D4C00EF0D5C00FF0000E41
:10162000106E800E116EBF0E126E1EEC12F00DC009
:10163000C4F00EC0C5F00FC0C6F0C4C092F0C5C063
:1016400093F0C6C094F0800E406E000E3F6E120004
:10165000000E0101D56F000ED46F000E0101D26F94
:10166000000E0101D36F21EEE4F011EEC8F0090E77
:10167000DBCFE3FFE806FCE2000E0101DB6F000EAA
:10168000DA6F000E0101DC6F000E0101E16F000E48
:101690000101E36F000EE26F000E0101D76F000E33
:1016A000D66F000E0101D96F000EE8CFCDFA000E03
:1016B0000101E36F010EE26FE80E0101E25D030E2E
:1016C0000101E359D8B048D0CD0E0101E225D96E11
:1016D0000A0E0101E321DA6EE2C12BF0E3C12CF026
:1016E000D8902B362C36020E2B26000E2C22FD0E07
:1016F0002B24E16E020E2C20E26EE6CF2DF0E5CF1A
:101700002EF0FE0E2F6EFF0E306EE2C131F0E3C1FF
:1017100032F0D890313632362F50312630503222C6
:10172000FD0E3124E16E020E3220E26EE6CF33F080
:10173000E5CF34F0331E341E334A342A2D5033247F
:10174000016E2E503420026E41EC19F00150DF6E14
:101750000101E24BE32BB0D7000E0101E36F000E55
:10176000E26F0101E35113E11F0E0101E25DD8B008
:101770000ED0CD0E0101E225D96E0A0E0101E32142
:10178000DA6E000EDF6E0101E24BE32BEAD7000EAA
:101790000101DE6F000EDD6F0101DEBF08D0E80E33
:1017A0000101DD5D030E0101DE59D8B023D0CD0E5D
:1017B0000101DD25D96E0A0E0101DE21DA6EDF504E
:1017C0002B6E2B500101D65D000ED759D8B00ED02C
:1017D000CD0E0101DD25D96E0A0E0101DE21DA6E82
:1017E000DF502B6E2B500101D66FD76B0101DD4B03
:1017F000DE2BD2D7330E106E330E116E3F0E126EEB
:10180000D6C109F0D7C10AF07BEC19F009C00DF080
:101810000AC00EF00BC00FF01EEC12F00DC01CF051
:101820000EC01DF00FC01EF0A4EC11F01CC0F0F1B2
:101830001DC0F1F1000E0101E06F000EDF6F01012C
:10184000E0BF08D0E90E0101DF5D030E0101E059A0
:10185000D8B09ED0CD0E0101DF25D96E0A0E010150
:10186000E021DA6EDF502B6E2B500101F05D000E8F
:10187000F159D8B079D00101D9510101D8A474D05F
:10188000CD0E0101DF25D96E0A0E0101E021DA6ECD
:10189000DF502B6E2C6A0101E151020D140EF3266C
:1018A000000EF422000EF324D96E010EF420DA6E3D
:1018B0002BC0DEFF2CC0DDFF0101E151020D280E1F
:1018C000F326000EF422000EF324D96E010EF4204C
:1018D000DA6EDFC1DEFFE0C1DDFF0101E151010190
:1018E000D8B43DD00101E151020D280EF326000EBF
:1018F000F422000EF324D96E010EF420DA6EDECF4E
:101900002BF0DDCF2CF00101E1512D6E2E6AD89025
:101910002D362E36260E2D26000E2E22000E2D24BC
:10192000D96E010E2E20DA6EDECF2FF0DDCF30F033
:101930002F1E301E2F4A302A2B502F262C5030229B
:101940000101DC51020DC80EF324D96E010EF42002
:10195000DA6E2FC0DEFF30C0DDFF0101DC2B01019C
:10196000E12B010E0101D96F0101D905D8A40CD0DA
:101970001E0E0101D36506D0000E0101D96F000EC5
:101980000101D36F0101D32B0101DF4BE02B57D7AE
:10199000000E0101D86F19D00101D851020DC80EF7
:1019A000F324D96E010EF420DA6EDECF2BF0DDCFFA
:1019B0002CF00101DA512B240101DA6F0101DB5116
:1019C0002C200101DB6F0101D82B0101DC51010149
:1019D000D85DD8A0E1D7DAC101F0DBC102F0DCC1EB
:1019E00003F0046A12EC15F001C0DAF102C0DBF179
:1019F0003A0E026E980E016EDAC103F0DBC104F0FC
:101A0000A5EC17F001C0D4F102C0D5F1D4C1D2F1D8
:101A10000101D45112001EC022F0236A246A1D3431
:101A2000223601E323802250276E21C022F0236A50
:101A3000246A2034223601E323802250266E275068
:101A4000D8B40BD02650275CD8B00ED02750000851
:101A50002624226E180E226407D01FC01CF020C05E
:101A60001DF021C01EF012002650D8B40BD0275014
:101A7000265CD8B00ED0265000082724226E180EFF
:101A8000226407D01CC01CF01DC01DF01EC01EF03B
:101A90001200060E256E1EBE258E21BE258C1D8EC3
:101AA000FF0E1C16FF0E1D16000E1E16208EFF0EBA
:101AB0001F16FF0E2016000E21162650275CD8B0E8
:101AC0001BD0D8901F3620362136260627502618E0
:101AD000D8B40DD0250625C022F0070E2216D8B4A2
:101AE00006D0EFD7D8901E321D321C32272A26503E
:101AF0002718D8B41FD0F6D72750265CD8B01AD0F4
:101B0000D8901C361D361E36270627502618D8B406
:101B10000DD0250625C022F0070E2216D8B406D017
:101B2000EFD7D890213220321F32262A265027188C
:101B3000D8A4F7D725AE0CD0FF0E1C1AFF0E1D1A25
:101B4000FF0E1E1A010E1C26000E1D22000E1E2264
:101B500025AC0CD0FF0E1F1AFF0E201AFF0E211A03
:101B6000010E1F26000E2022000E2122000E256EDF
:101B70001C501F261D5020221E50212221AE0ED0A7
:101B8000FF0E1F1AFF0E201AFF0E211A010E1F262C
:101B9000000E2022000E2122010E256E1FC001F032
:101BA00020C002F021C003F027C004F025C005F0DA
:101BB0002BEC14F001C01CF002C01DF003C01EF09D
:101BC00012000201EF6F000E0201EE6FC580C5B07A
:101BD000FED70201EF51EF250201EF6FC9CFEEF200
:101BE0000201EF51FE0B54EC15F00201F16F0201FE
:101BF000F129D8A403D0C9CFEEF2C69E0201F1515B
:101C00000201D8A4EDD7000E0201F16FC7A404D0E1
:101C10000201E76BE72B02D00201E76BC5501F0BF7
:101C20000201E7110009D8A4F1D70201E55154ECF3
:101C300015F00201F16F0201F129D8A403D0C9CF38
:101C4000EEF2C69E0201F1510201D8A4EED7000EB9
:101C50000201F16FC7A404D00201E76BE72B02D0A9
:101C60000201E76BC5501F0B0201E7110009D8A460
:101C7000F1D7C582C5B2FED7C9CFEEF20201EF514E
:101C8000010954EC15F00201F16F0201F129D8A409
:101C900003D0C9CFEEF2C69E0201F1510201D8A4D1
:101CA000EDD7000E0201F16FC7A404D00201E76B6B
:101CB000E72B02D00201E76BC5501F0B0201E711B1
:101CC0000009D8A4F1D7000E0201F06F000E020146
:101CD000F06F41D00201F051010D7B0EF324D96E5B
:101CE000000EF420DA6EAFEC19F0DF6EFF0E020189
:101CF000E76FFF0E0201E86F0201E6510201E96F92
:101D0000EA6B0201E7510201E9270201E8510201F1
:101D1000EA230201F0510201EB6FEC6B0201E95181
:101D20000201EB5D0201EC51800A0201ED6F02013C
:101D3000EA51800A0201ED59D8B005D0C59AC5888C
:101D4000C5A807D0FDD7C58AC588C5B8FED7C5B810
:101D5000FED70201F02B0201E6510201F05DD8A08E
:101D6000B9D7C584C5A41200FDD7F10E0201F26FE8
:101D7000020E0201F36F94D0250E0201F819D8B4B7
:101D800005D00201F8510AEC1AF08AD0000E0201C7
:101D9000F46FEFC2F6FFF0C2F7FF0201EF4BF02B3A
:101DA0000800F5CFF8F20201F851000AD8B4120089
:101DB000640AD8B403D00D0AD8A472D0F2C2D9FFF5
:101DC000F3C2DAFFDECFF6F2DDCFF7F2020E020148
:101DD000F227000EF3230201F7AF08D0030E020131
:101DE000F4130201F66DF71FD8B0F72B010E0201B4
:101DF000F86F050E0201F819D8B416D00201F85197
:101E0000020D010EF324F66E100EF420F76E090099
:101E1000F5500201F65D0900F5500201F759D8A00E
:101E200003D00201F82BE5D7F4C2F1F2030E020150
:101E3000F117D8B403D02D0E0AEC1AF0F8C2F5F25F
:101E400029D00201F551020D010EF324F66E100E99
:101E5000F420F76E0900F5CFE5F20A00F5CFE6F2BF
:101E6000F6C2E3F2F7C2E4F291EC15F0E3C2EAF253
:101E7000E4C2EBF2000E0201ED6F0A0EEC6FE5EC2E
:101E800016F00201EA51300F0201F86F0201F85119
:101E90000AEC1AF00201F5070201F529D8A4D1D7FE
:101EA000EFC2F6FFF0C2F7FF0201EF4BF02B080084
:101EB000F5CFF8F20201F851D8B412005DD70C6EDC
:101EC000000E0D6EC580C5B0FED70C500C240C6EF4
:101ED000C9CF0DF00C50FE0B43EC16F00F6E0F281F
:101EE000D8A403D0C9CF0DF0C69E0F50D8A4F2D706
:101EF000000E0F6EC7A403D0056A052A01D0056A3B
:101F0000C5501F0B05100009D8A4F4D7035043ECAB
:101F100016F00F6E0F28D8A403D0C9CF0DF0C69EBF
:101F20000F50D8A4F3D7000E0F6EC7A403D0056AD4
:101F3000052A01D0056AC5501F0B05100009D8A459
:101F4000F4D7C582C5B2FED7C9CF0DF00C50010938
:101F500043EC16F00F6E0F28D8A403D0C9CF0DF0B4
:101F6000C69E0F50D8A4F2D7000E0F6EC7A403D0A0
:101F7000056A052A01D0056AC5501F0B0510000926
:101F8000D8A4F4D7000E0E6E000E0E6E2FD00E5099
:101F9000010D7B0EF324D96E000EF420DA6EBDEC39
:101FA00019F0DF6EFF0E056EFF0E066E0450076E11
:101FB000086A05500726065008220E50096E0A6A64
:101FC0000750095C0A50800A0B6E0850800A0B58B3
:101FD000D8B005D0C59AC588C5A807D0FDD7C58A91
:101FE000C588C5B8FED7C5B8FED70E2A04500E5C0A
:101FF000D8A0CDD7C584C5A41200FDD70F0E126E90
:10200000000E136E7DD0250E1818D8B404D01850C9
:1020100018EC1AF075D0000E146E0DC0F6FF0EC04D
:10202000F7FF0D4A0E2A0800F5CF18F01850000AE5
:10203000D8B41200640AD8B403D00D0AD8A460D072
:1020400012C0D9FF13C0DAFFDECF16F0DDCF17F0D4
:10205000020E1226000E132217AE06D0030E141223
:10206000166C171ED8B0172A010E186E050E181818
:10207000D8B412D01850020D010EF324F66E100ED3
:10208000F420F76E0900F550165C0900F55017585A
:10209000D8A002D0182AEAD714C011F0030E1116E6
:1020A000D8B403D02D0E18EC1AF018C015F024D0B7
:1020B0001550020D010EF324F66E100EF420F76E8B
:1020C0000900F5CF03F00A00F5CF04F016C001F0C7
:1020D00017C002F0A5EC17F001C008F002C009F02B
:1020E000000E0B6E0A0E0A6E17EC18F00850300F37
:1020F000186E185018EC1AF015061528D8A4D8D761
:102100000DC0F6FF0EC0F7FF0D4A0E2A0800F5CFEE
:1021100018F01850D8B4120076D736AE0CD0000E96
:102120000001A86F210EA76F000E346E000E356EF1
:10213000000E366E1200345035103610D8A40CD074
:10214000000E0001A86F220EA76F000E346E000E65
:10215000356E000E366E1200000E106E000E116EFF
:10216000400E126E370E046E000E056E34C001F084
:1021700035C002F036C003F082EC14F001C00DF05F
:1021800002C00EF003C00FF01EEC12F00DC01CF0E8
:102190000EC01DF00FC01EF0000E1F6E800E206ED0
:1021A000BF0E216E0BEC0DF01CC034F01DC035F0DD
:1021B0001EC036F03706D8A0380634C028F035C027
:1021C00029F036C02AF00B0E2B6E100E2C6E000E6E
:1021D0002E6E080E2D6E0BEC13F028C034F029C0C3
:1021E00035F02AC036F0720E106E310E116E3F0EB1
:1021F000126E37C009F038C00AF076EC18F009C04A
:102200000DF00AC00EF00BC00FF01EEC12F00DC066
:102210001CF00EC01DF00FC01EF034C01FF035C002
:1022200020F036C021F00BEC0DF01CC034F01DC0C6
:1022300035F01EC036F012000201E96F000E0201F7
:10224000E86FC580C5B0FED70201E951E92502015A
:10225000E96FC9CFE8F20201E951FE0B54EC15F029
:102260000201EA6F0201EA29D8A403D0C9CFE8F23B
:10227000C69E0201EA510201D8A4EDD7000E020168
:10228000EA6FC7A404D00201E76BE72B02D002017A
:10229000E76BC5501F0B0201E7110009D8A4F1D765
:1022A0000201E55154EC15F00201EA6F0201EA293E
:1022B000D8A403D0C9CFE8F2C69E0201EA510201B8
:1022C000D8A4EED7000E0201EA6FC7A404D0020121
:1022D000E76BE72B02D00201E76BC5501F0B020131
:1022E000E7110009D8A4F1D7C9CFE8F20201E651FD
:1022F00054EC15F00201EA6F0201EA29D8A403D0D8
:10230000C9CFE8F2C69E0201EA510201D8A4EED775
:10231000000E0201EA6FC7A404D00201E76BE72BAD
:1023200002D00201E76BC5501F0B0201E711000943
:10233000D8A4F1D7C58AC588C5B8FED7C5B8FED719
:10234000C584C5A41200FDD71EC020F0216A226AF0
:102350001D34203601E3218020502A6E2A50D8A453
:1023600009D0000E1C6E000E1D6E000E1E6E000EBB
:102370001F6E1200170E206E1CC021F01DC022F02F
:102380001EC023F02028246E04D0D890233222329D
:102390002132242EFAD72150256E1D8EFF0E1C16D9
:1023A000FF0E1D16000E1E161C50266E1D50276EA9
:1023B0001E50286E296A8E0E2A5E2AAE16D02A502A
:1023C000800A8F0FD8B009D0000E1C6E000E1D6E53
:1023D000000E1E6E000E1F6E1200D8902932283299
:1023E000273226322A3EF9D715D0170E2A640FD08D
:1023F000000E1C6E000E1D6E000E1E6E000E1F6E77
:102400001200D89026362736283629362A062A5032
:10241000D8A4F7D72550D8B408D0291E281E271EC7
:10242000266C000E27222822292226C01CF027C055
:102430001DF028C01EF029C01FF012000FC013F0BD
:10244000146A156A0E34133601E314801350166EA5
:102450001650D8A407D0000E0D6E000E0E6E000EA2
:102460000F6E120012C013F0146A156A113413367D
:1024700001E3148013501B6E1B50D8A407D0000E2C
:102480000D6E000E0E6E000E0F6E12001B507B0FB5
:1024900016260FC01BF012501B1A800E1B160E8E34
:1024A000118EFF0E1016FF0E1116000E1216000EE2
:1024B000176E000E186E000E196E070E1A6E0DA024
:1024C00006D0105017261150182212501922D890F9
:1024D0000F320E320D32D8901036113612361A2EB7
:1024E000EED7090E1A6E0DA006D010501726115007
:1024F000182212501922D8900F320E320D32D89075
:102500001932183217321A2EEED717C001F018C040
:1025100002F019C003F016C004F01BC005F02BEC4C
:1025200014F001C00DF002C00EF003C00FF0120055
:102530002AC02EF02F6A306A29342E3601E32F800C
:102540002E50356E3550D8A407D0000E286E000EE0
:10255000296E000E2A6E12002DC02EF02F6A306AEE
:102560002C342E3601E32F802E50366E3650D8A4F0
:1025700007D0000E286E000E296E000E2A6E120083
:10258000000E326E000E336E000E346E3650890F20
:10259000355E2AC036F02D50361A800E3616298E3A
:1025A000FF0E2816FF0E2916000E2A162C8EFF0E7F
:1025B0002B16FF0E2C16000E2D16180E316ED8900D
:1025C0003236333634362B50285C2C5029582D5057
:1025D0002A58D8A007D02B50285E2C50295A2D50AD
:1025E0002A5A3280D890283629362A36312EE7D713
:1025F00032C001F033C002F034C003F035C004F043
:1026000036C005F02BEC14F001C028F002C029F010
:1026100003C02AF012002DC001F02EC002F0000EFF
:10262000046E030E036E68EC19F02BC02FF02CC063
:1026300030F001502F26025030222FC0F6FF30C05C
:10264000F7FF0900F5CF31F00900F5CF32F00A00AD
:10265000F5CF33F03ED031C010F032C011F033C0AE
:1026600012F028C00DF029C00EF02AC00FF01EECA9
:1026700012F00DC01CF00EC01DF00FC01EF0000EB9
:10268000046E030E036E2D06D8A02E062DC001F099
:102690002EC002F068EC19F02BC02FF02CC030F0E7
:1026A00001502F26025030222FC0F6FF30C0F7FF16
:1026B0000900F5CF1FF00900F5CF20F00A00F5CF93
:1026C00021F00BEC0DF01CC031F01DC032F01EC02B
:1026D00033F02D502E10D8A4BED731C028F032C010
:1026E00029F033C02AF012002D0E0201E56F040E0E
:1026F0000201E66F530E1CEC11F0310E0201E56F82
:102700000B0E0201E66F530E1CEC11F02C0E0201B1
:10271000E56F0A0E0201E66F530E1CEC11F02E0E4F
:102720000201E56F000E0201E66F530E1CEC11F082
:10273000280E0201E56F050E0201E66F530E1CEC38
:1027400011F0290E0201E56F140E0201E66F530E1F
:102750001CEC11F02F0E0201E56F000E0201E66F76
:10276000530E1CEC11F02E0E0201E56F040E020157
:10277000E66F530E1CEC11F02D0E0201E56F080EF2
:102780000201E66F530E1CEC11F0000E0201E56F22
:10279000010E0201E66F530EE1EC0DF000017B51DA
:1027A000120020EE87F010EE44F0040EDBCFE3FFC2
:1027B000E806FCE2D9C01CF0DAC01DF0DBC01EF058
:1027C000A4EC11F01C50496E000E106EC80E116E74
:1027D000420E126E4B0E326E000E336ED9C02FF0C9
:1027E000DAC030F0DBC031F008EC16F02FC00DF08D
:1027F00030C00EF031C00FF01EEC12F00DC041F0F1
:102800000EC042F00FC043F041C01CF042C01DF0AA
:1028100043C01EF0A4EC11F01C504A6EC70E446E6B
:1028200049C045F04AC046F0DCC047F0DDC048F082
:10283000000E4E6E040E4E6401D012004E50010D7B
:10284000440EF324D96E000EF420DA6EDF5018EC3B
:102850001AF04E2AEFD70450D8B405D00150021018
:102860000310D8A40CD0000E016E000E026E000EF4
:10287000036E1200042AD890033202320132000E95
:102880000114066E000E0214076EFE0E0314086E8D
:10289000065007100810D8B40CD0ECD7042A010E4B
:1028A0000126000E0222000E0322D89003320232CB
:1028B0000132000E0114066E000E0214076EFF0EA8
:1028C0000314086E065007100810D8B406D0E6D7D7
:1028D0000406D89001360236033602BE03D0020E3B
:1028E0000460F6D704A0029ED8900432045003126C
:1028F0000550D8A4038E01C001F002C002F003C04D
:1029000003F01200015002100310D8A40FD004C02D
:10291000D9FF05C0DAFF000EDE6E000EDD6E000E80
:10292000016E000E026E000E036E120003507F0B4C
:10293000066E076AD8900636073604C0D9FF05C070
:10294000DAFF06C0DEFF07C0DDFF02AE03D0066A75
:10295000062A01D0066A065004C0D9FF05C0DAFF76
:10296000DE12000EDD1204C0D9FF05C0DAFF820EB0
:10297000DE26FF0EDD2203800382038403860388A4
:10298000038A039C029E01C001F002C002F003C052
:1029900003F0120003AE16D001C007F002C008F029
:1029A00003C009F0071E081E091E072A000E082290
:1029B0000922000E0724016E000E0820026E800E10
:1029C0000920036E06AE16D004C007F005C008F05B
:1029D00006C009F0071E081E091E072A000E08225D
:1029E0000922000E0724046E000E0820056E800EDA
:1029F0000920066E000E011A000E021A800E031A3C
:102A0000000E041A000E051A800E061A0450015C0E
:102A10000550025806500358D8B002D0D890120082
:102A2000D8801200000E066E04AE06D0036C041EA1
:102A3000D8B0042A010E066E02AE06D0016C021E4A
:102A4000D8B0022A010E061A000E086E000E076E9C
:102A500003500410D8B41CD0010E056E04D0D890D9
:102A600003360436052A04AEFAD7D890073608365E
:102A70000350015C04500258D8A005D00350015EF9
:102A80000450025A0780D89004320332052EEDD745
:102A90000650D8B404D0076C081ED8B0082A07C066
:102AA00001F008C002F012000201E46FE4C2C9FFA5
:102AB000C6AE02D0FF0E1200C6500F0B080AD8B4E3
:102AC0000FD0C6500F0B0B0AD8B40AD0C6889EA6EA
:102AD000FED7C7A4C7B002D0FE0E1200000E12002F
:102AE000C6500F0B080AD8B405D0C6500F0B0B0AFE
:102AF000D8A41200C7B0FED7C7A404D00201E36B6C
:102B0000E32B02D00201E36BC5501F0B0201E3115E
:102B10000009D8A4F1D7C5AC02D0FE0E1200000EF9
:102B20001200000E0201E96F000EE86F0201E5518C
:102B30000201E611D8B42CD0010E0201E76F06D0D5
:102B40000201D890E537E6370201E72B0201E6AF34
:102B5000F7D70201D890E837E9370201E5510201C1
:102B6000E35D0201E6510201E459D8A00AD0020156
:102B7000E5510201E35F0201E6510201E45B02015B
:102B8000E8810201D890E633E5330201E72FE1D76F
:102B9000E8C2E3F2E9C2E4F2120002EEFDF01BEE3D
:102BA000B8F0EE6AE550E150FCE1E250FAE102EEE5
:102BB00000F0E30EEE6AE806FDE101EEE4F0190E26
:102BC000EE6AE806FDE100EE60F0520EEE6AE806FD
:102BD000FDE15D0EF66E340EF76E000EF86E090024
:102BE000F5CFFDF15A0EF66E340EF76E000EF86E4C
:102BF0000900F5CFDEF00900F5CFDFF00900F5CFD1
:102C0000E0F05F905F92000EF86E0001D8EF19F0CF
:102C10002FC01CF030C01DF031C01EF0A4EC11F02C
:102C20001CC02BF01DC02CF01EC02DF057EC18F06E
:102C300032C0D9FF33C0DAFF2BC0DEFF2CC0DEFF6D
:102C40002DC0DEFF32C0D9FF33C0DAFFDECF01F086
:102C5000DECF02F0DDCF03F08DEC19F001C01CF0E7
:102C600002C01DF003C01EF02FC01FF030C020F0C6
:102C700031C021F00BEC0DF01CC02FF01DC030F066
:102C80001EC031F01200026E02C0C9FFC6AE02D0F3
:102C9000FF0E1200C6500F0B080AD8B40FD0C65052
:102CA0000F0B0B0AD8B40AD0C6889EA6FED7C7A4BD
:102CB000C7B002D0FE0E1200000E1200C6500F0B5D
:102CC000080AD8B405D0C6500F0B0B0AD8A41200BE
:102CD000C7B0FED7C7A403D0016A012A01D0016A98
:102CE000C5501F0B01100009D8A4F4D7C5AC02D001
:102CF000FE0E1200000E1200000E356EE1EC18F010
:102D000005C036F006C037F0D8900101F635D96E0F
:102D10000101F735DA6EFD0ED926020EDA2236C031
:102D2000DEFF37C0DDFFE80E0101F65D030E010195
:102D3000F759D8A00FD028EC0BF00101F86F010172
:102D4000F851D8A4F8C1F9F1000E0101F76F000E97
:102D5000F66F03D00101F64BF72B0101FD51020F75
:102D60000101FD6F12000201E76F000EC26E000E3E
:102D7000C16E000EC06E0201E3517C0BC26EE4C254
:102D8000C1FFE7C2E5F20201D890E5370201D89011
:102D9000E537380E0201E517E7C2E6F20201E63B2D
:102DA0000F0EE617070E0201E6170201E751800B2E
:102DB0000201E6110201E511C06E0201E3AF03D08A
:102DC0009E9C9D8CF28CC28012000201EC5102018B
:102DD000ED11D8B426D0010E0201EE6F06D002012B
:102DE000D890EC37ED370201EE2B0201EDAFF7D7AB
:102DF0000201EC510201EA5D0201ED510201EB59C1
:102E0000D8A008D00201EC510201EA5F0201ED51A5
:102E10000201EB5B0201D890ED33EC330201EE2F9F
:102E2000E7D7EAC2EAF2EBC2EBF212000201E56F69
:102E3000000EAC6E000EAB6E0201E5B1AC88020173
:102E4000E5A302D0AC8CAB8C0201E5B5AC8E0201DF
:102E5000E5A702D0AB8801D0AB8A0201E5B9AC840A
:102E60000201E5BBAB860201E5AD02D09D8A01D02F
:102E70009D9A0201E5AF02D09D8801D09D98E3C2E2
:102E8000AFFF0201E451B06EAC8AAB8E12000201BA
:102E9000E86F11D0970E0001AE6F850E0101F36F40
:102EA000ED0E07D0D70E0001AE6F000E0101F36FDB
:102EB000E50EF26F08D00201E851010AD8B4EAD752
:102EC000030AD8B4EFD70201E8510201D8A403D015
:102ED00028EC1AF012000001AE5155EC19F0F2C1C5
:102EE000E3F2F3C1E4F2F8EC19F0F29412000101FC
:102EF000F44BF52B0101EE4BEF2BE80E0101F45DD5
:102F0000030E0101F559D8A007D00101FB2B000EDB
:102F10000101F56F000EF46F040E0101EE190101BD
:102F2000EF11D8A407D07CEC16F0000E0101EF6F72
:102F3000000EEE6F3C0E0101FB19D8A41200010136
:102F4000FA2B000E0101FB6F1200000E066E000E40
:102F5000056E03500410D8B41CD0010E076E04D0C7
:102F6000D89003360436072A04AEFAD7D89005362F
:102F700006360350015C04500258D8A005D0035017
:102F8000015E0450025A0580D89004320332072EA5
:102F9000EDD705C001F006C002F01200000E0201DC
:102FA000FB6F000E0201FA6F000EF96F1C0E02019A
:102FB000FB6F000E0201FA6F330EF96F4F0EAB1666
:102FC000AC9ACF0E9D16F9C2E3F2FAC2E4F2020106
:102FD000FB5116EC17F0260E0201EF6F100E0201E6
:102FE000F06FB5EC0EF0120039C034F03AC035F095
:102FF0003BC036F08DEC10F034C03CF035C03DF0F5
:1030000036C03EF03CC00DF03DC00EF03EC00FF0AB
:103010005C0E106EDE0E116E3E0E126E1EEC12F085
:103020000DC039F00EC03AF00FC03BF012000A504C
:103030000B10D8B418D0010E0C6E04D0D8900A36FC
:103040000B360C2A0BAEFAD70A50085C0B50095805
:10305000D8A004D00A50085E0B50095AD8900B3201
:103060000A320C2EF1D708C008F009C009F012008E
:103070000F013A970F013A9994869488C69A000EE8
:103080000201E36F080E9FEC19F0130EC86EC7A47F
:1030900004D00201E56BE52B02D00201E56BC550BF
:1030A0001F0B0201E5110009D8B41200F0D7000E81
:1030B0002E6E2DAE08D02D1E2C1E2B6C000E2C2239
:1030C0002D22010E2E6E2BC001F02CC002F02DC05F
:1030D00003F08E0E046E2EC005F02BEC14F001C030
:1030E0002BF002C02CF003C02DF01200000E0C6E6D
:1030F0000AAE06D0096C0A1ED8B00A2A010E0C6E60
:1031000009C001F00AC002F0036A8E0E046E0CC002
:1031100005F02BEC14F001C009F002C00AF003C066
:103120000BF01200000E0201E86F000E0201E96FC1
:10313000000E0201EA6FA10E0201E86F270E0201E4
:10314000E96FFC0E0201EA6FE9C2E3F2EAC2E4F2BF
:103150000201E851B3EC16F01200010E0101FC6F00
:1031600082B603D0386A382A01D0386A38463846E1
:10317000384682503818F70B3818826E77EC17F003
:10318000F2C101F0F3C102F001EC1AF0F294120066
:1031900024EC1AF0CBEC19F0CEEC17F0000E020183
:1031A000E76F020E47EC17F0E3EC19F092EC18F021
:1031B00038EC18F074EC13F00201FC6FF28CF28E14
:1031C0001200000E086E000E076EAF0EEEEC19F046
:1031D0002BEC1AF01EEC1AF00009D8A4FBD711EC66
:1031E0001AF001C007F002C008F007C005F008C0DF
:1031F00006F01200000E086E000E076EB70EEEEC21
:1032000019F02BEC1AF01EEC1AF00009D8A4FBD729
:1032100011EC1AF001C007F002C008F007C005F079
:1032200008C006F012000001B151010D000EF32498
:10323000D96E020EF420DA6E2AEC19F0DF6E4E0E13
:103240000D6E100E0E6E00C20FF0106AFEEC0FF045
:103250009E9A1200F20E0001AF17ABAC06D000012F
:10326000AF91ABA002D00001AF81ABA402D00001AE
:10327000AF85ABA202D00001AF87AECF01F0015005
:10328000120002AE0DD001C003F002C004F0031E14
:10329000041E034A042A03C001F004C002F0120015
:1032A00001C001F002C002F012000201E36F02014E
:1032B000E3517F0BD56E000ED76E000ED66EF294E2
:1032C0000201E3AF02D0F28A01D0F29AD58E120049
:1032D00001500302F3CF05F0F4CF06F001500402D1
:1032E000F350062602500302F350062605C001F0F3
:1032F00006C002F0120009C001F00AC002F0036A21
:103300008E0E046E000E056E2BEC14F001C009F059
:1033100002C00AF003C00BF01200015002100310AB
:10332000D8B406D0000E011A000E021A800E031A3D
:1033300001C001F002C002F003C003F0120002015C
:10334000E46F3F0EC716000EC66E000EC56E02017A
:10335000E451C6120201E351C712C68A1200C650D8
:103360000F0B080AD8B404D0C6500F0B0B0AD8B400
:10337000C586C7A0FED7C9501200C6500F0B080A59
:10338000D8B404D0C6500F0B0B0AD8B4C586C7A05A
:10339000FED7C95012000F013A95949482949296E8
:1033A000809693880F013989938A0F01398B120017
:1033B000C8EC18F03D0E0201EF6F100E0201F06F25
:1033C000B5EC0EF0FFD7F1949F8A9D8A9E9AF28801
:1033D000F18CF19EF28CF28EF28E1200026E02C01F
:1033E00001F07C0E0116C250830B0110C26E120058
:1033F000E3C2E5F2E4C2E6F2E6C2D7FFE5C2D6FFD9
:10340000120001C003F002C004F004C0D7FF03C0E3
:10341000D6FF12000201E36F9EA8FED7E3C2ADFF04
:103420001200C450036EC350016E03C002F01200BC
:10343000016E9EA8FED701C0ADFF1200C2A202D04D
:10344000010E1200000E1200D388D38AD38C120012
:0E345000D59EF29A1200C282120000004002C5
:020000040020DA
:08000000FFFFFFFFFFFFFFFF00
:020000040030CA
:0E000000FF331F3CFFBF85FF0FC00FE00F4016
:00000001FF
