:0400000054EF00F0C9
:100008005F82FACFAEF0FBCFAFF0E9CFB0F0EACF26
:10001800B1F0E1CFB2F0E2CFB3F0D9CFB4F0DACF9C
:10002800B5F0F3CFB6F0F4CFB7F0F6CFB8F0F7CF1E
:10003800B9F0F8CFBAF0F5CFBBF0F2B4F1A402D022
:1000480004EC32F09EBA9DAA03D095EC33F09E9A48
:10005800F2A208D0300E036E010E046E530EE2ECCD
:1000680023F0F292BBC0F5FFBAC0F8FFB9C0F7FFA2
:10007800B8C0F6FFB7C0F4FFB6C0F3FFB5C0DAFFEB
:10008800B4C0D9FFB3C0E2FFB2C0E1FFB1C0EAFF1C
:10009800B0C0E9FFAFC0FBFFAEC0FAFF5F9211002E
:0400A800BFEF2DF089
:1010000000010000000A00000064000000E8030086
:101010000010270000A086010040420F0080969833
:101020000000E1F50500CA9A3B00803FCDCC3DD7DA
:10103000233C12833AB7D138C62737388635C0D615
:1010400033CC2B32708930E7DB2EE53C1E42A20DFB
:1010500000803F00204100C842007A44401C4650B6
:10106000C34724744997184BBCBE4C6B6E4E031596
:101070005079AD60F3497100000000803FF0FFBE81
:10108000E2A93E8376BEAE2B3E3CC3BDD2133D7873
:10109000D3BB0A092054656D703A20256609464382
:1010A0003A25640920506F733A2025642000536D5F
:1010B0006172742053686972742076312E3000009A
:1010C000CF0E0201D86F020E0201D96FE7D3250EB1
:1010D0000201EB19D8B405D00201EB511AEC34F03F
:1010E000DDD3000E0201DB6F000EDA6F03D00201C8
:1010F000DB8518D0CDC2F6FFCEC2F7FF0201CD4B83
:10110000CE2B0800F5CFEBF20201EB51000AD8B468
:101110001200640AD8B406D0020AD8B4E8D70F0A7D
:10112000D8A4BCD3070E0201DB15D8B404D3000E3B
:101130000201DD6F060EDC6FD8C2D9FFD9C2DAFF1B
:10114000DECFE8F2DECFE9F2DDCFEAF2030E0201F4
:10115000D827000ED9230201EAAF11D0E8C28EF2DF
:10116000E9C28FF2EAC290F2DEEC32F08EC2E8F20F
:101170008FC2E9F290C2EAF2030E0201DA13000E06
:101180000201E36F000EE26F0201E8510201E91172
:101190000201EA11D8B49BD0820E0201CF6FFF0E7C
:1011A0000201D06FE8C2D1F2E9C2D2F2EAC2D3F2B0
:1011B000EBC2D4F2100E06D00201D890D433D33350
:1011C000D233D133E82EF8D70201D1510201CF2515
:1011D0000201E26F000E0201D0210201E36F020161
:1011E000E207D8A0E307E2C29CF2E3C29DF2000E40
:1011F00002019F6F030E9E6F5DEC32F09CC2E2F223
:101200009DC2E3F2E2C294F2E3C295F2000E020143
:10121000976F0A0E966FAFEC29F094C2E2F295C276
:10122000E3F20201E3AF04D00201E207D8A0E30732
:101230000201E25100085AEC13F0B1C2E4F2B2C26A
:10124000E5F2B3C2E6F2E4C2A2F2E5C2A3F2E6C25C
:10125000A4F2E8C2A5F2E9C2A6F2EAC2A7F2F1EC52
:1012600021F0A2C2E4F2A3C2E5F2A4C2E6F2E4C213
:101270008EF2E5C28FF2E6C290F2000E0201916F8B
:10128000800E0201926F3F0E0201936F4BEC29F02A
:101290000201D8B005D00201E207D8A0E30717D0B9
:1012A000E4C28EF2E5C28FF2E6C290F2000E0201B5
:1012B000916F200E0201926F410E0201936F4BEC71
:1012C00029F00201D8A003D00201E24BE32B020176
:1012D000DDBF08D00201DD511DE10D0E0201DC5D14
:1012E000D8B018D0E8C2BBF2E9C2BCF2EAC2BDF283
:1012F0000201DC5107EC1BF0B1C2BEF2B2C2BFF278
:10130000B3C2C0F25DEC1CF0BBC2E8F2BCC2E9F2B1
:10131000BDC2EAF20201E3BF08D00201E3512AE1B3
:101320000A0E0201E25DD8B025D00201E8510201A7
:10133000E9110201EA11D8B463D0E8C2B8F2E9C2F7
:10134000B9F2EAC2BAF2A0EC22F00201B8510201ED
:10135000B9110201BA110201BB11D8A451D0020186
:10136000E3BF4ED00201E35105E1020E0201E25D4E
:10137000D8A046D0E4C28EF2E5C28FF2E6C290F267
:10138000700E0201916F890E0201926F400E0201F0
:10139000936F4BEC29F00201D8B003D00201F70E95
:1013A00002D00201F80EE227FF0EE3230201E25110
:1013B0005AEC13F0B1C2E4F2B2C2E5F2B3C2E6F203
:1013C000E8C28EF2E9C28FF2EAC290F2E4C291F270
:1013D000E5C292F2E6C293F25EEC20F08EC2DEF23B
:1013E0008FC2DFF290C2E0F291C2E1F2000E020180
:1013F000E86F000E0201E96F000E0201EA6F33D0C0
:10140000E8C2B8F2E9C2B9F2EAC2BAF2A0EC22F03C
:10141000B8C2DEF2B9C2DFF2BAC2E0F2BBC2E1F298
:10142000E8C2C7F2E9C2C8F2EAC2C9F2DEC296F265
:10143000DFC297F2E0C298F2E1C299F2C3EC2EF05B
:1014400096C2CAF297C2CBF298C2CCF276EC31F0D7
:10145000C7C2E8F2C8C2E9F2C9C2EAF2000E02014C
:10146000E36F000EE26F010E0201EB6F0A0E020144
:10147000EB19D8B41ED00201EB51040D010EF32478
:10148000F66E100EF420F76E0900F5500201DE5DD5
:101490000900F5500201DF590900F5500201E05939
:1014A0000900F5500201E159D8A003D00201EB2B4D
:1014B000DDD7030E0201DA150201CF6F000E020123
:1014C000DB150201D06F0201CF510201D011D8B457
:1014D0004BD02D0E1AEC34F047D0DEC28EF2DFC2B4
:1014E0008FF2E0C290F2E1C291F20201EB51040DE1
:1014F000010EF324F66E100EF420F76E0900F5CFFE
:1015000092F20900F5CF93F20900F5CF94F20A00A8
:10151000F5CF95F20EEC2AF08EC2E4F28FC2E5F21E
:1015200090C2E6F291C2E7F2E4C29BF2E5C29CF2FD
:10153000E6C29DF2E7C29EF20A0E02019F6F000E04
:10154000A06F000EA16F000EA26FCAEC2BF09BC221
:10155000E4F29CC2E5F29DC2E6F29EC2E7F202010D
:10156000E451300F1AEC34F00201EB070201EB29D1
:10157000D8B408D0B2D7300E1AEC34F00201E2072A
:10158000D8A0E3070201E3BF07D00201E351F3E172
:101590000201E205D8B0EFD70201DDBF0CD0020195
:1015A000DD5105E1090E0201DC5DD8A004D0080E72
:1015B0000201EB6F02D0DCC2EBF20201EB5102013F
:1015C000DC5F000E0201EBBFFF0E0201DD5B0201DA
:1015D000EB510201D8B403D02E0E1AEC34F0020104
:1015E000EB515AEC13F0B1C2D5F2B2C2D6F2B3C28B
:1015F000D7F2E8C2A5F2E9C2A6F2EAC2A7F2D5C2C2
:10160000A2F2D6C2A3F2D7C2A4F2F1EC21F0A2C298
:10161000B8F2A3C2B9F2A4C2BAF2A0EC22F0B8C2E6
:10162000DEF2B9C2DFF2BAC2E0F2BBC2E1F26ED0C2
:10163000DEC28EF2DFC28FF2E0C290F2E1C291F21E
:101640000201EB51040D010EF324F66E100EF4208E
:10165000F76E0900F5CF92F20900F5CF93F2090079
:10166000F5CF94F20A00F5CF95F20EEC2AF08EC277
:10167000E4F28FC2E5F290C2E6F291C2E7F2E4C270
:101680009BF2E5C29CF2E6C29DF2E7C29EF20A0E10
:1016900002019F6F000EA06F000EA16F000EA26FDF
:1016A000CAEC2BF09BC2E4F29CC2E5F29DC2E6F2CA
:1016B0009EC2E7F20201E451300F1AEC34F0DEC2B0
:1016C0009BF2DFC29CF2E0C29DF2E1C29EF20201F7
:1016D000EB51040D010EF324F66E100EF420F76E9C
:1016E0000900F5CF9FF20900F5CFA0F20900F5CF70
:1016F000A1F20A00F5CFA2F2CAEC2BF09BC2DEF2F7
:101700009CC2DFF29DC2E0F29EC2E1F20201EB0751
:101710000201EB29D8B408D08BD7300E1AEC34F084
:101720000201DC07D8A0DD070201DC510201DD1156
:10173000D8B4B4D0F2D7D8C2D9FFD9C2DAFFDECF3D
:10174000DEF2DDCFDFF20201000EDFBFFF0EE06F41
:10175000E16F020E0201D827000ED9230201E1AF8A
:101760000CD0030E0201DA130201E11FE01FDF1F9C
:10177000DE6D000EDF23E023E123010E0201EB6F9B
:101780000A0E0201EB19D8B41ED00201EB51040D70
:10179000010EF324F66E100EF420F76E0900F550DA
:1017A0000201DE5D0900F5500201DF590900F55024
:1017B0000201E0590900F5500201E159D8A003D017
:1017C0000201EB2BDDD7030E0201DA150201CF6F08
:1017D000000E0201DB150201D06F0201CF510201A0
:1017E000D011D8B403D02D0E1AEC34F00201EB5115
:1017F0000201DC6FDD6BDCBFDD0745D0DCC2CFF260
:10180000DDC2D0F20201D890CF37D0370201D89094
:10181000CF37D037010E0201CF25F66E100ED02142
:10182000F76E0900F5CF92F20900F5CF93F20900A7
:10183000F5CF94F20A00F5CF95F2DEC28EF2DFC248
:101840008FF2E0C290F2E1C291F20EEC2AF08EC269
:101850009BF28FC29CF290C29DF291C29EF20A0E40
:1018600002019F6F000EA06F000EA16F000EA26F0D
:10187000CAEC2BF002019B51300F0201EB6F020109
:10188000EB511AEC34F00201DC07D8A0DD070201AD
:10189000DC29B4E10201DD29D8A4B0D7CDC2F6FF1E
:1018A000CEC2F7FF0201CD4BCE2B0800F5CFEBF2F5
:1018B0000201EB51D8B412000AD4880E0001986FCF
:1018C000000E0001996FD1D3250E0001AB19D8B4D9
:1018D00005D00001AB512EEC34F0C7D3000E00014F
:1018E0009B6F000E9A6F03D000019B8518D086C0B5
:1018F000F6FF87C0F7FF0001864B872B0800F5CF66
:10190000ABF00001AB51000AD8B41200640AD8B49D
:1019100006D0020AD8B4E8D70F0AD8A4A6D3070E77
:1019200000019B15D8B4F0D2000E00019D6F060E89
:101930009C6F98C0D9FF99C0DAFFDECFA8F0DECF48
:10194000A9F0DDCFAAF0030E00019827000E99231D
:101950000001AAAF11D0A8C04CF0A9C04DF0AAC098
:101960004EF071EC33F04CC0A8F04DC0A9F04EC061
:10197000AAF0030E00019A13000E0001A36F000EDF
:10198000A26F0001A8510001A9110001AA11D8B449
:1019900091D0820E00018F6FFF0E0001906FA8C0E2
:1019A00091F0A9C092F0AAC093F0ABC094F0100ED1
:1019B00006D00001D8909433933392339133E82EBC
:1019C000F8D70001915100018F250001A26F000E90
:1019D000000190210001A36F0001A207D8A0A30776
:1019E000A2C00FF0A3C010F0000E126E030E116E15
:1019F0005EEC33F00FC0A2F010C0A3F0A2C007F05D
:101A0000A3C008F0000E0A6E0A0E096E7DEC2DF0E0
:101A100007C0A2F008C0A3F00001A3AF04D00001EA
:101A2000A207D8A0A3070001A2510008B1EC15F04D
:101A300024C0A4F025C0A5F026C0A6F0A4C015F0CF
:101A4000A5C016F0A6C017F0A8C018F0A9C019F0DC
:101A5000AAC01AF065EC28F015C0A4F016C0A5F0D5
:101A600017C0A6F0A4C00DF0A5C00EF0A6C00FF0E0
:101A7000000E106E800E116E3F0E126E62EC2CF096
:101A8000D8B005D00001A207D8A0A30713D0A4C0E6
:101A90000DF0A5C00EF0A6C00FF0000E106E200EC7
:101AA000116E410E126E62EC2CF0D8A003D0000132
:101AB000A24BA32B00019DBF08D000019D511DE149
:101AC0000D0E00019C5DD8B018D0A8C04FF0A9C081
:101AD00050F0AAC051F000019C5191EC1DF024C0BF
:101AE00052F025C053F026C054F0B4EC1EF04FC0A5
:101AF000A8F050C0A9F051C0AAF00001A3BF08D0BF
:101B00000001A35126E10A0E0001A25DD8B021D048
:101B10000001A8510001A9110001AA11D8B45BD09D
:101B2000A8C02BF0A9C02CF0AAC02DF0EBEC27F038
:101B30002B502C102D102E10D8A44DD00001A3BF77
:101B40004AD00001A35105E1020E0001A25DD8A018
:101B500042D0A4C00DF0A5C00EF0A6C00FF0700ECC
:101B6000106E890E116E400E126E62EC2CF0D8B021
:101B700003D00001F70E02D00001F80EA227FF0EDD
:101B8000A3230001A251B1EC15F024C0A4F025C09C
:101B9000A5F026C0A6F0A8C001F0A9C002F0AAC016
:101BA00003F0A4C004F0A5C005F0A6C006F01DEC2B
:101BB00025F001C09EF002C09FF003C0A0F004C059
:101BC000A1F0000E0001A86F000E0001A96F000E29
:101BD0000001AA6F33D0A8C02BF0A9C02CF0AAC076
:101BE0002DF0EBEC27F02BC09EF02CC09FF02DC009
:101BF000A0F02EC0A1F0A8C060F0A9C061F0AAC0FA
:101C000062F09EC009F09FC00AF0A0C00BF0A1C016
:101C10000CF01FEC31F009C063F00AC064F00BC097
:101C200065F09CEC31F060C0A8F061C0A9F062C022
:101C3000AAF0000E0001A36F000EA26F010E0001BA
:101C4000AB6F0A0E0001AB19D8B41ED00001AB5126
:101C5000040D010EF324F66E100EF420F76E090049
:101C6000F55000019E5D0900F55000019F590900E3
:101C7000F5500001A0590900F5500001A159D8A064
:101C800003D00001AB2BDDD7030E00019A15000134
:101C90008F6F000E00019B150001906F00018F51A6
:101CA00000019011D8B44AD02D0E2EEC34F046D05D
:101CB0009EC001F09FC002F0A0C003F0A1C004F0DC
:101CC0000001AB51040D010EF324F66E100EF4204A
:101CD000F76E0900F5CF05F00900F5CF06F0090011
:101CE000F5CF07F00A00F5CF08F041EC2EF001C067
:101CF000A4F002C0A5F003C0A6F004C0A7F0A4C0E1
:101D00000EF0A5C00FF0A6C010F0A7C011F00A0E8B
:101D1000126E000E136E000E146E000E156E59EC4E
:101D200030F00EC0A4F00FC0A5F010C0A6F011C096
:101D3000A7F00001A451300F2EEC34F00001AB07E6
:101D40000001AB29D8B408D0B3D7300E2EEC34F054
:101D50000001A207D8A0A3070001A3BF07D000017C
:101D6000A351F3E10001A205D8B0EFD700019DBF58
:101D70000CD000019D5105E1090E00019C5DD8A029
:101D800004D0080E0001AB6F02D09CC0ABF0000184
:101D9000AB5100019C5F000E0001ABBFFF0E0001C4
:101DA0009D5B0001AB510001D8B403D02E0E2EEC88
:101DB00034F00001AB51B1EC15F024C095F025C012
:101DC00096F026C097F0A8C018F0A9C019F0AAC0D4
:101DD0001AF095C015F096C016F097C017F065EC94
:101DE00028F015C02BF016C02CF017C02DF0EBEC2E
:101DF00027F02BC09EF02CC09FF02DC0A0F02EC06D
:101E0000A1F06DD09EC001F09FC002F0A0C003F011
:101E1000A1C004F00001AB51040D010EF324F66ED5
:101E2000100EF420F76E0900F5CF05F00900F5CF8C
:101E300006F00900F5CF07F00A00F5CF08F041ECF5
:101E40002EF001C0A4F002C0A5F003C0A6F004C0AB
:101E5000A7F0A4C00EF0A5C00FF0A6C010F0A7C058
:101E600011F00A0E126E000E136E000E146E000EAC
:101E7000156E59EC30F00EC0A4F00FC0A5F010C0E4
:101E8000A6F011C0A7F00001A451300F2EEC34F0E1
:101E90009EC00EF09FC00FF0A0C010F0A1C011F0C6
:101EA0000001AB51040D010EF324F66E100EF42068
:101EB000F76E0900F5CF12F00900F5CF13F0090015
:101EC000F5CF14F00A00F5CF15F059EC30F00EC044
:101ED0009EF00FC09FF010C0A0F011C0A1F0000153
:101EE000AB070001AB29D8B408D08CD7300E2EEC4C
:101EF00034F000019C07D8A09D0700019C5100010F
:101F00009D11D8B4B2D0F2D798C0D9FF99C0DAFFEA
:101F1000DECF9EF0DDCF9FF00001000E9FBFFF0ED1
:101F2000A06FA16F020E00019827000E99230001F7
:101F3000A1AF0CD0030E00019A130001A11FA01F36
:101F40009F1F9E6D000E9F23A023A123010E000161
:101F5000AB6F0A0E0001AB19D8B41ED00001AB5113
:101F6000040D010EF324F66E100EF420F76E090036
:101F7000F55000019E5D0900F55000019F590900D0
:101F8000F5500001A0590900F5500001A159D8A051
:101F900003D00001AB2BDDD7030E00019A15000121
:101FA0008F6F000E00019B150001906F00018F5193
:101FB00000019011D8B403D02D0E2EEC34F00001A6
:101FC000AB5100019C6F9D6B9CBF9D0743D09CC093
:101FD0008FF09DC090F00001D8908F3790370001AE
:101FE000D8908F379037010E00018F25F66E100EB6
:101FF0009021F76E0900F5CF05F00900F5CF06F046
:102000000900F5CF07F00A00F5CF08F09EC001F0F7
:102010009FC002F0A0C003F0A1C004F041EC2EF07C
:1020200001C00EF002C00FF003C010F004C011F0A8
:102030000A0E126E000E136E000E146E000E156E58
:1020400059EC30F00E50300F0001AB6F0001AB5176
:102050002EEC34F000019C07D8A09D0700019C29BC
:10206000B6E100019D29D8A4B2D786C0F6FF87C08B
:10207000F7FF0001864B872B0800F5CFABF000017E
:10208000AB51D8B4120020D4000E0001766FA00E20
:102090000001776F400E0001786F330E0001736FFF
:1020A000530E0001746F400E0001756FF00E0001B9
:1020B000796F3F0E00017A6F400E00017B6FC00EFA
:1020C00000017C6F8F0E00017D6F450E00017E6F59
:1020D000900E00017F6F8E0E0001806F450E000193
:1020E000816F000E0001886F4D0E0001896F440E54
:1020F00000018A6F330E186E530E196E400E1A6E61
:10210000ACEC32F005C009F006C00AF041EC32F048
:1021100009C015F00AC016F00BC017F065EC28F0E6
:1021200015C060F016C061F017C062F0000E00012B
:10213000636F800E0001646F440E0001656F42EC16
:1021400023F060C08EF061C08FF062C090F08EC04E
:1021500060F08FC061F090C062F076C063F077C02D
:1021600064F078C065F042EC23F060C08EF061C08E
:102170008FF062C090F07CC052F07DC053F07EC002
:1021800054F088C04FF089C050F08AC051F0B4ECD0
:102190001EF04FC063F050C064F051C065F088C0BD
:1021A00060F089C061F08AC062F042EC23F060C048
:1021B00082F061C083F062C084F079C063F07AC0BD
:1021C00064F07BC065F08EC060F08FC061F090C09D
:1021D00062F042EC23F060C04FF061C050F062C08A
:1021E00051F082C052F083C053F084C054F0B4EC7C
:1021F0001EF04FC08BF050C08CF051C08DF08BC0E2
:1022000018F08CC019F08DC01AF07FC015F080C096
:1022100016F081C017F065EC28F015C060F016C00C
:1022200061F017C062F0000E526E800E536E3F0ECA
:10223000546E8BC04CF08CC04DF08DC04EF071ECE4
:1022400033F04CC04FF04DC050F04EC051F0B4ECE4
:102250001EF04FC063F050C064F051C065F042EC16
:1022600023F060C097F061C098F062C099F097C009
:102270000DF098C00EF099C00FF0DA0E106EE30E5C
:10228000116E440E126E62EC2CF0D8A05BD0720E70
:102290000001636FCF0E0001646F450E0001656F92
:1022A00097C060F098C061F099C062F042EC23F0F2
:1022B00060C06DF061C06EF062C06FF0C2EC31F0D2
:1022C0006DC091F06EC092F06FC093F02B0E0001C4
:1022D0006D6F750E00016E6F3F0E00016F6FC2ECE7
:1022E00031F06DC063F06EC064F06FC065F0000E39
:1022F000186E800E196EBF0E1A6E91C015F092C046
:1023000016F093C017F065EC28F015C060F016C009
:1023100061F017C062F042EC23F060C094F061C03D
:1023200095F062C096F094C015F095C016F096C076
:1023300017F0000E186E800E196EBF0E1A6E65EC47
:1023400028F0ABD197C00DF098C00EF099C00FF0F7
:10235000A30E106EB80E116E440E126E62EC2CF0CD
:10236000D8A05BD01C0E0001636FC80E0001646F23
:10237000450E0001656F97C060F098C061F099C08C
:1023800062F042EC23F060C06DF061C06EF062C09C
:102390006FF0C2EC31F06DC091F06EC092F06FC082
:1023A00093F0760E00016D6F750E00016E6F3F0E9B
:1023B00000016F6FC2EC31F06DC063F06EC064F06D
:1023C0006FC065F0000E186E800E196EBF0E1A6E8B
:1023D00091C015F092C016F093C017F065EC28F08C
:1023E00015C060F016C061F017C062F042EC23F037
:1023F00060C094F061C095F062C096F094C015F092
:1024000095C016F096C017F0000E186E800E196E6B
:10241000BF0E1A6E65EC28F040D197C00DF098C041
:102420000EF099C00FF09A0E106E960E116E440EBB
:10243000126E62EC2CF0D8A05BD0300E0001636FFE
:10244000BF0E0001646F450E0001656F97C060F01C
:1024500098C061F099C062F042EC23F060C06DF06A
:1024600061C06EF062C06FF0C2EC31F06DC091F0EF
:102470006EC092F06FC093F0C80E00016D6F750EC4
:1024800000016E6F3F0E00016F6FC2EC31F06DC046
:1024900063F06EC064F06FC065F0000E186E800EC1
:1024A000196EBF0E1A6E91C015F092C016F093C04F
:1024B00017F065EC28F015C060F016C061F017C089
:1024C00062F042EC23F060C094F061C095F062C00D
:1024D00096F094C015F095C016F096C017F0000E57
:1024E000186E800E196EBF0E1A6E65EC28F0D5D0EE
:1024F00097C00DF098C00EF099C00FF0060E106E48
:10250000770E116E440E126E62EC2CF0D8A05BD0E8
:10251000190E0001636FB70E0001646F450E0001D4
:10252000656F97C060F098C061F099C062F042ECAE
:1025300023F060C06DF061C06EF062C06FF0C2EC5D
:1025400031F06DC091F06EC092F06FC093F00C0E40
:1025500000016D6F760E00016E6F3F0E00016F6F10
:10256000C2EC31F06DC063F06EC064F06FC065F016
:10257000000E186E800E196EBF0E1A6E91C015F007
:1025800092C016F093C017F065EC28F015C060F00B
:1025900016C061F017C062F042EC23F060C094F006
:1025A00061C095F062C096F094C015F095C016F029
:1025B00096C017F0000E186E800E196EBF0E1A6EC0
:1025C00065EC28F06AD097C00DF098C00EF099C065
:1025D0000FF0ED0E106E4A0E116E440E126E62EC8C
:1025E0002CF0D8A060D0400E0001636FAE0E000149
:1025F000646F450E0001656F97C060F098C061F090
:1026000099C062F042EC23F060C06DF061C06EF0E2
:1026100062C06FF0C2EC31F06DC091F06EC092F00C
:102620006FC093F0510E00016D6F760E00016E6F5A
:102630003F0E00016F6FC2EC31F06DC063F06EC0F1
:1026400064F06FC065F0000E186E800E196EBF0E3C
:102650001A6E91C015F092C016F093C017F065EC99
:1026600028F015C060F016C061F017C062F042ECAF
:1026700023F060C094F061C095F062C096F094C001
:1026800015F095C016F096C017F0000E186E800E6B
:10269000196EBF0E1A6E65EC28F015C085F016C0D5
:1026A00086F017C087F085C0D4F086C0D5F087C00B
:1026B000D6F012000201B76F0201B7AF2AD10201B2
:1026C000B76D0201B751800A120FD8A0ACD0000E2E
:1026D00002019F6F030E9E6F000E0201976F0A0E9C
:1026E000966F000E0201916F640E906F0201B75158
:1026F00002018E6F8F6B8EBF8F0779EC2BF08EC22D
:1027000094F28FC295F2AFEC29F0090E02019425E4
:1027100002019C6F000E0201952102019D6F5DEC8C
:1027200032F0290E02019C25F66E100E02019D2149
:10273000F76E0900F5CFA5F20900F5CFA6F20A0061
:10274000F5CFA7F2000E0201976F640E966F02019B
:10275000B7510201946F956B94BF9507AFEC29F0C8
:10276000120E0201942502019C6F000E02019521B8
:1027700002019D6F000E02019F6F030E9E6F5DECC4
:1027800032F0290E02019C25F66E100E02019D21E9
:10279000F76E0900F5CFA2F20900F5CFA3F20A0007
:1027A000F5CFA4F2F1EC21F0A2C2B4F2A3C2B5F2CB
:1027B000A4C2B6F2B4C2A2F2B5C2A3F2B6C2A4F2E7
:1027C000000E02019F6F030E9E6F000E0201916FBB
:1027D0000A0E906F0201B75102018E6F8F6B8EBF90
:1027E0008F0779EC2BF08EC29CF28FC29DF25DECCC
:1027F00032F0290E02019C25F66E100E02019D2179
:10280000F76E0900F5CFA5F20900F5CFA6F20A0090
:10281000F5CFA7F2F1EC21F0A2C2B1F2A3C2B2F25D
:10282000A4C2B3F212000201B751800A750FD8A0FA
:102830005DD0000E0201976F0A0E966F0201B7512C
:102840000201946F956B94BF9507AFEC29F0090EC8
:102850000201942502019C6F000E020195210201E4
:102860009D6F000E02019F6F030E9E6F5DEC32F0B4
:10287000290E02019C25F66E100E02019D21F76EB5
:102880000900F5CFA2F20900F5CFA3F20A00F5CFB7
:10289000A4F2000E02019F6F030E9E6F000E020154
:1028A000916F0A0E906F0201B75102018E6F8F6B0C
:1028B0008EBF8F0779EC2BF08EC29CF28FC29DF2F7
:1028C0005DEC32F0290E02019C25F66E100E02011D
:1028D0009D21F76E0900F5CFA5F20900F5CFA6F20C
:1028E0000A00F5CFA7F2F1EC21F096D70201B7511B
:1028F000030D290EF324F66E100EF420F76E090076
:10290000F5CFB1F20900F5CFB2F20A00F5CFB3F27C
:1029100012000201B751800A120FD8A0ACD0000EED
:1029200002019F6F030E9E6F000E0201976F0A0E49
:10293000966F000E0201916F640E906F0201B75105
:1029400002018E6F8F6B8EBF8F0779EC2BF08EC2DA
:1029500094F28FC295F2AFEC29F0090E0201942592
:1029600002019C6F000E0201952102019D6F5DEC3A
:1029700032F0500E02019C25F66E100E02019D21D0
:10298000F76E0900F5CFA5F20900F5CFA6F20A000F
:10299000F5CFA7F2000E0201976F640E966F020149
:1029A000B7510201946F956B94BF9507AFEC29F076
:1029B000120E0201942502019C6F000E0201952166
:1029C00002019D6F000E02019F6F030E9E6F5DEC72
:1029D00032F0500E02019C25F66E100E02019D2170
:1029E000F76E0900F5CFA2F20900F5CFA3F20A00B5
:1029F000F5CFA4F2F1EC21F0A2C2B4F2A3C2B5F279
:102A0000A4C2B6F2B4C2A2F2B5C2A3F2B6C2A4F294
:102A1000000E02019F6F030E9E6F000E0201916F68
:102A20000A0E906F0201B75102018E6F8F6B8EBF3D
:102A30008F0779EC2BF08EC29CF28FC29DF25DEC79
:102A400032F0500E02019C25F66E100E02019D21FF
:102A5000F76E0900F5CFA5F20900F5CFA6F20A003E
:102A6000F5CFA7F2F1EC21F0A2C2B1F2A3C2B2F20B
:102A7000A4C2B3F212000201B751800A750FD8A0A8
:102A80005DD0000E0201976F0A0E966F0201B751DA
:102A90000201946F956B94BF9507AFEC29F0090E76
:102AA0000201942502019C6F000E02019521020192
:102AB0009D6F000E02019F6F030E9E6F5DEC32F062
:102AC000500E02019C25F66E100E02019D21F76E3C
:102AD0000900F5CFA2F20900F5CFA3F20A00F5CF65
:102AE000A4F2000E02019F6F030E9E6F000E020102
:102AF000916F0A0E906F0201B75102018E6F8F6BBA
:102B00008EBF8F0779EC2BF08EC29CF28FC29DF2A4
:102B10005DEC32F0500E02019C25F66E100E0201A3
:102B20009D21F76E0900F5CFA5F20900F5CFA6F2B9
:102B30000A00F5CFA7F2F1EC21F096D70201B751C8
:102B4000030D500EF324F66E100EF420F76E0900FC
:102B5000F5CFB1F20900F5CFB2F20A00F5CFB3F22A
:102B600012002A6E2AAEFBD02A6C2A50800A120F5D
:102B7000D8A091D0000E126E030E116E000E0A6ED8
:102B80000A0E096E000E046E640E036E2A50016E6A
:102B9000026A01BE0206B3EC2FF001C007F002C0CA
:102BA00008F07DEC2DF0090E07240F6E000E0820B2
:102BB000106E5EEC33F0290E0F24F66E100E10200E
:102BC000F76E0900F5CF18F00900F5CF19F00A00EB
:102BD000F5CF1AF0000E0A6E640E096E2A50076EC9
:102BE000086A07BE08067DEC2DF0120E07240F6E52
:102BF000000E0820106E000E126E030E116E5EECB9
:102C000033F0290E0F24F66E100E1020F76E090017
:102C1000F5CF15F00900F5CF16F00A00F5CF17F043
:102C200065EC28F015C027F016C028F017C029F071
:102C300027C015F028C016F029C017F0000E126E3C
:102C4000030E116E000E046E0A0E036E2A50016E02
:102C5000026A01BE0206B3EC2FF001C00FF002C001
:102C600010F05EEC33F0290E0F24F66E100E1020DB
:102C7000F76E0900F5CF18F00900F5CF19F00A003A
:102C8000F5CF1AF065EC28F015C024F016C025F039
:102C900017C026F012002A50800A750FD8A04DD018
:102CA000000E0A6E0A0E096E2A50076E086A07BEE9
:102CB00008067DEC2DF0090E07240F6E000E08208B
:102CC000106E000E126E030E116E5EEC33F0290EC4
:102CD0000F24F66E100E1020F76E0900F5CF15F0D8
:102CE0000900F5CF16F00A00F5CF17F0000E126EAE
:102CF000030E116E000E046E0A0E036E2A50016E52
:102D0000026A01BE0206B3EC2FF001C00FF002C050
:102D100010F05EEC33F0290E0F24F66E100E10202A
:102D2000F76E0900F5CF18F00900F5CF19F00A0089
:102D3000F5CF1AF065EC28F0A7D72A50030D290E1D
:102D4000F324F66E100EF420F76E0900F5CF24F090
:102D50000900F5CF25F00A00F5CF26F012002A5021
:102D6000800A120FD8A091D0000E126E030E116EC1
:102D7000000E0A6E0A0E096E000E046E640E036EDB
:102D80002A50016E026A01BE0206B3EC2FF001C0A8
:102D900007F002C008F07DEC2DF0090E07240F6E3D
:102DA000000E0820106E5EEC33F0500E0F24F66E0D
:102DB000100E1020F76E0900F5CF18F00900F5CFBE
:102DC00019F00A00F5CF1AF0000E0A6E640E096EB3
:102DD0002A50076E086A07BE08067DEC2DF0120E19
:102DE00007240F6E000E0820106E000E126E030EE8
:102DF000116E5EEC33F0500E0F24F66E100E1020A4
:102E0000F76E0900F5CF15F00900F5CF16F00A00AE
:102E1000F5CF17F065EC28F015C027F016C028F0A4
:102E200017C029F027C015F028C016F029C017F0E8
:102E3000000E126E030E116E000E046E0A0E036E6B
:102E40002A50016E026A01BE0206B3EC2FF001C0E7
:102E50000FF002C010F05EEC33F0500E0F24F66E4F
:102E6000100E1020F76E0900F5CF18F00900F5CF0D
:102E700019F00A00F5CF1AF065EC28F015C024F01F
:102E800016C025F017C026F012002A50800A750FD0
:102E9000D8A04DD0000E0A6E0A0E096E2A50076E99
:102EA000086A07BE08067DEC2DF0090E07240F6E98
:102EB000000E0820106E000E126E030E116E5EECF6
:102EC00033F0500E0F24F66E100E1020F76E09002E
:102ED000F5CF15F00900F5CF16F00A00F5CF17F081
:102EE000000E126E030E116E000E046E0A0E036EBB
:102EF0002A50016E026A01BE0206B3EC2FF001C037
:102F00000FF002C010F05EEC33F0500E0F24F66E9E
:102F1000100E1020F76E0900F5CF18F00900F5CF5C
:102F200019F00A00F5CF1AF065EC28F0A7D72A505F
:102F3000030D500EF324F66E100EF420F76E090008
:102F4000F5CF24F00900F5CF25F00A00F5CF26F0E3
:102F50001200000E0101D56F000ED46F000E0101AA
:102F6000D26F000E0101D36F21EEE4F011EEC8F034
:102F7000090EDBCFE3FFE806FCE2000E0101DB6F88
:102F8000000EDA6F000E0101DC6F000E0101E16F2F
:102F9000000E0101E36F000EE26F000E0101D76F1A
:102FA000000ED66F000E0101D96F000EE8CF4FFB67
:102FB000000E0101E36F010EE26FE80E0101E25D18
:102FC000030E0101E359D8B048D04F0E0101E225AC
:102FD000D96E0B0E0101E321DA6EE2C13AF0E3C1D2
:102FE0003BF0D8903A363B36020E3A26000E3B2292
:102FF0007F0E3A24E16E030E3B20E26EE6CF3CF0FA
:10300000E5CF3DF0FE0E3E6EFF0E3F6EE2C140F09A
:10301000E3C141F0D890403641363E5040263F5003
:1030200041227F0E4024E16E030E4120E26EE6CF86
:1030300042F0E5CF43F0421E431E424A432A3C5031
:103040004224016E3D504320026E24EC33F00150C7
:10305000DF6E0101E24BE32BB0D7000E0101E36FFD
:10306000000EE26F0101E35113E11F0E0101E25D69
:10307000D8B00ED04F0E0101E225D96E0B0E010122
:10308000E321DA6E000EDF6E0101E24BE32BEAD79B
:10309000000E0101DE6F000EDD6F0101DEBF08D002
:1030A000E80E0101DD5D030E0101DE59D8B023D029
:1030B0004F0E0101DD25D96E0B0E0101DE21DA6E06
:1030C000DF503A6E3A500101D65D000ED759D8B0A4
:1030D0000ED04F0E0101DD25D96E0B0E0101DE2150
:1030E000DA6EDF503A6E3A500101D66FD76B0101AC
:1030F000DD4BDE2BD2D7330E186E330E196E3F0E1A
:103100001A6ED6C109F0D7C10AF083EC33F009C0BA
:1031100015F00AC016F00BC017F065EC28F015C0CA
:103120002BF016C02CF017C02DF0EBEC27F02BC0C5
:10313000EEF12CC0EFF1000E0101E06F000EDF6F29
:103140000101E0BF08D0E90E0101DF5D030E0101BE
:10315000E059D8B09ED04F0E0101DF25D96E0B0E7D
:103160000101E021DA6EDF503A6E3A500101EE5D66
:10317000000EEF59D8B079D00101D9510101D8A47E
:1031800074D04F0E0101DF25D96E0B0E0101E02135
:10319000DA6EDF503A6E3B6A0101E151020D140E06
:1031A000F326000EF422000EF324D96E010EF42053
:1031B000DA6E3AC0DEFF3BC0DDFF0101E151020DD6
:1031C000280EF326000EF422000EF324D96E010E11
:1031D000F420DA6EDFC1DEFFE0C1DDFF0101E15165
:1031E0000101D8B43DD00101E151020D280EF326B2
:1031F000000EF422000EF324D96E010EF420DA6ED4
:10320000DECF3AF0DDCF3BF00101E1513C6E3D6A8B
:10321000D8903C363D36260E3C26000E3D22000E50
:103220003C24D96E010E3D20DA6EDECF3EF0DDCFBC
:103230003FF03E1E3F1E3E4A3F2A3A503E263B503C
:103240003F220101DC51020DC80EF324D96E010E9C
:10325000F420DA6E3EC0DEFF3FC0DDFF0101DC2B53
:103260000101E12B010E0101D96F0101D905D8A49B
:103270000CD01E0E0101D36506D0000E0101D96FDE
:10328000000E0101D36F0101D32B0101DF4BE02BB5
:1032900057D7000E0101D86F19D00101D851020D86
:1032A000C80EF324D96E010EF420DA6EDECF3AF0A8
:1032B000DDCF3BF00101DA513A240101DA6F01015F
:1032C000DB513B200101DB6F0101D82B0101DC51F7
:1032D0000101D85DD8A0E1D7DAC107F0DBC108F061
:1032E000DCC109F00A6A7DEC2DF007C0DAF108C0F4
:1032F000DBF13A0E026E980E016EDAC103F0DBC10B
:1033000004F04DEC31F001C0D4F102C0D5F1D4C1CC
:10331000D2F10101D4511200000E00016E6F200E97
:1033200000016F6F410E0001706F20EEC5F010EECE
:1033300072F0080EDBCFE3FFE806FCE2000E0001AE
:103340006D6F000E6C6F41D04AEC26F072C04FF0EA
:1033500073C050F074C051F0BCC052F0BDC053F007
:10336000BEC054F0B4EC1EF04FC072F050C073F009
:1033700051C074F075C04FF076C050F077C051F076
:10338000BFC052F0C0C053F0C1C054F0B4EC1EF046
:103390004FC075F050C076F051C077F078C04FF054
:1033A00079C050F07AC051F0C2C052F0C3C053F09F
:1033B000C4C054F0B4EC1EF04FC078F050C079F0A7
:1033C00051C07AF000016C4B6D2B6CC009F06DC0E0
:1033D0000AF041EC32F009C00DF00AC00EF00BC04B
:1033E0000FF06EC010F06FC011F070C012F062EC00
:1033F0002CF0D8A0A9D7000E00017C6F000E7B6FC7
:1034000000017CBF08D000017C513DE1030E0001AA
:103410007B5DD8B038D07BC00FF07CC010F0000EC0
:10342000126E030E116E5EEC33F0720E0F24D96E25
:10343000000E1020DA6E7BC00FF07CC010F0000E82
:10344000126E030E116E5EEC33F0720E0F24E16EFD
:10345000000E1020E26EE6CF60F0E6CF61F0E5CF1F
:1034600062F06EC063F06FC064F070C065F042EC53
:1034700023F060C0DEFF61C0DEFF62C0DEFF00013E
:103480007B4B7C2BBDD772C05BF073C05CF074C00B
:103490005DF0F2EC2CF05BC07DF05CC07EF05DC0B6
:1034A0007FF075C05BF076C05CF077C05DF0F2EC49
:1034B0002CF05BC080F05CC081F05DC082F078C011
:1034C0005BF079C05CF07AC05DF0F2EC2CF05BC090
:1034D00083F05CC084F05DC085F0000E0001716F68
:1034E00000017D5100017E1100017F11D8A415D08B
:1034F000000180510001811100018211D8A40DD07A
:10350000800E0001841909E13F0E000185190001B8
:103510008311D8A402D0010E75D000017D510001A5
:103520007E1100017F11D8A415D000018051000147
:10353000811100018211D8A40DD0800E00018419E0
:1035400009E1BF0E0001851900018311D8A402D042
:10355000020E58D000017D5100017E1100017F1143
:10356000D8A415D0800E0001811911E1BF0E000111
:10357000821900018011D8A40AD0000183510001F2
:10358000841100018511D8A402D0030E3BD00001A4
:103590007D5100017E1100017F11D8A415D0800E4D
:1035A0000001811911E13F0E000182190001801113
:1035B000D8A40AD0000183510001841100018511B3
:1035C000D8A402D0040E1ED0800E00017E1919E18D
:1035D000BF0E00017F1900017D11D8A412D0000197
:1035E00080510001811100018211D8A40AD000018C
:1035F00083510001841100018511D8A402D0050E69
:1036000001D0000E0001716F000171511200020122
:10361000BA6F6D0E0201BA65BAD0000E02019F6F3B
:10362000030E9E6F000E0201976F0A0E966F000E3A
:103630000201916F640E906FBAC28EF202018F6B1D
:1036400079EC2BF08EC294F28FC295F2AFEC29F098
:10365000090E0201942502019C6F000E02019521C2
:1036600002019D6F5DEC32F0290E02019C25F66E81
:10367000100E02019D21F76E0900F5CFA5F2090099
:10368000F5CFA6F20A00F5CFA7F2000E0201976F60
:10369000640E966FBAC294F20201956BAFEC29F0FA
:1036A000120E0201942502019C6F000E0201952169
:1036B00002019D6F000E02019F6F030E9E6F5DEC75
:1036C00032F0290E02019C25F66E100E02019D219A
:1036D000F76E0900F5CFA2F20900F5CFA3F20A00B8
:1036E000F5CFA4F2F1EC21F0A2C2B7F2A3C2B8F276
:1036F000A4C2B9F2000E02019F6F030E9E6F000E6E
:103700000201916F0A0E906FBAC28EF202018F6BA6
:1037100079EC2BF08EC29CF28FC29DF25DEC32F000
:10372000290E02019C25F66E100E02019D21F76EF6
:103730000900F5CFA5F20900F5CFA6F20A00F5CFF2
:10374000A7F2B7C2A2F2B8C2A3F2B9C2A4F2F1ECD6
:1037500021F0A2C2B4F2A3C2B5F2A4C2B6F2B4C2BE
:10376000A2F2B5C2A3F2B6C2A4F2000E0201A56F86
:10377000000E0201A66F3F0E0201A76FF1EC21F0CF
:10378000A2C2B1F2A3C2B2F2A4C2B3F212000A0EF4
:103790000201BA656ED0000E02019F6F030E9E6F8C
:1037A000000E0201916F0A0E906FBAC28EF20201F2
:1037B0008F6B79EC2BF08EC29CF28FC29DF25DEC88
:1037C00032F0290E02019C25F66E100E02019D2199
:1037D000F76E0900F5CFA5F20900F5CFA6F20A00B1
:1037E000F5CFA7F2000E0201976F0A0E966FBAC2CC
:1037F00094F20201956BAFEC29F0090E02019425B9
:1038000002019C6F000E0201952102019D6F000EC6
:1038100002019F6F030E9E6F5DEC32F0290E0201D4
:103820009C25F66E100E02019D21F76E0900F5CF62
:10383000A2F20900F5CFA3F20A00F5CFA4F2F1EC51
:1038400021F0A2C2B7F2A3C2B8F2A4C2B9F2B7C2C1
:10385000A2F2B8C2A3F2B9C2A4F2000E0201A56F8F
:10386000000E0201A66F3F0E0201A76FF1EC21F0DE
:1038700087D70201BA51030D290EF324F66E100EFC
:10388000F420F76E0900F5CFA2F20900F5CFA3F2FC
:103890000A00F5CFA4F2000E0201A56F000E02018E
:1038A000A66F3F0E0201A76FF1EC21F0A2C2B1F2A8
:1038B000A3C2B2F2A4C2B3F21200BDC2C1F20201AD
:1038C000C26BC36B0201BC350201C13701E3C28187
:1038D0000201C1510201C66FC0C2C1F20201C26B36
:1038E000C36B0201BF350201C13701E3C28102018E
:1038F000C1510201C56F0201C6510201D8B411D0F5
:103900000201C5510201C65DD8B012D00201C651F4
:1039100000080201C5250201C16F180E0201C16530
:1039200007D0BEC2BBF2BFC2BCF2C0C2BDF2120021
:103930000201C5510201D8B411D00201C6510201E1
:10394000C55DD8B012D00201C55100080201C625DC
:103950000201C16F180E0201C16507D0BBC2BBF2E4
:10396000BCC2BCF2BDC2BDF21200060E0201C46FA1
:103970000201BDAF02D00201C48F0201C0AF02D06C
:103980000201C48D0201BC8FFF0E0201BB17FF0EA6
:103990000201BC17000E0201BD170201BF8FFF0E0E
:1039A0000201BE17FF0E0201BF17000E0201C01771
:1039B0000201C5510201C65DD8B025D00201D890E0
:1039C000BE37BF37C0370201C5070201C651020129
:1039D000C519D8B411D00201C407C4C2C1F2070E80
:1039E0000201C117D8B408D0E9D70201D890BD337D
:1039F000BC33BB330201C62B0201C5510201C619FB
:103A0000D8B42BD0F2D70201C6510201C55DD8B09F
:103A100024D00201D890BB37BC37BD370201C6079E
:103A20000201C6510201C519D8B411D00201C40760
:103A3000C4C2C1F2070E0201C117D8B408D0E9D739
:103A40000201D890C033BF33BE330201C52B02013F
:103A5000C5510201C619D8A4F3D70201C4AF12D0D0
:103A6000FF0E0201BB1BFF0E0201BC1BFF0E020179
:103A7000BD1B010E0201BB27000E0201BC23000E7C
:103A80000201BD230201C4AD12D0FF0E0201BE1B14
:103A9000FF0E0201BF1BFF0E0201C01B010E02013F
:103AA000BE27000E0201BF23000E0201C023000E3C
:103AB0000201C46F0201BB510201BE270201BC51C9
:103AC0000201BF230201BD510201C0230201C0AFA8
:103AD00015D0FF0E0201BE1BFF0E0201BF1BFF0E21
:103AE0000201C01B010E0201BE27000E0201BF230E
:103AF000000E0201C023010E0201C46FBEC28EF28D
:103B0000BFC28FF2C0C290F2C6C291F2C4C292F29A
:103B100065EC27F08EC2BBF28FC2BCF290C2BDF240
:103B200012002D6E6D0E2D649FD0000E126E030ECE
:103B3000116E000E0A6E0A0E096E000E046E640EFF
:103B4000036E2DC001F0026AB3EC2FF001C007F044
:103B500002C008F07DEC2DF0090E07240F6E000E58
:103B60000820106E5EEC33F0290E0F24F66E100E56
:103B70001020F76E0900F5CF18F00900F5CF19F005
:103B80000A00F5CF1AF0000E0A6E640E096E2DC001
:103B900007F0086A7DEC2DF0120E07240F6E000E60
:103BA0000820106E000E126E030E116E5EEC33F0E4
:103BB000290E0F24F66E100E1020F76E0900F5CFB7
:103BC00015F00900F5CF16F00A00F5CF17F065ECF7
:103BD00028F015C02AF016C02BF017C02CF0000EEC
:103BE000126E030E116E000E046E0A0E036E2DC0CF
:103BF00001F0026AB3EC2FF001C00FF002C010F028
:103C00005EEC33F0290E0F24F66E100E1020F76EC6
:103C10000900F5CF18F00900F5CF19F00A00F5CF2B
:103C20001AF02AC015F02BC016F02CC017F065EC66
:103C300028F015C027F016C028F017C029F027C0BB
:103C400015F028C016F029C017F0000E186E000EEF
:103C5000196E3F0E1A6E65EC28F015C024F016C0E0
:103C600025F017C026F012000A0E2D645DD0000E5C
:103C7000126E030E116E000E046E0A0E036E2DC03E
:103C800001F0026AB3EC2FF001C00FF002C010F097
:103C90005EEC33F0290E0F24F66E100E1020F76E36
:103CA0000900F5CF18F00900F5CF19F00A00F5CF9B
:103CB0001AF0000E0A6E0A0E096E2DC007F0086A8F
:103CC0007DEC2DF0090E07240F6E000E0820106EFB
:103CD000000E126E030E116E5EEC33F0290E0F24EF
:103CE000F66E100E1020F76E0900F5CF15F00900E2
:103CF000F5CF16F00A00F5CF17F065EC28F015C0E7
:103D00002AF016C02BF017C02CF02AC015F02BC0DB
:103D100016F02CC017F0000E186E000E196E3F0E34
:103D20001A6E65EC28F099D72D50030D290EF32457
:103D3000F66E100EF420F76E0900F5CF15F00900AD
:103D4000F5CF16F00A00F5CF17F0000E186E000E32
:103D5000196E3F0E1A6E65EC28F015C024F016C0DF
:103D600025F017C026F0120051C055F0566A576A68
:103D70005034553601E3568055505A6E54C055F0B4
:103D8000566A576A5334553601E356805550596E7A
:103D90005A50D8B40BD059505A5CD8B00ED05A50A3
:103DA00000085924556E180E556407D052C04FF0C4
:103DB00053C050F054C051F012005950D8B40BD039
:103DC0005A50595CD8B00ED0595000085A24556E3C
:103DD000180E556407D04FC04FF050C050F051C07E
:103DE00051F01200060E586E51BE588E54BE588CBB
:103DF000508EFF0E4F16FF0E5016000E5116538EAA
:103E0000FF0E5216FF0E5316000E541659505A5CF0
:103E1000D8B01BD0D89052365336543659065A5023
:103E20005918D8B40DD0580658C055F0070E55167D
:103E3000D8B406D0EFD7D890513250324F325A2AE8
:103E400059505A18D8B41FD0F6D75A50595CD8B028
:103E50001AD0D8904F36503651365A065A50591803
:103E6000D8B40DD0580658C055F0070E5516D8B422
:103E700006D0EFD7D890543253325232592A595083
:103E80005A18D8A4F7D758AE0CD0FF0E4F1AFF0E11
:103E9000501AFF0E511A010E4F26000E5022000E2E
:103EA000512258AC0CD0FF0E521AFF0E531AFF0EBF
:103EB000541A010E5226000E5322000E5422000EF8
:103EC000586E4F505226505053225150542254AEE7
:103ED0000ED0FF0E521AFF0E531AFF0E541A010E87
:103EE0005226000E5322000E5422010E586E52C06C
:103EF00001F053C002F054C003F05AC004F058C09F
:103F000005F022EC2BF001C04FF002C050F003C0CE
:103F100051F0120002019A6F000E0201996FC580E4
:103F2000C5B0FED702019A519A2502019A6FC9CFF6
:103F300099F202019A51FE0B01EC2FF002019C6FE5
:103F400002019C29D8A403D0C9CF99F2C69E0201D0
:103F50009C510201D8A4EDD7000E02019C6FC7A4AA
:103F600004D00201926B922B02D00201926BC550D9
:103F70001F0B020192110009D8A4F1D70201905140
:103F800001EC2FF002019C6F02019C29D8A403D000
:103F9000C9CF99F2C69E02019C510201D8A4EED766
:103FA000000E02019C6FC7A404D00201926B922BF9
:103FB00002D00201926BC5501F0B02019211000941
:103FC000D8A4F1D7C582C5B2FED7C9CF99F20201F4
:103FD0009A51010901EC2FF002019C6F02019C290A
:103FE000D8A403D0C9CF99F2C69E02019C51020108
:103FF000D8A4EDD7000E02019C6FC7A404D0020123
:10400000926B922B02D00201926BC5501F0B0201E2
:1040100092110009D8A4F1D7000E02019B6F000E87
:1040200002019B6F41D002019B51010D090EF32447
:10403000D96E020EF420DA6EB6EC33F0DF6EFF0EAE
:104040000201926FFF0E0201936F02019151020172
:10405000946F956B020192510201942702019351D2
:104060000201952302019B510201966F976B020199
:1040700094510201965D02019751800A0201986FE6
:1040800002019551800A02019859D8B005D0C59A0D
:10409000C588C5A807D0FDD7C58AC588C5B8FED7CD
:1040A000C5B8FED702019B2B0201915102019B5D15
:1040B000D8A0B9D7C584C5A41200FDD790C294F288
:1040C0000201956B966B02018F350201943701E373
:1040D00095810201945102019C6F02019C51D8A468
:1040E0000AD0000E02018E6F000E8F6F000E906FCF
:1040F000000E916F120093C294F20201956B966BC1
:10410000020192350201943701E395810201945135
:1041100002019B6F02019B51D8A40AD0000E02013C
:104120008E6F000E8F6F000E906F000E916F120059
:1041300002018F8FFF0E02018E17FF0E02018F17F3
:10414000000E020190170201928FFF0E02019117DB
:10415000FF0E02019217000E02019317000E0201DA
:10416000976F000E986F000E996F000E9A6F7F0E7A
:1041700002019C5F02019B51980F02019C5F180E87
:1041800002019B6F0201D8909737983799379A3779
:104190000201915102018E5D0201925102018F597B
:1041A0000201935102019059D8A00ED00201915101
:1041B00002018E5F0201925102018F5B0201935155
:1041C0000201905B020197810201D8908E378F37F0
:1041D000903702019B2FD6D702019CAF1AD0020163
:1041E0009C51800A970FD8B00AD0000E02018E6F42
:1041F000000E8F6F000E906F000E916F1200020183
:10420000D8909A3399339833973302019C3FF7D76C
:104210001BD0170E02019C6512D0000E02018E6F9A
:10422000000E8F6F000E906F000E916F1200020152
:10423000D8909737983799379A3702019C0702012F
:104240009C510201D8A4F3D797C28EF298C28FF284
:1042500099C290F29AC291F2120002019035913502
:104260000201996F02019951D8A40AD0000E0201EF
:104270008E6F000E8F6F000E906F000E916F120008
:104280000201933594350201986F02019851D8A428
:104290000AD0000E02018E6F000E8F6F000E906F1D
:1042A000000E916F12000201908FFF0E02018E1717
:1042B000FF0E8F17FF0E9017000E91170201938FBC
:1042C000FF0E02019117FF0E9217FF0E9317000EBB
:1042D0009417000E0201946F000E956F000E966FFA
:1042E000000E976F7F0E0201995F02019851A00F97
:1042F0000201995F200E0201986F0201D890943755
:104300009537963797370201915102018E5D020170
:10431000925102018F5902019351020190590201F9
:10432000945102019159D8A012D002019151020179
:104330008E5F0201925102018F5B020193510201D3
:10434000905B020194510201915B02019481020190
:10435000D8908E378F37903791370201982FCDD76D
:10436000020199AF1AD002019951800A9F0FD8B06B
:104370000AD0000E02018E6F000E8F6F000E906F3C
:10438000000E916F12000201D89097339633953347
:1043900094330201993FF7D71BD01F0E0201996594
:1043A00012D0000E02018E6F000E8F6F000E906F04
:1043B000000E916F12000201D8909437953796370E
:1043C000973702019907020199510201D8A4F3D746
:1043D00094C28EF295C28FF296C290F297C291F279
:1043E0001200A4C2A8F20201A96BAA6B0201A335B4
:1043F0000201A83701E3A9810201A8510201AB6FB4
:104400000201AB51D8A40AD0000E0201A26F000E27
:104410000201A36F000E0201A46F1200A7C2A8F24E
:104420000201A96BAA6B0201A6350201A83701E3BC
:10443000A9810201A8510201B06F0201B051D8A4B4
:104440000AD0000E0201A26F000E0201A36F000E3F
:104450000201A46F12000201B0517B0F0201AB27D1
:10446000A4C2B0F20201A7510201B01B800E0201EA
:10447000B0170201A38F0201A68FFF0E0201A5173C
:10448000FF0E0201A617000E0201A717000E02017F
:10449000AC6F000E0201AD6F000E0201AE6F070E91
:1044A0000201AF6F0201A2A10CD00201A5510201CD
:1044B000AC270201A6510201AD230201A75102015E
:1044C000AE230201D890A433A333A2330201D890C3
:1044D000A537A637A7370201AF2FE4D7090E02018F
:1044E000AF6F0201A2A10CD00201A5510201AC27BD
:1044F0000201A6510201AD230201A7510201AE2320
:104500000201D890A433A333A2330201D890AE3372
:10451000AD33AC330201AF2FE4D7ACC28EF2ADC2E3
:104520008FF2AEC290F2ABC291F2B0C292F265ECE1
:1045300027F08EC2A2F28FC2A3F290C2A4F21200A0
:10454000BAC2BCF20201BD6BBE6B0201B9350201F9
:10455000BC3701E3BD810201BC510201C66F0201FB
:10456000C651D8A40AD0000E0201B86F000EB96F70
:10457000000EBA6F000EBB6F1200170E0201BC6F67
:10458000B8C2BDF2B9C2BEF2BAC2BFF20201BC29C2
:104590000201C06F05D00201D890BF33BE33BD33D6
:1045A0000201C02FF8D70201BD510201C16F020103
:1045B000B98FFF0E0201B817FF0E0201B917000EE6
:1045C0000201BA170201B8510201C26F0201B951CA
:1045D0000201C36F0201BA510201C46F0201C56B2F
:1045E0008E0E0201C65F0201C6AF1AD00201C6518B
:1045F000800A8F0FD8B00AD0000E0201B86F000EEB
:10460000B96F000EBA6F000EBB6F12000201D89096
:10461000C533C433C333C2330201C63FF7D71BD0FF
:10462000170E0201C66512D0000E0201B86F000E0F
:10463000B96F000EBA6F000EBB6F12000201D89066
:10464000C237C337C437C5370201C6070201C65196
:104650000201D8A4F3D70201C1510201D8B409D094
:104660000201C51FC41FC31FC26D000EC323C42394
:10467000C523C2C2B8F2C3C2B9F2C4C2BAF2C5C23B
:10468000BBF2120062C05BF05C6A5D6A00016135DA
:104690005B3601E35C805B5000016A6F00016A5188
:1046A000D8A40AD0000E0001606F000E0001616FF7
:1046B000000E0001626F120065C05BF05C6A5D6A0B
:1046C000000164355B3601E35C805B5000016B6F79
:1046D00000016B51D8A40AD0000E0001606F000EDB
:1046E0000001616F000E0001626F1200000E0001F8
:1046F000676F000E0001686F000E0001696F000116
:104700006B51890F00016A5F62C06BF00001655157
:1047100000016B1B800E00016B170001618FFF0E03
:1047200000016017FF0E00016117000E0001621703
:104730000001648FFF0E00016317FF0E0001641774
:10474000000E00016517180E0001666F0001D89079
:10475000673768376937000163510001605D000108
:104760006451000161590001655100016259D8A0EE
:104770000ED0000163510001605F0001645100012F
:10478000615B000165510001625B0001678100010E
:10479000D8906037613762370001662FD7D767C07E
:1047A00001F068C002F069C003F06AC004F06BC099
:1047B00005F022EC2BF001C060F002C061F003C0F4
:1047C00062F012000C6E000E0D6EC580C5B0FED7F3
:1047D0000C500C240C6EC9CF0DF00C50FE0B7AEC73
:1047E0002FF00F6E0F28D8A403D0C9CF0DF0C69EAE
:1047F0000F50D8A4F2D7000E0F6EC7A403D0056ADD
:10480000052A01D0056AC5501F0B05100009D8A460
:10481000F4D703507AEC2FF00F6E0F28D8A403D0F2
:10482000C9CF0DF0C69E0F50D8A4F3D7000E0F6E5F
:10483000C7A403D0056A052A01D0056AC5501F0B1D
:1048400005100009D8A4F4D7C582C5B2FED7C9CFD8
:104850000DF00C5001097AEC2FF00F6E0F28D8A440
:1048600003D0C9CF0DF0C69E0F50D8A4F2D7000ECA
:104870000F6EC7A403D0056A052A01D0056AC5508A
:104880001F0B05100009D8A4F4D7000E0E6E000E01
:104890000E6E2FD00E50010D090EF324D96E020EAC
:1048A000F420DA6EC4EC33F0DF6EFF0E056EFF0EFF
:1048B000066E0450076E086A055007260650082247
:1048C0000E50096E0A6A0750095C0A50800A0B6E86
:1048D0000850800A0B58D8B005D0C59AC588C5A81D
:1048E00007D0FDD7C58AC588C5B8FED7C5B8FED7DD
:1048F0000E2A04500E5CD8A0CDD7C584C5A41200E2
:10490000FDD700016CAF0FD0000E0001E66F210E45
:10491000E56F000E00016A6F000E00016B6F000E64
:1049200000016C6F120000016A5100016B1100015F
:104930006C11D8A40FD0000E0001E66F220EE56FB7
:10494000000E00016A6F000E00016B6F000E000187
:104950006C6F1200000E186E000E196E400E1A6E6B
:104960005D0E046E000E056E6AC001F06BC002F0B1
:104970006CC003F0AAEC2CF001C015F002C016F0D8
:1049800003C017F065EC28F015C04FF016C050F0CA
:1049900017C051F0000E526E800E536EBF0E546E53
:1049A000B4EC1EF04FC06AF050C06BF051C06CF018
:1049B0005D06D8A05E066AC060F06BC061F06CC096
:1049C00062F0770E0001636F100E0001646F000E3D
:1049D0000001666F080E656FDFEC28F060C06AF0BA
:1049E00061C06BF062C06CF0720E186E310E196E01
:1049F0003F0E1A6E5DC009F05EC00AF041EC32F065
:104A000009C015F00AC016F00BC017F065EC28F0CD
:104A100015C04FF016C050F017C051F06AC052F0E8
:104A20006BC053F06CC054F0B4EC1EF04FC06AF091
:104A300050C06BF051C06CF0120003C007F0086A60
:104A4000096A0234073601E3088007500F6E0F50E1
:104A5000D8A409D0000E016E000E026E000E036E87
:104A6000000E046E120006C007F0086A096A0534D9
:104A7000073601E3088007500E6E0E50D8A409D007
:104A8000000E016E000E026E000E036E000E046E2C
:104A90001200028EFF0E0116FF0E0216000E031604
:104AA000058EFF0E0416FF0E0516000E0616000EEC
:104AB0000A6E000E0B6E000E0C6E000E0D6E7F0E59
:104AC0000F5E0E50980F0F5E180E0E6ED8900A36BD
:104AD0000B360C360D360450015C0550025806505A
:104AE0000358D8A007D00450015E0550025A065062
:104AF000035A0A80D8900136023603360E2EE6D7C6
:104B00000FAE16D00F50800A970FD8B009D0000E04
:104B1000016E000E026E000E036E000E046E120097
:104B2000D8900D320C320B320A320F3EF9D715D025
:104B3000170E0F640FD0000E016E000E026E000EF5
:104B4000036E000E046E1200D8900A360B360C3637
:104B50000D360F060F50D8A4F7D70AC001F00BC0CE
:104B600002F00CC003F00DC004F012000334043452
:104B70000C6E0C50D8A409D0000E016E000E026E0F
:104B8000000E036E000E046E1200063407340B6E26
:104B90000B50D8A409D0000E016E000E026E000E5C
:104BA000036E000E046E1200038EFF0E0116FF0E40
:104BB0000216FF0E0316000E0416068EFF0E0416D4
:104BC000FF0E0516FF0E0616000E0716000E076EE6
:104BD000000E086E000E096E000E0A6E7F0E0C5E4F
:104BE0000B50A00F0C5E200E0B6ED89007360836C7
:104BF00009360A360450015C055002580650035825
:104C000007500458D8A009D00450015E0550025A3C
:104C10000650035A0750045A0780D89001360236CE
:104C2000033604360B2EE1D70CAE16D00C50800A9A
:104C30009F0FD8B009D0000E016E000E026E000E5C
:104C4000036E000E046E1200D8900A320932083248
:104C500007320C3EF9D715D01F0E0C640FD0000E92
:104C6000016E000E026E000E036E000E046E120046
:104C7000D8900736083609360A360C060C50D8A4E8
:104C8000F7D707C001F008C002F009C003F00AC05E
:104C900004F0120039EC2DF000C24CF001C24DF0CE
:104CA00002C24EF071EC33F04CC052F04DC053F0E4
:104CB0004EC054F00FC209F010C20AF041EC32F0BD
:104CC00009C04FF00AC050F00BC051F0B4EC1EF018
:104CD0004FC015F050C016F051C017F09A0E186E64
:104CE000790E196E3B0E1A6E65EC28F015C0BCF0FB
:104CF00016C0BDF017C0BEF003C24CF004C24DF0A8
:104D000005C24EF071EC33F04CC052F04DC053F080
:104D10004EC054F011C209F012C20AF041EC32F058
:104D200009C04FF00AC050F00BC051F0B4EC1EF0B7
:104D30004FC015F050C016F051C017F09A0E186E03
:104D4000790E196E3B0E1A6E65EC28F015C0BFF097
:104D500016C0C0F017C0C1F006C24CF007C24DF03B
:104D600008C24EF071EC33F04CC052F04DC053F01D
:104D70004EC054F013C209F014C20AF041EC32F0F4
:104D800009C04FF00AC050F00BC051F0B4EC1EF057
:104D90004FC015F050C016F051C017F09A0E186EA3
:104DA000790E196E3B0E1A6E65EC28F015C0C2F034
:104DB00016C0C3F017C0C4F012000201946F000EB9
:104DC0000201936FC580C5B0FED7020194519425AE
:104DD0000201946FC9CF93F202019451FE0B01ECD2
:104DE0002FF00201956F02019529D8A403D0C9CFF5
:104DF00093F2C69E020195510201D8A4EDD7000E90
:104E00000201956FC7A404D00201926B922B02D0CD
:104E10000201926BC5501F0B020192110009D8A428
:104E2000F1D70201905101EC2FF00201956F0201C0
:104E30009529D8A403D0C9CF93F2C69E02019551FB
:104E40000201D8A4EED7000E0201956FC7A404D0CA
:104E50000201926B922B02D00201926BC5501F0B84
:104E6000020192110009D8A4F1D7C9CF93F202012F
:104E7000915101EC2FF00201956F02019529D8A400
:104E800003D0C9CF93F2C69E020195510201D8A466
:104E9000EED7000E0201956FC7A404D00201926BF9
:104EA000922B02D00201926BC5501F0B020192118E
:104EB0000009D8A4F1D7C58AC588C5B8FED7C5B83A
:104EC000FED7C584C5A41200FDD70201915102018D
:104ED000D8B408D002018E5102018F110201901145
:104EE000D8A411D0000E02018E6F000E02018F6F48
:104EF000000E0201906F12000201912B0201D89066
:104F000090338F338E33000E02018E150201936FA2
:104F1000000E02018F150201946FFE0E0201901522
:104F20000201956F02019351020194110201951142
:104F3000D8B411D0E1D70201912B010E02018E27C6
:104F4000000E02018F23000E020190230201D8906F
:104F500090338F338E33000E02018E150201936F52
:104F6000000E02018F150201946FFF0E02019015D1
:104F70000201956F020193510201941102019511F2
:104F8000D8B408D0D8D7020191070201D8908E3743
:104F90008F37903702018FBF04D0020E020191615A
:104FA000F2D7020191B102D002018F9F0201D89085
:104FB00091330201915102019013020192510201B9
:104FC000D8B402D00201908F8EC28EF28FC28FF2BF
:104FD00090C290F212002DC02FF0306A316A2C344A
:104FE0002F3601E330802F50396E3950D8A409D0C4
:104FF000000E2B6E000E2C6E000E2D6E000E2E6E0F
:105000001200170E2F6E2BC030F02CC031F02DC0C7
:1050100032F02F28336E04D0D89032323132303211
:10502000332EFAD73050346E2C8EFF0E2B16FF0E17
:105030002C16000E2D162B50356E2C50366E2D5022
:10504000376E386A8E0E395E39AE16D03950800A06
:105050008F0FD8B009D0000E2B6E000E2C6E000EF4
:105060002D6E000E2E6E1200D89038323732363246
:105070003532393EF9D715D0170E39640FD0000EEE
:105080002B6E000E2C6E000E2D6E000E2E6E12007A
:10509000D890353636363736383639063950D8A4B2
:1050A000F7D73450D8B408D0381E371E361E356CAA
:1050B000000E36223722382235C02BF036C02CF0B5
:1050C00037C02DF038C02EF0120017C01BF01C6A3C
:1050D0001D6A16341B3601E31C801B501E6E1E50C9
:1050E000D8A407D0000E156E000E166E000E176EB7
:1050F00012001AC01BF01C6A1D6A19341B3601E32A
:105100001C801B50236E2350D8A407D0000E156EB0
:10511000000E166E000E176E120023507B0F1E2617
:1051200017C023F01A50231A800E2316168E198EDC
:10513000FF0E1816FF0E1916000E1A16000E1F6E1F
:10514000000E206E000E216E070E226E15A006D0F6
:1051500018501F26195020221A502122D890173299
:1051600016321532D890183619361A36222EEED746
:10517000090E226E15A006D018501F2619502022A5
:105180001A502122D890173216321532D890213277
:1051900020321F32222EEED71FC001F020C002F0B5
:1051A00021C003F01EC004F023C005F022EC2BF058
:1051B00001C015F002C016F003C017F0120065C060
:1051C0000FF066C010F0000E126E030E116E5EEC52
:1051D00033F063C05BF064C05CF00F505B2610508E
:1051E0005C225BC0F6FF5CC0F7FF0900F5CF67F0FB
:1051F0000900F5CF68F00A00F5CF69F03FD067C02D
:1052000018F068C019F069C01AF060C015F061C0EC
:1052100016F062C017F065EC28F015C04FF016C00C
:1052200050F017C051F0000E126E030E116E000107
:105230006507D8A0660765C00FF066C010F05EEC89
:1052400033F063C05BF064C05CF00F505B2610501D
:105250005C225BC0F6FF5CC0F7FF0900F5CF52F09F
:105260000900F5CF53F00A00F5CF54F0B4EC1EF06E
:105270004FC067F050C068F051C069F0000165513F
:1052800000016611D8A4BBD767C060F068C061F0A8
:1052900069C062F01200020190AF1DD08EC294F27C
:1052A0008FC295F290C296F20201941F951F961F2D
:1052B000942B000E95239623000E020194250201E3
:1052C0008E6F000E0201952102018F6F800E020188
:1052D00096210201906F020193AF1DD091C294F20A
:1052E00092C295F293C296F20201941F951F961FE7
:1052F000942B000E95239623000E020194250201A3
:10530000916F000E020195210201926F800E020141
:1053100096210201936F000E02018E1B000E020106
:105320008F1B800E0201901B000E0201911B000ECC
:105330000201921B800E0201931B02019151020196
:105340008E5D0201925102018F59020193510201B7
:105350009059D8B002D0D8901200D8801200000E18
:105360000201996F020197AF08D00201966D971F55
:10537000D8B0972B010E0201996F020195AF08D0AA
:105380000201946D951FD8B0952B010E0201991B57
:10539000000E02019B6F000E9A6F020196510201EE
:1053A0009711D8B42CD0010E0201986F06D00201DB
:1053B000D890963797370201982B020197AFF7D70D
:1053C0000201D8909A379B37020196510201945DF1
:1053D0000201975102019559D8A00AD002019651B5
:1053E0000201945F020197510201955B02019A81CB
:1053F0000201D890973396330201982FE1D702012A
:1054000099510201D8B405D002019A6D9B1FD8B002
:105410009B2B9AC294F29BC295F21200000E0201DD
:10542000966F000E976F000E986F000E996F020135
:105430009251020193110201941102019511D8B405
:1054400042D0010E02019A6F08D00201D890923723
:1054500093379437953702019A2B020195AFF5D710
:105460000201D890963797379837993702019251B1
:1054700002018E5D0201935102018F590201945184
:10548000020190590201955102019159D8A012D000
:105490000201925102018E5F0201935102018F5B62
:1054A000020194510201905B020195510201915B4E
:1054B000020196810201D89095339433933392334D
:1054C00002019A2FCDD796C28EF297C28FF298C260
:1054D00090F299C291F212002D0E0201906F040E0B
:1054E0000201916F530EDDEC26F0310E0201906F38
:1054F0000B0E0201916F530EDDEC26F02C0E020113
:10550000906F0A0E0201916F530EDDEC26F02E0E05
:105510000201906F000E0201916F530EDDEC26F038
:10552000280E0201906F050E0201916F530EDDEC03
:1055300026F0290E0201906F140E0201916F530E96
:10554000DDEC26F02F0E0201906F000E0201916F2C
:10555000530EDDEC26F02E0E0201906F040E0201B8
:10556000916F530EDDEC26F02D0E0201906F080EA8
:105570000201916F530EDDEC26F0000E0201906FD8
:10558000010E0201916F530E8AEC1FF002010951C6
:105590001200000E106E000E0F6E000E126E000E46
:1055A000116E000E146E000E136E20EE02F0085005
:1055B000D9260950DA22DF50016E20EE01F00850A2
:1055C000D9260950DA22DF504BEC33F001C00DF040
:1055D00002C00EF0000E126E030E116E10D01150AC
:1055E0000824D96E12500920DA6EDF500A6E0A5074
:1055F0001324136E000E1420146E114A122A020E88
:105600000D240A6E000E0E200B6E11500A5C0B501A
:10561000800A0C6E1250800A0C58D8B0E0D7135094
:105620000F6E106A13C00AF014C00BF00A1E0B1E96
:105630000A4A0B2AFF0E0A240F6E000E0B20106E72
:105640000F5012000450D8B405D0015002100310BE
:10565000D8A40CD0000E016E000E026E000E036E78
:105660001200042AD890033202320132000E0114D3
:10567000066E000E0214076EFE0E0314086E06502E
:1056800007100810D8B40CD0ECD7042A010E01265C
:10569000000E0222000E0322D890033202320132A1
:1056A000000E0114066E000E0214076EFF0E0314A6
:1056B000086E065007100810D8B406D0E6D70406C6
:1056C000D89001360236033602BE03D0020E0460C3
:1056D000F6D704A0029ED89004320450031205505D
:1056E000D8A4038E01C001F002C002F003C003F091
:1056F0001200000E0201936F02018FAF08D0020169
:105700008E6D8F1FD8B08F2B010E0201936F020197
:1057100091AF05D00201906D911FD8B0912B02017D
:10572000905102019111D8B426D0010E0201926F5E
:1057300006D00201D890903791370201922B0201D6
:1057400091AFF7D70201905102018E5D0201915194
:1057500002018F59D8A008D00201905102018E5F3A
:105760000201915102018F5B0201D8909133903375
:105770000201922FE7D7020193510201D8B405D05C
:1057800002018E6D8F1FD8B08F2B8EC28EF28FC20A
:105790008FF2120002019F510201A0110201A1111A
:1057A0000201A211D8B43AD0010E0201A36F08D0B1
:1057B0000201D8909F37A037A137A2370201A32B4F
:1057C0000201A2AFF5D702019F5102019B5D0201C8
:1057D000A05102019C590201A15102019D590201EF
:1057E000A25102019E59D8A010D002019F5102017E
:1057F0009B5F0201A05102019C5B0201A1510201C9
:105800009D5B0201A25102019E5B0201D890A2336E
:10581000A133A0339F330201A32FD5D79BC29BF2A4
:105820009CC29CF29DC29DF29EC29EF2120000019B
:10583000D94BDA2B0001D74BD82BE80E0001D95DEC
:10584000030E0001DA59D8A024D044EC10F0920ED7
:105850000001866F100E0001876FD4C088F0D5C09C
:1058600089F0D6C08AF0E9C08BF000018C6B8CEC1B
:1058700019F00001AC6F0001AC5100018D6F8E6B0F
:105880005DEC0CF00001EE2B000E0001DA6F000E53
:10589000D96F040E0001D7190001D811D8A407D080
:1058A00022EC30F0000E0001D86F000ED76F3C0ED6
:1058B0000001EE19D8A412000001ED2B000E00012A
:1058C000EE6F12000FAE16D00DC013F00EC014F024
:1058D0000FC015F0131E141E151E132A000E1422DD
:1058E0001522000E13240D6E000E14200E6E800E75
:1058F00015200F6E12AE16D010C013F011C014F0A8
:1059000012C015F0131E141E151E132A000E1422A9
:105910001522000E1324106E000E1420116E800E3E
:105920001520126E000E0D1A000E0E1A800E0F1AA0
:10593000000E101A000E111A800E121A10500D5C73
:1059400011500E5812500F58D8B002D0D8901200F3
:10595000D8801200015002100310D8A40FD004C048
:10596000D9FF05C0DAFF000EDE6E000EDD6E000E00
:10597000016E000E026E000E036E120003507F0BCC
:10598000066E076AD8900636073604C0D9FF05C0F0
:10599000DAFF06C0DEFF07C0DDFF02AE03D0066AF5
:1059A000062A01D0066A065004C0D9FF05C0DAFFF6
:1059B000DE12000EDD1204C0D9FF05C0DAFF820E30
:1059C000DE26FF0EDD220380038203840386038824
:1059D000038A039C029E01C001F002C002F003C0D2
:1059E00003F012005BC044F05CC045F05DC046F0BF
:1059F00082EC2EF044C04CF045C04DF046C04EF055
:105A000071EC33F04CC04FF04DC050F04EC051F02F
:105A10005BC052F05CC053F05DC054F0B4EC1EF0BB
:105A20004FC060F050C061F051C062F05BC04FF0F9
:105A30005CC050F05DC051F060C052F061C053F0E6
:105A400062C054F0B4EC1EF04FC05BF050C05CF08C
:105A500051C05DF05BC044F05CC045F05DC046F0F5
:105A600082EC2EF044C05BF045C05CF046C05DF0B7
:105A70001200320E036E060E046E530EE2EC23F09B
:105A800009C201F002010A51D2EC33F001C006F064
:105A900002C007F0000E096E100E086EEBEC2FF03E
:105AA00006C00FF207C010F20BC201F002010C5148
:105AB000D2EC33F001C006F002C007F0000E096E10
:105AC000100E086EEBEC2FF006C011F207C012F2B8
:105AD0000DC201F002010E51D2EC33F001C006F00C
:105AE00002C007F0000E096E100E086EEBEC2FF0EE
:105AF00006C013F207C014F21200000E0C6E0AAEBC
:105B000006D0096C0A1ED8B00A2A010E0C6E08AE27
:105B100006D0076C081ED8B0082A010E0C1A000E19
:105B20000E6E000E0D6E09500A10D8B41CD0010E76
:105B30000B6E04D0D89009360A360B2A0AAEFAD773
:105B4000D8900D360E360950075C0A500858D8A078
:105B500005D00950075E0A50085A0D80D8900A32C5
:105B600009320B2EEDD70C50D8B404D00D6C0E1E9C
:105B7000D8B00E2A0DC007F00EC008F0120003EED8
:105B80007FF01BEEB8F0EE6AE550E150FCE1E25028
:105B9000FAE103EE00F07F0EEE6AE806FDE102EEA8
:105BA00000F08E0EEE6AE806FDE101EEE4F00F0E65
:105BB000EE6AE806FDE100EEBCF0370EEE6AE8069C
:105BC000FDE1890EF66E680EF76E000EF86E0900A4
:105BD000F5CFF3F1860EF66E680EF76E000EF86ED6
:105BE0000900F5CFF3F00900F5CFF4F00900F5CF87
:105BF000F5F05F905F92000EF86E0001DFEF33F07A
:105C0000156EAB0E016EFF0E28EC34F07E0E020115
:105C1000256F000E0201266F080E0201276F010E8C
:105C20000201286F000E0201296F1EC22AF21FC254
:105C30002BF2000E02012C6F540E02012D6F000E8C
:105C400002012E6F15C02FF2250E086E020E096E8E
:105C5000C9EC2AF00201306F000E166E0C0E1664AD
:105C600001D01200ACA2FED71650010D250EF32470
:105C7000D96E020EF420DA6EDF50F4EC33F0162AFF
:105C8000EDD7000E096E000E0A6E000E0B6E000EB0
:105C90000C6E0550061007100810D8B42AD0010E5B
:105CA0000D6E06D0D89005360636073608360D2A12
:105CB00008AEF8D7D89009360A360B360C360550A0
:105CC000015C065002580750035808500458D8A0E9
:105CD00009D00550015E0650025A0750035A085079
:105CE000045A0980D89008320732063205320D2E48
:105CF000E1D709C001F00AC002F00BC003F00CC0EC
:105D000004F0120044C001F045C002F046C003F0A8
:105D10004A0E046E000E056EAAEC2CF04BAE07D0B6
:105D2000000E446E000E456E000E466E12004B5083
:105D300004E1150E4A5CD8A007D044C044F045C029
:105D400045F046C046F0120044C02BF045C02CF090
:105D500046C02DF0EBEC27F02BC03AF02CC03BF006
:105D60002DC03CF02EC03DF03EEC2FF03AC047F085
:105D70003BC048F03CC049F047C044F048C045F043
:105D800049C046F012008E0E02019E6F08D002013B
:105D9000D890993398339733963302019E2B000E97
:105DA0000201961502019A6F000E02019715020179
:105DB0009B6F000E0201981502019C6FFF0E0201FD
:105DC000991502019D6F02019A5102019B11020176
:105DD0009C1102019D11D8A4DAD796C28EF297C207
:105DE0008FF298C290F29EC291F2000E0201926F61
:105DF00065EC27F08EC296F28FC297F290C298F2AD
:105E0000120002018F6F8FC2C9FFC6AE02D0FF0E13
:105E10001200C6500F0B080AD8B40FD0C6500F0B93
:105E20000B0AD8B40AD0C6889EA6FED7C7A4C7B0AE
:105E300002D0FE0E1200000E1200C6500F0B080A10
:105E4000D8B405D0C6500F0B0B0AD8A41200C7B0A7
:105E5000FED7C7A404D002018E6B8E2B02D00201A4
:105E60008E6BC5501F0B02018E110009D8A4F1D70B
:105E7000C5AC02D0FE0E1200000E1200000E436EE2
:105E80008E0E426E3DAE11D03D1E3C1E3B1E3A6C46
:105E9000000E3B223C223D22010E436E06D0D890DC
:105EA0003D323C323B323A32422A000E3A143E6EC8
:105EB000000E3B143F6E000E3C14406EFF0E3D146E
:105EC000416E3E503F1040104110D8A4E8D73AC070
:105ED00001F03BC002F03CC003F042C004F043C0FC
:105EE00005F022EC2BF001C03AF002C03BF003C0F9
:105EF0003CF01200026E02C0C9FFC6AE02D0FF0E17
:105F00001200C6500F0B080AD8B40FD0C6500F0BA2
:105F10000B0AD8B40AD0C6889EA6FED7C7A4C7B0BD
:105F200002D0FE0E1200000E1200C6500F0B080A1F
:105F3000D8B405D0C6500F0B0B0AD8A41200C7B0B6
:105F4000FED7C7A403D0016A012A01D0016AC55057
:105F50001F0B01100009D8A4F4D7C5AC02D0FE0E67
:105F60001200000E1200000E066E02AE06D0016C8A
:105F7000021ED8B0022A010E066E04AE04D0036CD5
:105F8000041ED8B0042A03500410D8B418D0010E4F
:105F9000056E04D0D89003360436052A04AEFAD72D
:105FA0000350015C04500258D8A004D00350015E95
:105FB0000450025AD89004320332052EF1D706500D
:105FC000D8B404D0016C021ED8B0022A01C001F07E
:105FD00002C002F0120008C00AF0FF0E0A26010EED
:105FE0000B6E000E0C6E0A2A03D0D8900B360C36BE
:105FF0000A2EFBD706500B1607500C160B500C1030
:10600000D8B41BD0000E0E6E000E0D6E061C0D6E69
:10601000071C0E6E010E0D240D6E000E0E200E6E6E
:106020000DC00AF00EC00BF00A1E0B1E0A4A0B2A06
:106030000AC006F00BC007F0120006C006F007C049
:1060400007F01200000E446EC5EC32F005C045F0BA
:1060500006C046F0D8900101F035D96E0101F13546
:10606000DA6E7F0ED926030EDA2245C0DEFF46C067
:10607000DDFFE80E0101F05D030E0101F159D8A02A
:106080000FD0A9EC17F00101F26F0101F251D8A471
:10609000F2C1E9F0000E0101F16F000EF06F03D0C4
:1060A0000101F04BF12B0101F351020F0101F36FDC
:1060B00012001250131014101510D8B424D0010E71
:1060C000166E06D0D8901236133614361536162AA8
:1060D00015AEF8D712500E5C13500F5814501058CC
:1060E00015501158D8A008D012500E5E13500F5AF8
:1060F0001450105A1550115AD890153214321332C8
:106100001232162EE7D70EC00EF00FC00FF010C0DF
:1061100010F011C011F012000201926F000EC26E59
:10612000000EC16E000EC06E02018E517C0BC26E5D
:106130008FC2C1FF92C290F20201D8909037020143
:10614000D8909037380E0201901792C291F2020156
:10615000913B0F0E9117070E020191170201925108
:10616000800B0201911102019011C06E02018EAFED
:1061700003D09E9C9D8CF28CC28012000201906F15
:10618000000EAC6E000EAB6E020190B1AC88020145
:1061900090A302D0AC8CAB8C020190B5AC8E020106
:1061A00090A702D0AB8801D0AB8A020190B9AC8431
:1061B000020190BBAB86020190AD02D09D8A01D056
:1061C0009D9A020190AF02D09D8801D09D988EC209
:1061D000AFFF02018F51B06EAC8AAB8E120002018C
:1061E000936F11D0970E0201246F850E0201216F6B
:1061F000ED0E07D0D70E0201246F000E0201216FB1
:10620000E50E206F08D002019351010AD8B4EAD7F5
:10621000030AD8B4EFD7020193510201D8A403D0E6
:106220003EEC34F012000201245138EC33F020C26D
:106230008EF221C28FF208EC34F0F29412008E0E2E
:10624000116E06D0D8900C320B320A320932112A64
:10625000000E09140D6E000E0A140E6E000E0B14C3
:106260000F6EFF0E0C14106E0D500E100F1010104C
:10627000D8A4E8D709C001F00AC002F00BC003F0AF
:1062800011C004F0000E056E22EC2BF001C009F0E5
:1062900002C00AF003C00BF01200000E066E000EE2
:1062A000056E03500410D8B41CD0010E076E04D044
:1062B000D89003360436072A04AEFAD7D8900536AC
:1062C00006360350015C04500258D8A005D0035094
:1062D000015E0450025A0580D89004320332072E22
:1062E000EDD705C001F006C002F012000201CA514C
:1062F0000201CB110201CC11D8B409D0000E020169
:10630000CA1B000E0201CB1B800E0201CC1BC7C2B0
:10631000BBF2C8C2BCF2C9C2BDF2CAC2BEF2CBC295
:10632000BFF2CCC2C0F25DEC1CF0BBC2C7F2BCC273
:10633000C8F2BDC2C9F2120000016351000164112C
:1063400000016511D8B409D0000E0001631B000ED6
:106350000001641B800E0001651B60C04FF061C02E
:1063600050F062C051F063C052F064C053F065C099
:1063700054F0B4EC1EF04FC060F050C061F051C05A
:1063800062F012006DC06AF06EC06BF06FC06CF00E
:1063900081EC24F06AC070F06BC071F06CC072F0D8
:1063A00070C015F071C016F072C017F05C0E186E58
:1063B000DE0E196E3E0E1A6E65EC28F015C06DF0FB
:1063C00016C06EF017C06FF012000F013A970F0160
:1063D0003A9994869488C69A000E02018E6F080E30
:1063E000A6EC33F0130EC86EC7A404D00201906B64
:1063F000902B02D00201906BC5501F0B020190112F
:106400000009D8B41200F0D7010E0001EF6F82B678
:1064100004D00001AD6BAD2B02D00001AD6B0001CB
:10642000AD47AD47AD4782500001AD19F70BAD192F
:10643000826E17EC2CF020C201F021C202F011ECA8
:1064400034F0F2941200000E0201936F000E02016C
:10645000926F000E916F5C0E0201936F000E0201AD
:10646000926F330E916F4F0EAB16AC9ACF0E9D16F6
:1064700091C28EF292C28FF202019351BEEC30F0C3
:106480001200000E0C6E0AAE06D0096C0A1ED8B0BF
:106490000A2A010E0C6E09C001F00AC002F0036A5C
:1064A0008E0E046E0CC005F022EC2BF001C009F03A
:1064B00002C00AF003C00BF0120002019C5102015D
:1064C0009E03F3CFA0F2F4CFA1F202019C5102018E
:1064D0009F03F3500201A12702019D5102019E0377
:1064E000F3500201A127A0C29CF2A1C29DF21200AA
:1064F000000E0201936F000E0201946F000E020164
:10650000956FA10E0201936F270E0201946FFC0E8E
:106510000201956F94C28EF295C28FF202019351DF
:106520008CEC30F012003AEC34F0F6EC32F023EC64
:1065300032F0000E0201926F020EEFEC30F0EAEC46
:1065400033F078EC32F0E5EC31F06CEC2AF002013B
:106550009D6FF28CF28E1200000E086E000E076E18
:10656000B70EFEEC33F041EC34F034EC34F00009BB
:10657000D8A4FBD721EC34F001C007F002C008F02A
:1065800007C005F008C006F01200000E086E000EED
:10659000076EAF0EFEEC33F041EC34F034EC34F027
:1065A0000009D8A4FBD721EC34F001C007F002C0E9
:1065B00008F007C005F008C006F0120002018E5175
:1065C00002018F1102019011D8B409D0000E02010E
:1065D0008E1B000E02018F1B800E0201901B8EC2CB
:1065E0008EF28FC28FF290C290F212000F013A9D8C
:1065F0000F013A9F949C948E0F013A959494829443
:106600009296809693880F013989938A0F01398B6E
:1066100093800F01399181901200F20E0001F01762
:10662000ABAC06D00001F091ABA002D00001F0812C
:10663000ABA402D00001F085ABA202D00001F0872C
:10664000AECF01F00150120002AE0DD001C003F038
:1066500002C004F0031E041E034A042A03C001F012
:1066600004C002F0120001C001F002C002F01200EA
:1066700002018E6F02018E517F0BD56E000ED76E18
:10668000000ED66EF29402018EAF02D0F28A01D0D3
:10669000F29AD58E1200056E000E076E000E066E81
:1066A0000550046E036A01500324066E000E042098
:1066B000076E06C001F007C002F012000F50110271
:1066C000F3CF13F0F4CF14F00F501202F35014264E
:1066D00010501102F350142613C00FF014C010F024
:1066E00012004C504D104E10D8B406D0000E4C1A6B
:1066F000000E4D1A800E4E1A4CC04CF04DC04DF09D
:106700004EC04EF0120009C001F00AC002F0036A48
:106710008E0E046E000E056E22EC2BF001C009F007
:1067200002C00AF003C00BF012000001F251010D8B
:10673000000EF324D96E030EF420DA6E0DEC33F064
:10674000DF6E0301005100EC2EF0120002018F6F8A
:106750003F0EC716000EC66E000EC56E02018F51A9
:10676000C61202018E51C712C68A1200C6500F0B04
:10677000080AD8B404D0C6500F0B0B0AD8B4C5868B
:10678000C7A0FED7C9501200C6500F0B080AD8B4D4
:1067900004D0C6500F0B0B0AD8B4C586C7A0FED7CD
:1067A000C9501200056E015005C003F0046A03C011
:1067B00004F0036A0310016E0450026E120093ECA1
:1067C00032F0AE0E0201CD6F100E0201CE6F60EC02
:1067D00008F0FFD7F1949F8A9D8A9E9AF288F18CE7
:1067E000F19EF28CF28E1200016EACAC04D0AC9033
:1067F0000001F0B3AC8001C0ADFF1200026E02C018
:1068000001F07C0E0116C250830B0110C26E120003
:106810008EC290F28FC291F291C2D7FF90C2D6FF82
:10682000120001C003F002C004F004C0D7FF03C08F
:10683000D6FF120002018E6F9EA8FED78EC2ADFF5A
:106840001200C450036EC350016E03C002F0120068
:10685000026E02C01EF201C01FF21200016E9EA85D
:10686000FED701C0ADFF1200C2A202D0010E12007D
:10687000000E1200D388D38AD38C1200D59EF29AD0
:0A6880001200C28212000000400264
:020000040030CA
:0E000000FF331F3CFFBF85FF0FC00FE00F4016
:00000001FF
