:0400000058EF00F0C5
:100008005F82FACFD7F0FBCFD8F0E9CFD9F0EACFAB
:10001800DAF0E1CFDBF0E2CFDCF0D9CFDDF0DACFF8
:10002800DEF0F3CFDFF0F4CFE0F0F6CFE1F0F7CF7A
:10003800E2F0F8CFE3F0F5CFE4F0F2B4F1A402D0A7
:1000480032EC1DF09EBA9DAA07D0ABA202D0AB98A5
:10005800AB887AEC1BF09E9AF2A208D0300E036EA1
:10006800010E046E530ECBEC10F0F292E4C0F5FFD3
:10007800E3C0F8FFE2C0F7FFE1C0F6FFE0C0F4FF1D
:10008800DFC0F3FFDEC0DAFFDDC0D9FFDCC0E2FF6E
:10009800DBC0E1FFDAC0EAFFD9C0E9FFD8C0FBFF47
:0C00A800D7C0FAFF5F921100AFEF1BF011
:101000000000000000803FF0FFBEE2A93E8376BEF4
:10101000AE2B3E3CC3BDD2133D78D3BB0000000EC7
:101020000001B26FA00E0001B36F400E0001B46F5B
:10103000330E0001AF6F530E0001B06F400E000180
:10104000B16FF00E0001B56F3F0E0001B66F400E9C
:101050000001B76FC00E0001B86F8F0E0001B96FAD
:10106000450E0001BA6F900E0001BB6F8E0E00019D
:10107000BC6F450E0001BD6F000E0001C46F4D0E28
:101080000001C56F440E0001C66F330E446E530E4F
:10109000456E400E466E14EC1EF005C009F006C009
:1010A0000AF0ABEC1DF009C041F00AC042F00BC0E1
:1010B00043F03DEC15F041C050F042C051F043C048
:1010C00052F0000E536E800E546E440E556EB7EC07
:1010D00015F050C0CAF051C0CBF052C0CCF0CAC01D
:1010E00050F0CBC051F0CCC052F0B2C053F0B3C0FE
:1010F00054F0B4C055F0B7EC15F050C0CAF051C070
:10110000CBF052C0CCF0B8C033F0B9C034F0BAC0A4
:1011100035F0C4C030F0C5C031F0C6C032F071EC5B
:101120000EF030C053F031C054F032C055F0C4C09E
:1011300050F0C5C051F0C6C052F0B7EC15F050C029
:10114000BEF051C0BFF052C0C0F0B5C053F0B6C041
:1011500054F0B7C055F0CAC050F0CBC051F0CCC06D
:1011600052F0B7EC15F050C030F051C031F052C021
:1011700032F0BEC033F0BFC034F0C0C035F071EC07
:101180000EF030C0C7F031C0C8F032C0C9F0C7C0DF
:1011900044F0C8C045F0C9C046F0BBC041F0BCC077
:1011A00042F0BDC043F03DEC15F041C050F042C0EC
:1011B00051F043C052F0000E336E800E346E3F0E7D
:1011C000356EC7C02DF0C8C02EF0C9C02FF0C1ECDD
:1011D0001EF02DC030F02EC031F02FC032F071EC77
:1011E0000EF030C053F031C054F032C055F0B7ECBF
:1011F00015F050C0D3F051C0D4F052C0D5F0D3C0D8
:101200000DF0D4C00EF0D5C00FF0DA0E106EE30E64
:10121000116E440E126EB8EC18F0D8A058D0720EB1
:10122000536ECF0E546E450E556ED3C050F0D4C0E1
:1012300051F0D5C052F0B7EC15F050C0A9F051C034
:10124000AAF052C0ABF0D1EC1CF0A9C0CDF0AAC0FE
:10125000CEF0ABC0CFF02B0E0001A96F750E0001D0
:10126000AA6F3F0E0001AB6FD1EC1CF0A9C053F088
:10127000AAC054F0ABC055F0000E446E800E456E0F
:10128000BF0E466ECDC041F0CEC042F0CFC043F09D
:101290003DEC15F041C050F042C051F043C052F057
:1012A000B7EC15F050C0D0F051C0D1F052C0D2F020
:1012B000D0C041F0D1C042F0D2C043F0000E446E25
:1012C000800E456EBF0E466E3DEC15F09FD1D3C02B
:1012D0000DF0D4C00EF0D5C00FF0A30E106EB80EF6
:1012E000116E440E126EB8EC18F0D8A058D01C0E37
:1012F000536EC80E546E450E556ED3C050F0D4C018
:1013000051F0D5C052F0B7EC15F050C0A9F051C063
:10131000AAF052C0ABF0D1EC1CF0A9C0CDF0AAC02D
:10132000CEF0ABC0CFF0760E0001A96F750E0001B4
:10133000AA6F3F0E0001AB6FD1EC1CF0A9C053F0B7
:10134000AAC054F0ABC055F0000E446E800E456E3E
:10135000BF0E466ECDC041F0CEC042F0CFC043F0CC
:101360003DEC15F041C050F042C051F043C052F086
:10137000B7EC15F050C0D0F051C0D1F052C0D2F04F
:10138000D0C041F0D1C042F0D2C043F0000E446E54
:10139000800E456EBF0E466E3DEC15F037D1D3C0C2
:1013A0000DF0D4C00EF0D5C00FF09A0E106E960E50
:1013B000116E440E126EB8EC18F0D8A058D0300E52
:1013C000536EBF0E546E450E556ED3C050F0D4C050
:1013D00051F0D5C052F0B7EC15F050C0A9F051C093
:1013E000AAF052C0ABF0D1EC1CF0A9C0CDF0AAC05D
:1013F000CEF0ABC0CFF0C80E0001A96F750E000192
:10140000AA6F3F0E0001AB6FD1EC1CF0A9C053F0E6
:10141000AAC054F0ABC055F0000E446E800E456E6D
:10142000BF0E466ECDC041F0CEC042F0CFC043F0FB
:101430003DEC15F041C050F042C051F043C052F0B5
:10144000B7EC15F050C0D0F051C0D1F052C0D2F07E
:10145000D0C041F0D1C042F0D2C043F0000E446E83
:10146000800E456EBF0E466E3DEC15F0CFD0D3C05A
:101470000DF0D4C00EF0D5C00FF0060E106E770E32
:10148000116E440E126EB8EC18F0D8A058D0190E98
:10149000536EB70E546E450E556ED3C050F0D4C087
:1014A00051F0D5C052F0B7EC15F050C0A9F051C0C2
:1014B000AAF052C0ABF0D1EC1CF0A9C0CDF0AAC08C
:1014C000CEF0ABC0CFF00C0E0001A96F760E00017C
:1014D000AA6F3F0E0001AB6FD1EC1CF0A9C053F016
:1014E000AAC054F0ABC055F0000E446E800E456E9D
:1014F000BF0E466ECDC041F0CEC042F0CFC043F02B
:101500003DEC15F041C050F042C051F043C052F0E4
:10151000B7EC15F050C0D0F051C0D1F052C0D2F0AD
:10152000D0C041F0D1C042F0D2C043F0000E446EB2
:10153000800E456EBF0E466E3DEC15F067D0D3C0F1
:101540000DF0D4C00EF0D5C00FF0ED0E106E4A0EA7
:10155000116E440E126EB8EC18F0D8A05DD0400E9B
:10156000536EAE0E546E450E556ED3C050F0D4C0BF
:1015700051F0D5C052F0B7EC15F050C0A9F051C0F1
:10158000AAF052C0ABF0D1EC1CF0A9C0CDF0AAC0BB
:10159000CEF0ABC0CFF0510E0001A96F760E000166
:1015A000AA6F3F0E0001AB6FD1EC1CF0A9C053F045
:1015B000AAC054F0ABC055F0000E446E800E456ECC
:1015C000BF0E466ECDC041F0CEC042F0CFC043F05A
:1015D0003DEC15F041C050F042C051F043C052F014
:1015E000B7EC15F050C0D0F051C0D1F052C0D2F0DD
:1015F000D0C041F0D1C042F0D2C043F0000E446EE2
:10160000800E456EBF0E466E3DEC15F041C0C1F038
:1016100042C0C2F043C0C3F0C1C075F0C2C076F092
:10162000C3C077F01200000E0101D56F000ED46F19
:10163000000E0101D26F000E0101D36F22EE50F0B7
:1016400011EEC8F0090EDBCFE3FFE806FCE2000E66
:101650000101DB6F000EDA6F000E0101DC6F000E7E
:101660000101E16F000E0101E36F000EE26F000E59
:101670000101D76F000ED66F000E0101D96F000E69
:10168000E8CFBBFA000E0101E36F010EE26FE80E36
:101690000101E25D030E0101E359D8B048D0BB0E51
:1016A0000101E225D96E0A0E0101E321DA6EE2C1E1
:1016B00050F0E3C151F0D89050365136020E50260A
:1016C000000E5122EB0E5024E16E020E5120E26E0C
:1016D000E6CF52F0E5CF53F0FE0E546EFF0E556E7E
:1016E000E2C156F0E3C157F0D89056365736545001
:1016F000562655505722EB0E5624E16E020E572007
:10170000E26EE6CF58F0E5CF59F0581E591E584A00
:10171000592A52505824016E53505920026E74ECCD
:101720001EF00150DF6E0101E24BE32BB0D7000E3B
:101730000101E36F000EE26F0101E35113E11F0E9F
:101740000101E25DD8B00ED0BB0E0101E225D96ED9
:101750000A0E0101E321DA6E000EDF6E0101E24B99
:10176000E32BEAD7000E0101DE6F000EDD6F0101F1
:10177000DEBF08D0E80E0101DD5D030E0101DE5978
:10178000D8B023D0BB0E0101DD25D96E0A0E0101B0
:10179000DE21DA6EDF50506E50500101D65D000E32
:1017A000D759D8B00ED0BB0E0101DD25D96E0A0E77
:1017B0000101DE21DA6EDF50506E50500101D66F0C
:1017C000D76B0101DD4BDE2BD2D7330E446E330EC7
:1017D000456E3F0E466ED6C109F0D7C10AF0D3EC74
:1017E0001EF009C041F00AC042F00BC043F03DECCE
:1017F00015F041C00CF042C00DF043C00EF0C3EC38
:1018000014F00CC0F3F10DC0F4F1000E0101E06F13
:10181000000EDF6F0101E0BF08D0E90E0101DF5DBE
:10182000030E0101E059D8B09ED0BB0E0101DF25A7
:10183000D96E0A0E0101E021DA6EDF50506E505071
:101840000101F35D000EF459D8B079D00101D951EE
:101850000101D8A474D0BB0E0101DF25D96E0A0E98
:101860000101E021DA6EDF50506E516A0101E15151
:10187000020D140EF326000EF422000EF324D96E8E
:10188000010EF420DA6E50C0DEFF51C0DDFF010111
:10189000E151020D280EF326000EF422000EF3246F
:1018A000D96E010EF420DA6EDFC1DEFFE0C1DDFF8C
:1018B0000101E1510101D8B43DD00101E151020D16
:1018C000280EF326000EF422000EF324D96E010E2A
:1018D000F420DA6EDECF50F0DDCF51F00101E1519E
:1018E000526E536AD89052365336260E5226000E48
:1018F0005322000E5224D96E010E5320DA6EDECF31
:1019000054F0DDCF55F0541E551E544A552A505000
:101910005426515055220101DC51020DC80EF3240A
:10192000D96E010EF420DA6E54C0DEFF55C0DDFF23
:101930000101DC2B0101E12B010E0101D96F010135
:10194000D905D8A40CD01E0E0101D36506D0000E17
:101950000101D96F000E0101D36F0101D32B0101E9
:10196000DF4BE02B57D7000E0101D86F19D00101D2
:10197000D851020DC80EF324D96E010EF420DA6E90
:10198000DECF50F0DDCF51F00101DA5150240101DA
:10199000DA6F0101DB5151200101DB6F0101D82B0E
:1019A0000101DC510101D85DD8A0E1D7DAC101F015
:1019B000DBC102F0DCC103F0046AD3EC19F001C012
:1019C000DAF102C0DBF13A0E026E980E016EDAC156
:1019D00003F0DBC104F0A8EC1CF001C0D4F102C09C
:1019E000D5F1D4C1D2F10101D4511200000E000191
:1019F000A96F200E0001AA6F410E0001AB6F22EE0D
:101A00005AF010EEADF0080EDBCFE3FFE806FCE283
:101A1000000E0001A86F000EA76F41D09BEC12F0E2
:101A2000ADC030F0AEC031F0AFC032F0E4C133F041
:101A3000E5C134F0E6C135F071EC0EF030C0ADF028
:101A400031C0AEF032C0AFF0B0C030F0B1C031F054
:101A5000B2C032F0E7C133F0E8C134F0E9C135F08B
:101A600071EC0EF030C0B0F031C0B1F032C0B2F065
:101A7000B3C030F0B4C031F0B5C032F0EAC133F0D9
:101A8000EBC134F0ECC135F071EC0EF030C0B3F0C6
:101A900031C0B4F032C0B5F00001A74BA82BA7C0ED
:101AA00009F0A8C00AF0ABEC1DF009C00DF00AC0A7
:101AB0000EF00BC00FF0A9C010F0AAC011F0ABC01F
:101AC00012F0B8EC18F0D8A0A9D7000E0001B76F3B
:101AD000000EB66F0001B7BF08D00001B7513DE15D
:101AE000030E0001B65DD8B038D0B6C001F0B7C063
:101AF00002F0000E046E030E036E9BEC1EF0AD0EA2
:101B00000124D96E000E0220DA6EB6C001F0B7C013
:101B100002F0000E046E030E036E9BEC1EF0AD0E81
:101B20000124E16E000E0220E26EE6CF50F0E6CF17
:101B300051F0E5CF52F0A9C053F0AAC054F0ABC0A9
:101B400055F0B7EC15F050C0DEFF51C0DEFF52C0BB
:101B5000DEFF0001B64BB72BBDD7ADC03CF0AEC029
:101B60003DF0AFC03EF048EC19F03CC0B8F03DC0CD
:101B7000B9F03EC0BAF0B0C03CF0B1C03DF0B2C068
:101B80003EF048EC19F03CC0BBF03DC0BCF03EC09C
:101B9000BDF0B3C03CF0B4C03DF0B5C03EF048EC81
:101BA00019F03CC0BEF03DC0BFF03EC0C0F0000E1A
:101BB0000001AC6F0001B8510001B9110001BA1168
:101BC000D8A415D00001BB510001BC110001BD110A
:101BD000D8A40DD0800E0001BF1909E13F0E00010D
:101BE000C0190001BE11D8A402D0010E75D00001A9
:101BF000B8510001B9110001BA11D8A415D00001E3
:101C0000BB510001BC110001BD11D8A40DD0800E44
:101C10000001BF1909E1BF0E0001C0190001BE118A
:101C2000D8A402D0020E58D00001B8510001B91159
:101C30000001BA11D8A415D0800E0001BC1911E121
:101C4000BF0E0001BD190001BB11D8A40AD00001CC
:101C5000BE510001BF110001C011D8A402D0030E73
:101C60003BD00001B8510001B9110001BA11D8A44C
:101C700015D0800E0001BC1911E13F0E0001BD1905
:101C80000001BB11D8A40AD00001BE510001BF1150
:101C90000001C011D8A402D0040E1ED0800E000195
:101CA000B91919E1BF0E0001BA190001B811D8A481
:101CB00012D00001BB510001BC110001BD11D8A41C
:101CC0000AD00001BE510001BF110001C011D8A40B
:101CD00002D0050E01D0000E0001AC6F0001AC5126
:101CE000120032C036F0376A386A3134363601E3D2
:101CF000378036503B6E35C036F0376A386A343438
:101D0000363601E3378036503A6E3B50D8B40BD0AC
:101D10003A503B5CD8B00ED03B5000083A24366EA7
:101D2000180E366407D033C030F034C031F035C0FF
:101D300032F012003A50D8B40BD03B503A5CD8B0D5
:101D40000ED03A5000083B24366E180E366407D089
:101D500030C030F031C031F032C032F01200060E27
:101D6000396E32BE398E35BE398C318EFF0E30164B
:101D7000FF0E3116000E3216348EFF0E3316FF0E94
:101D80003416000E35163A503B5CD8B01BD0D890B4
:101D90003336343635363A063B503A18D8B40DD07F
:101DA000390639C036F0070E3616D8B406D0EFD74C
:101DB000D8903232313230323B2A3A503B18D8B4C4
:101DC0001FD0F6D73B503A5CD8B01AD0D8903036F6
:101DD000313632363B063B503A18D8B40DD039066E
:101DE00039C036F0070E3616D8B406D0EFD7D890E3
:101DF0003532343233323A2A3A503B18D8A4F7D726
:101E000039AE0CD0FF0E301AFF0E311AFF0E321A07
:101E1000010E3026000E3122000E322239AC0CD0D9
:101E2000FF0E331AFF0E341AFF0E351A010E332639
:101E3000000E3422000E3522000E396E305033264B
:101E4000315034223250352235AE0ED0FF0E331AC7
:101E5000FF0E341AFF0E351A010E3326000E3422FF
:101E6000000E3522010E396E33C001F034C002F08D
:101E700035C003F03BC004F039C005F019EC18F090
:101E800001C030F002C031F003C032F01200020194
:101E9000DD6F000E0201DC6FC580C5B0FED7020108
:101EA000DD51DD250201DD6FC9CFDCF20201DD511C
:101EB000FE0B56EC1AF00201DF6F0201DF29D8A4F5
:101EC00003D0C9CFDCF2C69E0201DF510201D8A4C3
:101ED000EDD7000E0201DF6FC7A404D00201D56B5D
:101EE000D52B02D00201D56BC5501F0B0201D511B5
:101EF0000009D8A4F1D70201D35156EC1AF002011F
:101F0000DF6F0201DF29D8A403D0C9CFDCF2C69E5F
:101F10000201DF510201D8A4EED7000E0201DF6FEB
:101F2000C7A404D00201D56BD52B02D00201D56B1A
:101F3000C5501F0B0201D5110009D8A4F1D7C582E5
:101F4000C5B2FED7C9CFDCF20201DD51010956EC62
:101F50001AF00201DF6F0201DF29D8A403D0C9CF34
:101F6000DCF2C69E0201DF510201D8A4EDD7000EBB
:101F70000201DF6FC7A404D00201D56BD52B02D0BC
:101F80000201D56BC5501F0B0201D5110009D8A461
:101F9000F1D7000E0201DE6F000E0201DE6F41D0AC
:101FA0000201DE51010D690EF324D96E000EF420FA
:101FB000DA6E28EC1FF0DF6EFF0E0201D56FFF0E08
:101FC0000201D66F0201D4510201D76FD86B020112
:101FD000D5510201D7270201D6510201D8230201AF
:101FE000DE510201D96FDA6B0201D7510201D95DCE
:101FF0000201DA51800A0201DB6F0201D851800A26
:102000000201DB59D8B005D0C59AC588C5A807D04C
:10201000FDD7C58AC588C5B8FED7C5B8FED70201A9
:10202000DE2B0201D4510201DE5DD8A0B9D7C584F0
:10203000C5A41200FDD7C1C00CF0C2C00DF0C3C0D2
:102040000EF0C3EC14F00C500001C96F000E446E8A
:10205000C80E456E420E466ECB0E3F6E000E406EB1
:10206000C1C03CF0C2C03DF0C3C03EF0CFEC1AF09E
:102070003CC041F03DC042F03EC043F03DEC15F0A5
:1020800041C0C6F042C0C7F043C0C8F0C6C00CF0A3
:10209000C7C00DF0C8C00EF0C3EC14F00C50000126
:1020A000CA6F030E016E000EAFEC1FF07E0E020130
:1020B000686F000E0201696F150E02016A6F010E52
:1020C00002016B6F000E02016C6FA5C06DF2A6C01D
:1020D0006EF2000E02016F6F440E0201706F000E6F
:1020E0000201716F000E0201726F7AC073F27BC041
:1020F00074F278C075F279C076F2000E0201776F43
:10210000000E0201786F84C001F085C002F0000E5D
:10211000046E010E036E18EC1FF00201796F84C08B
:1021200001F085C002F0000E046E020E036E18EC82
:102130001FF002017A6FC70E02017B6FC9C07CF2EB
:10214000CAC07DF2C4C07EF2C5C07FF2680E086EC0
:10215000020E096EC0EC17F00201806F000E000144
:10216000CE6F190E0001CE6501D011D0ACA2FED702
:102170000001CE51010D680EF324D96E020EF42039
:10218000DA6EDF5071EC1FF00001CE2BEAD70001B0
:10219000844B852B12000C6E000E0D6EC580C5B0F1
:1021A000FED70C500C240C6EC9CF0DF00C50FE0B5A
:1021B0000AEC1BF00F6E0F28D8A403D0C9CF0DF086
:1021C000C69E0F50D8A4F2D7000E0F6EC7A403D03E
:1021D000056A052A01D0056AC5501F0B05100009C4
:1021E000D8A4F4D703500AEC1BF00F6E0F28D8A424
:1021F00003D0C9CF0DF0C69E0F50D8A4F3D7000E60
:102200000F6EC7A403D0056A052A01D0056AC55020
:102210001F0B05100009D8A4F4D7C582C5B2FED79C
:10222000C9CF0DF00C5001090AEC1BF00F6E0F28FE
:10223000D8A403D0C9CF0DF0C69E0F50D8A4F2D7B2
:10224000000E0F6EC7A403D0056A052A01D0056AE7
:10225000C5501F0B05100009D8A4F4D7000E0E6E50
:10226000000E0E6E2FD00E50010D690EF324D96EA4
:10227000000EF420DA6E36EC1FF0DF6EFF0E056EF6
:10228000FF0E066E0450076E086A055007260650BA
:1022900008220E50096E0A6A0750095C0A50800A2B
:1022A0000B6E0850800A0B58D8B005D0C59AC58867
:1022B000C5A807D0FDD7C58AC588C5B8FED7C5B89B
:1022C000FED70E2A04500E5CD8A0CDD7C584C5A475
:1022D0001200FDD7176E030E016E000EAFEC1FF05B
:1022E0007E0E0201686F000E0201696F610E02012D
:1022F0006A6F010E02016B6F000E02016C6FA5C0C8
:102300006DF2A6C06EF2000E02016F6F440E020164
:10231000706F000E0201716F000E0201726F7AC0C1
:1023200073F27BC074F278C075F279C076F2000E59
:102330000201776F000E0201786F84C001F085C042
:1023400002F0000E046E010E036E18EC1FF0020185
:10235000796F84C001F085C002F0000E046E020E99
:10236000036E18EC1FF002017A6F4D0E02017B6FB5
:10237000000E196E500E196401D029D01950156E37
:10238000166A140E1526000E1622680E1524D96E34
:10239000020E1620DA6E1750500D1950F326000E5B
:1023A000F422D890F336F436EB0EF324E16E020EED
:1023B000F420E26EE6CF01F0E5CF02F0000E046EED
:1023C000020E036E18EC1FF0DF6E192AD3D7680EC9
:1023D000086E020E096EC0EC17F00201CC6F000E01
:1023E000186E640E186401D00FD0ACA2FED718503E
:1023F000010D680EF324D96E020EF420DA6EDF5060
:1024000071EC1FF0182AEDD70001844B852B1200C8
:1024100083D000019E51D8A409D0000E00019A6F0C
:10242000010E00019E6F000E0001936F040E00016B
:102430009A651200010E0001966F000E00019E6F5A
:10244000120000019E51D8A40BD0F7EC1EF0010E33
:1024500000019E6F000E0001936F000E00019D6F42
:1024600000019205D8A409D0020E0001966F000E5B
:102470000001926F000E00019E6F130E00019D651A
:102480001200000E0001966F000E00019E6F1200F8
:1024900000019E51D8A410D0000E00019B6F010EC8
:1024A00000019E6FA50E0201E56F000E0201E66FAE
:1024B0000001A1512AEC16F000019205D8A409D020
:1024C000000E0001926F030E0001966F000E0001D6
:1024D0009E6F130E00019B651200000E0001966FA7
:1024E000000E00019E6F120000019E51D8A409D079
:1024F000010E0001936F000E00019C6F010E0001A0
:102500009E6F130E00019C651200020E0001966F73
:10251000000E00019E6F120000019651000AD8B40F
:1025200078D7010AD8B48DD7030AD8B4B1D7010A35
:10253000D8A41200D9D78FEC19F060C02DF061C07B
:102540002EF062C02FF0C1EC1EF02DC033F02EC073
:1025500034F02FC035F06FC009F070C00AF0ABEC5A
:102560001DF009C030F00AC031F00BC032F071EC40
:102570000EF030C041F031C042F032C043F09A0E4C
:10258000446E790E456E3B0E466E3DEC15F041C033
:10259000E4F142C0E5F143C0E6F163C02DF064C050
:1025A0002EF065C02FF0C1EC1EF02DC033F02EC010
:1025B00034F02FC035F071C009F072C00AF0ABECF6
:1025C0001DF009C030F00AC031F00BC032F071ECE0
:1025D0000EF030C041F031C042F032C043F09A0EEC
:1025E000446E790E456E3B0E466E3DEC15F041C0D3
:1025F000E7F142C0E8F143C0E9F166C02DF067C0E1
:102600002EF068C02FF0C1EC1EF02DC033F02EC0AC
:1026100034F02FC035F073C009F074C00AF0ABEC91
:102620001DF009C030F00AC031F00BC032F071EC7F
:102630000EF030C041F031C042F032C043F09A0E8B
:10264000446E790E456E3B0E466E3DEC15F041C072
:10265000EAF142C0EBF143C0ECF112005EAE0CD0E7
:10266000000E00018D6F210E8C6F000E5C6E000E4F
:102670005D6E000E5E6E12005C505D105E10D8A4A0
:102680000CD0000E00018D6F220E8C6F000E5C6E60
:10269000000E5D6E000E5E6E1200000E446E000EA7
:1026A000456E400E466EA70E046E000E056E5CC0B1
:1026B00001F05DC002F05EC003F070EC18F001C0E4
:1026C00041F002C042F003C043F03DEC15F041C0C0
:1026D00030F042C031F043C032F0000E336E800E55
:1026E000346EBF0E356E71EC0EF030C05CF031C050
:1026F0005DF032C05EF00001A707D8A0A8075CC05B
:1027000050F05DC051F05EC052F0010E536E100EDD
:10271000546E000E566E080E556E94EC16F050C0B6
:102720005CF051C05DF052C05EF0720E446E310E2E
:10273000456E3F0E466EA7C009F0A8C00AF0ABEC8C
:102740001DF009C041F00AC042F00BC043F03DEC5F
:1027500015F041C030F042C031F043C032F05CC0EF
:1027600033F05DC034F05EC035F071EC0EF030C077
:102770005CF031C05DF032C05EF012000201D76F34
:10278000000E0201D66FC580C5B0FED70201D75139
:10279000D7250201D76FC9CFD6F20201D751FE0B60
:1027A00056EC1AF00201D86F0201D829D8A403D040
:1027B000C9CFD6F2C69E0201D8510201D8A4EDD7E6
:1027C000000E0201D86FC7A404D00201D56BD52B2F
:1027D00002D00201D56BC5501F0B0201D5110009B3
:1027E000D8A4F1D70201D35156EC1AF00201D86FE8
:1027F0000201D829D8A403D0C9CFD6F2C69E0201BF
:10280000D8510201D8A4EED7000E0201D86FC7A498
:1028100004D00201D56BD52B02D00201D56BC55077
:102820001F0B0201D5110009D8A4F1D7C9CFD6F2E8
:102830000201D45156EC1AF00201D86F0201D829D6
:10284000D8A403D0C9CFD6F2C69E0201D851020146
:10285000D8A4EED7000E0201D86FC7A404D002019D
:10286000D56BD52B02D00201D56BC5501F0B0201D1
:10287000D5110009D8A4F1D7C58AC588C5B8FED737
:10288000C5B8FED7C584C5A41200FDD7000E02014D
:10289000E06F000EDF6F000E0201E26F000EE16FCD
:1028A000000E0201E46F000EE36F020120EE02F061
:1028B000D851D926D951DA22DF500201D16F020155
:1028C00020EE01F0D851D926D951DA22DF508EEC12
:1028D0001DF0D1C2DDF2D2C2DEF2000E0201E26FC3
:1028E000030EE16F1BD00201E1510201D825D96E20
:1028F0000201E2510201D921DA6EDF500201DA6FE2
:102900000201DA510201E3250201E36F000E020128
:10291000E4210201E46F0201E14BE22B020E02010D
:10292000DD250201DA6F000E0201DE210201DB6FFC
:102930000201E1510201DA5D0201DB51800A02016C
:10294000DC6F0201E251800A0201DC59D8B0CBD71A
:102950000201E3510201DF6FE06BE3C2DAF2E4C28D
:10296000DBF20201DA1FDB1FDA4BDB2BFF0E020169
:10297000DA250201DF6F000E0201DB210201E06FA8
:102980000201DF5112000EC010F0116A126A0D34FC
:10299000103601E3118010501A6E1A50D8A409D0D5
:1029A000000E0C6E000E0D6E000E0E6E000E0F6E01
:1029B0001200170E106E0CC011F00DC012F00EC0F8
:1029C00013F01028146E04D0D89013321232113242
:1029D000142EFAD71150156E0D8EFF0E0C16FF0E29
:1029E0000D16000E0E160C50166E0D50176E0E5072
:1029F000186E196A8E0E1A5E1AAE16D01A50800A18
:102A00008F0FD8B009D0000E0C6E000E0D6E000EA8
:102A10000E6E000E0F6E1200D89019321832173257
:102A200016321A3EF9D715D0170E1A640FD0000EC1
:102A30000C6E000E0D6E000E0E6E000E0F6E12006C
:102A4000D89016361736183619361A061A50D8A4E2
:102A5000F7D71550D8B408D0191E181E171E166CBB
:102A6000000E17221822192216C00CF017C00DF004
:102A700018C00EF019C00FF0120043C047F0486AAA
:102A8000496A4234473601E3488047504A6E4A500B
:102A9000D8A407D0000E416E000E426E000E436EA9
:102AA000120046C047F0486A496A4534473601E398
:102AB000488047504F6E4F50D8A407D0000E416E4B
:102AC000000E426E000E436E12004F507B0F4A26DE
:102AD00043C04FF046504F1A800E4F16428E458E1F
:102AE000FF0E4416FF0E4516000E4616000E4B6EE6
:102AF000000E4C6E000E4D6E070E4E6E41A006D0BD
:102B000044504B2645504C2246504D22D8904332DB
:102B100042324132D8904436453646364E2EEED7B4
:102B2000090E4E6E41A006D044504B2645504C2213
:102B300046504D22D890433242324132D8904D32E5
:102B40004C324B324E2EEED74BC001F04CC002F04F
:102B50004DC003F04AC004F04FC005F019EC18F066
:102B600001C041F002C042F003C043F0120052C065
:102B700056F0576A586A5134563601E3578056501A
:102B80005D6E5D50D8A407D0000E506E000E516EE1
:102B9000000E526E120055C056F0576A586A5434EF
:102BA000563601E3578056505E6E5E50D8A407D06B
:102BB000000E506E000E516E000E526E1200000E8E
:102BC0005A6E000E5B6E000E5C6E5E50890F5D5E8D
:102BD00052C05EF055505E1A800E5E16518EFF0E8A
:102BE0005016FF0E5116000E5216548EFF0E53163D
:102BF000FF0E5416000E5516180E596ED8905A3600
:102C00005B365C365350505C5450515855505258B6
:102C1000D8A007D05350505E5450515A5550525A74
:102C20005A80D890503651365236592EE7D75AC06E
:102C300001F05BC002F05CC003F05DC004F05EC058
:102C400005F019EC18F001C050F002C051F003C0BB
:102C500052F012000201E86F020120EE01F0E5518E
:102C6000D926E651DA22DF500201D16FE5C2D9FF41
:102C7000E6C2DAFFDF509BEC1FF07E0E0201686FA8
:102C8000000E0201696F080E02016A6F010E020157
:102C90006B6F000E02016C6FA5C06DF2A6C06EF2E4
:102CA000E5C2D9FFE6C2DAFFDE28D8A40CD00201C3
:102CB00020EE01F0E551D926E651DA22DE28D8A42B
:102CC00002D0040E01D0000E02016F6F540E0201FB
:102CD000706F000E0201716FE8C272F2680E02019D
:102CE000D86F020E0201D96F46EC14F00201736F27
:102CF000000E0201E96F0B0E0201E96501D011D04F
:102D0000ACA2FED70201E951010D680EF324D96E81
:102D1000020EF420DA6EDF5051EC1FF00201E92BB5
:102D2000EAD70001A12B120055C001F056C002F0F5
:102D3000000E046E030E036E9BEC1EF053C057F0A2
:102D400054C058F0015057260250582257C0F6FF81
:102D500058C0F7FF0900F5CF59F00900F5CF5AF038
:102D60000A00F5CF5BF03ED059C044F05AC045F0A0
:102D70005BC046F050C041F051C042F052C043F039
:102D80003DEC15F041C030F042C031F043C032F0AC
:102D9000000E046E030E036E5506D8A0560655C0ED
:102DA00001F056C002F09BEC1EF053C057F054C027
:102DB00058F0015057260250582257C0F6FF58C00D
:102DC000F7FF0900F5CF33F00900F5CF34F00A0022
:102DD000F5CF35F071EC0EF030C059F031C05AF03B
:102DE00032C05BF055505610D8A4BED759C050F031
:102DF0005AC051F05BC052F012000001804B812B91
:102E000000017C4B7D2BE80E0001805D030E00016C
:102E10008159D8A03FD00FEC08F000019305D8A449
:102E20000ED075C0C1F076C0C2F077C0C3F090C0BC
:102E3000C4F0F6EC0CF00001C56F1BEC10F00001C3
:102E4000992B000E0001816F000E806F00019A2BFC
:102E500000019A29D8A403D0000E00019A6F000146
:102E60009B2B00019B29D8A403D0000E00019B6F6F
:102E700000019C2B00019C29D8A403D0000E000166
:102E80009C6F00019D2B00019D29D8A403D0000E4A
:102E900000019D6F040E00017C1900017D11D8A472
:102EA00007D000EC19F0000E00017D6F000E7C6F62
:102EB0003C0E00019919D8A412000001972B000EB6
:102EC0000001996F12002D0E0201D36F040E020152
:102ED000D46F530EBEEC13F0310E0201D36F0B0E04
:102EE0000201D46F530EBEEC13F02C0E0201D36F0F
:102EF0000A0E0201D46F530EBEEC13F02E0E020127
:102F0000D36F000E0201D46F530EBEEC13F0280EE7
:102F10000201D36F050E0201D46F530EBEEC13F005
:102F2000290E0201D36F140E0201D46F530EBEECB2
:102F300013F02F0E0201D36F000E0201D46F530E57
:102F4000BEEC13F02E0E0201D36F040E0201D46FFB
:102F5000530EBEEC13F02D0E0201D36F080E0201CA
:102F6000D46F530EBEEC13F0000E0201D36F010EAE
:102F70000201D46F530E47EC0FF0000169511200AB
:102F8000000E106E000E0F6E000E126E000E116E0F
:102F9000000E146E000E136E20EE02F00850D926BB
:102FA0000950DA22DF50016E20EE01F00850D926D8
:102FB0000950DA22DF50AEEC1EF001C00DF002C065
:102FC0000EF0000E126E030E116E10D01150082478
:102FD000D96E12500920DA6EDF500A6E0A5013249F
:102FE000136E000E1420146E114A122A020E0D24C4
:102FF0000A6E000E0E200B6E11500A5C0B50800AF8
:103000000C6E1250800A0C58D8B0E0D713500F6ED7
:10301000106A13C00AF014C00BF00A1E0B1E0A4AF5
:103020000B2AFF0E0A240F6E000E0B20106E0F509D
:1030300012000450D8B405D0015002100310D8A4D7
:103040000CD0000E016E000E026E000E036E120018
:10305000042AD890033202320132000E0114066EA7
:10306000000E0214076EFE0E0314086E06500710C1
:103070000810D8B40CD0ECD7042A010E0126000E9B
:103080000222000E0322D890033202320132000ED7
:103090000114066E000E0214076EFF0E0314086E74
:1030A000065007100810D8B406D0E6D70406D8900A
:1030B00001360236033602BE03D0020E0460F6D794
:1030C00004A0029ED8900432045003120550D8A4E4
:1030D000038E01C001F002C002F003C003F0120031
:1030E000015002100310D8A40FD004C0D9FF05C0AE
:1030F000DAFF000EDE6E000EDD6E000E016E000EB9
:10310000026E000E036E120003507F0B066E076AFC
:10311000D8900636073604C0D9FF05C0DAFF06C0CE
:10312000DEFF07C0DDFF02AE03D0066A062A01D02B
:10313000066A065004C0D9FF05C0DAFFDE12000E91
:10314000DD1204C0D9FF05C0DAFF820EDE26FF0EB5
:10315000DD2203800382038403860388038A039CA1
:10316000029E01C001F002C002F003C003F0120091
:103170000FAE16D00DC013F00EC014F00FC015F036
:10318000131E141E151E132A000E14221522000EE3
:1031900013240D6E000E14200E6E800E15200F6E7F
:1031A00012AE16D010C013F011C014F012C015F0FA
:1031B000131E141E151E132A000E14221522000EB3
:1031C0001324106E000E1420116E800E1520126E46
:1031D000000E0D1A000E0E1A800E0F1A000E101A95
:1031E000000E111A800E121A10500D5C11500E585C
:1031F00012500F58D8B002D0D8901200D8801200C8
:10320000000E5A6E2DEC1EF005C05BF006C05CF09F
:10321000D8900101F535D96E0101F635DA6EEB0E65
:10322000D926020EDA225BC0DEFF5CC0DDFFE80EAD
:103230000101F55D030E0101F659D8A020D013EC71
:103240000BF00101F76F0101F751D8A4F7C190F01D
:10325000000E0101F66F000EF56F00019305D8A472
:1032600011D0000E5D6E0C0E5D6401D00BD00A0E05
:10327000E5EC1EF05D506AEC11F05D2AF4D7010117
:10328000F54BF62B0101FB51020F0101FB6F120000
:103290003CC025F03DC026F03EC027F015EC1AF0EA
:1032A00025C02DF026C02EF027C02FF0C1EC1EF057
:1032B0002DC030F02EC031F02FC032F03CC033F0C2
:1032C0003DC034F03EC035F071EC0EF030C03FF040
:1032D00031C040F032C041F03CC030F03DC031F070
:1032E0003EC032F03FC033F040C034F041C035F052
:1032F00071EC0EF030C03CF031C03DF032C03EF019
:103300003CC025F03DC026F03EC027F015EC1AF079
:1033100025C03CF026C03DF027C03EF01200320E22
:10332000036E060E046E530ECBEC10F069C001F074
:1033300000016A5144EC1FF001C006F002C007F022
:10334000000E096E100E086E43EC1BF006C06FF005
:1033500007C070F06BC001F000016C5144EC1FF02D
:1033600001C006F002C007F0000E096E100E086ED4
:1033700043EC1BF006C071F007C072F06DC001F0A5
:1033800000016E5144EC1FF001C006F002C007F0CE
:10339000000E096E100E086E43EC1BF006C073F0B1
:1033A00007C074F01200000E066E04AE06D0036C67
:1033B000041ED8B0042A010E066E02AE06D0016CBF
:1033C000021ED8B0022A010E061A000E086E000E68
:1033D000076E03500410D8B41CD0010E056E04D043
:1033E000D89003360436052A04AEFAD7D8900736AB
:1033F00008360350015C04500258D8A005D0035091
:10340000015E0450025A0780D89004320332052E20
:10341000EDD70650D8B404D0076C081ED8B0082ADF
:1034200007C001F008C002F0120025C001F026C05C
:1034300002F027C003F02B0E046E000E056E70EC38
:1034400018F02CAE07D0000E256E000E266E000E72
:10345000276E12002C5004E1150E2B5CD8A007D06B
:1034600025C025F026C026F027C027F0120025C071
:103470000CF026C00DF027C00EF0C3EC14F00CC009
:103480001BF00DC01CF00EC01DF00FC01EF093EC21
:103490001AF01BC028F01CC029F01DC02AF028C05B
:1034A00025F029C026F02AC027F012000201D26FB1
:1034B000D2C2C9FFC6AE02D0FF0E1200C6500F0B1B
:1034C000080AD8B40FD0C6500F0B0B0AD8B40AD0D4
:1034D000C6889EA6FED7C7A4C7B002D0FE0E1200B3
:1034E000000E1200C6500F0B080AD8B405D0C65003
:1034F0000F0B0B0AD8A41200C7B0FED7C7A404D084
:103500000201D16BD12B02D00201D16BC5501F0B30
:103510000201D1110009D8A4F1D7C5AC02D0FE0E2A
:103520001200000E1200000E246E8E0E236E1EAED0
:1035300011D01E1E1D1E1C1E1B6C000E1C221D22E7
:103540001E22010E246E06D0D8901E321D321C326F
:103550001B32232A000E1B141F6E000E1C14206E3B
:10356000000E1D14216EFF0E1E14226E1F5020101F
:1035700021102210D8A4E8D71BC001F01CC002F013
:103580001DC003F023C004F024C005F019EC18F0AE
:1035900001C01BF002C01CF003C01DF012003CC0B3
:1035A0000CF03DC00DF03EC00EF0C3EC14F00CC0AA
:1035B0001BF00DC01CF00EC01DF051EC1DF03FC003
:1035C000D9FF40C0DAFF1BC0DEFF1CC0DEFF1DC0FC
:1035D000DEFF3FC0D9FF40C0DAFFDECF2DF0DECFE7
:1035E0002EF0DDCF2FF0C1EC1EF02DC030F02EC03C
:1035F00031F02FC032F03CC033F03DC034F03EC05B
:1036000035F071EC0EF030C03CF031C03DF032C00E
:103610003EF01200026E02C0C9FFC6AE02D0FF0E1D
:103620001200C6500F0B080AD8B40FD0C6500F0BAB
:103630000B0AD8B40AD0C6889EA6FED7C7A4C7B0C6
:1036400002D0FE0E1200000E1200C6500F0B080A28
:10365000D8B405D0C6500F0B0B0AD8A41200C7B0BF
:10366000FED7C7A403D0016A012A01D0016AC55060
:103670001F0B01100009D8A4F4D7C5AC02D0FE0E70
:103680001200000E120008C00AF0FF0E0A26010EFA
:103690000B6E000E0C6E0A2A03D0D8900B360C3637
:1036A0000A2EFBD706500B1607500C160B500C10A9
:1036B000D8B41BD0000E0E6E000E0D6E061C0D6EE3
:1036C000071C0E6E010E0D240D6E000E0E200E6EE8
:1036D0000DC00AF00EC00BF00A1E0B1E0A4A0B2A80
:1036E0000AC006F00BC007F0120006C006F007C0C3
:1036F00007F012000001A451010D000EF324D96E51
:10370000020EF420DA6E5DEC1EF0DF6E020E000198
:10371000A419D8B402C298F000019851026E036A4D
:10372000030E0226000E03220001A451046E056A56
:103730000250045C0550800A066E0350800A065849
:10374000D8A00AD0000E0001A46F0001864B872B81
:10375000010E0001946F12000001A42B120002EE72
:10376000EBF01BEEB8F0EE6AE550E150FCE1E25000
:10377000FAE102EE00F0D10EEE6AE806FDE101EE9C
:10378000E4F0140EEE6AE806FDE100EE60F0470E8C
:10379000EE6AE806FDE1780EF66E3F0EF76E000E5B
:1037A000F86E01EEF8F010EE04F00900F5CFEEFF30
:1037B000E550E150FAE15F905F92000EF86E000173
:1037C000E2EF1DF04B0E02010819D8A4120002010D
:1037D0000A510201D36FD46BFF0E0201D56FFF0EA9
:1037E0000201D66F0001A1510201D76FD86B02010F
:1037F000D5510201D7270201D6510201D823020177
:10380000D3510201D71910E10201D4510201D81994
:10381000D8A4120005C2D1F2020104519BEC1FF0A2
:10382000010E0001926F120012000201D56F000E0E
:10383000C26E000EC16E000EC06E0201D1517C0B33
:10384000C26ED2C2C1FFD5C2D3F20201D890D33723
:103850000201D890D337380E0201D317D5C2D4F263
:103860000201D43B0F0ED417070E0201D417020138
:10387000D551800B0201D4110201D311C06E020197
:10388000D1AF03D09E9C9D8CF28CC28012000201AD
:10389000D36F000EAC6E000EAB6E0201D3B1AC88DC
:1038A0000201D3A302D0AC8CAB8C0201D3B5AC8E99
:1038B0000201D3A702D0AB8801D0AB8A0201D3B9F1
:1038C000AC840201D3BBAB860201D3AD02D09D8A8A
:1038D00001D09D9A0201D3AF02D09D8801D09D985E
:1038E000D1C2AFFF0201D251B06EAC8AAB8E1200D2
:1038F0000201D66F11D0970E00019F6F850E000157
:103900007F6FED0E07D0D70E00019F6F000E0001F4
:103910007F6FE50E7E6F08D00201D651010AD8B440
:10392000EAD7030AD8B4EFD70201D6510201D8A4CE
:1039300003D0B9EC1FF0120000019F5188EC1EF07B
:103940007EC0D1F27FC0D2F27BEC1FF0F294120065
:10395000000E066E000E056E03500410D8B41CD085
:10396000010E076E04D0D89003360436072A04AE41
:10397000FAD7D890053606360350015C0450025839
:10398000D8A005D00350015E0450025A0580D8909B
:1039900004320332072EEDD705C001F006C002F055
:1039A0001200A9C05CF0AAC05DF0ABC05EF02EECC6
:1039B00013F05CC0ACF05DC0ADF05EC0AEF0ACC06A
:1039C00041F0ADC042F0AEC043F05C0E446EDE0E7E
:1039D000456E3E0E466E3DEC15F041C0A9F042C06A
:1039E000AAF043C0ABF012000F013A970F013A99C9
:1039F00094869488C69A000E0201D16F080E08ECD6
:103A00001FF0130EC86EC7A404D00201D36BD32BD2
:103A100002D00201D36BC5501F0B0201D311000964
:103A2000D8B41200F0D7000E0001966F000E00010E
:103A30009E6F000E0001A16F000E0001936F000E3B
:103A40000201D16F000E9BEC1FF0030E0201D16F3B
:103A5000000E94EC1FF0CB0E0201D16F000E8DEC26
:103A60001FF01200010E0001A06F82B604D0000109
:103A7000D66BD62B02D00001D66B0001D647D647B5
:103A8000D64782500001D619F70BD619826EFDEC8D
:103A900016F07EC001F07FC002F084EC1FF0F294BB
:103AA0001200000E1E6E1DAE08D01D1E1C1E1B6CCB
:103AB000000E1C221D22010E1E6E1BC001F01CC038
:103AC00002F01DC003F08E0E046E1EC005F019EC4E
:103AD00018F001C01BF002C01CF003C01DF0120062
:103AE000000E0201D66F000E0201D56F000ED46FDA
:103AF0005C0E0201D66F000E0201D56F330ED46F3B
:103B00004F0EAB16AC9ACF0E9D16D4C2D1F2D5C2D1
:103B1000D2F20201D65147EC1CF012000201D56F1F
:103B2000000E0201D76F000ED66F0201D5510201BF
:103B3000D46FD36B0201D1510201D3250201D66F9C
:103B40000201000E0201D4210201D76FD6C2D1F2C8
:103B5000D7C2D2F21200000E0C6E0AAE06D0096C6B
:103B60000A1ED8B00A2A010E0C6E09C001F00AC064
:103B700002F0036A8E0E046E0CC005F019EC18F00A
:103B800001C009F002C00AF003C00BF01200000EE1
:103B90000201D66F000E0201D76F000E0201D86F2E
:103BA000A10E0201D66F270E0201D76FFC0E020193
:103BB000D86FD7C2D1F2D8C2D2F20201D65115ECD9
:103BC0001CF012000B0E0201EA6F620EE82EFED707
:103BD000EA2FFCD700D0FBEC1DF013EC1DF008EC35
:103BE00012F000019405D8A4FAD7E2EC1BF0000E05
:103BF0000001946FF4D7B5EC1FF046EC1EF070ECAA
:103C00001DF0000E0201D56F020E78EC1CF05CEC8A
:103C10001FF0C7EC1DF0F4EC1CF063EC17F0020190
:103C2000E06FF28CF28E1200000E086E000E076E2E
:103C3000B70E67EC1FF0BEEC1FF0A9EC1FF00009F7
:103C4000D8A4FBD7A2EC1FF001C007F002C008F017
:103C500007C005F008C006F01200000E086E000E46
:103C6000076EAF0E67EC1FF0BEEC1FF0A9EC1FF063
:103C70000009D8A4FBD7A2EC1FF001C007F002C0D6
:103C800008F007C005F008C006F012000F013A9DC9
:103C90000F013A9F949C948E0F013A9594948294CC
:103CA0009296809693880F013989938A0F01398BF8
:103CB00093800F01399181901200F20E0001A2173A
:103CC000ABAC06D00001A291ABA002D00001A28152
:103CD000ABA402D00001A285ABA202D00001A28752
:103CE000AECF01F00150120002AE0DD001C003F0C2
:103CF00002C004F0031E041E034A042A03C001F09C
:103D000004C002F0120001C001F002C002F0120073
:103D10000201D16F0201D1517F0BD56E000ED76E1B
:103D2000000ED66EF2940201D1AF02D0F28A01D019
:103D3000F29AD58E120001500302F3CF05F0F4CFB2
:103D400006F001500402F350062602500302F3501D
:103D5000062605C001F006C002F01200056E000E36
:103D6000076E000E066E0550046E036A01500324B0
:103D7000066E000E0420076E06C001F007C002F0B8
:103D800012002D502E102F10D8B406D0000E2D1A70
:103D9000000E2E1A800E2F1A2DC02DF02EC02EF0E0
:103DA0002FC02FF0120009C001F00AC002F0036A10
:103DB0008E0E046E000E056E19EC18F001C009F0AD
:103DC00002C00AF003C00BF01200026E000E036E78
:103DD00009D0680E016EE40EE82EFED7012EFCD746
:103DE00000D0032A0350025CD8A01200F2D7FF0EC5
:103DF0000201D16FFF0E9BEC1FF0A50E0201E56FD3
:103E0000000E0201E66F0001A1512AEC16F012002B
:103E10000201D26F3F0EC716000EC66E000EC56EB1
:103E20000201D251C6120201D151C712C68A120034
:103E3000000E056E020E03180410D8B401C005F080
:103E400003040410D8A402D00250056E05501200DD
:103E5000C6500F0B080AD8B404D0C6500F0B0B0A7B
:103E6000D8B4C586C7A0FED7C9501200C6500F0BE4
:103E7000080AD8B404D0C6500F0B0B0AD8B4C586B4
:103E8000C7A0FED7C9501200056E015005C003F04F
:103E9000046A03C004F0036A0310016E0450026E4A
:103EA00012000201D16FACAC04D0AC900001A2B3FF
:103EB000AC80D1C2ADFF1200F184D08E9F8A9D8A62
:103EC0009E9AF288F18CF19EF28CF28E1200026EB4
:103ED00002C001F07C0E0116C250830B0110C26EAD
:103EE0001200016EACAC04D0AC900001A2B3AC8067
:103EF00001C0ADFF1200D1C2D3F2D2C2D4F2D4C2FB
:103F0000D7FFD3C2D6FF120001C003F002C004F0F5
:103F100004C0D7FF03C0D6FF12000201D26FD2C285
:103F20007AF0D1C27BF012000201D26FD2C278F0D7
:103F3000D1C279F012000201D26FD2C2A5F0D1C273
:103F4000A6F01200C450036EC350016E03C002F00D
:103F50001200C2A202D0010E1200000E1200026E68
:103F600002C078F001C079F01200D388D38AD38CD4
:103F70001200D59EF29A120000004002C282120086
:020000040030CA
:0E000000FF331F3CFFBF85FF0FC00FE00F4016
:00000001FF
