:0400000058EF00F0C5
:100008005F82FACF40F0FBCF41F0E9CF42F0EACF70
:1000180043F0E1CF44F0E2CF45F0D9CF46F0DACF54
:1000280047F0F3CF48F0F4CF49F0F6CF4AF0F7CFD6
:100038004BF0F8CF4CF0F5CF4DF0F2B4F1A402D06C
:100048003FEC12F09EBA9DAA07D0ABA202D0AB98A3
:10005800AB8872EC0FF09E9AF2A208D0300E036EB5
:10006800010E046E530E71EC08F0F2924DC0F5FFCC
:100078004CC0F8FF4BC0F7FF4AC0F6FF49C0F4FF79
:1000880048C0F3FF47C0DAFF46C0D9FF45C0E2FFCA
:1000980044C0E1FF43C0EAFF42C0E9FF41C0FBFFA3
:1000A80040C0FAFF5F921100B8EF0EF0000E000199
:1000B800B76FA00E0001B86F400E0001B96F330E84
:1000C8000001B46F530E0001B56F400E0001B66F0A
:1000D800F00E0001BA6F3F0E0001BB6F400E000129
:1000E800BC6FC00E0001BD6F8F0E0001BE6F450EC4
:1000F8000001BF6F900E0001C06F8E0E0001C16F2E
:10010800450E0001C26F000E0001C96F4D0E0001BF
:10011800CA6F440E0001CB6F330E106E530E116E72
:10012800400E126E72EC12F005C009F006C00AF01B
:1001380008EC12F009C00DF00AC00EF00BC00FF069
:100148001EEC0BF00DC028F00EC029F00FC02AF0ED
:10015800000E2B6E800E2C6E440E2D6E98EC0BF05C
:1001680028C0CFF029C0D0F02AC0D1F0CFC028F0E5
:10017800D0C029F0D1C02AF0B7C02BF0B8C02CF0FD
:10018800B9C02DF098EC0BF028C0CFF029C0D0F002
:100198002AC0D1F0BDC01FF0BEC020F0BFC021F002
:1001A800C9C01CF0CAC01DF0CBC01EF01DEC06F083
:1001B8001CC02BF01DC02CF01EC02DF0C9C028F0AB
:1001C800CAC029F0CBC02AF098EC0BF028C0C3F0C5
:1001D80029C0C4F02AC0C5F0BAC02BF0BBC02CF0AF
:1001E800BCC02DF0CFC028F0D0C029F0D1C02AF073
:1001F80098EC0BF028C01CF029C01DF02AC01EF096
:10020800C3C01FF0C4C020F0C5C021F01DEC06F02B
:100218001CC0CCF01DC0CDF01EC0CEF0CCC010F07C
:10022800CDC011F0CEC012F0C0C00DF0C1C00EF0AC
:10023800C2C00FF01EEC0BF00DC028F00EC029F064
:100248000FC02AF0000E1F6E800E206E3F0E216E2A
:10025800CCC001F0CDC002F0CEC003F0F5EC12F036
:1002680001C01CF002C01DF003C01EF01DEC06F01A
:100278001CC02BF01DC02CF01EC02DF098EC0BF00C
:1002880028C0D8F029C0D9F02AC0DAF0D8C001F0C7
:10029800D9C002F0DAC003F0DA0E046EE30E056E80
:1002A800440E066E2EEC0EF0D8A055D0720E2B6EB2
:1002B800CF0E2C6E450E2D6ED8C028F0D9C029F06F
:1002C800DAC02AF098EC0BF028C039F029C03AF0CF
:1002D8002AC03BF08BEC11F039C0D2F03AC0D3F011
:1002E8003BC0D4F02B0E396E750E3A6E3F0E3B6E46
:1002F8008BEC11F039C02BF03AC02CF03BC02DF03C
:10030800000E106E800E116EBF0E126ED2C00DF070
:10031800D3C00EF0D4C00FF01EEC0BF00DC028F0C7
:100328000EC029F00FC02AF098EC0BF028C0D5F0C9
:1003380029C0D6F02AC0D7F0D5C00DF0D6C00EF02F
:10034800D7C00FF0000E106E800E116EBF0E126E29
:100358001EEC0BF093D1D8C001F0D9C002F0DAC07E
:1003680003F0A30E046EB80E056E440E066E2EEC56
:100378000EF0D8A055D01C0E2B6EC80E2C6E450E54
:100388002D6ED8C028F0D9C029F0DAC02AF098EC30
:100398000BF028C039F029C03AF02AC03BF08BECAA
:1003A80011F039C0D2F03AC0D3F03BC0D4F0760E89
:1003B800396E750E3A6E3F0E3B6E8BEC11F039C0FC
:1003C8002BF03AC02CF03BC02DF0000E106E800EC2
:1003D800116EBF0E126ED2C00DF0D3C00EF0D4C095
:1003E8000FF01EEC0BF00DC028F00EC029F00FC066
:1003F8002AF098EC0BF028C0D5F029C0D6F02AC016
:10040800D7F0D5C00DF0D6C00EF0D7C00FF0000E53
:10041800106E800E116EBF0E126E1EEC0BF02ED1F8
:10042800D8C001F0D9C002F0DAC003F09A0E046E09
:10043800960E056E440E066E2EEC0EF0D8A055D022
:10044800300E2B6EBF0E2C6E450E2D6ED8C028F0C8
:10045800D9C029F0DAC02AF098EC0BF028C039F09E
:1004680029C03AF02AC03BF08BEC11F039C0D2F029
:100478003AC0D3F03BC0D4F0C80E396E750E3A6E50
:100488003F0E3B6E8BEC11F039C02BF03AC02CF0CC
:100498003BC02DF0000E106E800E116EBF0E126E56
:1004A800D2C00DF0D3C00EF0D4C00FF01EEC0BF08C
:1004B8000DC028F00EC029F00FC02AF098EC0BF000
:1004C80028C0D5F029C0D6F02AC0D7F0D5C00DF085
:1004D800D6C00EF0D7C00FF0000E106E800E116E51
:1004E800BF0E126E1EEC0BF0C9D0D8C001F0D9C0F7
:1004F80002F0DAC003F0060E046E770E056E440EA5
:10050800066E2EEC0EF0D8A055D0190E2B6EB70E35
:100518002C6E450E2D6ED8C028F0D9C029F0DAC04F
:100528002AF098EC0BF028C039F029C03AF02AC01C
:100538003BF08BEC11F039C0D2F03AC0D3F03BC09D
:10054800D4F00C0E396E760E3A6E3F0E3B6E8BEC85
:1005580011F039C02BF03AC02CF03BC02DF0000E42
:10056800106E800E116EBF0E126ED2C00DF0D3C089
:100578000EF0D4C00FF01EEC0BF00DC028F00EC02A
:1005880029F00FC02AF098EC0BF028C0D5F029C04C
:10059800D6F02AC0D7F0D5C00DF0D6C00EF0D7C01F
:1005A8000FF0000E106E800E116EBF0E126E1EEC54
:1005B8000BF064D0D8C001F0D9C002F0DAC003F063
:1005C800ED0E046E4A0E056E440E066E2EEC0EF00D
:1005D800D8A05AD0400E2B6EAE0E2C6E450E2D6E46
:1005E800D8C028F0D9C029F0DAC02AF098EC0BF06E
:1005F80028C039F029C03AF02AC03BF08BEC11F042
:1006080039C0D2F03AC0D3F03BC0D4F0510E396EA5
:10061800760E3A6E3F0E3B6E8BEC11F039C02BF024
:100628003AC02CF03BC02DF0000E106E800E116EFB
:10063800BF0E126ED2C00DF0D3C00EF0D4C00FF0B2
:100648001EEC0BF00DC028F00EC029F00FC02AF0E8
:1006580098EC0BF028C0D5F029C0D6F02AC0D7F006
:10066800D5C00DF0D6C00EF0D7C00FF0000E106E3A
:10067800800E116EBF0E126E1EEC0BF00DC0C6F090
:100688000EC0C7F00FC0C8F0C6C089F0C7C08AF056
:10069800C8C08BF01200000E0101D56F000ED46F98
:1006A800000E0101D26F000E0101D36F21EEE4F0BC
:1006B80011EEC8F0090EDBCFE3FFE806FCE2000EFE
:1006C8000101DB6F000EDA6F000E0101DC6F000E16
:1006D8000101E16F000E0101E36F000EE26F000EF1
:1006E8000101D76F000ED66F000E0101D96F000E01
:1006F800E8CFA5FA000E0101E36F010EE26FE80EE4
:100708000101E25D030E0101E359D8B048D0A50EFE
:100718000101E225D96E0A0E0101E321DA6EE2C178
:100728002BF0E3C12CF0D8902B362C36020E2B265A
:10073800000E2C22D50E2B24E16E020E2C20E26E28
:10074800E6CF2DF0E5CF2EF0FE0E2F6EFF0E306EA9
:10075800E2C131F0E3C132F0D890313632362F5051
:10076800312630503222D50E3124E16E020E32206D
:10077800E26EE6CF33F0E5CF34F0331E341E334A51
:10078800342A2D503324016E2E503420026EBBECD7
:1007980012F00150DF6E0101E24BE32BB0D7000EDF
:1007A8000101E36F000EE26F0101E35113E11F0E37
:1007B8000101E25DD8B00ED0A50E0101E225D96E87
:1007C8000A0E0101E321DA6E000EDF6E0101E24B31
:1007D800E32BEAD7000E0101DE6F000EDD6F010189
:1007E800DEBF08D0E80E0101DD5D030E0101DE5910
:1007F800D8B023D0A50E0101DD25D96E0A0E01015E
:10080800DE21DA6EDF502B6E2B500101D65D000E13
:10081800D759D8B00ED0A50E0101DD25D96E0A0E24
:100828000101DE21DA6EDF502B6E2B500101D66FED
:10083800D76B0101DD4BDE2BD2D7330E106E330E92
:10084800116E3F0E126ED6C109F0D7C10AF007EC3F
:1008580013F009C00DF00AC00EF00BC00FF01EEC2B
:100868000BF00DC01CF00EC01DF00FC01EF0A4EC64
:100878000AF01CC0EEF11DC0EFF1000E0101E06F9F
:10088800000EDF6F0101E0BF08D0E90E0101DF5D56
:10089800030E0101E059D8B09ED0A50E0101DF2555
:1008A800D96E0A0E0101E021DA6EDF502B6E2B5053
:1008B8000101EE5D000EEF59D8B079D00101D95190
:1008C8000101D8A474D0A50E0101DF25D96E0A0E46
:1008D8000101E021DA6EDF502B6E2C6A0101E15133
:1008E800020D140EF326000EF422000EF324D96E26
:1008F800010EF420DA6E2BC0DEFF2CC0DDFF0101F3
:10090800E151020D280EF326000EF422000EF32406
:10091800D96E010EF420DA6EDFC1DEFFE0C1DDFF23
:100928000101E1510101D8B43DD00101E151020DAD
:10093800280EF326000EF422000EF324D96E010EC1
:10094800F420DA6EDECF2BF0DDCF2CF00101E1517F
:100958002D6E2E6AD8902D362E36260E2D26000E98
:100968002E22000E2D24D96E010E2E20DA6EDECF37
:100978002FF0DDCF30F02F1E301E2F4A302A2B509B
:100988002F262C5030220101DC51020DC80EF32411
:10099800D96E010EF420DA6E2FC0DEFF30C0DDFF05
:1009A8000101DC2B0101E12B010E0101D96F0101CD
:1009B800D905D8A40CD01E0E0101D36506D0000EAF
:1009C8000101D96F000E0101D36F0101D32B010181
:1009D800DF4BE02B57D7000E0101D86F19D001016A
:1009E800D851020DC80EF324D96E010EF420DA6E28
:1009F800DECF2BF0DDCF2CF00101DA512B240101E1
:100A0800DA6F0101DB512C200101DB6F0101D82BCA
:100A18000101DC510101D85DD8A0E1D7DAC101F0AC
:100A2800DBC102F0DCC103F0046A76EC0EF001C011
:100A3800DAF102C0DBF13A0E026E980E016EDAC1ED
:100A480003F0DBC104F03BEC11F001C0D4F102C0AB
:100A5800D5F1D4C1D2F10101D4511200DBD000018B
:100A6800AE51D8A411D0AF0E0201C56FFF0E02011E
:100A7800C66FC7EC07F0000E0001AA6F010E000157
:100A8800AE6F000E0001A36F040E0001AA651200EC
:100A9800220E0201C56FFF0E0201C66FC7EC07F0F8
:100AA800010E0001A66F000E0001AE6F12000001DA
:100AB800AE51D8A417D06C0E0201C56FFF0E02010B
:100AC800C66FB0C0C7F20201C86BC7EC07F019ECDB
:100AD80013F0010E0001AE6F000E0001A36F000EAF
:100AE8000001AD6F0001A205D8A411D0560E020175
:100AF800C56FFE0E0201C66FC7EC07F0020E0001BB
:100B0800A66F000E0001A26F000E0001AE6F090E65
:100B18000001AD651200140E0201C56FFE0E020140
:100B2800C66FC7EC07F0000E0001A66F000E0001AB
:100B3800AE6F12000001AE51D8A41CD08E0E020177
:100B4800C56FFF0E0201C66FB0C0C7F20201C86BC5
:100B5800C7EC07F0000E0001AB6F010E0001AE6F8D
:100B6800B20E0201CD6F000E0201CE6F0001B0512E
:100B78000BEC0CF00001A205D8A411D08D0E0201D7
:100B8800C56FFE0E0201C66FC7EC07F0000E00012C
:100B9800A26F030E0001A66F000E0001AE6F090ED2
:100BA8000001AB651200C20E0201C56FFE0E020104
:100BB800C66FC7EC07F0000E0001A66F000E00011B
:100BC800AE6F12000001AE51D8A411D0C70E0201B9
:100BD800C56FFF0E0201C66FC7EC07F0010E0001DA
:100BE800A36F000E0001AC6F010E0001AE6F090E7D
:100BF8000001AC651200F70E0201C56FFE0E02017E
:100C0800C66FC7EC07F0020E0001A66F000E0001C8
:100C1800AE6F12000001A651000AD8B420D7010A0D
:100C2800D8B445D7030AD8B485D7010AD8A4120086
:100C3800C9D71EC022F0236A246A1D34223601E374
:100C480023802250276E21C022F0236A246A203490
:100C5800223601E323802250266E2750D8B40BD0C9
:100C68002650275CD8B00ED0275000082624226EC4
:100C7800180E226407D01FC01CF020C01DF021C030
:100C88001EF012002650D8B40BD02750265CD8B0DE
:100C98000ED0265000082724226E180E226407D092
:100CA8001CC01CF01DC01DF01EC01EF01200060E58
:100CB800256E1EBE258E21BE258C1D8EFF0E1C1690
:100CC800FF0E1D16000E1E16208EFF0E1F16FF0E9D
:100CD8002016000E21162650275CD8B01BD0D890BD
:100CE8001F3620362136260627502618D8B40DD0B0
:100CF800250625C022F0070E2216D8B406D0EFD755
:100D0800D8901E321D321C32272A26502718D8B4F4
:100D18001FD0F6D72750265CD8B01AD0D8901C36EA
:100D28001D361E36270627502618D8B40DD025069E
:100D380025C022F0070E2216D8B406D0EFD7D890D7
:100D4800213220321F32262A26502718D8A4F7D756
:100D580025AE0CD0FF0E1C1AFF0E1D1AFF0E1E1A10
:100D6800010E1C26000E1D22000E1E2225AC0CD0E2
:100D7800FF0E1F1AFF0E201AFF0E211A010E1F2642
:100D8800000E2022000E2122000E256E1C501F2668
:100D98001D5020221E50212221AE0ED0FF0E1F1AF8
:100DA800FF0E201AFF0E211A010E1F26000E202208
:100DB800000E2122010E256E1FC001F020C002F096
:100DC80021C003F027C004F025C005F03BEC0DF06E
:100DD80001C01CF002C01DF003C01EF01200020189
:100DE800C56F000E0201C46FC580C5B0FED70201F1
:100DF800C551C5250201C56FC9CFC4F20201C5514D
:100E0800FE0BF9EC0EF00201C76F0201C729D8A446
:100E180003D0C9CFC4F2C69E0201C7510201D8A4AB
:100E2800EDD7000E0201C76FC7A404D00201BD6B45
:100E3800BD2B02D00201BD6BC5501F0B0201BD11B5
:100E48000009D8A4F1D70201BB51F9EC0EF0020158
:100E5800C76F0201C729D8A403D0C9CFC4F2C69E60
:100E68000201C7510201D8A4EED7000E0201C76FD4
:100E7800C7A404D00201BD6BBD2B02D00201BD6B1B
:100E8800C5501F0B0201BD110009D8A4F1D7C582B6
:100E9800C5B2FED7C9CFC4F20201C5510109F9ECA8
:100EA8000EF00201C76F0201C729D8A403D0C9CF29
:100EB800C4F2C69E0201C7510201D8A4EDD7000EA4
:100EC8000201C76FC7A404D00201BD6BBD2B02D0BD
:100ED8000201BD6BC5501F0B0201BD110009D8A44A
:100EE800F1D7000E0201C66F000E0201C66F41D095
:100EF8000201C651010D720EF324D96E000EF420C2
:100F0800DA6E49EC13F0DF6EFF0E0201BD6FFF0EC3
:100F18000201BE6F0201BC510201BF6FC06B02012A
:100F2800BD510201BF270201BE510201C0230201C7
:100F3800C6510201C16FC26B0201BF510201C15DFE
:100F48000201C251800A0201C36F0201C051800A26
:100F58000201C359D8B005D0C59AC588C5A807D01D
:100F6800FDD7C58AC588C5B8FED7C5B8FED7020162
:100F7800C62B0201BC510201C65DD8A0B9D7C584F1
:100F8800C5A41200FDD7C70E0201CE6F020E0201E2
:100F9800CF6F94D0250E0201D419D8B405D0020120
:100FA800D4519EEC13F08AD0000E0201D06FC5C256
:100FB800F6FFC6C2F7FF0201C54BC62B0800F5CFE6
:100FC800D4F20201D451000AD8B41200640AD8B489
:100FD80003D00D0AD8A472D0CEC2D9FFCFC2DAFF8F
:100FE800DECFD2F2DDCFD3F2020E0201CE27000E01
:100FF800CF230201D3AF08D0030E0201D0130201A0
:10100800D26DD31FD8B0D32B010E0201D46F050EB9
:101018000201D419D8B416D00201D451020DEF0E32
:10102800F324F66EFD0EF420F76E0900F550020168
:10103800D25D0900F5500201D359D8A003D00201AE
:10104800D42BE5D7D0C2CDF2030E0201CD17D8B408
:1010580003D02D0E9EEC13F0D4C2D1F229D0020198
:10106800D151020DEF0EF324F66EFD0EF420F76E4B
:101078000900F5CFBBF20A00F5CFBCF2D2C2B9F233
:10108800D3C2BAF236EC0FF0B9C2C0F2BAC2C1F29A
:10109800000E0201C36F0A0EC26FAEEC10F002011F
:1010A800C051300F0201D46F0201D4519EEC13F0ED
:1010B8000201D1070201D129D8A4D1D7C5C2F6FFB0
:1010C800C6C2F7FF0201C54BC62B0800F5CFD4F204
:1010D8000201D451D8B412005DD70C6E000E0D6E0B
:1010E800C580C5B0FED70C500C240C6EC9CF0DF0CE
:1010F8000C50FE0BACEC0FF00F6E0F28D8A403D0E9
:10110800C9CF0DF0C69E0F50D8A4F2D7000E0F6EAF
:10111800C7A403D0056A052A01D0056AC5501F0B6C
:1011280005100009D8A4F4D70350ACEC0FF00F6EEB
:101138000F28D8A403D0C9CF0DF0C69E0F50D8A44D
:10114800F3D7000E0F6EC7A403D0056A052A01D095
:10115800056AC5501F0B05100009D8A4F4D7C5822D
:10116800C5B2FED7C9CF0DF00C500109ACEC0FF099
:101178000F6E0F28D8A403D0C9CF0DF0C69E0F500C
:10118800D8A4F2D7000E0F6EC7A403D0056A052AAB
:1011980001D0056AC5501F0B05100009D8A4F4D763
:1011A800000E0E6E000E0E6E2FD00E50010D720E38
:1011B800F324D96E000EF420DA6E57EC13F0DF6ECC
:1011C800FF0E056EFF0E066E0450076E086A055086
:1011D8000726065008220E50096E0A6A0750095C55
:1011E8000A50800A0B6E0850800A0B58D8B005D0F8
:1011F800C59AC588C5A807D0FDD7C58AC588C5B80A
:10120800FED7C5B8FED70E2A04500E5CD8A0CDD79D
:10121800C584C5A41200FDD736AE0CD0000E00015F
:101228009F6F210E9E6F000E346E000E356E000EFD
:10123800366E1200345035103610D8A40CD0000E7B
:1012480000019F6F220E9E6F000E346E000E356EE9
:10125800000E366E1200000E106E000E116E400E5B
:10126800126E370E046E000E056E34C001F035C0E4
:1012780002F036C003F0E6EC0DF001C00DF002C03C
:101288000EF003C00FF01EEC0BF00DC01CF00EC0EA
:101298001DF00FC01EF0000E1F6E800E206EBF0ED8
:1012A800216E1DEC06F01CC034F01DC035F01EC0C8
:1012B80036F03706D8A0380634C028F035C029F0F3
:1012C80036C02AF0F90E2B6EFD0E2C6E000E2E6E17
:1012D800080E2D6E75EC0CF028C034F029C035F0DE
:1012E8002AC036F0720E106E310E116E3F0E126E5D
:1012F80037C009F038C00AF008EC12F009C00DF048
:101308000AC00EF00BC00FF01EEC0BF00DC01CF065
:101318000EC01DF00FC01EF034C01FF035C020F005
:1013280036C021F01DEC06F01CC034F01DC035F0AD
:101338001EC036F012000201BF6F000E0201BE6F20
:10134800C580C5B0FED70201BF51BF250201BF6FDE
:10135800C9CFBEF20201BF51FE0BF9EC0EF002013B
:10136800C06F0201C029D8A403D0C9CFBEF2C69E5F
:101378000201C0510201D8A4EDD7000E0201C06FCE
:10138800C7A404D00201BD6BBD2B02D00201BD6B06
:10139800C5501F0B0201BD110009D8A4F1D70201E5
:1013A800BB51F9EC0EF00201C06F0201C029D8A4AC
:1013B80003D0C9CFBEF2C69E0201C0510201D8A413
:1013C800EED7000E0201C06FC7A404D00201BD6BA6
:1013D800BD2B02D00201BD6BC5501F0B0201BD1110
:1013E8000009D8A4F1D7C9CFBEF20201BC51F9EC6B
:1013F8000EF00201C06F0201C029D8A403D0C9CFE2
:10140800BEF2C69E0201C0510201D8A4EED7000E5A
:101418000201C06FC7A404D00201BD6BBD2B02D06E
:101428000201BD6BC5501F0B0201BD110009D8A4F4
:10143800F1D7C58AC588C5B8FED7C5B8FED7C58453
:10144800C5A41200FDD7000E0201C86F000EC76FB9
:10145800000E0201CA6F000EC96F000E0201CC6FA8
:10146800000ECB6F020120EE02F0C051D926C15107
:10147800DA22DF500201B96F020120EE01F0C051FB
:10148800D926C151DA22DF50EBEC11F0B9C2C5F20E
:10149800BAC2C6F2000E0201CA6F030EC96F1BD092
:1014A8000201C9510201C025D96E0201CA510201C7
:1014B800C121DA6EDF500201C26F0201C25102017E
:1014C800CB250201CB6F000E0201CC210201CC6FAB
:1014D8000201C94BCA2B020E0201C5250201C26FC7
:1014E800000E0201C6210201C36F0201C9510201A7
:1014F800C25D0201C351800A0201C46F0201CA51D0
:10150800800A0201C459D8B0CBD70201CB510201DD
:10151800C76FC86BCBC2C2F2CCC2C3F20201C21FF2
:10152800C31FC24BC32BFF0E0201C2250201C76FA6
:10153800000E0201C3210201C86F0201C751120047
:101548001EC020F0216A226A1D34203601E3218062
:1015580020502A6E2A50D8A409D0000E1C6E000E06
:101568001D6E000E1E6E000E1F6E1200170E206EEE
:101578001CC021F01DC022F01EC023F02028246EBC
:1015880004D0D890233222322132242EFAD7215087
:10159800256E1D8EFF0E1C16FF0E1D16000E1E1644
:1015A8001C50266E1D50276E1E50286E296A8E0EFE
:1015B8002A5E2AAE16D02A50800A8F0FD8B009D0DA
:1015C800000E1C6E000E1D6E000E1E6E000E1F6EAD
:1015D8001200D89029322832273226322A3EF9D7EB
:1015E80015D0170E2A640FD0000E1C6E000E1D6E4B
:1015F800000E1E6E000E1F6E1200D890263627367B
:10160800283629362A062A50D8A4F7D72550D8B420
:1016180008D0291E281E271E266C000E27222822E5
:10162800292226C01CF027C01DF028C01EF029C0A2
:101638001FF012000FC013F0146A156A0E34133627
:1016480001E314801350166E1650D8A407D0000E6C
:101658000D6E000E0E6E000E0F6E120012C013F00B
:10166800146A156A1134133601E3148013501B6E83
:101678001B50D8A407D0000E0D6E000E0E6E000E83
:101688000F6E12001B507B0F16260FC01BF0125056
:101698001B1A800E1B160E8E118EFF0E1016FF0ED3
:1016A8001116000E1216000E176E000E186E000EA0
:1016B800196E070E1A6E0DA006D01050172611507D
:1016C800182212501922D8900F320E320D32D890AB
:1016D8001036113612361A2EEED7090E1A6E0DA0D4
:1016E80006D0105017261150182212501922D890DF
:1016F8000F320E320D32D8901932183217321A2E94
:10170800EED717C001F018C002F019C003F016C0D8
:1017180004F01BC005F03BEC0DF001C00DF002C059
:101728000EF003C00FF012002AC02EF02F6A306AA4
:1017380029342E3601E32F802E50356E3550D8A42B
:1017480007D0000E286E000E296E000E2A6E1200B9
:101758002DC02EF02F6A306A2C342E3601E32F80EC
:101768002E50366E3650D8A407D0000E286E000EC4
:10177800296E000E2A6E1200000E326E000E336EB5
:10178800000E346E3650890F355E2AC036F02D5063
:10179800361A800E3616298EFF0E2816FF0E2916C9
:1017A800000E2A162C8EFF0E2B16FF0E2C16000E7E
:1017B8002D16180E316ED8903236333634362B50FB
:1017C800285C2C5029582D502A58D8A007D02B50C7
:1017D800285E2C50295A2D502A5A3280D890283603
:1017E80029362A36312EE7D732C001F033C002F04D
:1017F80034C003F035C004F036C005F03BEC0DF002
:1018080001C028F002C029F003C02AF0120002012A
:10181800D06F020120EE01F0CD51D926CE51DA2247
:10182800DF500201B96FCDC2D9FFCEC2DAFFDF5057
:10183800B3EC13F07E0E0201506F000E0201516FDF
:10184800080E0201526F010E0201536F000E0201D1
:10185800546FB2C055F2B3C056F2CDC2D9FFCEC252
:10186800DAFFDE28D8A40CD0020120EE01F0CD5119
:10187800D926CE51DA22DE28D8A402D0040E01D00F
:10188800000E0201576F540E0201586F000E02013C
:10189800596FD0C25AF2500E0201C06F020E0201F7
:1018A800C16F27EC0AF002015B6F000E0201D16FD5
:1018B8000C0E0201D16501D011D0ACA2FED70201F5
:1018C800D151010D500EF324D96E020EF420DA6EB8
:1018D800DF5065EC13F00201D12BEAD70001B02BE1
:1018E80012002DC001F02EC002F0000E046E030E8F
:1018F800036EE2EC12F02BC02FF02CC030F0015038
:101908002F26025030222FC0F6FF30C0F7FF090003
:10191800F5CF31F00900F5CF32F00A00F5CF33F0FA
:101928003ED031C010F032C011F033C012F028C0E0
:101938000DF029C00EF02AC00FF01EEC0BF00DC000
:101948001CF00EC01DF00FC01EF0000E046E030E3A
:10195800036E2D06D8A02E062DC001F02EC002F071
:10196800E2EC12F02BC02FF02CC030F001502F26E3
:10197800025030222FC0F6FF30C0F7FF0900F5CF24
:101988001FF00900F5CF20F00A00F5CF21F01DEC7B
:1019980006F01CC031F01DC032F01EC033F02D50CF
:1019A8002E10D8A4BED731C028F032C029F033C0D9
:1019B8002AF012002D0E0201BB6F040E0201BC6F4B
:1019C800530E9FEC09F0310E0201BB6F0B0E0201A2
:1019D800BC6F530E9FEC09F02C0E0201BB6F0A0E70
:1019E8000201BC6F530E9FEC09F02E0E0201BB6F73
:1019F800000E0201BC6F530E9FEC09F0280E020185
:101A0800BB6F050E0201BC6F530E9FEC09F0290E47
:101A18000201BB6F140E0201BC6F530E9FEC09F05C
:101A28002F0E0201BB6F000E0201BC6F530E9FEC1C
:101A380009F02E0E0201BB6F040E0201BC6F530E9B
:101A48009FEC09F02D0E0201BB6F080E0201BC6F5E
:101A5800530E9FEC09F0000E0201BB6F010E02014C
:101A6800BC6F530EF3EC06F00001725112000450E3
:101A7800D8B405D0015002100310D8A40CD0000E21
:101A8800016E000E026E000E036E1200042AD8903A
:101A9800033202320132000E0114066E000E0214E7
:101AA800076EFE0E0314086E065007100810D8B40F
:101AB8000CD0ECD7042A010E0126000E0222000EDB
:101AC8000322D890033202320132000E0114066E4E
:101AD800000E0214076EFF0E0314086E065007105E
:101AE8000810D8B406D0E6D70406D89001360236D6
:101AF800033602BE03D0020E0460F6D704A0029E8D
:101B0800D8900432045003120550D8A4038E01C0A3
:101B180001F002C002F003C003F012000001944B70
:101B2800952B0001904B912BE80E0001945D030E5C
:101B380000019559D8A02DD05AEC00F00001A92B2E
:101B4800000E0001956F000E946F0001AA2B000192
:101B5800AA29D8A403D0000E0001AA6F0001AB2B5C
:101B68000001AB29D8A403D0000E0001AB6F00011F
:101B7800AC2B0001AC29D8A403D0000E0001AC6F37
:101B88000001AD2B0001AD29D8A403D0000E00013F
:101B9800AD6F040E0001901900019111D8A407D06F
:101BA80018EC10F0000E0001916F000E906F3C0EC3
:101BB8000001A919D8A412000001A72B000E0001EA
:101BC800A96F1200015002100310D8A40FD004C04E
:101BD800D9FF05C0DAFF000EDE6E000EDD6E000EC6
:101BE800016E000E026E000E036E120003507F0B92
:101BF800066E076AD8900636073604C0D9FF05C0B6
:101C0800DAFF06C0DEFF07C0DDFF02AE03D0066ABA
:101C1800062A01D0066A065004C0D9FF05C0DAFFBB
:101C2800DE12000EDD1204C0D9FF05C0DAFF820EF5
:101C3800DE26FF0EDD2203800382038403860388E9
:101C4800038A039C029E01C001F002C002F003C097
:101C580003F0120003AE16D001C007F002C008F06E
:101C680003C009F0071E081E091E072A000E0822D5
:101C78000922000E0724016E000E0820026E800E55
:101C88000920036E06AE16D004C007F005C008F0A0
:101C980006C009F0071E081E091E072A000E0822A2
:101CA8000922000E0724046E000E0820056E800E1F
:101CB8000920066E000E011A000E021A800E031A81
:101CC800000E041A000E051A800E061A0450015C54
:101CD8000550025806500358D8B002D0D8901200C8
:101CE800D8801200000E066E04AE06D0036C041EE7
:101CF800D8B0042A010E066E02AE06D0016C021E90
:101D0800D8B0022A010E061A000E086E000E076EE1
:101D180003500410D8B41CD0010E056E04D0D8901E
:101D280003360436052A04AEFAD7D89007360836A3
:101D38000350015C04500258D8A005D00350015E3E
:101D48000450025A0780D89004320332052EEDD78A
:101D58000650D8B404D0076C081ED8B0082A07C0AB
:101D680001F008C002F0120002EED5F01BEEB8F048
:101D7800EE6AE550E150FCE1E250FAE102EE00F0D3
:101D8800B90EEE6AE806FDE101EEE4F00F0EEE6A28
:101D9800E806FDE100EE60F0540EEE6AE806FDE1AB
:101DA80000EE4EF0100EEE6AE806FDE1AE0EF66E9D
:101DB800270EF76E000EF86E0900F5CFDBF009006C
:101DC800F5CFDCF00900F5CFDDF0B10EF66E270E89
:101DD800F76E000EF86E0900F5CF5EF05F905F9227
:101DE800000EF86E00010FEF11F00201BA6FBAC2CF
:101DF800C9FFC6AE02D0FF0E1200C6500F0B080A6C
:101E0800D8B40FD0C6500F0B0B0AD8B40AD0C68866
:101E18009EA6FED7C7A4C7B002D0FE0E1200000EC1
:101E28001200C6500F0B080AD8B405D0C6500F0BC5
:101E38000B0AD8A41200C7B0FED7C7A404D0020169
:101E4800B96BB92B02D00201B96BC5501F0B020147
:101E5800B9110009D8A4F1D7C5AC02D0FE0E120002
:101E6800000E1200000E0201BF6F000EBE6F0201CD
:101E7800BB510201BC11D8B42CD0010E0201BD6FB8
:101E880006D00201D890BB37BC370201BD2B020136
:101E9800BCAFF7D70201D890BE37BF370201BB519C
:101EA8000201B95D0201BC510201BA59D8A00AD099
:101EB8000201BB510201B95F0201BC510201BA5BC8
:101EC8000201BE810201D890BC33BB330201BD2F91
:101ED800E1D7BEC2B9F2BFC2BAF212000001B151D5
:101EE800010D000EF324D96E020EF420DA6E3AECDE
:101EF80013F0DF6E020E0001B119D8A406D002015A
:101F08000251BAEC13F002C2A8F00001A851036E06
:101F1800046A030E0326000E04220001B151056E67
:101F2800066A0350055C0650800A076E0450800A52
:101F38000758D8A00AD0000E0001B16F0001984BD5
:101F4800992B010E0001A46F12000001B12B1200A1
:101F5800026E02C0C9FFC6AE02D0FF0E1200C65004
:101F68000F0B080AD8B40FD0C6500F0B0B0AD8B401
:101F78000AD0C6889EA6FED7C7A4C7B002D0FE0E58
:101F88001200000E1200C6500F0B080AD8B405D074
:101F9800C6500F0B0B0AD8A41200C7B0FED7C7A4AF
:101FA80003D0016A012A01D0016AC5501F0B011034
:101FB8000009D8A4F4D7C5AC02D0FE0E1200000E5A
:101FC80012004B0E02010819D8A4120002010A518E
:101FD8000201BB6FBC6BFF0E0201BD6FFF0E020159
:101FE800BE6F0001B0510201BF6FC06B0201BD514D
:101FF8000201BF270201BE510201C0230201BB51E9
:102008000201BF1910E10201BC510201C019D8A494
:10201800120005C2B9F202010451B3EC13F0010E2B
:102028000001A26F12001200000E356E8BEC12F048
:1020380005C036F006C037F0D8900101F035D96EEA
:102048000101F135DA6ED50ED926020EDA2236C034
:10205800DEFF37C0DDFFE80E0101F05D030E010170
:10206800F159D8A00DD04FEC03F0596E5950D8A4AF
:1020780059C0F2F1000E0101F16F000EF06F03D0AC
:102088000101F04BF12B5E50020F5E6E120002014F
:10209800BD6F000EC26E000EC16E000EC06E020152
:1020A800B9517C0BC26EBAC2C1FFBDC2BBF20201FC
:1020B800D890BB370201D890BB37380E0201BB1746
:1020C800BDC2BCF20201BC3B0F0EBC17070E0201D9
:1020D800BC170201BD51800B0201BC110201BB11EA
:1020E800C06E0201B9AF03D09E9C9D8CF28CC28059
:1020F80012000201BB6F000EAC6E000EAB6E020147
:10210800BBB1AC880201BBA302D0AC8CAB8C020182
:10211800BBB5AC8E0201BBA702D0AB8801D0AB8A9D
:102128000201BBB9AC840201BBBBAB860201BBADEB
:1021380002D09D8A01D09D9A0201BBAF02D09D8832
:1021480001D09D98B9C2AFFF0201BA51B06EAC8AF6
:10215800AB8E12000201C2510201C311D8B426D0BD
:10216800010E0201C46F06D00201D890C237C337EE
:102178000201C42B0201C3AFF7D70201C251020109
:10218800C05D0201C3510201C159D8A008D00201A3
:10219800C2510201C05F0201C3510201C15B0201C9
:1021A800D890C333C2330201C42FE7D7C0C2C0F2EC
:1021B800C1C2C1F212000201BE6F11D0970E000118
:1021C800AF6F850E0001936FED0E07D0D70E00019B
:1021D800AF6F000E0001936FE50E926F08D00201F9
:1021E800BE51010AD8B4EAD7030AD8B4EFD702011E
:1021F800BE510201D8A403D0D2EC13F012000001A2
:10220800AF51CFEC12F092C0B9F293C0BAF283EC9E
:1022180013F0F294120059EC12F064EC11F0DE0E97
:102228000201C56FFF0E0201C66FC7EC07F032EC62
:1022380005F00001A405D8A4FAD7E5EC0FF0470E85
:102248000201C56FFF0E0201C66F98C0C7F299C0A0
:10225800C8F2A8C0C9F20201CA6BB1C0CBF2020130
:10226800CC6BC7EC07F0000E0001A46FE0D7000E9E
:10227800066E000E056E03500410D8B41CD0010E73
:10228800076E04D0D89003360436072A04AEFAD76E
:10229800D890053606360350015C04500258D8A081
:1022A80005D00350015E0450025A0580D8900432CC
:1022B8000332072EEDD705C001F006C002F0120068
:1022C800EF0E0201C56FFF0E0201C66FC7EC07F0E3
:1022D800000E0001A66F000E0001AE6F000E000197
:1022E800B06F000E0001A36F000E0201B96F000E5F
:1022F800B3EC13F0000E0201B96F000EACEC13F052
:10230800CB0E0201B96FFF0EA5EC13F0120039C015
:1023180034F03AC035F03BC036F010EC09F034C068
:102328003CF035C03DF036C03EF03CC00DF03DC03D
:102338000EF03EC00FF05C0E106EDE0E116E3E0EFB
:10234800126E1EEC0BF00DC039F00EC03AF00FC043
:102358003BF012000F013A970F013A99948694883E
:10236800C69A000E0201B96F080E2AEC13F0130E7C
:10237800C86EC7A404D00201BB6BBB2B02D00201FC
:10238800BB6BC5501F0B0201BB110009D8B412006A
:10239800F0D7000E0201BE6F000E0201BD6F000EE5
:1023A800BC6F5C0E0201BE6F000E0201BD6F330EE2
:1023B800BC6F4F0EAB16AC9ACF0E9D16BCC2B9F2CD
:1023C800BDC2BAF20201BE517DEC10F0120002014A
:1023D800BD6F000E0201BF6F000EBE6F0201BD513E
:1023E8000201BC6FBB6B0201B9510201BB2502019E
:1023F800BE6F0201000E0201BC210201BF6FBEC206
:10240800B9F2BFC2BAF21200000E0C6E0AAE06D0C4
:10241800096C0A1ED8B00A2A010E0C6E09C001F018
:102428000AC002F0036A8E0E046E0CC005F03BEC85
:102438000DF001C009F002C00AF003C00BF0120051
:10244800000E0201BE6F000E0201BF6F000E0201F6
:10245800C06FA10E0201BE6F270E0201BF6FFC0EF6
:102468000201C06FBFC2B9F2C0C2BAF20201BE51C6
:102478004BEC10F01200010E5B6E82B603D03F6A7F
:102488003F2A01D03F6A3F463F463F4682503F18A9
:10249800F70B3F18826E92EC0DF092C001F093C0DA
:1024A80002F095EC13F0F2941200CEEC13F0A4ECC9
:1024B80012F0CDEC11F0000E0201BD6F020EDFEC40
:1024C80010F06FEC13F024EC12F0AEEC11F0DEEC2F
:1024D8000CF00201C86FF28CF28E1200000E086E2A
:1024E800000E076EB70E79EC13F0D5EC13F0C8ECBC
:1024F80013F00009D8A4FBD7C1EC13F001C007F012
:1025080002C008F007C005F008C006F01200000E6F
:10251800086E000E076EAF0E79EC13F0D5EC13F0D1
:10252800C8EC13F00009D8A4FBD7C1EC13F001C024
:1025380007F002C008F007C005F008C006F0120056
:102548000F013A9D0F013A9F949C948E0F013A9582
:10255800949482949296809693880F013989938AED
:102568000F01398B93800F0139918190120002AECF
:102578000DD001C003F002C004F0031E041E034A7C
:10258800042A03C001F004C002F0120001C001F0E7
:1025980002C002F012000201B96F0201B9517F0BAB
:1025A800D56E000ED76E000ED66EF2940201B9AF4A
:1025B80002D0F28A01D0F29AD58E1200015003029D
:1025C800F3CF05F0F4CF06F001500402F3500626CD
:1025D80002500302F350062605C001F006C002F0BF
:1025E8001200015002100310D8B406D0000E011AD0
:1025F800000E021A800E031A01C001F002C002F098
:1026080003C003F0120009C001F00AC002F0036A17
:102618008E0E046E000E056E3BEC0DF001C009F045
:1026280002C00AF003C00BF01200FF0E0201B96FDE
:10263800FF0EB3EC13F0B20E0201CD6F000E0201D3
:10264800CE6F0001B0510BEC0CF012000201BA6F12
:102658003F0EC716000EC66E000EC56E0201BA51B7
:10266800C6120201B951C712C68A1200F20E5C16D0
:10267800ABAC03D05C90ABB05C80ABB45C84ABB269
:102688005C86AECF01F001501200C6500F0B080A4D
:10269800D8B404D0C6500F0B0B0AD8B4C586C7A04F
:1026A800FED7C9501200C6500F0B080AD8B404D080
:1026B800C6500F0B0B0AD8B4C586C7A0FED7C950A1
:1026C80012000201B96FACAC03D0AC905CB2AC8024
:1026D800B9C2ADFF1200F1849F8A9D8A9E9AF28842
:1026E800F18CF19EF28CF28E1200026E02C001F0A3
:1026F8007C0E0116C250830B0110C26E1200B9C2C3
:10270800BBF2BAC2BCF2BCC2D7FFBBC2D6FF120032
:10271800016EACAC03D0AC905CB2AC8001C0ADFF34
:10272800120001C003F002C004F004C0D7FF03C0C8
:10273800D6FF12000201B96F9EA8FED7B9C2ADFF3D
:1027480012000201BA6FBAC28EF0B9C28FF012003D
:102758000201BA6FBAC28CF0B9C28DF01200020140
:10276800BA6FBAC2B2F0B9C2B3F01200026EACA22C
:10277800FED702508CEC13F01200C450036EC35005
:10278800016E03C002F01200C2A202D0010E1200B4
:10279800000E1200D388D38AD38C1200D59EF29AE9
:0A27A8001200C2821200000040027D
:10FDEE000001000A006400E80310270000000080F4
:10FDFE003FF0FFBEE2A93E8376BEAE2B3E3CC3BDB6
:10FE0E00D2133D78D3BB090A43616D62696F2065D9
:10FE1E00737461646F3A20312D3E30203E3E205483
:10FE2E00696D656F757420416472732066726F6DB3
:10FE3E002042524F414443415354204E4F5420527E
:10FE4E004543454956454400090A43616D62696F51
:10FE5E002065737461646F3A20312D3E32203E3E30
:10FE6E00204164647265737320726563656976659B
:10FE7E00642062792042524F414443415354000959
:10FE8E000A43616D62696F2065737461646F3A2015
:10FE9E00322D3E33203E3E204164647265737320E2
:10FEAE00726563656976656420627920554E4943B3
:10FEBE0041535400090A43616D62696F2065737482
:10FECE0061646F3A20322D3E30203E3E2054696DE3
:10FEDE00656F7574204E6F20416464726573732074
:10FEEE00526563656976656400090A43616D6269EE
:10FEFE006F2065737461646F3A20332D3E32203E5D
:10FF0E003E2054696D656F7574204C696E6B20745C
:10FF1E0065737400090A43616D62696F20657374BD
:10FF2E0061646F3A20302D3E31203E3E20416464A4
:10FF3E007265737320524551005278205061636B85
:10FF4E002E20095061636B20232564094C656E6772
:10FF5E0068743A2564096952783A25640A00090AD8
:10FF6E0045737461646F3A31094D6F6E69746F72C7
:10FF7E00204F464609546F636B656E3A25640A003E
:10FF8E00090A45737461646F3A32094D6F6E697474
:10FF9E006F72204F4E09546F636B656E3A25640A7B
:10FFAE0000090A45737461646F3A30094D6F6E69CA
:10FFBE00746F72204F46460A00090A4573746164D5
:10FFCE006F3A33094D6F6E69746F72204F4E0A008F
:10FFDE00536D6172742053686972742076312E30BD
:10FFEE0000095349534F20496E69742E2E2E0A0074
:02FFFE00000001
:020000040030CA
:0E000000FF331F3CFFBF85FF0FC00FE00F4016
:00000001FF
