:0400000069EF00F0B4
:100008005F82FACFAAF0FBCFABF0E9CFACF0EACF32
:10001800ADF0E1CFAEF0E2CFAFF0D9CFB0F0DACFAC
:10002800B1F0F3CFB2F0F4CFB3F0F6CFB4F0F7CF2E
:10003800B5F0F8CFB6F0F5CFB7F0F2B456EC1AF049
:10004800A4BAA3AA01D0A49AF2A221D017EC08F06E
:1000580068C0B8F069C0B9F0B8C009F0B9C00AF012
:1000680094EC1AF009C091F00AC092F00BC093F01A
:10007800F1C094F0CA0E0001956FFDEC14F0300E3B
:10008800036E010E046E530EE3EC10F0F292B7C04B
:10009800F5FFB6C0F8FFB5C0F7FFB4C0F6FFB3C0B0
:1000A800F4FFB2C0F3FFB1C0DAFFB0C0D9FFAFC0F0
:1000B800E2FFAEC0E1FFADC0EAFFACC0E9FFABC0F4
:0E00C800FBFFAAC0FAFF5F921100D4EF18F000
:101000000000000000803FF0FFBEE2A93E8376BEF4
:10101000AE2B3E3CC3BDD2133D78D3BB536D617242
:10102000742053686972742076312E300000000EEF
:1010300000016D6FA00E00016E6F400E00016F6F1A
:10104000330E00016A6F530E00016B6F400E0001FA
:101050006C6FF00E0001706F3F0E0001716F400E5B
:101060000001726FC00E0001736F8F0E0001746F6C
:10107000450E0001756F900E0001766F8E0E000117
:10108000776F450E0001786F000E00017F6F4D0EE7
:101090000001806F440E0001816F330E446E530EC9
:1010A000456E400E466EFEEC1AF005C009F006C013
:1010B0000AF094EC1AF009C041F00AC042F00BC0EB
:1010C00043F0A7EC13F041C050F042C051F043C0D0
:1010D00052F0000E536E800E546E440E556E21EC8D
:1010E00014F050C085F051C086F052C087F085C022
:1010F00050F086C051F087C052F06DC053F06EC002
:1011000054F06FC055F021EC14F050C085F051C080
:1011100086F052C087F073C033F074C034F075C0ED
:1011200035F07FC030F080C031F081C032F07EEC0D
:101130000EF030C053F031C054F032C055F07FC0D3
:1011400050F080C051F081C052F021EC14F050C03A
:1011500079F051C07AF052C07BF070C053F071C08A
:1011600054F072C055F085C050F086C051F087C071
:1011700052F021EC14F050C030F051C031F052C0A8
:1011800032F079C033F07AC034F07BC035F07EECB9
:101190000EF030C082F031C083F032C084F082C0E3
:1011A00044F083C045F084C046F076C041F077C07B
:1011B00042F078C043F0A7EC13F041C050F042C0B9
:1011C00051F043C052F0000E336E800E346E3F0E6D
:1011D000356E82C02DF083C02EF084C02FF06AECF3
:1011E0001BF02DC030F02EC031F02FC032F07EEC5D
:1011F0000EF030C053F031C054F032C055F021EC45
:1012000014F050C08EF051C08FF052C090F08EC0DC
:101210000DF08FC00EF090C00FF0DA0E106EE30EDE
:10122000116E440E126E5AEC16F0D8A058D0720E01
:10123000536ECF0E546E450E556E8EC050F08FC05B
:1012400051F090C052F021EC14F050C062F051C047
:1012500063F052C064F014EC1AF062C088F063C00E
:1012600089F064C08AF02B0E0001626F750E0001D8
:10127000636F3F0E0001646F14EC1AF062C053F00C
:1012800063C054F064C055F0000E446E800E456E8D
:10129000BF0E466E88C041F089C042F08AC043F05C
:1012A000A7EC13F041C050F042C051F043C052F0DF
:1012B00021EC14F050C08BF051C08CF052C08DF076
:1012C0008BC041F08CC042F08DC043F0000E446EE4
:1012D000800E456EBF0E466EA7EC13F09FD18EC0F8
:1012E0000DF08FC00EF090C00FF0A30E106EB80E70
:1012F000116E440E126E5AEC16F0D8A058D01C0E87
:10130000536EC80E546E450E556E8EC050F08FC091
:1013100051F090C052F021EC14F050C062F051C076
:1013200063F052C064F014EC1AF062C088F063C03D
:1013300089F064C08AF0760E0001626F750E0001BC
:10134000636F3F0E0001646F14EC1AF062C053F03B
:1013500063C054F064C055F0000E446E800E456EBC
:10136000BF0E466E88C041F089C042F08AC043F08B
:10137000A7EC13F041C050F042C051F043C052F00E
:1013800021EC14F050C08BF051C08CF052C08DF0A5
:101390008BC041F08CC042F08DC043F0000E446E13
:1013A000800E456EBF0E466EA7EC13F037D18EC08F
:1013B0000DF08FC00EF090C00FF09A0E106E960ECA
:1013C000116E440E126E5AEC16F0D8A058D0300EA2
:1013D000536EBF0E546E450E556E8EC050F08FC0CA
:1013E00051F090C052F021EC14F050C062F051C0A6
:1013F00063F052C064F014EC1AF062C088F063C06D
:1014000089F064C08AF0C80E0001626F750E000199
:10141000636F3F0E0001646F14EC1AF062C053F06A
:1014200063C054F064C055F0000E446E800E456EEB
:10143000BF0E466E88C041F089C042F08AC043F0BA
:10144000A7EC13F041C050F042C051F043C052F03D
:1014500021EC14F050C08BF051C08CF052C08DF0D4
:101460008BC041F08CC042F08DC043F0000E446E42
:10147000800E456EBF0E466EA7EC13F0CFD08EC027
:101480000DF08FC00EF090C00FF0060E106E770EAC
:10149000116E440E126E5AEC16F0D8A058D0190EE8
:1014A000536EB70E546E450E556E8EC050F08FC001
:1014B00051F090C052F021EC14F050C062F051C0D5
:1014C00063F052C064F014EC1AF062C088F063C09C
:1014D00089F064C08AF00C0E0001626F760E000184
:1014E000636F3F0E0001646F14EC1AF062C053F09A
:1014F00063C054F064C055F0000E446E800E456E1B
:10150000BF0E466E88C041F089C042F08AC043F0E9
:10151000A7EC13F041C050F042C051F043C052F06C
:1015200021EC14F050C08BF051C08CF052C08DF003
:101530008BC041F08CC042F08DC043F0000E446E71
:10154000800E456EBF0E466EA7EC13F067D08EC0BE
:101550000DF08FC00EF090C00FF0ED0E106E4A0E21
:10156000116E440E126E5AEC16F0D8A05DD0400EEB
:10157000536EAE0E546E450E556E8EC050F08FC039
:1015800051F090C052F021EC14F050C062F051C004
:1015900063F052C064F014EC1AF062C088F063C0CB
:1015A00089F064C08AF0510E0001626F760E00016E
:1015B000636F3F0E0001646F14EC1AF062C053F0C9
:1015C00063C054F064C055F0000E446E800E456E4A
:1015D000BF0E466E88C041F089C042F08AC043F019
:1015E000A7EC13F041C050F042C051F043C052F09C
:1015F00021EC14F050C08BF051C08CF052C08DF033
:101600008BC041F08CC042F08DC043F0000E446EA0
:10161000800E456EBF0E466EA7EC13F041C07CF005
:1016200042C07DF043C07EF07CC0DDF07DC0DEF0C6
:101630007EC0DFF0800E0001696F000E686F12003F
:10164000000E0101D56F000ED46F000E0101D26FA4
:10165000000E0101D36F21EEE4F011EEC8F0090E87
:10166000DBCFE3FFE806FCE2000E0101DB6F000EBA
:10167000DA6F000E0101DC6F000E0101E16F000E58
:101680000101E36F000EE26F000E0101D76F000E43
:10169000D66F000E0101D96F000EE8CF51FA000E8F
:1016A0000101E36F010EE26FE80E0101E25D030E3E
:1016B0000101E359D8B048D0510E0101E225D96E9D
:1016C0000A0E0101E321DA6EE2C150F0E3C151F0EC
:1016D000D89050365136020E5026000E5122810EFF
:1016E0005024E16E020E5120E26EE6CF52F0E5CFBB
:1016F00053F0FE0E546EFF0E556EE2C156F0E3C17C
:1017000057F0D890563657365450562655505722D3
:10171000810E5624E16E020E5720E26EE6CF58F09D
:10172000E5CF59F0581E591E584A592A525058248C
:10173000016E53505920026E30EC1BF00150DF6EE9
:101740000101E24BE32BB0D7000E0101E36F000E65
:10175000E26F0101E35113E11F0E0101E25DD8B018
:101760000ED0510E0101E225D96E0A0E0101E321CE
:10177000DA6E000EDF6E0101E24BE32BEAD7000EBA
:101780000101DE6F000EDD6F0101DEBF08D0E80E43
:101790000101DD5D030E0101DE59D8B023D0510EE9
:1017A0000101DD25D96E0A0E0101DE21DA6EDF505E
:1017B000506E50500101D65D000ED759D8B00ED0F2
:1017C000510E0101DD25D96E0A0E0101DE21DA6E0E
:1017D000DF50506E50500101D66FD76B0101DD4BC9
:1017E000DE2BD2D7330E446E330E456E3F0E466E5F
:1017F000D6C109F0D7C10AF07CEC1BF009C041F05A
:101800000AC042F00BC043F0A7EC13F041C00CF04B
:1018100042C00DF043C00EF02DEC13F00CC0F7F1F8
:101820000DC0F8F1000E0101E06F000EDF6F010145
:10183000E0BF08D0E90E0101DF5D030E0101E059B0
:10184000D8B09ED0510E0101DF25D96E0A0E0101DC
:10185000E021DA6EDF50506E50500101F75D000E4E
:10186000F859D8B079D00101D9510101D8A474D068
:10187000510E0101DF25D96E0A0E0101E021DA6E59
:10188000DF50506E516A0101E151020D140EF32632
:10189000000EF422000EF324D96E010EF420DA6E4D
:1018A00050C0DEFF51C0DDFF0101E151020D280EE5
:1018B000F326000EF422000EF324D96E010EF4205C
:1018C000DA6EDFC1DEFFE0C1DDFF0101E1510101A0
:1018D000D8B43DD00101E151020D280EF326000ECF
:1018E000F422000EF324D96E010EF420DA6EDECF5E
:1018F00050F0DDCF51F00101E151526E536AD890A2
:1019000052365336260E5226000E5322000E522413
:10191000D96E010E5320DA6EDECF54F0DDCF55F0D4
:10192000541E551E544A552A505054265150552283
:101930000101DC51020DC80EF324D96E010EF42012
:10194000DA6E54C0DEFF55C0DDFF0101DC2B010162
:10195000E12B010E0101D96F0101D905D8A40CD0EA
:101960001E0E0101D36506D0000E0101D96F000ED5
:101970000101D36F0101D32B0101DF4BE02B57D7BE
:10198000000E0101D86F19D00101D851020DC80E07
:10199000F324D96E010EF420DA6EDECF50F0DDCFE5
:1019A00051F00101DA5150240101DA6F0101DB51DC
:1019B00051200101DB6F0101D82B0101DC51010134
:1019C000D85DD8A0E1D7DAC101F0DBC102F0DCC1FB
:1019D00003F0046A2DEC17F001C0DAF102C0DBF16C
:1019E0003A0E026E980E016EDAC103F0DBC104F00C
:1019F000C8EC19F001C0D4F102C0D5F1D4C1D2F1C4
:101A00000101D4511200000E0001626F200E00018E
:101A1000636F410E0001646F21EEEEF010EE66F090
:101A2000080EDBCFE3FFE806FCE2000E0001616F69
:101A3000000E606F41D082EC11F066C030F067C0DC
:101A400031F068C032F0BAC033F0BBC034F0BCC073
:101A500035F07EEC0EF030C066F031C067F032C079
:101A600068F069C030F06AC031F06BC032F0BDC0C0
:101A700033F0BEC034F0BFC035F07EEC0EF030C0A5
:101A800069F031C06AF032C06BF06CC030F06DC0EC
:101A900031F06EC032F0C0C033F0C1C034F0C2C00B
:101AA00035F07EEC0EF030C06CF031C06DF032C01D
:101AB0006EF00001604B612B60C009F061C00AF05C
:101AC00094EC1AF009C00DF00AC00EF00BC00FF034
:101AD00062C010F063C011F064C012F05AEC16F04E
:101AE000D8A0A9D7000E0001706F000E6F6F000123
:101AF00070BF08D0000170513DE1030E00016F5D21
:101B0000D8B038D06FC001F070C002F0000E046E83
:101B1000030E036E57EC1BF0660E0124D96E000E07
:101B20000220DA6E6FC001F070C002F0000E046E89
:101B3000030E036E57EC1BF0660E0124E16E000EDF
:101B40000220E26EE6CF50F0E6CF51F0E5CF52F042
:101B500062C053F063C054F064C055F021EC14F03F
:101B600050C0DEFF51C0DEFF52C0DEFF00016F4BF0
:101B7000702BBDD766C03CF067C03DF068C03EF03A
:101B8000A2EC16F03CC071F03DC072F03EC073F0A4
:101B900069C03CF06AC03DF06BC03EF0A2EC16F0AC
:101BA0003CC074F03DC075F03EC076F06CC03CF0B7
:101BB0006DC03DF06EC03EF0A2EC16F03CC077F078
:101BC0003DC078F03EC079F0000E0001656F000165
:101BD00071510001721100017311D8A415D00001D8
:101BE00074510001751100017611D8A40DD0800E3A
:101BF0000001781909E13F0E000179190001771100
:101C0000D8A402D0010E75D00001715100017211EB
:101C100000017311D8A415D0000174510001751191
:101C200000017611D8A40DD0800E0001781909E1C9
:101C3000BF0E0001791900017711D8A402D0020E5D
:101C400058D0000171510001721100017311D8A424
:101C500015D0800E0001751911E1BF0E0001761933
:101C600000017411D8A40AD0000177510001781145
:101C700000017911D8A402D0030E3BD000017151AC
:101C80000001721100017311D8A415D0800E00015B
:101C9000751911E13F0E0001761900017411D8A4E5
:101CA0000AD0000177510001781100017911D8A400
:101CB00002D0040E1ED0800E0001721919E1BF0E71
:101CC0000001731900017111D8A412D000017451E0
:101CD0000001751100017611D8A40AD000017751D6
:101CE0000001781100017911D8A402D0050E01D0AD
:101CF000000E0001656F00016551120032C036F020
:101D0000376A386A3134363601E3378036503B6EF5
:101D100035C036F0376A386A3434363601E33780F6
:101D200036503A6E3B50D8B40BD03A503B5CD8B0EA
:101D30000ED03B5000083A24366E180E366407D099
:101D400033C030F034C031F035C032F012003A50B8
:101D5000D8B40BD03B503A5CD8B00ED03A50000803
:101D60003B24366E180E366407D030C030F031C0D8
:101D700031F032C032F01200060E396E32BE398EAA
:101D800035BE398C318EFF0E3016FF0E3116000E27
:101D90003216348EFF0E3316FF0E3416000E351633
:101DA0003A503B5CD8B01BD0D890333634363536F9
:101DB0003A063B503A18D8B40DD0390639C036F03F
:101DC000070E3616D8B406D0EFD7D890323231325B
:101DD00030323B2A3A503B18D8B41FD0F6D73B508C
:101DE0003A5CD8B01AD0D8903036313632363B060D
:101DF0003B503A18D8B40DD0390639C036F0070E2A
:101E00003616D8B406D0EFD7D890353234323332C4
:101E10003A2A3A503B18D8A4F7D739AE0CD0FF0E67
:101E2000301AFF0E311AFF0E321A010E3026000E44
:101E30003122000E322239AC0CD0FF0E331AFF0EC5
:101E4000341AFF0E351A010E3326000E3422000E0E
:101E50003522000E396E3050332631503422325044
:101E6000352235AE0ED0FF0E331AFF0E341AFF0E98
:101E7000351A010E3326000E3422000E3522010ED3
:101E8000396E33C001F034C002F035C003F03BC0FE
:101E900004F039C005F0BBEC15F001C030F002C011
:101EA00031F003C032F0120002017D6F000E02011A
:101EB0007C6FC580C5B0FED702017D517D25020132
:101EC0007D6FC9CF7CF202017D51FE0BB0EC17F0A3
:101ED00002017F6F02017F29D8A403D0C9CF7CF211
:101EE000C69E02017F510201D8A4EDD7000E020167
:101EF0007F6FC7A404D00201756B752B02D002015D
:101F0000756BC5501F0B020175110009D8A4F1D7DC
:101F100002017351B0EC17F002017F6F02017F29BB
:101F2000D8A403D0C9CF7CF2C69E02017F51020122
:101F3000D8A4EED7000E02017F6FC7A404D002011F
:101F4000756B752B02D00201756BC5501F0B02011A
:101F500075110009D8A4F1D7C582C5B2FED7C9CF83
:101F60007CF202017D510109B0EC17F002017F6F94
:101F700002017F29D8A403D0C9CF7CF2C69E0201FA
:101F80007F510201D8A4EDD7000E02017F6FC7A4D4
:101F900004D00201756B752B02D00201756BC55020
:101FA0001F0B020175110009D8A4F1D7000E020120
:101FB0007E6F000E02017E6F41D002017E51010D45
:101FC000680EF324D96E020EF420DA6EBFEC1BF01B
:101FD000DF6EFF0E0201756FFF0E0201766F0201C8
:101FE00074510201776F786B0201755102017727F6
:101FF000020176510201782302017E510201796FBC
:102000007A6B020177510201795D02017A51800AEF
:1020100002017B6F02017851800A02017B59D8B01E
:1020200005D0C59AC588C5A807D0FDD7C58AC5887B
:10203000C5B8FED7C5B8FED702017E2B0201745188
:1020400002017E5DD8A0B9D7C584C5A41200FDD712
:10205000000E0001A86F17EC1BF005C0A6F006C02B
:10206000A7F0D8900001EC35D96E0001ED35DA6E9D
:10207000810ED926020EDA22A6C0DEFFA7C0DDFF40
:10208000E80E0001EC5D030E0001ED59D8A00FD061
:1020900020EC0BF00001EE6F0001EE51D8A4EEC071
:1020A000F1F0000E0001ED6F000EEC6F03D00001A7
:1020B000EC4BED2B0001FB51010D000EF324D96E0A
:1020C000020EF420DA6EA6C001F0A7C002F0000EE6
:1020D000046E010E036EAFEC1BF0DF6E0001FB51CE
:1020E0000001A46FA56B010E0001A427000EA5231B
:1020F000000E0001A425D96E020E0001A521DA6EA2
:10210000A6C001F0A7C002F0000E046E020E036E1E
:10211000AFEC1BF0DF6E0001FB51020F0001FB6F03
:10212000650E0001FB6512004D0E0201006FF7C045
:1021300001F2000E0001A86F650E0001A86501D034
:102140000FD00001A851010D000EF324D96E020E2C
:10215000F420DA6EDF5027EC1CF00001A82BECD73E
:10216000020E0001FB6F0001F72BFD0E0001F76569
:1021700014D0000E0001F76F17EC08F0DDC091F0ED
:10218000DEC092F0DFC093F0F1C094F003EC0DF0EC
:102190000001956FFDEC14F012007F0E0001F7199D
:1021A000D8A4120017EC08F0DDC091F0DEC092F068
:1021B000DFC093F0F1C094F003EC0DF00001956FD7
:1021C000FDEC14F012000C6E000E0D6EC580C5B053
:1021D000FED70C500C240C6EC9CF0DF00C50FE0B2A
:1021E00064EC18F00F6E0F28D8A403D0C9CF0DF0FF
:1021F000C69E0F50D8A4F2D7000E0F6EC7A403D00E
:10220000056A052A01D0056AC5501F0B0510000993
:10221000D8A4F4D7035064EC18F00F6E0F28D8A49C
:1022200003D0C9CF0DF0C69E0F50D8A4F3D7000E2F
:102230000F6EC7A403D0056A052A01D0056AC550F0
:102240001F0B05100009D8A4F4D7C582C5B2FED76C
:10225000C9CF0DF00C50010964EC18F00F6E0F2877
:10226000D8A403D0C9CF0DF0C69E0F50D8A4F2D782
:10227000000E0F6EC7A403D0056A052A01D0056AB7
:10228000C5501F0B05100009D8A4F4D7000E0E6E20
:10229000000E0E6E2FD00E50010D680EF324D96E75
:1022A000020EF420DA6ECDEC1BF0DF6EFF0E056E31
:1022B000FF0E066E0450076E086A0550072606508A
:1022C00008220E50096E0A6A0750095C0A50800AFB
:1022D0000B6E0850800A0B58D8B005D0C59AC58837
:1022E000C5A807D0FDD7C58AC588C5B8FED7C5B86B
:1022F000FED70E2A04500E5CD8A0CDD7C584C5A445
:102300001200FDD7E9EC16F0C3C02DF0C4C02EF0CA
:10231000C5C02FF06AEC1BF02DC033F02EC034F096
:102320002FC035F0CCC009F0CDC00AF094EC1AF003
:1023300009C030F00AC031F00BC032F07EEC0EF074
:1023400030C041F031C042F032C043F09A0E446ECA
:10235000790E456E3B0E466EA7EC13F041C0BAF005
:1023600042C0BBF043C0BCF0C6C02DF0C7C02EF0C9
:10237000C8C02FF06AEC1BF02DC033F02EC034F033
:102380002FC035F0CEC009F0CFC00AF094EC1AF09F
:1023900009C030F00AC031F00BC032F07EEC0EF014
:1023A00030C041F031C042F032C043F09A0E446E6A
:1023B000790E456E3B0E466EA7EC13F041C0BDF0A2
:1023C00042C0BEF043C0BFF0C9C02DF0CAC02EF05D
:1023D000CBC02FF06AEC1BF02DC033F02EC034F0D0
:1023E0002FC035F0D0C009F0D1C00AF094EC1AF03B
:1023F00009C030F00AC031F00BC032F07EEC0EF0B4
:1024000030C041F031C042F032C043F09A0E446E09
:10241000790E456E3B0E466EA7EC13F041C0C0F03E
:1024200042C0C1F043C0C2F012005EAE0CD0000E3C
:102430000001EB6F210EEA6F000E5C6E000E5D6E08
:10244000000E5E6E12005C505D105E10D8A40CD0C1
:10245000000E0001EB6F220EEA6F000E5C6E000EA4
:102460005D6E000E5E6E1200000E446E000E456E34
:10247000400E466E600E046E000E056E5CC001F0EC
:102480005DC002F05EC003F012EC16F001C041F036
:1024900002C042F003C043F0A7EC13F041C030F09B
:1024A00042C031F043C032F0000E336E800E346E05
:1024B000BF0E356E7EEC0EF030C05CF031C05DF0CA
:1024C00032C05EF000016007D8A061075CC050F028
:1024D0005DC051F05EC052F0010E536E100E546E8E
:1024E000000E566E080E556E94EC14F050C05CF061
:1024F00051C05DF052C05EF0720E446E310E456EFA
:102500003F0E466E60C009F061C00AF094EC1AF00C
:1025100009C041F00AC042F00BC043F0A7EC13F031
:1025200041C030F042C031F043C032F05CC033F003
:102530005DC034F05EC035F07EEC0EF030C05CF073
:1025400031C05DF032C05EF012000201776F000E04
:102550000201766FC580C5B0FED70201775177259D
:102560000201776FC9CF76F202017751FE0BB0EC12
:1025700017F00201786F02017829D8A403D0C9CFDF
:1025800076F2C69E020178510201D8A4EDD7000E62
:102590000201786FC7A404D00201756B752B02D0BD
:1025A0000201756BC5501F0B020175110009D8A4FB
:1025B000F1D702017351B0EC17F00201786F0201FC
:1025C0007829D8A403D0C9CF76F2C69E02017851EB
:1025D0000201D8A4EED7000E0201786FC7A404D080
:1025E0000201756B752B02D00201756BC5501F0B74
:1025F000020175110009D8A4F1D7C9CF76F2020102
:102600007451B0EC17F00201786F02017829D8A458
:1026100003D0C9CF76F2C69E020178510201D8A438
:10262000EED7000E0201786FC7A404D00201756BCB
:10263000752B02D00201756BC5501F0B020175117D
:102640000009D8A4F1D7C58AC588C5B8FED7C5B8D2
:10265000FED7C584C5A41200FDD70EC010F0116AC4
:10266000126A0D34103601E3118010501A6E1A50A0
:10267000D8A409D0000E0C6E000E0D6E000E0E6E6A
:10268000000E0F6E1200170E106E0CC011F00DC070
:1026900012F00EC013F01028146E04D0D89013322C
:1026A00012321132142EFAD71150156E0D8EFF0E04
:1026B0000C16FF0E0D16000E0E160C50166E0D5059
:1026C000176E0E50186E196A8E0E1A5E1AAE16D05C
:1026D0001A50800A8F0FD8B009D0000E0C6E000E71
:1026E0000D6E000E0E6E000E0F6E1200D890193295
:1026F0001832173216321A3EF9D715D0170E1A644F
:102700000FD0000E0C6E000E0D6E000E0E6E000E41
:102710000F6E1200D89016361736183619361A066C
:102720001A50D8A4F7D71550D8B408D0191E181EBF
:10273000171E166C000E17221822192216C00CF054
:1027400017C00DF018C00EF019C00FF0120043C0F2
:1027500047F0486A496A4234473601E348804750A7
:102760004A6E4A50D8A407D0000E416E000E426E49
:10277000000E436E120046C047F0486A496A45346D
:10278000473601E3488047504F6E4F50D8A407D0DA
:10279000000E416E000E426E000E436E12004F504E
:1027A0007B0F4A2643C04FF046504F1A800E4F16FB
:1027B000428E458EFF0E4416FF0E4516000E46163D
:1027C000000E4B6E000E4C6E000E4D6E070E4E6EE0
:1027D00041A006D044504B2645504C2246504D2235
:1027E000D890433242324132D8904436453646364C
:1027F0004E2EEED7090E4E6E41A006D044504B2609
:1028000045504C2246504D22D890433242324132FC
:10281000D8904D324C324B324E2EEED74BC001F099
:102820004CC002F04DC003F04AC004F04FC005F0A8
:10283000BBEC15F001C041F002C042F003C043F010
:10284000120052C056F0576A586A5134563601E3A6
:10285000578056505D6E5D50D8A407D0000E506E64
:10286000000E516E000E526E120055C056F0576A9F
:10287000586A5434563601E3578056505E6E5E50A7
:10288000D8A407D0000E506E000E516E000E526E8E
:102890001200000E5A6E000E5B6E000E5C6E5E50F3
:1028A000890F5D5E52C05EF055505E1A800E5E1656
:1028B000518EFF0E5016FF0E5116000E5216548EFA
:1028C000FF0E5316FF0E5416000E5516180E596EB5
:1028D000D8905A365B365C365350505C5450515841
:1028E00055505258D8A007D05350505E5450515AAA
:1028F0005550525A5A80D890503651365236592E29
:10290000E7D75AC001F05BC002F05CC003F05DC0C5
:1029100004F05EC005F0BBEC15F001C050F002C041
:1029200051F003C052F0120055C001F056C002F041
:10293000000E046E030E036E57EC1BF053C057F0ED
:1029400054C058F0015057260250582257C0F6FF85
:1029500058C0F7FF0900F5CF59F00900F5CF5AF03C
:102960000A00F5CF5BF03ED059C044F05AC045F0A4
:102970005BC046F050C041F051C042F052C043F03D
:10298000A7EC13F041C030F042C031F043C032F048
:10299000000E046E030E036E5506D8A0560655C0F1
:1029A00001F056C002F057EC1BF053C057F054C072
:1029B00058F0015057260250582257C0F6FF58C011
:1029C000F7FF0900F5CF33F00900F5CF34F00A0026
:1029D000F5CF35F07EEC0EF030C059F031C05AF032
:1029E00032C05BF055505610D8A4BED759C050F035
:1029F0005AC051F05BC052F0120020EED2F010EE3F
:102A000099F0040EDBCFE3FFE806FCE291C00CF086
:102A100092C00DF093C00EF02DEC13F00C5000019D
:102A20009E6F000E446EC80E456E420E466EA00E9E
:102A30003F6E000E406E91C03CF092C03DF093C0DE
:102A40003EF029EC18F03CC041F03DC042F03EC0E1
:102A500043F0A7EC13F041C096F042C097F043C09A
:102A600098F096C00CF097C00DF098C00EF02DECC9
:102A700013F00C5000019F6FC70E0001996F9EC0AC
:102A80009AF09FC09BF094C09CF095C09DF0000E02
:102A90000001A36F040E0001A36501D01200000124
:102AA000A351010D990EF324D96E000EF420DA6EB5
:102AB000DF5027EC1CF00001A32BECD72D0E0201F8
:102AC000736F040E0201746F530EA5EC12F0310EF9
:102AD0000201736F0B0E0201746F530EA5EC12F01E
:102AE0002C0E0201736F0A0E0201746F530EA5ECD7
:102AF00012F02E0E0201736F000E0201746F530E5E
:102B0000A5EC12F0280E0201736F050E0201746F1E
:102B1000530EA5EC12F0290E0201736F140E020180
:102B2000746F530EA5EC12F02F0E0201736F000E9E
:102B30000201746F530EA5EC12F02E0E0201736F9A
:102B4000040E0201746F530EA5EC12F02D0E02015B
:102B5000736F080E0201746F530EA5EC12F0000E95
:102B60000201736F010E0201746F530E54EC0FF0EB
:102B70000201685112000450D8B405D0015002106F
:102B80000310D8A40CD0000E016E000E026E000ED1
:102B9000036E1200042AD890033202320132000E72
:102BA0000114066E000E0214076EFE0E0314086E6A
:102BB000065007100810D8B40CD0ECD7042A010E28
:102BC0000126000E0222000E0322D89003320232A8
:102BD0000132000E0114066E000E0214076EFF0E85
:102BE0000314086E065007100810D8B406D0E6D7B4
:102BF0000406D89001360236033602BE03D0020E18
:102C00000460F6D704A0029ED89004320450031248
:102C10000550D8A4038E01C001F002C002F003C029
:102C200003F01200015002100310D8A40FD004C00A
:102C3000D9FF05C0DAFF000EDE6E000EDD6E000E5D
:102C4000016E000E026E000E036E120003507F0B29
:102C5000066E076AD8900636073604C0D9FF05C04D
:102C6000DAFF06C0DEFF07C0DDFF02AE03D0066A52
:102C7000062A01D0066A065004C0D9FF05C0DAFF53
:102C8000DE12000EDD1204C0D9FF05C0DAFF820E8D
:102C9000DE26FF0EDD220380038203840386038881
:102CA000038A039C029E01C001F002C002F003C02F
:102CB00003F012000FAE16D00DC013F00EC014F0CA
:102CC0000FC015F0131E141E151E132A000E142219
:102CD0001522000E13240D6E000E14200E6E800EB1
:102CE00015200F6E12AE16D010C013F011C014F0E4
:102CF00012C015F0131E141E151E132A000E1422E6
:102D00001522000E1324106E000E1420116E800E7A
:102D10001520126E000E0D1A000E0E1A800E0F1ADC
:102D2000000E101A000E111A800E121A10500D5CAF
:102D300011500E5812500F58D8B002D0D89012002F
:102D4000D88012003CC025F03DC026F03EC027F0E0
:102D50006FEC17F025C02DF026C02EF027C02FF005
:102D60006AEC1BF02DC030F02EC031F02FC032F0D5
:102D70003CC033F03DC034F03EC035F07EEC0EF088
:102D800030C03FF031C040F032C041F03CC030F0C4
:102D90003DC031F03EC032F03FC033F040C034F0AF
:102DA00041C035F07EEC0EF030C03CF031C03DF05B
:102DB00032C03EF03CC025F03DC026F03EC027F0BA
:102DC0006FEC17F025C03CF026C03DF027C03EF068
:102DD0001200320E036E060E046E530EE3EC10F07A
:102DE00068C201F002016951DBEC1BF001C006F082
:102DF00002C007F0000E096E100E086E9DEC18F070
:102E000006C0CCF007C0CDF06AC201F002016B51E0
:102E1000DBEC1BF001C006F002C007F0000E096EEB
:102E2000100E086E9DEC18F006C0CEF007C0CFF073
:102E30006CC201F002016D51DBEC1BF001C006F029
:102E400002C007F0000E096E100E086E9DEC18F01F
:102E500006C0D0F007C0D1F01200000E066E04AE1E
:102E600006D0036C041ED8B0042A010E066E02AE12
:102E700006D0016C021ED8B0022A010E061A000EFE
:102E8000086E000E076E03500410D8B41CD0010E5B
:102E9000056E04D0D89003360436052A04AEFAD75E
:102EA000D890073608360350015C04500258D8A069
:102EB00005D00350015E0450025A0780D8900432B6
:102EC0000332052EEDD70650D8B404D0076C081E87
:102ED000D8B0082A07C001F008C002F0120025C0CF
:102EE00001F026C002F027C003F02B0E046E000E86
:102EF000056E12EC16F02CAE07D0000E256E000EFB
:102F0000266E000E276E12002C5004E1150E2B5C6D
:102F1000D8A007D025C025F026C026F027C027F06E
:102F2000120025C00CF026C00DF027C00EF02DECCD
:102F300013F00CC01BF00DC01CF00EC01DF00FC034
:102F40001EF0EDEC17F01BC028F01CC029F01DC0CE
:102F50002AF028C025F029C026F02AC027F0120048
:102F60000201726F72C2C9FFC6AE02D0FF0E12001C
:102F7000C6500F0B080AD8B40FD0C6500F0B0B0A5F
:102F8000D8B40AD0C6889EA6FED7C7A4C7B002D0C0
:102F9000FE0E1200000E1200C6500F0B080AD8B425
:102FA00005D0C6500F0B0B0AD8A41200C7B0FED72D
:102FB000C7A404D00201716B712B02D00201716BA6
:102FC000C5501F0B020171110009D8A4F1D7C5AC7F
:102FD00002D0FE0E1200000E1200000E246E8E0EA5
:102FE000236E1EAE11D01E1E1D1E1C1E1B6C000E5D
:102FF0001C221D221E22010E246E06D0D8901E32E5
:103000001D321C321B32232A000E1B141F6E000EB1
:103010001C14206E000E1D14216EFF0E1E14226E55
:103020001F50201021102210D8A4E8D71BC001F097
:103030001CC002F01DC003F023C004F024C005F042
:10304000BBEC15F001C01BF002C01CF003C01DF06A
:1030500012003CC00CF03DC00DF03EC00EF02DEC57
:1030600013F00CC01BF00DC01CF00EC01DF075EC71
:103070001AF03FC0D9FF40C0DAFF1BC0DEFF1CC002
:10308000DEFF1DC0DEFF3FC0D9FF40C0DAFFDECF4C
:103090002DF0DECF2EF0DDCF2FF06AEC1BF02DC02F
:1030A00030F02EC031F02FC032F03CC033F03DC0C4
:1030B00034F03EC035F07EEC0EF030C03CF031C054
:1030C0003DF032C03EF01200026E02C0C9FFC6AE33
:1030D00002D0FF0E1200C6500F0B080AD8B40FD052
:1030E000C6500F0B0B0AD8B40AD0C6889EA6FED7CE
:1030F000C7A4C7B002D0FE0E1200000E1200C650C8
:103100000F0B080AD8B405D0C6500F0B0B0AD8A471
:103110001200C7B0FED7C7A403D0016A012A01D0AC
:10312000016AC5501F0B01100009D8A4F4D7C5AC23
:1031300002D0FE0E1200000E120008C00AF0FF0EB0
:103140000A26010E0B6E000E0C6E0A2A03D0D890D0
:103150000B360C360A2EFBD706500B1607500C16F2
:103160000B500C10D8B41BD0000E0E6E000E0D6E5E
:10317000061C0D6E071C0E6E010E0D240D6E000E4A
:103180000E200E6E0DC00AF00EC00BF00A1E0B1EB4
:103190000A4A0B2A0AC006F00BC007F0120006C04C
:1031A00006F007C007F0120002EE81F01BEEB8F047
:1031B000EE6AE550E150FCE1E250FAE102EE00F087
:1031C000710EEE6AE806FDE101EEE4F0150EEE6A1E
:1031D000E806FDE100EEBAF03E0EEE6AE806FDE11B
:1031E000740EF66E380EF76E000EF86E00EEF8F004
:1031F00010EE04F00900F5CFEEFFE550E150FAE1E2
:103200005F905F92000EF86E0001E8EF1BF0020184
:10321000756F000EC26E000EC16E000EC06E020110
:1032200071517C0BC26E72C2C1FF75C273F2020192
:10323000D89073370201D8907337380E0201731794
:1032400075C274F20201743B0F0E7417070E02016F
:10325000741702017551800B020174110201731180
:10326000C06E020171AF03D09E9C9D8CF28CC28017
:1032700012000201736F000EAC6E000EAB6E020105
:1032800073B1AC88020173A302D0AC8CAB8C020189
:1032900073B5AC8E020173A702D0AB8801D0AB8AA4
:1032A000020173B9AC84020173BBAB86020173AD3A
:1032B00002D09D8A01D09D9A020173AF02D09D88F1
:1032C00001D09D9871C2AFFF02017251B06EAC8AFD
:1032D000AB8E12000201766F11D0970E0201706F53
:1032E000850E02016F6FED0E07D0D70E0201706FD1
:1032F000000E02016F6FE50E6E6F08D0020176516D
:10330000010AD8B4EAD7030AD8B4EFD7020176513C
:103310000201D8A403D037EC1CF012000201705156
:1033200044EC1BF06EC271F26FC272F207EC1CF03B
:10333000F29412000001E24BE32B0001E04BE12B81
:10334000E80E0001E25D030E0001E359D8A007D0AA
:103350000001F52B000E0001E36F000EE26F040E7A
:103360000001E0190001E111D8A407D028EC10F009
:10337000000E0001E16F000EE06F3C0E0001F51938
:10338000D8A412000001F42B000E0001F56F12000A
:10339000000E066E000E056E03500410D8B41CD04B
:1033A000010E076E04D0D89003360436072A04AE07
:1033B000FAD7D890053606360350015C04500258FF
:1033C000D8A005D00350015E0450025A0580D89061
:1033D00004320332072EEDD705C001F006C002F01B
:1033E0001200000E0201766F000E0201756F000ED2
:1033F000746F949C948E1C0E0201766F000E020175
:10340000756F330E746F4F0EAB16AC9ACF0E9D16C0
:1034100074C271F275C272F20201765139EC19F080
:103420009F8A9D8A9E9A120062C05CF063C05DF024
:1034300064C05EF015EC12F05CC065F05DC066F033
:103440005EC067F065C041F066C042F067C043F0FF
:103450005C0E446EDE0E456E3E0E466EA7EC13F01B
:1034600041C062F042C063F043C064F012000F013B
:103470003A970F013A9994869488C69A000E0201F1
:10348000716F080E9FEC1BF0130EC86EC7A404D01A
:103490000201736B732B02D00201736BC5501F0BBB
:1034A000020173110009D8B41200F0D7010E000117
:1034B000F66F82B604D00001A96BA92B02D00001DF
:1034C000A96B0001A947A947A94782500001A91982
:1034D000F70BA919826E9AEC19F06EC201F06FC257
:1034E00002F010EC1CF0F2941200000E1E6E1DAEE5
:1034F00008D01D1E1C1E1B6C000E1C221D22010E5E
:103500001E6E1BC001F01CC002F01DC003F08E0E29
:10351000046E1EC005F0BBEC15F001C01BF002C02C
:103520001CF003C01DF01200000E0C6E0AAE06D097
:10353000096C0A1ED8B00A2A010E0C6E09C001F0EF
:103540000AC002F0036A8E0E046E0CC005F0BBECDC
:1035500015F001C009F002C00AF003C00BF0120020
:10356000000E0201766F000E0201776F000E02015D
:10357000786FA10E0201766F270E0201776FFC0EA5
:103580000201786F77C271F278C272F2020176514D
:1035900007EC19F01200740E0201746F020E0201A2
:1035A000756F04D00201765119EC1CF072C2F6FF5F
:1035B00073C2F7FF0201724B732B0800F5CF76F24E
:1035C00002017651D8B41200EDD733EC1CF08EEC2A
:1035D0001BF0F1EC19F0000E0201756F020E6AEC9F
:1035E00019F0F3EC1BF0B0EC1AF037EC1AF05EECCB
:1035F00015F00201806FF28CF28E1200000E086E40
:10360000000E076EB70EFDEC1BF03CEC1CF02DEC31
:103610001CF00009D8A4FBD720EC1CF001C007F077
:1036200002C008F007C005F008C006F01200000E46
:10363000086E000E076EAF0EFDEC1BF03CEC1CF0AC
:103640002DEC1CF00009D8A4FBD720EC1CF001C025
:1036500007F002C008F007C005F008C006F012002D
:1036600002AE0DD001C003F002C004F0031E041E20
:10367000034A042A03C001F004C002F0120001C092
:1036800001F002C002F012000201716F02017151DB
:103690007F0BD56E000ED76E000ED66EF29402012F
:1036A00071AF02D0F28A01D0F29AD58E1200015089
:1036B0000302F3CF05F0F4CF06F001500402F350FB
:1036C000062602500302F350062605C001F006C08C
:1036D00002F012002D502E102F10D8B406D0000E7C
:1036E0002D1A000E2E1A800E2F1A2DC02DF02EC06E
:1036F0002EF02FC02FF0120009C001F00AC002F016
:10370000036A8E0E046E000E056EBBEC15F001C050
:1037100009F002C00AF003C00BF012000F013A9545
:10372000949482949296809693880F013989938A13
:103730000F01398B93800F013991819012000201A2
:10374000726F3F0EC716000EC66E000EC56E0201E8
:103750007251C61202017151C712C68A1200000EC0
:10376000056E020E03180410D8B401C005F003045E
:103770000410D8A402D00250056E05501200C650A5
:103780000F0B080AD8B404D0C6500F0B0B0AD8B4DC
:10379000C586C7A0FED7C9501200C6500F0B080A35
:1037A000D8B404D0C6500F0B0B0AD8B4C586C7A036
:1037B000FED7C9501200056E015005C003F0046A1F
:1037C00003C004F0036A0310016E0450026E12007D
:1037D000E5EC1AF01C0E0201726F100E0201736FFD
:1037E000CBEC1AF0FFD7F1949F8A9D8A9E9AF288BB
:1037F000F18CF19EF28CF28E1200026E02C001F08A
:103800007C0E0116C250830B0110C26E120071C2F1
:1038100073F272C274F274C2D7FF73C2D6FF120081
:1038200001C003F002C004F004C0D7FF03C0D6FFFC
:1038300012000201716F9EA8FED771C2ADFF120087
:10384000C450036EC350016E03C002F01200016E3B
:103850009EA8FED701C0ADFF1200C2A202D0010E89
:103860001200000E1200D388D38AD38C1200D59E8A
:0C387000F29A120000004002C282120016
:020000040030CA
:0E000000FF331F3CFFBF85FF0FC00FE00F4016
:00000001FF
