:0400000054EF00F0C9
:100008005F82FACF40F0FBCF41F0E9CF42F0EACF70
:1000180043F0E1CF44F0E2CF45F0D9CF46F0DACF54
:1000280047F0F3CF48F0F4CF49F0F6CF4AF0F7CFD6
:100038004BF0F8CF4CF0F5CF4DF0F2B4F1A402D06C
:1000480090EC16F09EBA9DAA03D066EC14F09E9A26
:10005800F2A208D0300E036E010E046E530E99EC16
:100068000EF0F2924DC0F5FF4CC0F8FF4BC0F7FF01
:100078004AC0F6FF49C0F4FF48C0F3FF47C0DAFFA3
:1000880046C0D9FF45C0E2FF44C0E1FF43C0EAFFD4
:1000980042C0E9FF41C0FBFF40C0FAFF5F92110078
:0400A800E8EF13F07A
:101000000000000000803FF0FFBEE2A93E8376BEF4
:10101000AE2B3E3CC3BDD2133D78D3BB536D617242
:10102000742053686972742076312E300000000EEF
:101030000001AE6FA00E0001AF6F400E0001B06F57
:10104000330E0001AB6F530E0001AC6F400E000178
:10105000AD6FF00E0001B16F3F0E0001B26F400E98
:101060000001B36FC00E0001B46F8F0E0001B56FA9
:10107000450E0001B66F900E0001B76F8E0E000195
:10108000B86F450E0001B96F000E0001C06F4D0E24
:101090000001C16F440E0001C26F330E106E530E7B
:1010A000116E400E126EDEEC16F005C009F006C09F
:1010B0000AF059EC16F009C00DF00AC00EF00BC092
:1010C0000FF0C9EC10F00DC028F00EC029F00FC0D1
:1010D0002AF0000E2B6E800E2C6E440E2D6E43EC0B
:1010E00011F028C0C6F029C0C7F02AC0C8F0C6C099
:1010F00028F0C7C029F0C8C02AF0AEC02BF0AFC09E
:101100002CF0B0C02DF043EC11F028C0C6F029C07F
:10111000C7F02AC0C8F0B4C01FF0B5C020F0B6C0F8
:1011200021F0C0C01CF0C1C01DF0C2C01EF0EFEC29
:101130000CF01CC02BF01DC02CF01EC02DF0C0C048
:1011400028F0C1C029F0C2C02AF043EC11F028C039
:10115000BAF029C0BBF02AC0BCF0B1C02BF0B2C0BD
:101160002CF0B3C02DF0C6C028F0C7C029F0C8C00D
:101170002AF043EC11F028C01CF029C01DF02AC051
:101180001EF0BAC01FF0BBC020F0BCC021F0EFECD5
:101190000CF01CC0C3F01DC0C4F01EC0C5F0C3C01D
:1011A00010F0C4C011F0C5C012F0B7C00DF0B8C047
:1011B0000EF0B9C00FF0C9EC10F00DC028F00EC051
:1011C00029F00FC02AF0000E1F6E800E206E3F0E19
:1011D000216EC3C001F0C4C002F0C5C003F061ECD1
:1011E00017F001C01CF002C01DF003C01EF0EFECB0
:1011F0000CF01CC02BF01DC02CF01EC02DF043ECD9
:1012000011F028C0CFF029C0D0F02AC0D1F0CFC053
:1012100001F0D0C002F0D1C003F0DA0E046EE30E8C
:10122000056E440E066E1BEC13F0D8A055D0720E5E
:101230002B6ECF0E2C6E450E2D6ECFC028F0D0C079
:1012400029F0D1C02AF043EC11F028C039F029C0B0
:101250003AF02AC03BF0F9EC15F039C0C9F03AC0B9
:10126000CAF03BC0CBF02B0E396E750E3A6E3F0EB6
:101270003B6EF9EC15F039C02BF03AC02CF03BC0B6
:101280002DF0000E106E800E116EBF0E126EC9C0D2
:101290000DF0CAC00EF0CBC00FF0C9EC10F00DC0BD
:1012A00028F00EC029F00FC02AF043EC11F028C03E
:1012B000CCF029C0CDF02AC0CEF0CCC00DF0CDC00E
:1012C0000EF0CEC00FF0000E106E800E116EBF0E2D
:1012D000126EC9EC10F093D1CFC001F0D0C002F073
:1012E000D1C003F0A30E046EB80E056E440E066E58
:1012F0001BEC13F0D8A055D01C0E2B6EC80E2C6E14
:10130000450E2D6ECFC028F0D0C029F0D1C02AF0F4
:1013100043EC11F028C039F029C03AF02AC03BF064
:10132000F9EC15F039C0C9F03AC0CAF03BC0CBF0B7
:10133000760E396E750E3A6E3F0E3B6EF9EC15F077
:1013400039C02BF03AC02CF03BC02DF0000E106ECF
:10135000800E116EBF0E126EC9C00DF0CAC00EF025
:10136000CBC00FF0C9EC10F00DC028F00EC029F072
:101370000FC02AF043EC11F028C0CCF029C0CDF00A
:101380002AC0CEF0CCC00DF0CDC00EF0CEC00FF014
:10139000000E106E800E116EBF0E126EC9EC10F0B2
:1013A0002ED1CFC001F0D0C002F0D1C003F09A0E10
:1013B000046E960E056E440E066E1BEC13F0D8A05C
:1013C00055D0300E2B6EBF0E2C6E450E2D6ECFC03D
:1013D00028F0D0C029F0D1C02AF043EC11F028C089
:1013E00039F029C03AF02AC03BF0F9EC15F039C0C9
:1013F000C9F03AC0CAF03BC0CBF0C80E396E750ECA
:101400003A6E3F0E3B6EF9EC15F039C02BF03AC046
:101410002CF03BC02DF0000E106E800E116EBF0E32
:10142000126EC9C00DF0CAC00EF0CBC00FF0C9ECEF
:1014300010F00DC028F00EC029F00FC02AF043ECC8
:1014400011F028C0CCF029C0CDF02AC0CEF0CCC01D
:101450000DF0CDC00EF0CEC00FF0000E106E800E5D
:10146000116EBF0E126EC9EC10F0C9D0CFC001F0E2
:10147000D0C002F0D1C003F0060E046E770E056EE8
:10148000440E066E1BEC13F0D8A055D0190E2B6E2F
:10149000B70E2C6E450E2D6ECFC028F0D0C029F0AF
:1014A000D1C02AF043EC11F028C039F029C03AF03D
:1014B0002AC03BF0F9EC15F039C0C9F03AC0CAF0C7
:1014C0003BC0CBF00C0E396E760E3A6E3F0E3B6E83
:1014D000F9EC15F039C02BF03AC02CF03BC02DF0E0
:1014E000000E106E800E116EBF0E126EC9C00DF090
:1014F000CAC00EF0CBC00FF0C9EC10F00DC028F040
:101500000EC029F00FC02AF043EC11F028C0CCF037
:1015100029C0CDF02AC0CEF0CCC00DF0CDC00EF069
:10152000CEC00FF0000E106E800E116EBF0E126E48
:10153000C9EC10F064D0CFC001F0D0C002F0D1C02F
:1015400003F0ED0E046E4A0E056E440E066E1BECA3
:1015500013F0D8A05AD0400E2B6EAE0E2C6E450E56
:101560002D6ECFC028F0D0C029F0D1C02AF043ECB6
:1015700011F028C039F029C03AF02AC03BF0F9EC4C
:1015800015F039C0C9F03AC0CAF03BC0CBF0510EDB
:10159000396E760E3A6E3F0E3B6EF9EC15F039C09F
:1015A0002BF03AC02CF03BC02DF0000E106E800ED8
:1015B000116EBF0E126EC9C00DF0CAC00EF0CBC0C6
:1015C0000FF0C9EC10F00DC028F00EC029F00FC0CC
:1015D0002AF043EC11F028C0CCF029C0CDF02AC08D
:1015E000CEF0CCC00DF0CDC00EF0CEC00FF0000E8E
:1015F000106E800E116EBF0E126EC9EC10F00DC091
:10160000BDF00EC0BEF00FC0BFF0BDC089F0BEC0BF
:101610008AF0BFC08BF01200000E0101D56F000EE2
:10162000D46F000E0101D26F000E0101D36F21EEC5
:10163000E4F011EEC8F0090EDBCFE3FFE806FCE2B0
:10164000000E0101DB6F000EDA6F000E0101DC6F8E
:10165000000E0101E16F000E0101E36F000EE26F69
:10166000000E0101D76F000ED66F000E0101D96F79
:10167000000EE8CF9BFA000E0101E36F010EE26F4E
:10168000E80E0101E25D030E0101E359D8B048D034
:101690009B0E0101E225D96E0A0E0101E321DA6EEB
:1016A000E2C12BF0E3C12CF0D8902B362C36020E81
:1016B0002B26000E2C22CB0E2B24E16E020E2C20AA
:1016C000E26EE6CF2DF0E5CF2EF0FE0E2F6EFF0E70
:1016D000306EE2C131F0E3C132F0D89031363236AB
:1016E0002F50312630503222CB0E3124E16E020EC3
:1016F0003220E26EE6CF33F0E5CF34F0331E341EF5
:10170000334A342A2D503324016E2E503420026E79
:1017100027EC17F00150DF6E0101E24BE32BB0D74D
:10172000000E0101E36F000EE26F0101E35113E1CE
:101730001F0E0101E25DD8B00ED09B0E0101E22523
:10174000D96E0A0E0101E321DA6E000EDF6E01018F
:10175000E24BE32BEAD7000E0101DE6F000EDD6FD6
:101760000101DEBF08D0E80E0101DD5D030E0101BD
:10177000DE59D8B023D09B0E0101DD25D96E0A0EAB
:101780000101DE21DA6EDF502B6E2B500101D65D98
:10179000000ED759D8B00ED09B0E0101DD25D96EB1
:1017A0000A0E0101DE21DA6EDF502B6E2B50010193
:1017B000D66FD76B0101DD4BDE2BD2D7330E106E07
:1017C000330E116E3F0E126ED6C109F0D7C10AF06A
:1017D00073EC17F009C00DF00AC00EF00BC00FF04B
:1017E000C9EC10F00DC01CF00EC01DF00FC01EF0B3
:1017F0004FEC10F01CC0EEF11DC0EFF1000E010126
:10180000E06F000EDF6F0101E0BF08D0E90E0101BB
:10181000DF5D030E0101E059D8B09ED09B0E01019F
:10182000DF25D96E0A0E0101E021DA6EDF502B6E42
:101830002B500101EE5D000EEF59D8B079D00101B7
:10184000D9510101D8A474D09B0E0101DF25D96EB6
:101850000A0E0101E021DA6EDF502B6E2C6A0101C5
:10186000E151020D140EF326000EF422000EF324B3
:10187000D96E010EF420DA6E2BC0DEFF2CC0DDFF26
:101880000101E151020D280EF326000EF422000E94
:10189000F324D96E010EF420DA6EDFC1DEFFE0C161
:1018A000DDFF0101E1510101D8B43DD00101E15159
:1018B000020D280EF326000EF422000EF324D96E3A
:1018C000010EF420DA6EDECF2BF0DDCF2CF001011B
:1018D000E1512D6E2E6AD8902D362E36260E2D26ED
:1018E000000E2E22000E2D24D96E010E2E20DA6E4F
:1018F000DECF2FF0DDCF30F02F1E301E2F4A302AE2
:101900002B502F262C5030220101DC51020DC80E25
:10191000F324D96E010EF420DA6E2FC0DEFF30C042
:10192000DDFF0101DC2B0101E12B010E0101D96F6B
:101930000101D905D8A40CD01E0E0101D36506D033
:10194000000E0101D96F000E0101D36F0101D32BED
:101950000101DF4BE02B57D7000E0101D86F19D0E2
:101960000101D851020DC80EF324D96E010EF420E6
:10197000DA6EDECF2BF0DDCF2CF00101DA512B2413
:101980000101DA6F0101DB512C200101DB6F010144
:10199000D82B0101DC510101D85DD8A0E1D7DAC113
:1019A00001F0DBC102F0DCC103F0046AA6EC13F025
:1019B00001C0DAF102C0DBF13A0E026E980E016E40
:1019C000DAC103F0DBC104F0D0EC15F001C0D4F1B2
:1019D00002C0D5F1D4C1D2F10101D45112001EC010
:1019E00022F0236A246A1D34223601E32380225028
:1019F000276E21C022F0236A246A2034223601E3B4
:101A000023802250266E2750D8B40BD02650275C56
:101A1000D8B00ED0275000082624226E180E22645B
:101A200007D01FC01CF020C01DF021C01EF0120006
:101A30002650D8B40BD02750265CD8B00ED02650F4
:101A400000082724226E180E226407D01CC01CF048
:101A50001DC01DF01EC01EF01200060E256E1EBE1B
:101A6000258E21BE258C1D8EFF0E1C16FF0E1D1609
:101A7000000E1E16208EFF0E1F16FF0E2016000EE3
:101A800021162650275CD8B01BD0D8901F362036A0
:101A90002136260627502618D8B40DD0250625C095
:101AA00022F0070E2216D8B406D0EFD7D8901E32F7
:101AB0001D321C32272A26502718D8B41FD0F6D73B
:101AC0002750265CD8B01AD0D8901C361D361E364A
:101AD000270627502618D8B40DD0250625C022F099
:101AE000070E2216D8B406D0EFD7D8902132203274
:101AF0001F32262A26502718D8A4F7D725AE0CD097
:101B0000FF0E1C1AFF0E1D1AFF0E1E1A010E1C26B8
:101B1000000E1D22000E1E2225AC0CD0FF0E1F1A37
:101B2000FF0E201AFF0E211A010E1F26000E202282
:101B3000000E2122000E256E1C501F261D50202253
:101B40001E50212221AE0ED0FF0E1F1AFF0E201AAA
:101B5000FF0E211A010E1F26000E2022000E212248
:101B6000010E256E1FC001F020C002F021C003F05D
:101B700027C004F025C005F07CEC12F001C01CF079
:101B800002C01DF003C01EF012000201C16F000E62
:101B90000201C06FC580C5B0FED70201C151C12589
:101BA0000201C16FC9CFC0F20201C151FE0B29EC85
:101BB00014F00201C36F0201C329D8A403D0C9CF16
:101BC000C0F2C69E0201C3510201D8A4EDD7000E97
:101BD0000201C36FC7A404D00201B96BB92B02D0B4
:101BE0000201B96BC5501F0B0201B9110009D8A43D
:101BF000F1D70001D45129EC14F00201C36F0201A6
:101C0000C329D8A403D0C9CFC0F2C69E0201C351D4
:101C10000201D8A4EED7000E0201C36FC7A404D0FE
:101C20000201B96BB92B02D00201B96BC5501F0B71
:101C30000201B9110009D8A4F1D7C582C5B2FED7F7
:101C4000C9CFC0F20201C151010929EC14F002010F
:101C5000C36F0201C329D8A403D0C9CFC0F2C69E66
:101C60000201C3510201D8A4EDD7000E0201C36FD7
:101C7000C7A404D00201B96BB92B02D00201B96B21
:101C8000C5501F0B0201B9110009D8A4F1D7000EED
:101C90000201C26F000E0201C26F41D00201C251A7
:101CA000010D720EF324D96E000EF420DA6EA4EC4E
:101CB00017F0DF6EFF0E0201B96FFF0E0201BA6F5F
:101CC0000001D5510201BB6FBC6B0201B951020189
:101CD000BB270201BA510201BC230201C251020119
:101CE000BD6FBE6B0201BB510201BD5D0201BE5161
:101CF000800A0201BF6F0201BC51800A0201BF5974
:101D0000D8B005D0C59AC588C5A807D0FDD7C58A63
:101D1000C588C5B8FED7C5B8FED70201C22B0001E1
:101D2000D5510201C25DD8A0B9D7C584C5A412009F
:101D3000FDD70C6E000E0D6EC580C5B0FED70C50E1
:101D40000C240C6EC9CF0DF00C50FE0BA1EC14F05E
:101D50000F6E0F28D8A403D0C9CF0DF0C69E0F5028
:101D6000D8A4F2D7000E0F6EC7A403D0056A052AC7
:101D700001D0056AC5501F0B05100009D8A4F4D77F
:101D80000350A1EC14F00F6E0F28D8A403D0C9CFD4
:101D90000DF0C69E0F50D8A4F3D7000E0F6EC7A447
:101DA00003D0056A052A01D0056AC5501F0B05102E
:101DB0000009D8A4F4D7C582C5B2FED7C9CF0DF0AB
:101DC0000C500109A1EC14F00F6E0F28D8A403D019
:101DD000C9CF0DF0C69E0F50D8A4F2D7000E0F6EDB
:101DE000C7A403D0056A052A01D0056AC5501F0B98
:101DF00005100009D8A4F4D7000E0E6E000E0E6E6A
:101E00002FD00E50010D720EF324D96E000EF42067
:101E1000DA6EB2EC17F0DF6EFF0E056EFF0E066E87
:101E20000450076E086A05500726065008220E5017
:101E3000096E0A6A0750095C0A50800A0B6E085046
:101E4000800A0B58D8B005D0C59AC588C5A807D058
:101E5000FDD7C58AC588C5B8FED7C5B8FED70E2A36
:101E600004500E5CD8A0CDD7C584C5A41200FDD700
:101E700036AE0CD0000E00019F6F210E9E6F000E3B
:101E8000346E000E356E000E366E12003450351072
:101E90003610D8A40CD0000E00019F6F220E9E6F4A
:101EA000000E346E000E356E000E366E1200000EFF
:101EB000106E000E116E400E126E370E046E000E84
:101EC000056E34C001F035C002F036C003F0D3EC2B
:101ED00012F001C00DF002C00EF003C00FF0C9EC0B
:101EE00010F00DC01CF00EC01DF00FC01EF0000E53
:101EF0001F6E800E206EBF0E216EEFEC0CF01CC02A
:101F000034F01DC035F01EC036F03706D8A03806B4
:101F100034C028F035C029F036C02AF0010E2B6EEF
:101F2000100E2C6E000E2E6E080E2D6EB6EC11F0FB
:101F300028C034F029C035F02AC036F0720E106E79
:101F4000310E116E3F0E126E37C009F038C00AF024
:101F500059EC16F009C00DF00AC00EF00BC00FF0DE
:101F6000C9EC10F00DC01CF00EC01DF00FC01EF02B
:101F700034C01FF035C020F036C021F0EFEC0CF07B
:101F80001CC034F01DC035F01EC036F01200020136
:101F9000BB6F000E0201BA6FC580C5B0FED702014B
:101FA000BB51BB250201BB6FC9CFBAF20201BB51C5
:101FB000FE0B29EC14F00201BC6F0201BC29D8A46D
:101FC00003D0C9CFBAF2C69E0201BC510201D8A407
:101FD000EDD7000E0201BC6FC7A404D00201B96B9B
:101FE000B92B02D00201B96BC5501F0B0201B91108
:101FF0000009D8A4F1D70001D45129EC14F0020152
:10200000BC6F0201BC29D8A403D0C9CFBAF2C69EC6
:102010000201BC510201D8A4EED7000E0201BC6F30
:10202000C7A404D00201B96BB92B02D00201B96B6D
:10203000C5501F0B0201B9110009D8A4F1D7C9CFAF
:10204000BAF20001D55129EC14F00201BC6F020173
:10205000BC29D8A403D0C9CFBAF2C69E0201BC5194
:102060000201D8A4EED7000E0201BC6FC7A404D0B1
:102070000201B96BB92B02D00201B96BC5501F0B1D
:102080000201B9110009D8A4F1D7C58AC588C5B81D
:10209000FED7C5B8FED7C584C5A41200FDD71EC0A3
:1020A00020F0216A226A1D34203601E3218020506D
:1020B0002A6E2A50D8A409D0000E1C6E000E1D6E88
:1020C000000E1E6E000E1F6E1200170E206E1CC03A
:1020D00021F01DC022F01EC023F02028246E04D061
:1020E000D890233222322132242EFAD72150256E65
:1020F0001D8EFF0E1C16FF0E1D16000E1E161C5008
:10210000266E1D50276E1E50286E296A8E0E2A5E7E
:102110002AAE16D02A50800A8F0FD8B009D0000EF0
:102120001C6E000E1D6E000E1E6E000E1F6E120045
:10213000D89029322832273226322A3EF9D715D0B4
:10214000170E2A640FD0000E1C6E000E1D6E000EBE
:102150001E6E000E1F6E1200D890263627362836C7
:1021600029362A062A50D8A4F7D72550D8B408D043
:10217000291E281E271E266C000E2722282229220F
:1021800026C01CF027C01DF028C01EF029C01FF07B
:1021900012000FC013F0146A156A0E34133601E3EF
:1021A00014801350166E1650D8A407D0000E0D6E72
:1021B000000E0E6E000E0F6E120012C013F0146AA5
:1021C000156A1134133601E3148013501B6E1B5033
:1021D000D8A407D0000E0D6E000E0E6E000E0F6E0E
:1021E00012001B507B0F16260FC01BF012501B1A3B
:1021F000800E1B160E8E118EFF0E1016FF0E11167E
:10220000000E1216000E176E000E186E000E196EDC
:10221000070E1A6E0DA006D0105017261150182266
:1022200012501922D8900F320E320D32D89010363B
:10223000113612361A2EEED7090E1A6E0DA006D0E0
:10224000105017261150182212501922D8900F3210
:102250000E320D32D8901932183217321A2EEED7AC
:1022600017C001F018C002F019C003F016C004F046
:102270001BC005F07CEC12F001C00DF002C00EF0A6
:1022800003C00FF012002AC02EF02F6A306A2934E2
:102290002E3601E32F802E50356E3550D8A407D04E
:1022A000000E286E000E296E000E2A6E12002DC040
:1022B0002EF02F6A306A2C342E3601E32F802E50F8
:1022C000366E3650D8A407D0000E286E000E296E48
:1022D000000E2A6E1200000E326E000E336E000EDB
:1022E000346E3650890F355E2AC036F02D50361ABE
:1022F000800E3616298EFF0E2816FF0E2916000EA8
:102300002A162C8EFF0E2B16FF0E2C16000E2D16E5
:10231000180E316ED8903236333634362B50285C56
:102320002C5029582D502A58D8A007D02B50285E61
:102330002C50295A2D502A5A3280D89028362936C6
:102340002A36312EE7D732C001F033C002F034C054
:1023500003F035C004F036C005F07CEC12F001C08B
:1023600028F002C029F003C02AF012002DC001F0AD
:102370002EC002F0000E046E030E036E4EEC17F03A
:102380002BC02FF02CC030F001502F2602503022ED
:102390002FC0F6FF30C0F7FF0900F5CF31F009007C
:1023A000F5CF32F00A00F5CF33F03ED031C010F057
:1023B00032C011F033C012F028C00DF029C00EF069
:1023C0002AC00FF0C9EC10F00DC01CF00EC01DF0BB
:1023D0000FC01EF0000E046E030E036E2D06D8A073
:1023E0002E062DC001F02EC002F04EEC17F02BC0CF
:1023F0002FF02CC030F001502F26025030222FC079
:10240000F6FF30C0F7FF0900F5CF1FF00900F5CF48
:1024100020F00A00F5CF21F0EFEC0CF01CC031F0F9
:102420001DC032F01EC033F02D502E10D8A4BED7E0
:1024300031C028F032C029F033C02AF012002D0E2E
:102440000001D46F040E0001D56F530EC7EC0FF0DE
:10245000310E0001D46F0B0E0001D56F530EC7EC87
:102460000FF02C0E0001D46F0A0E0001D56F530E31
:10247000C7EC0FF02E0E0001D46F000E0001D56FD7
:10248000530EC7EC0FF0280E0001D46F050E0001AB
:10249000D56F530EC7EC0FF0290E0001D46F140E48
:1024A0000001D56F530EC7EC0FF02F0E0001D46F53
:1024B000000E0001D56F530EC7EC0FF02E0E000179
:1024C000D46F040E0001D56F530EC7EC0FF02D0E24
:1024D0000001D46F080E0001D56F530EC7EC0FF04A
:1024E000000E0001D46F010E0001D56F530EC5EC34
:1024F0000DF00001725112000450D8B405D0015003
:1025000002100310D8A40CD0000E016E000E026E53
:10251000000E036E1200042AD890033202320132F8
:10252000000E0114066E000E0214076EFE0E031458
:10253000086E065007100810D8B40CD0ECD7042A47
:10254000010E0126000E0222000E0322D890033253
:1025500002320132000E0114066E000E0214076EE4
:10256000FF0E0314086E065007100810D8B406D0EA
:10257000E6D70406D89001360236033602BE03D0F1
:10258000020E0460F6D704A0029ED89004320450D4
:1025900003120550D8A4038E01C001F002C002F05E
:1025A00003C003F01200015002100310D8A40FD092
:1025B00004C0D9FF05C0DAFF000EDE6E000EDD6E2E
:1025C000000E016E000E026E000E036E120003502C
:1025D0007F0B066E076AD8900636073604C0D9FF0F
:1025E00005C0DAFF06C0DEFF07C0DDFF02AE03D084
:1025F000066A062A01D0066A065004C0D9FF05C043
:10260000DAFFDE12000EDD1204C0D9FF05C0DAFFCA
:10261000820EDE26FF0EDD22038003820384038602
:102620000388038A039C029E01C001F002C002F0ED
:1026300003C003F0120003AE16D001C007F002C0C1
:1026400008F003C009F0071E081E091E072A000E25
:1026500008220922000E0724016E000E0820026ED7
:10266000800E0920036E06AE16D004C007F005C028
:1026700008F006C009F0071E081E091E072A000EF2
:1026800008220922000E0724046E000E0820056EA1
:10269000800E0920066E000E011A000E021A800E2E
:1026A000031A000E041A000E051A800E061A0450B2
:1026B000015C0550025806500358D8B002D0D8909B
:1026C0001200D8801200C5EC16F01C0E0001D36F6A
:1026D000100E0001D46FABEC16F00001A305D8A4D6
:1026E000FCD7000E0201CA6F0ED00201CA51010DC3
:1026F000000EF324D96E020EF420DA6EDF50E7EC00
:1027000017F00201CA2B0201CA510201C56FC66B44
:102710000001A6510201C76FC86B030E0201C72753
:10272000000EC8230201C5510201C75D0201C85154
:10273000800A0201C96F0201C651800A0201C9590B
:10274000D8B0D3D7000E0001A36FC7D7000E066E16
:1027500004AE06D0036C041ED8B0042A010E066E27
:1027600002AE06D0016C021ED8B0022A010E061A73
:10277000000E086E000E076E03500410D8B41CD073
:10278000010E056E04D0D89003360436052A04AE37
:10279000FAD7D890073608360350015C0450025827
:1027A000D8A005D00350015E0450025A0780D8908B
:1027B00004320332052EEDD70650D8B404D0076C8E
:1027C000081ED8B0082A07C001F008C002F01200A5
:1027D00002EECBF01BEEB8F0EE6AE550E150FCE102
:1027E000E250FAE102EE00F0B90EEE6AE806FDE111
:1027F00001EEE4F00F0EEE6AE806FDE100EE60F097
:102800004B0EEE6AE806FDE100EE4EF0100EEE6AA9
:10281000E806FDE14C0EF66E300EF76E000EF86E17
:102820000900F5CFD6F00900F5CFD7F00900F5CFB4
:10283000D8F04F0EF66E300EF76E000EF86E0900EF
:10284000F5CF5EF05F905F92000EF86E000163EFCF
:1028500013F00001D36FD3C0C9FFC6AE02D0FF0E84
:102860001200C6500F0B080AD8B40FD0C6500F0B79
:102870000B0AD8B40AD0C6889EA6FED7C7A4C7B094
:1028800002D0FE0E1200000E1200C6500F0B080AF6
:10289000D8B405D0C6500F0B0B0AD8A41200C7B08D
:1028A000FED7C7A404D00001D26BD22B02D0000106
:1028B000D26BC5501F0B0001D2110009D8A4F1D76B
:1028C000C5AC02D0FE0E1200000E12005D50010DCC
:1028D000000EF324D96E020EF420DA6E95EC17F098
:1028E000DF6E5D5009EC18F0020E5D18D8A406D01A
:1028F00002C2A6F00001A65109EC18F00001A65191
:10290000036E046A030E0326000E04225D50056E5A
:10291000066A0350055C0650800A076E0450800A60
:102920000758D8A00CD0FB0E09EC18F0000E5D6E15
:102930000001984B992B010E0001A36F12005D2A34
:102940001200026E02C0C9FFC6AE02D0FF0E120016
:10295000C6500F0B080AD8B40FD0C6500F0B0B0A85
:10296000D8B40AD0C6889EA6FED7C7A4C7B002D0E6
:10297000FE0E1200000E1200C6500F0B080AD8B44B
:1029800005D0C6500F0B0B0AD8A41200C7B0FED753
:10299000C7A403D0016A012A01D0016AC5501F0BE8
:1029A00001100009D8A4F4D7C5AC02D0FE0E120065
:1029B000000E1200000E356EF7EC16F005C036F072
:1029C00006C037F0D8900101F035D96E0101F1351C
:1029D000DA6ECB0ED926020EDA2236C0DEFF37C001
:1029E000DDFFE80E0101F05D030E0101F159D8A0F1
:1029F0000DD00CEC0BF05B6E5B50D8A45BC0F2F119
:102A0000000E0101F16F000EF06F03D00101F04BD9
:102A1000F12B5E50020F5E6E12000201B96F000EC4
:102A2000C26E000EC16E000EC06E0001D2517C0B52
:102A3000C26ED3C0C1FFB9C2D4F00001D890D43760
:102A40000001D890D437380E0001D417B9C2D5F0A0
:102A50000001D53B0F0ED517070E0001D517020157
:102A6000B951800B0001D5110001D411C06E0001D5
:102A7000D2AF03D09E9C9D8CF28CC28012000001CC
:102A8000D46F000EAC6E000EAB6E0001D4B1AC88FA
:102A90000001D4A302D0AC8CAB8C0001D4B5AC8EB9
:102AA0000001D4A702D0AB8801D0AB8A0001D4B911
:102AB000AC840001D4BBAB860001D4AD02D09D8AAA
:102AC00001D09D9A0001D4AF02D09D8801D09D987D
:102AD000D2C0AFFF0001D351B06EAC8AAB8E1200F2
:102AE0000201BA6F11D0970E0001A86F850E000188
:102AF000936FED0E07D0D70E0001A86F000E0001F6
:102B0000936FE50E926F08D00201BA51010AD8B452
:102B1000EAD7030AD8B4EFD70201BA510201D8A408
:102B200003D021EC18F012000001A8513BEC17F083
:102B300092C0D2F093C0D3F0DEEC17F0F294120002
:102B40000001944B952B0001904B912BE80E000156
:102B5000945D030E00019559D8A009D017EC08F038
:102B60000001A72B000E0001956F000E946F040E5C
:102B70000001901900019111D8A407D0DAEC14F0EB
:102B8000000E0001916F000E906F3C0E0001A7191E
:102B9000D8A412000001A52B000E0001A76F12009F
:102BA000000E066E000E056E03500410D8B41CD043
:102BB000010E076E04D0D89003360436072A04AEFF
:102BC000FAD7D890053606360350015C04500258F7
:102BD000D8A005D00350015E0450025A0580D89059
:102BE00004320332072EEDD705C001F006C002F013
:102BF000120039C034F03AC035F03BC036F038EC42
:102C00000FF034C03CF035C03DF036C03EF03CC063
:102C10000DF03DC00EF03EC00FF05C0E106EDE0EEB
:102C2000116E3E0E126EC9EC10F00DC039F00EC0E0
:102C30003AF00FC03BF012000F013A970F013A999A
:102C400094869488C69A000E0001D26F080E85EC17
:102C500017F0130EC86EC7A404D00001D46BD42B98
:102C600002D00001D46BC5501F0B0001D411000924
:102C7000D8B41200F0D7000E0201BB6F000E0201A3
:102C8000BA6F000EB96F5C0E0201BB6F000E02013D
:102C9000BA6F330EB96F4F0EAB16AC9ACF0E9D16AE
:102CA000B9C2D2F0BAC2D3F00201BB513FEC15F069
:102CB0001200000E0C6E0AAE06D0096C0A1ED8B0C7
:102CC0000A2A010E0C6E09C001F00AC002F0036A64
:102CD0008E0E046E0CC005F07CEC12F001C009F001
:102CE00002C00AF003C00BF01200000E0201BA6F1E
:102CF000000E0201BB6F000E0201BC6FA10E0201AB
:102D0000BA6F270E0201BB6FFC0E0201BC6FBBC283
:102D1000D2F0BCC2D3F00201BA510DEC15F0120092
:102D2000010E0001A96F82B603D03F6A3F2A01D08D
:102D30003F6A3F463F463F4682503F18F70B3F18D9
:102D4000826EA0EC15F092C001F093C002F0F9EC95
:102D500017F0F2941200D50E0201B96F000E0201B5
:102D6000BA6F04D00201BB5102EC18F0D3C0F6FFD9
:102D7000D4C0F7FF0001D34BD42B0800F5CFBBF232
:102D80000201BB51D8B41200EDD71DEC18F010ECC5
:102D900017F03BEC16F0000E0201B96F020E70EC5A
:102DA00015F0C0EC17F075EC16F01CEC16F01FECEB
:102DB00012F00201C46FF28CF28E1200000E086E47
:102DC000000E076EB70ED4EC17F024EC18F017ECD9
:102DD00018F00009D8A4FBD710EC18F001C007F0D8
:102DE00002C008F007C005F008C006F01200000E8F
:102DF000086E000E076EAF0ED4EC17F024EC18F03E
:102E000017EC18F00009D8A4FBD710EC18F001C09B
:102E100007F002C008F007C005F008C006F0120075
:102E20000F013A9D0F013A9F949C948E0F013A95A1
:102E3000949482949296809693880F013989938A0C
:102E40000F01398B93800F0139918190120002AEEE
:102E50000DD001C003F002C004F0031E041E034A9B
:102E6000042A03C001F004C002F0120001C001F006
:102E700002C002F012000001D26F0001D2517F0B9C
:102E8000D56E000ED76E000ED66EF2940001D2AF52
:102E900002D0F28A01D0F29AD58E120001500302BC
:102EA000F3CF05F0F4CF06F001500402F3500626EC
:102EB00002500302F350062605C001F006C002F0DE
:102EC0001200015002100310D8B406D0000E011AEF
:102ED000000E021A800E031A01C001F002C002F0B7
:102EE00003C003F0120009C001F00AC002F0036A37
:102EF0008E0E046E000E056E7CEC12F001C009F01F
:102F000002C00AF003C00BF012000001D36F3F0EA5
:102F1000C716000EC66E000EC56E0001D351C61254
:102F20000001D251C712C68A1200F20E5C16ABAC79
:102F300003D05C90ABB05C80ABB45C84ABB25C861D
:102F4000AECF01F001501200C6500F0B080AD8B4E2
:102F500004D0C6500F0B0B0AD8B4C586C7A0FED745
:102F6000C9501200C6500F0B080AD8B404D0C6507E
:102F70000F0B0B0AD8B4C586C7A0FED7C9501200E4
:102F8000F1849F8A9D8A9E9AF288F18CF19EF28C40
:102F9000F28E12000001D26FACAC03D0AC905CB2E8
:102FA000AC80D2C0ADFF1200026E02C001F07C0EF8
:102FB0000116C250830B0110C26E1200D2C0D4F0B1
:102FC000D3C0D5F0D5C0D7FFD4C0D6FF12000001C2
:102FD000D36FACA2FED70001D351CAEC17F0120098
:102FE000016EACAC03D0AC905CB2AC8001C0ADFF64
:102FF000120001C003F002C004F004C0D7FF03C0F8
:10300000D6FF12000001D26F9EA8FED7D2C0ADFF3E
:103010001200026EACA2FED70250F0EC17F01200C4
:10302000C450036EC350016E03C002F01200C2A26E
:1030300002D0010E1200000E1200D388D38AD38C66
:103040001200D59EF29A1200C282120000004002C5
:020000040030CA
:0E000000FF331F3CFFBF85FF0FC00FE00F4016
:00000001FF
