:0400000054EF00F0C9
:100008005F82FACFAEF0FBCFAFF0E9CFB0F0EACF26
:10001800B1F0E1CFB2F0E2CFB3F0D9CFB4F0DACF9C
:10002800B5F0F3CFB6F0F4CFB7F0F6CFB8F0F7CF1E
:10003800B9F0F8CFBAF0F5CFBBF0F2B4F1A402D022
:10004800D8EC31F09EBA9DAA03D0A7EC2DF09E9A69
:10005800F2A208D0300E036E010E046E530EE2ECCD
:1000680023F0F292BBC0F5FFBAC0F8FFB9C0F7FFA2
:10007800B8C0F6FFB7C0F4FFB6C0F3FFB5C0DAFFEB
:10008800B4C0D9FFB3C0E2FFB2C0E1FFB1C0EAFF1C
:10009800B0C0E9FFAFC0FBFFAEC0FAFF5F9211002E
:0400A80066EF2DF0E2
:1010000000010000000A00000064000000E8030086
:101010000010270000A086010040420F0080969833
:101020000000E1F50500CA9A3B00803FCDCC3DD7DA
:10103000233C12833AB7D138C62737388635C0D615
:1010400033CC2B32708930E7DB2EE53C1E42A20DFB
:1010500000803F00204100C842007A44401C4650B6
:10106000C34724744997184BBCBE4C6B6E4E031596
:101070005079AD60F3497100000000803FF0FFBE81
:10108000E2A93E8376BEAE2B3E3CC3BDD2133D7873
:10109000D3BB0A092054656D703A20256609464382
:1010A0003A25640920506F733A2025642000536D5F
:1010B0006172742053686972742076312E3000009A
:1010C000D00E0201D96F020E0201DA6FE7D3250EAE
:1010D0000201EC19D8B405D00201EC51D3EC33F085
:1010E000DDD3000E0201DC6F000EDB6F03D00201C6
:1010F000DC8518D0CEC2F6FFCFC2F7FF0201CE4B7F
:10110000CF2B0800F5CFECF20201EC51000AD8B465
:101110001200640AD8B406D0020AD8B4E8D70F0A7D
:10112000D8A4BCD3070E0201DC15D8B404D3000E3A
:101130000201DE6F060EDD6FD9C2D9FFDAC2DAFF17
:10114000DECFE9F2DECFEAF2DDCFEBF2030E0201F1
:10115000D927000EDA230201EBAF11D0E9C28FF2DA
:10116000EAC290F2EBC291F2B2EC32F08FC2E9F235
:1011700090C2EAF291C2EBF2030E0201DB13000E01
:101180000201E46F000EE36F0201E9510201EA116E
:101190000201EB11D8B49BD0820E0201D06FFF0E7A
:1011A0000201D16FE9C2D2F2EAC2D3F2EBC2D4F2A9
:1011B000ECC2D5F2100E06D00201D890D533D4334C
:1011C000D333D233E82EF8D70201D2510201D02511
:1011D0000201E36F000E0201D1210201E46F02015E
:1011E000E307D8A0E407E3C29DF2E4C29EF2000E3A
:1011F0000201A06F030E9F6F31EC32F09DC2E3F24B
:101200009EC2E4F2E3C295F2E4C296F2000E02013D
:10121000986F0A0E976FAFEC29F095C2E3F296C271
:10122000E4F20201E4AF04D00201E307D8A0E4072E
:101230000201E35100085AEC13F0B2C2E5F2B3C266
:10124000E6F2B4C2E7F2E5C2A3F2E6C2A4F2E7C254
:10125000A5F2E9C2A6F2EAC2A7F2EBC2A8F2F1EC4B
:1012600021F0A3C2E5F2A4C2E6F2A5C2E7F2E5C20C
:101270008FF2E6C290F2E7C291F2000E0201926F85
:10128000800E0201936F3F0E0201946F4BEC29F028
:101290000201D8B005D00201E307D8A0E40717D0B7
:1012A000E5C28FF2E6C290F2E7C291F2000E0201AF
:1012B000926F200E0201936F410E0201946F4BEC6E
:1012C00029F00201D8A003D00201E34BE42B020174
:1012D000DEBF08D00201DE511DE10D0E0201DD5D11
:1012E000D8B018D0E9C2BCF2EAC2BDF2EBC2BEF27D
:1012F0000201DD5107EC1BF0B2C2BFF2B3C2C0F273
:10130000B4C2C1F25DEC1CF0BCC2E9F2BDC2EAF2AB
:10131000BEC2EBF20201E4BF08D00201E4512AE1AF
:101320000A0E0201E35DD8B025D00201E9510201A5
:10133000EA110201EB11D8B463D0E9C2B9F2EAC2F2
:10134000BAF2EBC2BBF2A0EC22F00201B9510201E9
:10135000BA110201BB110201BC11D8A451D0020183
:10136000E4BF4ED00201E45105E1020E0201E35D4B
:10137000D8A046D0E5C28FF2E6C290F2E7C291F261
:10138000700E0201926F890E0201936F400E0201EE
:10139000946F4BEC29F00201D8B003D00201F70E94
:1013A00002D00201F80EE327FF0EE4230201E3510D
:1013B0005AEC13F0B2C2E5F2B3C2E6F2B4C2E7F2FD
:1013C000E9C28FF2EAC290F2EBC291F2E5C292F268
:1013D000E6C293F2E7C294F25EEC20F08FC2DFF235
:1013E00090C2E0F291C2E1F292C2E2F2000E02017A
:1013F000E96F000E0201EA6F000E0201EB6F33D0BD
:10140000E9C2B9F2EAC2BAF2EBC2BBF2A0EC22F036
:10141000B9C2DFF2BAC2E0F2BBC2E1F2BCC2E2F290
:10142000E9C2C8F2EAC2C9F2EBC2CAF2DFC297F25D
:10143000E0C298F2E1C299F2E2C29AF26AEC2EF0AE
:1014400097C2CBF298C2CCF299C2CDF24AEC31F0FD
:10145000C8C2E9F2C9C2EAF2CAC2EBF2000E020146
:10146000E46F000EE36F010E0201EC6F0A0E020141
:10147000EC19D8B41ED00201EC51040D010EF32476
:10148000F66E100EF420F76E0900F5500201DF5DD4
:101490000900F5500201E0590900F5500201E15937
:1014A0000900F5500201E259D8A003D00201EC2B4B
:1014B000DDD7030E0201DB150201D06F000E020121
:1014C000DC150201D16F0201D0510201D111D8B453
:1014D0004BD02D0ED3EC33F047D0DFC28FF2E0C2F9
:1014E00090F2E1C291F2E2C292F20201EC51040DDB
:1014F000010EF324F66E100EF420F76E0900F5CFFE
:1015000093F20900F5CF94F20900F5CF95F20A00A5
:10151000F5CF96F20EEC2AF08FC2E5F290C2E6F219
:1015200091C2E7F292C2E8F2E5C29CF2E6C29DF2F5
:10153000E7C29EF2E8C29FF20A0E0201A06F000EFF
:10154000A16F000EA26F000EA36F71EC2BF09CC276
:10155000E5F29DC2E6F29EC2E7F29FC2E8F2020106
:10156000E551300FD3EC33F00201EC070201EC2916
:10157000D8B408D0B2D7300ED3EC33F00201E30771
:10158000D8A0E4070201E4BF07D00201E451F3E16F
:101590000201E305D8B0EFD70201DEBF0CD0020193
:1015A000DE5105E1090E0201DD5DD8A004D0080E70
:1015B0000201EC6F02D0DDC2ECF20201EC5102013B
:1015C000DD5F000E0201ECBFFF0E0201DE5B0201D7
:1015D000EC510201D8B403D02E0ED3EC33F002014B
:1015E000EC515AEC13F0B2C2D6F2B3C2D7F2B4C285
:1015F000D8F2E9C2A6F2EAC2A7F2EBC2A8F2D6C2BA
:10160000A3F2D7C2A4F2D8C2A5F2F1EC21F0A3C292
:10161000B9F2A4C2BAF2A5C2BBF2A0EC22F0B9C2E0
:10162000DFF2BAC2E0F2BBC2E1F2BCC2E2F26ED0BB
:10163000DFC28FF2E0C290F2E1C291F2E2C292F216
:101640000201EC51040D010EF324F66E100EF4208D
:10165000F76E0900F5CF93F20900F5CF94F2090077
:10166000F5CF95F20A00F5CF96F20EEC2AF08FC274
:10167000E5F290C2E6F291C2E7F292C2E8F2E5C268
:101680009CF2E6C29DF2E7C29EF2E8C29FF20A0E09
:101690000201A06F000EA16F000EA26F000EA36FDB
:1016A00071EC2BF09CC2E5F29DC2E6F29EC2E7F21D
:1016B0009FC2E8F20201E551300FD3EC33F0DFC2F4
:1016C0009CF2E0C29DF2E1C29EF2E2C29FF20201F0
:1016D000EC51040D010EF324F66E100EF420F76E9B
:1016E0000900F5CFA0F20900F5CFA1F20900F5CF6E
:1016F000A2F20A00F5CFA3F271EC2BF09CC2DFF24C
:101700009DC2E0F29EC2E1F29FC2E2F20201EC074A
:101710000201EC29D8B408D08BD7300ED3EC33F0CB
:101720000201DD07D8A0DE070201DD510201DE1152
:10173000D8B4B4D0F2D7D9C2D9FFDAC2DAFFDECF3B
:10174000DFF2DDCFE0F20201000EE0BFFF0EE16F3D
:10175000E26F020E0201D927000EDA230201E2AF86
:101760000CD0030E0201DB130201E21FE11FE01F98
:10177000DF6D000EE023E123E223010E0201EC6F96
:101780000A0E0201EC19D8B41ED00201EC51040D6E
:10179000010EF324F66E100EF420F76E0900F550DA
:1017A0000201DF5D0900F5500201E0590900F55022
:1017B0000201E1590900F5500201E259D8A003D015
:1017C0000201EC2BDDD7030E0201DB150201D06F05
:1017D000000E0201DC150201D16F0201D05102019D
:1017E000D111D8B403D02D0ED3EC33F00201EC515B
:1017F0000201DD6FDE6BDDBFDE0745D0DDC2D0F25A
:10180000DEC2D1F20201D890D037D1370201D89090
:10181000D037D137010E0201D025F66E100ED1213E
:10182000F76E0900F5CF93F20900F5CF94F20900A5
:10183000F5CF95F20A00F5CF96F2DFC28FF2E0C243
:1018400090F2E1C291F2E2C292F20EEC2AF08FC263
:101850009CF290C29DF291C29EF292C29FF20A0E39
:101860000201A06F000EA16F000EA26F000EA36F09
:1018700071EC2BF002019C51300F0201EC6F020160
:10188000EC51D3EC33F00201DD07D8A0DE070201F2
:10189000DD29B4E10201DE29D8A4B0D7CEC2F6FF1B
:1018A000CFC2F7FF0201CE4BCF2B0800F5CFECF2F1
:1018B0000201EC51D8B412000AD4880E0001986FCE
:1018C000000E0001996FD1D3250E0001AB19D8B4D9
:1018D00005D00001AB51E8EC33F0C7D3000E000196
:1018E0009B6F000E9A6F03D000019B8518D086C0B5
:1018F000F6FF87C0F7FF0001864B872B0800F5CF66
:10190000ABF00001AB51000AD8B41200640AD8B49D
:1019100006D0020AD8B4E8D70F0AD8A4A6D3070E77
:1019200000019B15D8B4F0D2000E00019D6F060E89
:101930009C6F98C0D9FF99C0DAFFDECFA8F0DECF48
:10194000A9F0DDCFAAF0030E00019827000E99231D
:101950000001AAAF11D0A8C04CF0A9C04DF0AAC098
:101960004EF032EC33F04CC0A8F04DC0A9F04EC0A0
:10197000AAF0030E00019A13000E0001A36F000EDF
:10198000A26F0001A8510001A9110001AA11D8B449
:1019900091D0820E00018F6FFF0E0001906FA8C0E2
:1019A00091F0A9C092F0AAC093F0ABC094F0100ED1
:1019B00006D00001D8909433933392339133E82EBC
:1019C000F8D70001915100018F250001A26F000E90
:1019D000000190210001A36F0001A207D8A0A30776
:1019E000A2C00FF0A3C010F0000E126E030E116E15
:1019F0001FEC33F00FC0A2F010C0A3F0A2C007F09C
:101A0000A3C008F0000E0A6E0A0E096E24EC2DF039
:101A100007C0A2F008C0A3F00001A3AF04D00001EA
:101A2000A207D8A0A3070001A2510008B1EC15F04D
:101A300024C0A4F025C0A5F026C0A6F0A4C015F0CF
:101A4000A5C016F0A6C017F0A8C018F0A9C019F0DC
:101A5000AAC01AF065EC28F015C0A4F016C0A5F0D5
:101A600017C0A6F0A4C00DF0A5C00EF0A6C00FF0E0
:101A7000000E106E800E116E3F0E126E09EC2CF0EF
:101A8000D8B005D00001A207D8A0A30713D0A4C0E6
:101A90000DF0A5C00EF0A6C00FF0000E106E200EC7
:101AA000116E410E126E09EC2CF0D8A003D000018B
:101AB000A24BA32B00019DBF08D000019D511DE149
:101AC0000D0E00019C5DD8B018D0A8C04FF0A9C081
:101AD00050F0AAC051F000019C5191EC1DF024C0BF
:101AE00052F025C053F026C054F0B4EC1EF04FC0A5
:101AF000A8F050C0A9F051C0AAF00001A3BF08D0BF
:101B00000001A35126E10A0E0001A25DD8B021D048
:101B10000001A8510001A9110001AA11D8B45BD09D
:101B2000A8C02BF0A9C02CF0AAC02DF0EBEC27F038
:101B30002B502C102D102E10D8A44DD00001A3BF77
:101B40004AD00001A35105E1020E0001A25DD8A018
:101B500042D0A4C00DF0A5C00EF0A6C00FF0700ECC
:101B6000106E890E116E400E126E09EC2CF0D8B07A
:101B700003D00001F70E02D00001F80EA227FF0EDD
:101B8000A3230001A251B1EC15F024C0A4F025C09C
:101B9000A5F026C0A6F0A8C001F0A9C002F0AAC016
:101BA00003F0A4C004F0A5C005F0A6C006F01DEC2B
:101BB00025F001C09EF002C09FF003C0A0F004C059
:101BC000A1F0000E0001A86F000E0001A96F000E29
:101BD0000001AA6F33D0A8C02BF0A9C02CF0AAC076
:101BE0002DF0EBEC27F02BC09EF02CC09FF02DC009
:101BF000A0F02EC0A1F0A8C060F0A9C061F0AAC0FA
:101C000062F09EC009F09FC00AF0A0C00BF0A1C016
:101C10000CF0C6EC30F009C063F00AC064F00BC0F1
:101C200065F070EC31F060C0A8F061C0A9F062C04E
:101C3000AAF0000E0001A36F000EA26F010E0001BA
:101C4000AB6F0A0E0001AB19D8B41ED00001AB5126
:101C5000040D010EF324F66E100EF420F76E090049
:101C6000F55000019E5D0900F55000019F590900E3
:101C7000F5500001A0590900F5500001A159D8A064
:101C800003D00001AB2BDDD7030E00019A15000134
:101C90008F6F000E00019B150001906F00018F51A6
:101CA00000019011D8B44AD02D0EE8EC33F046D0A4
:101CB0009EC001F09FC002F0A0C003F0A1C004F0DC
:101CC0000001AB51040D010EF324F66E100EF4204A
:101CD000F76E0900F5CF05F00900F5CF06F0090011
:101CE000F5CF07F00A00F5CF08F0E8EC2DF001C0C1
:101CF000A4F002C0A5F003C0A6F004C0A7F0A4C0E1
:101D00000EF0A5C00FF0A6C010F0A7C011F00A0E8B
:101D1000126E000E136E000E146E000E156E00ECA7
:101D200030F00EC0A4F00FC0A5F010C0A6F011C096
:101D3000A7F00001A451300FE8EC33F00001AB072D
:101D40000001AB29D8B408D0B3D7300EE8EC33F09B
:101D50000001A207D8A0A3070001A3BF07D000017C
:101D6000A351F3E10001A205D8B0EFD700019DBF58
:101D70000CD000019D5105E1090E00019C5DD8A029
:101D800004D0080E0001AB6F02D09CC0ABF0000184
:101D9000AB5100019C5F000E0001ABBFFF0E0001C4
:101DA0009D5B0001AB510001D8B403D02E0EE8ECCE
:101DB00033F00001AB51B1EC15F024C095F025C013
:101DC00096F026C097F0A8C018F0A9C019F0AAC0D4
:101DD0001AF095C015F096C016F097C017F065EC94
:101DE00028F015C02BF016C02CF017C02DF0EBEC2E
:101DF00027F02BC09EF02CC09FF02DC0A0F02EC06D
:101E0000A1F06DD09EC001F09FC002F0A0C003F011
:101E1000A1C004F00001AB51040D010EF324F66ED5
:101E2000100EF420F76E0900F5CF05F00900F5CF8C
:101E300006F00900F5CF07F00A00F5CF08F0E8EC4E
:101E40002DF001C0A4F002C0A5F003C0A6F004C0AC
:101E5000A7F0A4C00EF0A5C00FF0A6C010F0A7C058
:101E600011F00A0E126E000E136E000E146E000EAC
:101E7000156E00EC30F00EC0A4F00FC0A5F010C03D
:101E8000A6F011C0A7F00001A451300FE8EC33F028
:101E90009EC00EF09FC00FF0A0C010F0A1C011F0C6
:101EA0000001AB51040D010EF324F66E100EF42068
:101EB000F76E0900F5CF12F00900F5CF13F0090015
:101EC000F5CF14F00A00F5CF15F000EC30F00EC09D
:101ED0009EF00FC09FF010C0A0F011C0A1F0000153
:101EE000AB070001AB29D8B408D08CD7300EE8EC92
:101EF00033F000019C07D8A09D0700019C51000110
:101F00009D11D8B4B2D0F2D798C0D9FF99C0DAFFEA
:101F1000DECF9EF0DDCF9FF00001000E9FBFFF0ED1
:101F2000A06FA16F020E00019827000E99230001F7
:101F3000A1AF0CD0030E00019A130001A11FA01F36
:101F40009F1F9E6D000E9F23A023A123010E000161
:101F5000AB6F0A0E0001AB19D8B41ED00001AB5113
:101F6000040D010EF324F66E100EF420F76E090036
:101F7000F55000019E5D0900F55000019F590900D0
:101F8000F5500001A0590900F5500001A159D8A051
:101F900003D00001AB2BDDD7030E00019A15000121
:101FA0008F6F000E00019B150001906F00018F5193
:101FB00000019011D8B403D02D0EE8EC33F00001ED
:101FC000AB5100019C6F9D6B9CBF9D0743D09CC093
:101FD0008FF09DC090F00001D8908F3790370001AE
:101FE000D8908F379037010E00018F25F66E100EB6
:101FF0009021F76E0900F5CF05F00900F5CF06F046
:102000000900F5CF07F00A00F5CF08F09EC001F0F7
:102010009FC002F0A0C003F0A1C004F0E8EC2DF0D6
:1020200001C00EF002C00FF003C010F004C011F0A8
:102030000A0E126E000E136E000E146E000E156E58
:1020400000EC30F00E50300F0001AB6F0001AB51CF
:10205000E8EC33F000019C07D8A09D0700019C2903
:10206000B6E100019D29D8A4B2D786C0F6FF87C08B
:10207000F7FF0001864B872B0800F5CFABF000017E
:10208000AB51D8B4120020D4000E0001766FA00E20
:102090000001776F400E0001786F330E0001736FFF
:1020A000530E0001746F400E0001756FF00E0001B9
:1020B000796F3F0E00017A6F400E00017B6FC00EFA
:1020C00000017C6F8F0E00017D6F450E00017E6F59
:1020D000900E00017F6F8E0E0001806F450E000193
:1020E000816F000E0001886F4D0E0001896F440E54
:1020F00000018A6F330E186E530E196E400E1A6E61
:1021000080EC32F005C009F006C00AF015EC32F0A0
:1021100009C015F00AC016F00BC017F065EC28F0E6
:1021200015C060F016C061F017C062F0000E00012B
:10213000636F800E0001646F440E0001656F42EC16
:1021400023F060C08EF061C08FF062C090F08EC04E
:1021500060F08FC061F090C062F076C063F077C02D
:1021600064F078C065F042EC23F060C08EF061C08E
:102170008FF062C090F07CC052F07DC053F07EC002
:1021800054F088C04FF089C050F08AC051F0B4ECD0
:102190001EF04FC063F050C064F051C065F088C0BD
:1021A00060F089C061F08AC062F042EC23F060C048
:1021B00082F061C083F062C084F079C063F07AC0BD
:1021C00064F07BC065F08EC060F08FC061F090C09D
:1021D00062F042EC23F060C04FF061C050F062C08A
:1021E00051F082C052F083C053F084C054F0B4EC7C
:1021F0001EF04FC08BF050C08CF051C08DF08BC0E2
:1022000018F08CC019F08DC01AF07FC015F080C096
:1022100016F081C017F065EC28F015C060F016C00C
:1022200061F017C062F0000E526E800E536E3F0ECA
:10223000546E8BC04CF08CC04DF08DC04EF032EC23
:1022400033F04CC04FF04DC050F04EC051F0B4ECE4
:102250001EF04FC063F050C064F051C065F042EC16
:1022600023F060C097F061C098F062C099F097C009
:102270000DF098C00EF099C00FF0DA0E106EE30E5C
:10228000116E440E126E09EC2CF0D8A05BD0720EC9
:102290000001636FCF0E0001646F450E0001656F92
:1022A00097C060F098C061F099C062F042EC23F0F2
:1022B00060C06DF061C06EF062C06FF096EC31F0FE
:1022C0006DC091F06EC092F06FC093F02B0E0001C4
:1022D0006D6F750E00016E6F3F0E00016F6F96EC13
:1022E00031F06DC063F06EC064F06FC065F0000E39
:1022F000186E800E196EBF0E1A6E91C015F092C046
:1023000016F093C017F065EC28F015C060F016C009
:1023100061F017C062F042EC23F060C094F061C03D
:1023200095F062C096F094C015F095C016F096C076
:1023300017F0000E186E800E196EBF0E1A6E65EC47
:1023400028F0ABD197C00DF098C00EF099C00FF0F7
:10235000A30E106EB80E116E440E126E09EC2CF026
:10236000D8A05BD01C0E0001636FC80E0001646F23
:10237000450E0001656F97C060F098C061F099C08C
:1023800062F042EC23F060C06DF061C06EF062C09C
:102390006FF096EC31F06DC091F06EC092F06FC0AE
:1023A00093F0760E00016D6F750E00016E6F3F0E9B
:1023B00000016F6F96EC31F06DC063F06EC064F099
:1023C0006FC065F0000E186E800E196EBF0E1A6E8B
:1023D00091C015F092C016F093C017F065EC28F08C
:1023E00015C060F016C061F017C062F042EC23F037
:1023F00060C094F061C095F062C096F094C015F092
:1024000095C016F096C017F0000E186E800E196E6B
:10241000BF0E1A6E65EC28F040D197C00DF098C041
:102420000EF099C00FF09A0E106E960E116E440EBB
:10243000126E09EC2CF0D8A05BD0300E0001636F57
:10244000BF0E0001646F450E0001656F97C060F01C
:1024500098C061F099C062F042EC23F060C06DF06A
:1024600061C06EF062C06FF096EC31F06DC091F01B
:102470006EC092F06FC093F0C80E00016D6F750EC4
:1024800000016E6F3F0E00016F6F96EC31F06DC072
:1024900063F06EC064F06FC065F0000E186E800EC1
:1024A000196EBF0E1A6E91C015F092C016F093C04F
:1024B00017F065EC28F015C060F016C061F017C089
:1024C00062F042EC23F060C094F061C095F062C00D
:1024D00096F094C015F095C016F096C017F0000E57
:1024E000186E800E196EBF0E1A6E65EC28F0D5D0EE
:1024F00097C00DF098C00EF099C00FF0060E106E48
:10250000770E116E440E126E09EC2CF0D8A05BD041
:10251000190E0001636FB70E0001646F450E0001D4
:10252000656F97C060F098C061F099C062F042ECAE
:1025300023F060C06DF061C06EF062C06FF096EC89
:1025400031F06DC091F06EC092F06FC093F00C0E40
:1025500000016D6F760E00016E6F3F0E00016F6F10
:1025600096EC31F06DC063F06EC064F06FC065F042
:10257000000E186E800E196EBF0E1A6E91C015F007
:1025800092C016F093C017F065EC28F015C060F00B
:1025900016C061F017C062F042EC23F060C094F006
:1025A00061C095F062C096F094C015F095C016F029
:1025B00096C017F0000E186E800E196EBF0E1A6EC0
:1025C00065EC28F06AD097C00DF098C00EF099C065
:1025D0000FF0ED0E106E4A0E116E440E126E09ECE5
:1025E0002CF0D8A060D0400E0001636FAE0E000149
:1025F000646F450E0001656F97C060F098C061F090
:1026000099C062F042EC23F060C06DF061C06EF0E2
:1026100062C06FF096EC31F06DC091F06EC092F038
:102620006FC093F0510E00016D6F760E00016E6F5A
:102630003F0E00016F6F96EC31F06DC063F06EC01D
:1026400064F06FC065F0000E186E800E196EBF0E3C
:102650001A6E91C015F092C016F093C017F065EC99
:1026600028F015C060F016C061F017C062F042ECAF
:1026700023F060C094F061C095F062C096F094C001
:1026800015F095C016F096C017F0000E186E800E6B
:10269000196EBF0E1A6E65EC28F015C085F016C0D5
:1026A00086F017C087F085C0D4F086C0D5F087C00B
:1026B000D6F012000201B86F0201B8AF2AD10201B0
:1026C000B86D0201B851800A120FD8A0ACD0000E2C
:1026D0000201A06F030E9F6F000E0201986F0A0E99
:1026E000976F000E0201926F640E916F0201B85154
:1026F00002018F6F906B8FBF900720EC2BF08FC281
:1027000095F290C296F2AFEC29F0090E02019525E0
:1027100002019D6F000E0201962102019E6F31ECB5
:1027200032F0290E02019D25F66E100E02019E2147
:10273000F76E0900F5CFA6F20900F5CFA7F20A005F
:10274000F5CFA8F2000E0201986F640E976F020198
:10275000B8510201956F966B95BF9607AFEC29F0C3
:10276000120E0201952502019D6F000E02019621B5
:1027700002019E6F000E0201A06F030E9F6F31ECED
:1027800032F0290E02019D25F66E100E02019E21E7
:10279000F76E0900F5CFA3F20900F5CFA4F20A0005
:1027A000F5CFA5F2F1EC21F0A3C2B5F2A4C2B6F2C6
:1027B000A5C2B7F2B5C2A3F2B6C2A4F2B7C2A5F2DF
:1027C000000E0201A06F030E9F6F000E0201926FB8
:1027D0000A0E916F0201B85102018F6F906B8FBF8B
:1027E000900720EC2BF08FC29DF290C29EF231EC4C
:1027F00032F0290E02019D25F66E100E02019E2177
:10280000F76E0900F5CFA6F20900F5CFA7F20A008E
:10281000F5CFA8F2F1EC21F0A3C2B2F2A4C2B3F258
:10282000A5C2B4F212000201B851800A750FD8A0F7
:102830005DD0000E0201986F0A0E976F0201B85129
:102840000201956F966B95BF9607AFEC29F0090EC4
:102850000201952502019D6F000E020196210201E1
:102860009E6F000E0201A06F030E9F6F31EC32F0DD
:10287000290E02019D25F66E100E02019E21F76EB3
:102880000900F5CFA3F20900F5CFA4F20A00F5CFB5
:10289000A5F2000E0201A06F030E9F6F000E020151
:1028A000926F0A0E916F0201B85102018F6F906B07
:1028B0008FBF900720EC2BF08FC29DF290C29EF24A
:1028C00031EC32F0290E02019D25F66E100E020148
:1028D0009E21F76E0900F5CFA6F20900F5CFA7F209
:1028E0000A00F5CFA8F2F1EC21F096D70201B85119
:1028F000030D290EF324F66E100EF420F76E090076
:10290000F5CFB2F20900F5CFB3F20A00F5CFB4F279
:1029100012000201B851800A120FD8A0ACD0000EEC
:102920000201A06F030E9F6F000E0201986F0A0E46
:10293000976F000E0201926F640E916F0201B85101
:1029400002018F6F906B8FBF900720EC2BF08FC22E
:1029500095F290C296F2AFEC29F0090E020195258E
:1029600002019D6F000E0201962102019E6F31EC63
:1029700032F0500E02019D25F66E100E02019E21CE
:10298000F76E0900F5CFA6F20900F5CFA7F20A000D
:10299000F5CFA8F2000E0201986F640E976F020146
:1029A000B8510201956F966B95BF9607AFEC29F071
:1029B000120E0201952502019D6F000E0201962163
:1029C00002019E6F000E0201A06F030E9F6F31EC9B
:1029D00032F0500E02019D25F66E100E02019E216E
:1029E000F76E0900F5CFA3F20900F5CFA4F20A00B3
:1029F000F5CFA5F2F1EC21F0A3C2B5F2A4C2B6F274
:102A0000A5C2B7F2B5C2A3F2B6C2A4F2B7C2A5F28C
:102A1000000E0201A06F030E9F6F000E0201926F65
:102A20000A0E916F0201B85102018F6F906B8FBF38
:102A3000900720EC2BF08FC29DF290C29EF231ECF9
:102A400032F0500E02019D25F66E100E02019E21FD
:102A5000F76E0900F5CFA6F20900F5CFA7F20A003C
:102A6000F5CFA8F2F1EC21F0A3C2B2F2A4C2B3F206
:102A7000A5C2B4F212000201B851800A750FD8A0A5
:102A80005DD0000E0201986F0A0E976F0201B851D7
:102A90000201956F966B95BF9607AFEC29F0090E72
:102AA0000201952502019D6F000E0201962102018F
:102AB0009E6F000E0201A06F030E9F6F31EC32F08B
:102AC000500E02019D25F66E100E02019E21F76E3A
:102AD0000900F5CFA3F20900F5CFA4F20A00F5CF63
:102AE000A5F2000E0201A06F030E9F6F000E0201FF
:102AF000926F0A0E916F0201B85102018F6F906BB5
:102B00008FBF900720EC2BF08FC29DF290C29EF2F7
:102B100031EC32F0500E02019D25F66E100E0201CE
:102B20009E21F76E0900F5CFA6F20900F5CFA7F2B6
:102B30000A00F5CFA8F2F1EC21F096D70201B851C6
:102B4000030D500EF324F66E100EF420F76E0900FC
:102B5000F5CFB2F20900F5CFB3F20A00F5CFB4F227
:102B600012002A6E2AAEFBD02A6C2A50800A120F5D
:102B7000D8A091D0000E126E030E116E000E0A6ED8
:102B80000A0E096E000E046E640E036E2A50016E6A
:102B9000026A01BE02065AEC2FF001C007F002C023
:102BA00008F024EC2DF0090E07240F6E000E08200B
:102BB000106E1FEC33F0290E0F24F66E100E10204D
:102BC000F76E0900F5CF18F00900F5CF19F00A00EB
:102BD000F5CF1AF0000E0A6E640E096E2A50076EC9
:102BE000086A07BE080624EC2DF0120E07240F6EAB
:102BF000000E0820106E000E126E030E116E1FECF8
:102C000033F0290E0F24F66E100E1020F76E090017
:102C1000F5CF15F00900F5CF16F00A00F5CF17F043
:102C200065EC28F015C027F016C028F017C029F071
:102C300027C015F028C016F029C017F0000E126E3C
:102C4000030E116E000E046E0A0E036E2A50016E02
:102C5000026A01BE02065AEC2FF001C00FF002C05A
:102C600010F01FEC33F0290E0F24F66E100E10201A
:102C7000F76E0900F5CF18F00900F5CF19F00A003A
:102C8000F5CF1AF065EC28F015C024F016C025F039
:102C900017C026F012002A50800A750FD8A04DD018
:102CA000000E0A6E0A0E096E2A50076E086A07BEE9
:102CB000080624EC2DF0090E07240F6E000E0820E4
:102CC000106E000E126E030E116E1FEC33F0290E03
:102CD0000F24F66E100E1020F76E0900F5CF15F0D8
:102CE0000900F5CF16F00A00F5CF17F0000E126EAE
:102CF000030E116E000E046E0A0E036E2A50016E52
:102D0000026A01BE02065AEC2FF001C00FF002C0A9
:102D100010F01FEC33F0290E0F24F66E100E102069
:102D2000F76E0900F5CF18F00900F5CF19F00A0089
:102D3000F5CF1AF065EC28F0A7D72A50030D290E1D
:102D4000F324F66E100EF420F76E0900F5CF24F090
:102D50000900F5CF25F00A00F5CF26F012002A5021
:102D6000800A120FD8A091D0000E126E030E116EC1
:102D7000000E0A6E0A0E096E000E046E640E036EDB
:102D80002A50016E026A01BE02065AEC2FF001C001
:102D900007F002C008F024EC2DF0090E07240F6E96
:102DA000000E0820106E1FEC33F0500E0F24F66E4C
:102DB000100E1020F76E0900F5CF18F00900F5CFBE
:102DC00019F00A00F5CF1AF0000E0A6E640E096EB3
:102DD0002A50076E086A07BE080624EC2DF0120E72
:102DE00007240F6E000E0820106E000E126E030EE8
:102DF000116E1FEC33F0500E0F24F66E100E1020E3
:102E0000F76E0900F5CF15F00900F5CF16F00A00AE
:102E1000F5CF17F065EC28F015C027F016C028F0A4
:102E200017C029F027C015F028C016F029C017F0E8
:102E3000000E126E030E116E000E046E0A0E036E6B
:102E40002A50016E026A01BE02065AEC2FF001C040
:102E50000FF002C010F01FEC33F0500E0F24F66E8E
:102E6000100E1020F76E0900F5CF18F00900F5CF0D
:102E700019F00A00F5CF1AF065EC28F015C024F01F
:102E800016C025F017C026F012002A50800A750FD0
:102E9000D8A04DD0000E0A6E0A0E096E2A50076E99
:102EA000086A07BE080624EC2DF0090E07240F6EF1
:102EB000000E0820106E000E126E030E116E1FEC35
:102EC00033F0500E0F24F66E100E1020F76E09002E
:102ED000F5CF15F00900F5CF16F00A00F5CF17F081
:102EE000000E126E030E116E000E046E0A0E036EBB
:102EF0002A50016E026A01BE02065AEC2FF001C090
:102F00000FF002C010F01FEC33F0500E0F24F66EDD
:102F1000100E1020F76E0900F5CF18F00900F5CF5C
:102F200019F00A00F5CF1AF065EC28F0A7D72A505F
:102F3000030D500EF324F66E100EF420F76E090008
:102F4000F5CF24F00900F5CF25F00A00F5CF26F0E3
:102F50001200000E0101D56F000ED46F000E0101AA
:102F6000D26F000E0101D36F21EEE4F011EEC8F034
:102F7000090EDBCFE3FFE806FCE2000E0101DB6F88
:102F8000000EDA6F000E0101DC6F000E0101E16F2F
:102F9000000E0101E36F000EE26F000E0101D76F1A
:102FA000000ED66F000E0101D96F000EE8CF20FB96
:102FB000000E0101E36F010EE26FE80E0101E25D18
:102FC000030E0101E359D8B048D0200E0101E225DB
:102FD000D96E0B0E0101E321DA6EE2C13AF0E3C1D2
:102FE0003BF0D8903A363B36020E3A26000E3B2292
:102FF000500E3A24E16E030E3B20E26EE6CF3CF029
:10300000E5CF3DF0FE0E3E6EFF0E3F6EE2C140F09A
:10301000E3C141F0D890403641363E5040263F5003
:103020004122500E4024E16E030E4120E26EE6CFB5
:1030300042F0E5CF43F0421E431E424A432A3C5031
:103040004224016E3D504320026EF8EC32F00150F4
:10305000DF6E0101E24BE32BB0D7000E0101E36FFD
:10306000000EE26F0101E35113E11F0E0101E25D69
:10307000D8B00ED0200E0101E225D96E0B0E010151
:10308000E321DA6E000EDF6E0101E24BE32BEAD79B
:10309000000E0101DE6F000EDD6F0101DEBF08D002
:1030A000E80E0101DD5D030E0101DE59D8B023D029
:1030B000200E0101DD25D96E0B0E0101DE21DA6E35
:1030C000DF503A6E3A500101D65D000ED759D8B0A4
:1030D0000ED0200E0101DD25D96E0B0E0101DE217F
:1030E000DA6EDF503A6E3A500101D66FD76B0101AC
:1030F000DD4BDE2BD2D7330E186E330E196E3F0E1A
:103100001A6ED6C109F0D7C10AF044EC33F009C0F9
:1031100015F00AC016F00BC017F065EC28F015C0CA
:103120002BF016C02CF017C02DF0EBEC27F02BC0C5
:10313000EEF12CC0EFF1000E0101E06F000EDF6F29
:103140000101E0BF08D0E90E0101DF5D030E0101BE
:10315000E059D8B09ED0200E0101DF25D96E0B0EAC
:103160000101E021DA6EDF503A6E3A500101EE5D66
:10317000000EEF59D8B079D00101D9510101D8A47E
:1031800074D0200E0101DF25D96E0B0E0101E02164
:10319000DA6EDF503A6E3B6A0101E151020D140E06
:1031A000F326000EF422000EF324D96E010EF42053
:1031B000DA6E3AC0DEFF3BC0DDFF0101E151020DD6
:1031C000280EF326000EF422000EF324D96E010E11
:1031D000F420DA6EDFC1DEFFE0C1DDFF0101E15165
:1031E0000101D8B43DD00101E151020D280EF326B2
:1031F000000EF422000EF324D96E010EF420DA6ED4
:10320000DECF3AF0DDCF3BF00101E1513C6E3D6A8B
:10321000D8903C363D36260E3C26000E3D22000E50
:103220003C24D96E010E3D20DA6EDECF3EF0DDCFBC
:103230003FF03E1E3F1E3E4A3F2A3A503E263B503C
:103240003F220101DC51020DC80EF324D96E010E9C
:10325000F420DA6E3EC0DEFF3FC0DDFF0101DC2B53
:103260000101E12B010E0101D96F0101D905D8A49B
:103270000CD01E0E0101D36506D0000E0101D96FDE
:10328000000E0101D36F0101D32B0101DF4BE02BB5
:1032900057D7000E0101D86F19D00101D851020D86
:1032A000C80EF324D96E010EF420DA6EDECF3AF0A8
:1032B000DDCF3BF00101DA513A240101DA6F01015F
:1032C000DB513B200101DB6F0101D82B0101DC51F7
:1032D0000101D85DD8A0E1D7DAC107F0DBC108F061
:1032E000DCC109F00A6A24EC2DF007C0DAF108C04D
:1032F000DBF13A0E026E980E016EDAC103F0DBC10B
:1033000004F021EC31F001C0D4F102C0D5F1D4C1F8
:10331000D2F10101D4511200000E00016E6F200E97
:1033200000016F6F410E0001706F20EEC5F010EECE
:1033300072F0080EDBCFE3FFE806FCE2000E0001AE
:103340006D6F000E6C6F41D04AEC26F072C04FF0EA
:1033500073C050F074C051F0BCC052F0BDC053F007
:10336000BEC054F0B4EC1EF04FC072F050C073F009
:1033700051C074F075C04FF076C050F077C051F076
:10338000BFC052F0C0C053F0C1C054F0B4EC1EF046
:103390004FC075F050C076F051C077F078C04FF054
:1033A00079C050F07AC051F0C2C052F0C3C053F09F
:1033B000C4C054F0B4EC1EF04FC078F050C079F0A7
:1033C00051C07AF000016C4B6D2B6CC009F06DC0E0
:1033D0000AF015EC32F009C00DF00AC00EF00BC077
:1033E0000FF06EC010F06FC011F070C012F009EC59
:1033F0002CF0D8A0A9D7000E00017C6F000E7B6FC7
:1034000000017CBF08D000017C513DE1030E0001AA
:103410007B5DD8B038D07BC00FF07CC010F0000EC0
:10342000126E030E116E1FEC33F0720E0F24D96E64
:10343000000E1020DA6E7BC00FF07CC010F0000E82
:10344000126E030E116E1FEC33F0720E0F24E16E3C
:10345000000E1020E26EE6CF60F0E6CF61F0E5CF1F
:1034600062F06EC063F06FC064F070C065F042EC53
:1034700023F060C0DEFF61C0DEFF62C0DEFF00013E
:103480007B4B7C2BBDD772C05BF073C05CF074C00B
:103490005DF099EC2CF05BC07DF05CC07EF05DC00F
:1034A0007FF075C05BF076C05CF077C05DF099ECA2
:1034B0002CF05BC080F05CC081F05DC082F078C011
:1034C0005BF079C05CF07AC05DF099EC2CF05BC0E9
:1034D00083F05CC084F05DC085F0000E0001716F68
:1034E00000017D5100017E1100017F11D8A415D08B
:1034F000000180510001811100018211D8A40DD07A
:10350000800E0001841909E13F0E000185190001B8
:103510008311D8A402D0010E75D000017D510001A5
:103520007E1100017F11D8A415D000018051000147
:10353000811100018211D8A40DD0800E00018419E0
:1035400009E1BF0E0001851900018311D8A402D042
:10355000020E58D000017D5100017E1100017F1143
:10356000D8A415D0800E0001811911E1BF0E000111
:10357000821900018011D8A40AD0000183510001F2
:10358000841100018511D8A402D0030E3BD00001A4
:103590007D5100017E1100017F11D8A415D0800E4D
:1035A0000001811911E13F0E000182190001801113
:1035B000D8A40AD0000183510001841100018511B3
:1035C000D8A402D0040E1ED0800E00017E1919E18D
:1035D000BF0E00017F1900017D11D8A412D0000197
:1035E00080510001811100018211D8A40AD000018C
:1035F00083510001841100018511D8A402D0050E69
:1036000001D0000E0001716F000171511200020122
:10361000BB6F6D0E0201BB65BAD0000E0201A06F38
:10362000030E9F6F000E0201986F0A0E976F000E37
:103630000201926F640E916FBBC28FF20201906B18
:1036400020EC2BF08FC295F290C296F2AFEC29F0ED
:10365000090E0201952502019D6F000E02019621BF
:1036600002019E6F31EC32F0290E02019D25F66EAB
:10367000100E02019E21F76E0900F5CFA6F2090097
:10368000F5CFA7F20A00F5CFA8F2000E0201986F5D
:10369000640E976FBBC295F20201966BAFEC29F0F6
:1036A000120E0201952502019D6F000E0201962166
:1036B00002019E6F000E0201A06F030E9F6F31EC9E
:1036C00032F0290E02019D25F66E100E02019E2198
:1036D000F76E0900F5CFA3F20900F5CFA4F20A00B6
:1036E000F5CFA5F2F1EC21F0A3C2B8F2A4C2B9F271
:1036F000A5C2BAF2000E0201A06F030E9F6F000E6A
:103700000201926F0A0E916FBBC28FF20201906BA1
:1037100020EC2BF08FC29DF290C29EF231EC32F081
:10372000290E02019D25F66E100E02019E21F76EF4
:103730000900F5CFA6F20900F5CFA7F20A00F5CFF0
:10374000A8F2B8C2A3F2B9C2A4F2BAC2A5F2F1ECCF
:1037500021F0A3C2B5F2A4C2B6F2A5C2B7F2B5C2B7
:10376000A3F2B6C2A4F2B7C2A5F2000E0201A66F80
:10377000000E0201A76F3F0E0201A86FF1EC21F0CD
:10378000A3C2B2F2A4C2B3F2A5C2B4F212000A0EEE
:103790000201BB656ED0000E0201A06F030E9F6F89
:1037A000000E0201926F0A0E916FBBC28FF20201EE
:1037B000906B20EC2BF08FC29DF290C29EF231EC08
:1037C00032F0290E02019D25F66E100E02019E2197
:1037D000F76E0900F5CFA6F20900F5CFA7F20A00AF
:1037E000F5CFA8F2000E0201986F0A0E976FBBC2C8
:1037F00095F20201966BAFEC29F0090E02019525B6
:1038000002019D6F000E0201962102019E6F000EC3
:103810000201A06F030E9F6F31EC32F0290E0201FE
:103820009D25F66E100E02019E21F76E0900F5CF60
:10383000A3F20900F5CFA4F20A00F5CFA5F2F1EC4E
:1038400021F0A3C2B8F2A4C2B9F2A5C2BAF2B8C2BA
:10385000A3F2B9C2A4F2BAC2A5F2000E0201A66F89
:10386000000E0201A76F3F0E0201A86FF1EC21F0DC
:1038700087D70201BB51030D290EF324F66E100EFB
:10388000F420F76E0900F5CFA3F20900F5CFA4F2FA
:103890000A00F5CFA5F2000E0201A66F000E02018C
:1038A000A76F3F0E0201A86FF1EC21F0A3C2B2F2A4
:1038B000A4C2B3F2A5C2B4F21200BEC2C2F20201A7
:1038C000C36BC46B0201BD350201C23701E3C38182
:1038D0000201C2510201C76FC1C2C2F20201C36B31
:1038E000C46B0201C0350201C23701E3C38102018A
:1038F000C2510201C66F0201C7510201D8B411D0F2
:103900000201C6510201C75DD8B012D00201C751F1
:1039100000080201C6250201C26F180E0201C2652D
:1039200007D0BFC2BCF2C0C2BDF2C1C2BEF212001B
:103930000201C6510201D8B411D00201C7510201DF
:10394000C65DD8B012D00201C65100080201C725D9
:103950000201C26F180E0201C26507D0BCC2BCF2E0
:10396000BDC2BDF2BEC2BEF21200060E0201C56F9C
:103970000201BEAF02D00201C58F0201C1AF02D069
:103980000201C58D0201BD8FFF0E0201BC17FF0EA3
:103990000201BD17000E0201BE170201C08FFF0E0B
:1039A0000201BF17FF0E0201C017000E0201C1176E
:1039B0000201C6510201C75DD8B025D00201D890DE
:1039C000BF37C037C1370201C6070201C751020124
:1039D000C619D8B411D00201C507C5C2C2F2070E7C
:1039E0000201C217D8B408D0E9D70201D890BE337B
:1039F000BD33BC330201C72B0201C6510201C719F6
:103A0000D8B42BD0F2D70201C7510201C65DD8B09D
:103A100024D00201D890BC37BD37BE370201C7079A
:103A20000201C7510201C619D8B411D00201C5075D
:103A3000C5C2C2F2070E0201C217D8B408D0E9D736
:103A40000201D890C133C033BF330201C62B02013B
:103A5000C6510201C719D8A4F3D70201C5AF12D0CD
:103A6000FF0E0201BC1BFF0E0201BD1BFF0E020177
:103A7000BE1B010E0201BC27000E0201BD23000E79
:103A80000201BE230201C5AD12D0FF0E0201BF1B11
:103A9000FF0E0201C01BFF0E0201C11B010E02013D
:103AA000BF27000E0201C023000E0201C123000E39
:103AB0000201C56F0201BC510201BF270201BD51C5
:103AC0000201C0230201BE510201C1230201C1AFA4
:103AD00015D0FF0E0201BF1BFF0E0201C01BFF0E1F
:103AE0000201C11B010E0201BF27000E0201C0230B
:103AF000000E0201C123010E0201C56FBFC28FF289
:103B0000C0C290F2C1C291F2C7C292F2C5C293F292
:103B100065EC27F08FC2BCF290C2BDF291C2BEF23A
:103B200012002D6E6D0E2D649FD0000E126E030ECE
:103B3000116E000E0A6E0A0E096E000E046E640EFF
:103B4000036E2DC001F0026A5AEC2FF001C007F09D
:103B500002C008F024EC2DF0090E07240F6E000EB1
:103B60000820106E1FEC33F0290E0F24F66E100E95
:103B70001020F76E0900F5CF18F00900F5CF19F005
:103B80000A00F5CF1AF0000E0A6E640E096E2DC001
:103B900007F0086A24EC2DF0120E07240F6E000EB9
:103BA0000820106E000E126E030E116E1FEC33F023
:103BB000290E0F24F66E100E1020F76E0900F5CFB7
:103BC00015F00900F5CF16F00A00F5CF17F065ECF7
:103BD00028F015C02AF016C02BF017C02CF0000EEC
:103BE000126E030E116E000E046E0A0E036E2DC0CF
:103BF00001F0026A5AEC2FF001C00FF002C010F081
:103C00001FEC33F0290E0F24F66E100E1020F76E05
:103C10000900F5CF18F00900F5CF19F00A00F5CF2B
:103C20001AF02AC015F02BC016F02CC017F065EC66
:103C300028F015C027F016C028F017C029F027C0BB
:103C400015F028C016F029C017F0000E186E000EEF
:103C5000196E3F0E1A6E65EC28F015C024F016C0E0
:103C600025F017C026F012000A0E2D645DD0000E5C
:103C7000126E030E116E000E046E0A0E036E2DC03E
:103C800001F0026A5AEC2FF001C00FF002C010F0F0
:103C90001FEC33F0290E0F24F66E100E1020F76E75
:103CA0000900F5CF18F00900F5CF19F00A00F5CF9B
:103CB0001AF0000E0A6E0A0E096E2DC007F0086A8F
:103CC00024EC2DF0090E07240F6E000E0820106E54
:103CD000000E126E030E116E1FEC33F0290E0F242E
:103CE000F66E100E1020F76E0900F5CF15F00900E2
:103CF000F5CF16F00A00F5CF17F065EC28F015C0E7
:103D00002AF016C02BF017C02CF02AC015F02BC0DB
:103D100016F02CC017F0000E186E000E196E3F0E34
:103D20001A6E65EC28F099D72D50030D290EF32457
:103D3000F66E100EF420F76E0900F5CF15F00900AD
:103D4000F5CF16F00A00F5CF17F0000E186E000E32
:103D5000196E3F0E1A6E65EC28F015C024F016C0DF
:103D600025F017C026F0120051C055F0566A576A68
:103D70005034553601E3568055505A6E54C055F0B4
:103D8000566A576A5334553601E356805550596E7A
:103D90005A50D8B40BD059505A5CD8B00ED05A50A3
:103DA00000085924556E180E556407D052C04FF0C4
:103DB00053C050F054C051F012005950D8B40BD039
:103DC0005A50595CD8B00ED0595000085A24556E3C
:103DD000180E556407D04FC04FF050C050F051C07E
:103DE00051F01200060E586E51BE588E54BE588CBB
:103DF000508EFF0E4F16FF0E5016000E5116538EAA
:103E0000FF0E5216FF0E5316000E541659505A5CF0
:103E1000D8B01BD0D89052365336543659065A5023
:103E20005918D8B40DD0580658C055F0070E55167D
:103E3000D8B406D0EFD7D890513250324F325A2AE8
:103E400059505A18D8B41FD0F6D75A50595CD8B028
:103E50001AD0D8904F36503651365A065A50591803
:103E6000D8B40DD0580658C055F0070E5516D8B422
:103E700006D0EFD7D890543253325232592A595083
:103E80005A18D8A4F7D758AE0CD0FF0E4F1AFF0E11
:103E9000501AFF0E511A010E4F26000E5022000E2E
:103EA000512258AC0CD0FF0E521AFF0E531AFF0EBF
:103EB000541A010E5226000E5322000E5422000EF8
:103EC000586E4F505226505053225150542254AEE7
:103ED0000ED0FF0E521AFF0E531AFF0E541A010E87
:103EE0005226000E5322000E5422010E586E52C06C
:103EF00001F053C002F054C003F05AC004F058C09F
:103F000005F0C9EC2AF001C04FF002C050F003C028
:103F100051F0120002019B6F000E02019A6FC580E2
:103F2000C5B0FED702019B519B2502019B6FC9CFF3
:103F30009AF202019B51FE0BA8EC2EF002019D6F3C
:103F400002019D29D8A403D0C9CF9AF2C69E0201CE
:103F50009D510201D8A4EDD7000E02019D6FC7A4A8
:103F600004D00201936B932B02D00201936BC550D6
:103F70001F0B020193110009D8A4F1D7020191513E
:103F8000A8EC2EF002019D6F02019D29D8A403D058
:103F9000C9CF9AF2C69E02019D510201D8A4EED764
:103FA000000E02019D6FC7A404D00201936B932BF6
:103FB00002D00201936BC5501F0B0201931100093F
:103FC000D8A4F1D7C582C5B2FED7C9CF9AF20201F3
:103FD0009B510109A8EC2EF002019D6F02019D2961
:103FE000D8A403D0C9CF9AF2C69E02019D51020106
:103FF000D8A4EDD7000E02019D6FC7A404D0020122
:10400000936B932B02D00201936BC5501F0B0201DF
:1040100093110009D8A4F1D7000E02019C6F000E85
:1040200002019C6F41D002019C51010D090EF32445
:10403000D96E020EF420DA6E66EC33F0DF6EFF0EFE
:104040000201936FFF0E0201946F0201925102016F
:10405000956F966B020193510201952702019451CD
:104060000201962302019C510201976F986B020195
:1040700095510201975D02019851800A0201996FE2
:1040800002019651800A02019959D8B005D0C59A0B
:10409000C588C5A807D0FDD7C58AC588C5B8FED7CD
:1040A000C5B8FED702019C2B0201925102019C5D12
:1040B000D8A0B9D7C584C5A41200FDD791C295F286
:1040C0000201966B976B020190350201953701E36F
:1040D00096810201955102019D6F02019D51D8A464
:1040E0000AD0000E02018F6F000E906F000E916FCC
:1040F000000E926F120094C295F20201966B976BBC
:10410000020193350201953701E396810201955131
:1041100002019C6F02019C51D8A40AD0000E02013A
:104120008F6F000E906F000E916F000E926F120055
:104130000201908FFF0E02018F17FF0E02019017F0
:10414000000E020191170201938FFF0E02019217D8
:10415000FF0E02019317000E02019417000E0201D8
:10416000986F000E996F000E9A6F000E9B6F7F0E76
:1041700002019D5F02019C51980F02019D5F180E84
:1041800002019C6F0201D890983799379A379B3774
:104190000201925102018F5D020193510201905977
:1041A0000201945102019159D8A00ED002019251FE
:1041B00002018F5F020193510201905B0201945151
:1041C0000201915B020198810201D8908F379037EC
:1041D000913702019C2FD6D702019DAF1AD0020160
:1041E0009D51800A970FD8B00AD0000E02018F6F40
:1041F000000E906F000E916F000E926F1200020180
:10420000D8909B339A339933983302019D3FF7D767
:104210001BD0170E02019D6512D0000E02018F6F98
:10422000000E906F000E916F000E926F120002014F
:10423000D890983799379A379B3702019D0702012A
:104240009D510201D8A4F3D798C28FF299C290F27F
:104250009AC291F29BC292F21200020191359235FC
:1042600002019A6F02019A51D8A40AD0000E0201ED
:104270008F6F000E906F000E916F000E926F120004
:104280000201943595350201996F02019951D8A424
:104290000AD0000E02018F6F000E906F000E916F1A
:1042A000000E926F12000201918FFF0E02018F1714
:1042B000FF0E9017FF0E9117000E92170201948FB8
:1042C000FF0E02019217FF0E9317FF0E9417000EB8
:1042D0009517000E0201956F000E966F000E976FF6
:1042E000000E986F7F0E02019A5F02019951A00F94
:1042F00002019A5F200E0201996F0201D890953752
:104300009637973798370201925102018F5D02016B
:1043100093510201905902019451020191590201F5
:10432000955102019259D8A012D002019251020176
:104330008F5F020193510201905B020194510201CF
:10434000915B020195510201925B0201958102018C
:10435000D8908F379037913792370201992FCDD768
:1043600002019AAF1AD002019A51800A9F0FD8B069
:104370000AD0000E02018F6F000E906F000E916F39
:10438000000E926F12000201D89098339733963343
:10439000953302019A3FF7D71BD01F0E02019A6591
:1043A00012D0000E02018F6F000E906F000E916F01
:1043B000000E926F12000201D8909537963797370A
:1043C000983702019A0702019A510201D8A4F3D743
:1043D00095C28FF296C290F297C291F298C292F271
:1043E0001200A5C2A9F20201AA6BAB6B0201A435AF
:1043F0000201A93701E3AA810201A9510201AC6FB0
:104400000201AC51D8A40AD0000E0201A36F000E25
:104410000201A46F000E0201A56F1200A8C2A9F24A
:104420000201AA6BAB6B0201A7350201A93701E3B8
:10443000AA810201A9510201B16F0201B151D8A4B0
:104440000AD0000E0201A36F000E0201A46F000E3D
:104450000201A56F12000201B1517B0F0201AC27CE
:10446000A5C2B1F20201A8510201B11B800E0201E6
:10447000B1170201A48F0201A78FFF0E0201A61738
:10448000FF0E0201A717000E0201A817000E02017D
:10449000AD6F000E0201AE6F000E0201AF6F070E8E
:1044A0000201B06F0201A3A10CD00201A6510201CA
:1044B000AD270201A7510201AE230201A85102015A
:1044C000AF230201D890A533A433A3330201D890BF
:1044D000A637A737A8370201B02FE4D7090E02018B
:1044E000B06F0201A3A10CD00201A6510201AD27B9
:1044F0000201A7510201AE230201A8510201AF231C
:104500000201D890A533A433A3330201D890AF336E
:10451000AE33AD330201B02FE4D7ADC28FF2AEC2DD
:1045200090F2AFC291F2ACC292F2B1C293F265ECDA
:1045300027F08FC2A3F290C2A4F291C2A5F212009A
:10454000BBC2BDF20201BE6BBF6B0201BA350201F4
:10455000BD3701E3BE810201BD510201C76F0201F7
:10456000C751D8A40AD0000E0201B96F000EBA6F6D
:10457000000EBB6F000EBC6F1200170E0201BD6F64
:10458000B9C2BEF2BAC2BFF2BBC2C0F20201BD29BB
:104590000201C16F05D00201D890C033BF33BE33D2
:1045A0000201C12FF8D70201BE510201C26F020100
:1045B000BA8FFF0E0201B917FF0E0201BA17000EE3
:1045C0000201BB170201B9510201C36F0201BA51C6
:1045D0000201C46F0201BB510201C56F0201C66B2B
:1045E0008E0E0201C75F0201C7AF1AD00201C75188
:1045F000800A8F0FD8B00AD0000E0201B96F000EEA
:10460000BA6F000EBB6F000EBC6F12000201D89093
:10461000C633C533C433C3330201C73FF7D71BD0FA
:10462000170E0201C76512D0000E0201B96F000E0D
:10463000BA6F000EBB6F000EBC6F12000201D89063
:10464000C337C437C537C6370201C7070201C75190
:104650000201D8A4F3D70201C2510201D8B409D093
:104660000201C61FC51FC41FC36D000EC423C5238E
:10467000C623C3C2B9F2C4C2BAF2C5C2BBF2C6C233
:10468000BCF2120062C05BF05C6A5D6A00016135D9
:104690005B3601E35C805B5000016A6F00016A5188
:1046A000D8A40AD0000E0001606F000E0001616FF7
:1046B000000E0001626F120065C05BF05C6A5D6A0B
:1046C000000164355B3601E35C805B5000016B6F79
:1046D00000016B51D8A40AD0000E0001606F000EDB
:1046E0000001616F000E0001626F1200000E0001F8
:1046F000676F000E0001686F000E0001696F000116
:104700006B51890F00016A5F62C06BF00001655157
:1047100000016B1B800E00016B170001618FFF0E03
:1047200000016017FF0E00016117000E0001621703
:104730000001648FFF0E00016317FF0E0001641774
:10474000000E00016517180E0001666F0001D89079
:10475000673768376937000163510001605D000108
:104760006451000161590001655100016259D8A0EE
:104770000ED0000163510001605F0001645100012F
:10478000615B000165510001625B0001678100010E
:10479000D8906037613762370001662FD7D767C07E
:1047A00001F068C002F069C003F06AC004F06BC099
:1047B00005F0C9EC2AF001C060F002C061F003C04E
:1047C00062F012000C6E000E0D6EC580C5B0FED7F3
:1047D0000C500C240C6EC9CF0DF00C50FE0B21ECCC
:1047E0002FF00F6E0F28D8A403D0C9CF0DF0C69EAE
:1047F0000F50D8A4F2D7000E0F6EC7A403D0056ADD
:10480000052A01D0056AC5501F0B05100009D8A460
:10481000F4D7035021EC2FF00F6E0F28D8A403D04B
:10482000C9CF0DF0C69E0F50D8A4F3D7000E0F6E5F
:10483000C7A403D0056A052A01D0056AC5501F0B1D
:1048400005100009D8A4F4D7C582C5B2FED7C9CFD8
:104850000DF00C50010921EC2FF00F6E0F28D8A499
:1048600003D0C9CF0DF0C69E0F50D8A4F2D7000ECA
:104870000F6EC7A403D0056A052A01D0056AC5508A
:104880001F0B05100009D8A4F4D7000E0E6E000E01
:104890000E6E2FD00E50010D090EF324D96E020EAC
:1048A000F420DA6E74EC33F0DF6EFF0E056EFF0E4F
:1048B000066E0450076E086A055007260650082247
:1048C0000E50096E0A6A0750095C0A50800A0B6E86
:1048D0000850800A0B58D8B005D0C59AC588C5A81D
:1048E00007D0FDD7C58AC588C5B8FED7C5B8FED7DD
:1048F0000E2A04500E5CD8A0CDD7C584C5A41200E2
:10490000FDD700016CAF0FD0000E0001E46F210E47
:10491000E36F000E00016A6F000E00016B6F000E66
:1049200000016C6F120000016A5100016B1100015F
:104930006C11D8A40FD0000E0001E46F220EE36FBB
:10494000000E00016A6F000E00016B6F000E000187
:104950006C6F1200000E186E000E196E400E1A6E6B
:104960005D0E046E000E056E6AC001F06BC002F0B1
:104970006CC003F051EC2CF001C015F002C016F031
:1049800003C017F065EC28F015C04FF016C050F0CA
:1049900017C051F0000E526E800E536EBF0E546E53
:1049A000B4EC1EF04FC06AF050C06BF051C06CF018
:1049B0005D06D8A05E066AC060F06BC061F06CC096
:1049C00062F0770E0001636F100E0001646F000E3D
:1049D0000001666F080E656FDFEC28F060C06AF0BA
:1049E00061C06BF062C06CF0720E186E310E196E01
:1049F0003F0E1A6E5DC009F05EC00AF015EC32F091
:104A000009C015F00AC016F00BC017F065EC28F0CD
:104A100015C04FF016C050F017C051F06AC052F0E8
:104A20006BC053F06CC054F0B4EC1EF04FC06AF091
:104A300050C06BF051C06CF0120003C007F0086A60
:104A4000096A0234073601E3088007500F6E0F50E1
:104A5000D8A409D0000E016E000E026E000E036E87
:104A6000000E046E120006C007F0086A096A0534D9
:104A7000073601E3088007500E6E0E50D8A409D007
:104A8000000E016E000E026E000E036E000E046E2C
:104A90001200028EFF0E0116FF0E0216000E031604
:104AA000058EFF0E0416FF0E0516000E0616000EEC
:104AB0000A6E000E0B6E000E0C6E000E0D6E7F0E59
:104AC0000F5E0E50980F0F5E180E0E6ED8900A36BD
:104AD0000B360C360D360450015C0550025806505A
:104AE0000358D8A007D00450015E0550025A065062
:104AF000035A0A80D8900136023603360E2EE6D7C6
:104B00000FAE16D00F50800A970FD8B009D0000E04
:104B1000016E000E026E000E036E000E046E120097
:104B2000D8900D320C320B320A320F3EF9D715D025
:104B3000170E0F640FD0000E016E000E026E000EF5
:104B4000036E000E046E1200D8900A360B360C3637
:104B50000D360F060F50D8A4F7D70AC001F00BC0CE
:104B600002F00CC003F00DC004F012000334043452
:104B70000C6E0C50D8A409D0000E016E000E026E0F
:104B8000000E036E000E046E1200063407340B6E26
:104B90000B50D8A409D0000E016E000E026E000E5C
:104BA000036E000E046E1200038EFF0E0116FF0E40
:104BB0000216FF0E0316000E0416068EFF0E0416D4
:104BC000FF0E0516FF0E0616000E0716000E076EE6
:104BD000000E086E000E096E000E0A6E7F0E0C5E4F
:104BE0000B50A00F0C5E200E0B6ED89007360836C7
:104BF00009360A360450015C055002580650035825
:104C000007500458D8A009D00450015E0550025A3C
:104C10000650035A0750045A0780D89001360236CE
:104C2000033604360B2EE1D70CAE16D00C50800A9A
:104C30009F0FD8B009D0000E016E000E026E000E5C
:104C4000036E000E046E1200D8900A320932083248
:104C500007320C3EF9D715D01F0E0C640FD0000E92
:104C6000016E000E026E000E036E000E046E120046
:104C7000D8900736083609360A360C060C50D8A4E8
:104C8000F7D707C001F008C002F009C003F00AC05E
:104C900004F01200E0EC2CF000C24CF001C24DF028
:104CA00002C24EF032EC33F04CC052F04DC053F023
:104CB0004EC054F00FC209F010C20AF015EC32F0E9
:104CC00009C04FF00AC050F00BC051F0B4EC1EF018
:104CD0004FC015F050C016F051C017F09A0E186E64
:104CE000790E196E3B0E1A6E65EC28F015C0BCF0FB
:104CF00016C0BDF017C0BEF003C24CF004C24DF0A8
:104D000005C24EF032EC33F04CC052F04DC053F0BF
:104D10004EC054F011C209F012C20AF015EC32F084
:104D200009C04FF00AC050F00BC051F0B4EC1EF0B7
:104D30004FC015F050C016F051C017F09A0E186E03
:104D4000790E196E3B0E1A6E65EC28F015C0BFF097
:104D500016C0C0F017C0C1F006C24CF007C24DF03B
:104D600008C24EF032EC33F04CC052F04DC053F05C
:104D70004EC054F013C209F014C20AF015EC32F020
:104D800009C04FF00AC050F00BC051F0B4EC1EF057
:104D90004FC015F050C016F051C017F09A0E186EA3
:104DA000790E196E3B0E1A6E65EC28F015C0C2F034
:104DB00016C0C3F017C0C4F012000201956F000EB8
:104DC0000201946FC580C5B0FED7020195519525AB
:104DD0000201956FC9CF94F202019551FE0BA8EC28
:104DE0002EF00201966F02019629D8A403D0C9CFF4
:104DF00094F2C69E020196510201D8A4EDD7000E8E
:104E00000201966FC7A404D00201936B932B02D0CA
:104E10000201936BC5501F0B020193110009D8A426
:104E2000F1D702019151A8EC2EF00201966F020118
:104E30009629D8A403D0C9CF94F2C69E02019651F8
:104E40000201D8A4EED7000E0201966FC7A404D0C9
:104E50000201936B932B02D00201936BC5501F0B81
:104E6000020193110009D8A4F1D7C9CF94F202012D
:104E70009251A8EC2EF00201966F02019629D8A457
:104E800003D0C9CF94F2C69E020196510201D8A464
:104E9000EED7000E0201966FC7A404D00201936BF7
:104EA000932B02D00201936BC5501F0B020193118B
:104EB0000009D8A4F1D7C58AC588C5B8FED7C5B83A
:104EC000FED7C584C5A41200FDD70201925102018C
:104ED000D8B408D002018F51020190110201911142
:104EE000D8A411D0000E02018F6F000E0201906F46
:104EF000000E0201916F12000201922B0201D89064
:104F0000913390338F33000E02018F150201946F9D
:104F1000000E020190150201956FFE0E020191151F
:104F20000201966F0201945102019511020196113E
:104F3000D8B411D0E1D70201922B010E02018F27C4
:104F4000000E02019023000E020191230201D8906D
:104F5000913390338F33000E02018F150201946F4D
:104F6000000E020190150201956FFF0E02019115CE
:104F70000201966F020194510201951102019611EE
:104F8000D8B408D0D8D7020192070201D8908F3741
:104F900090379137020190BF04D0020E0201926156
:104FA000F2D7020192B102D00201909F0201D89083
:104FB00092330201925102019113020193510201B5
:104FC000D8B402D00201918F8FC28FF290C290F2BA
:104FD00091C291F212002DC02FF0306A316A2C3448
:104FE0002F3601E330802F50396E3950D8A409D0C4
:104FF000000E2B6E000E2C6E000E2D6E000E2E6E0F
:105000001200170E2F6E2BC030F02CC031F02DC0C7
:1050100032F02F28336E04D0D89032323132303211
:10502000332EFAD73050346E2C8EFF0E2B16FF0E17
:105030002C16000E2D162B50356E2C50366E2D5022
:10504000376E386A8E0E395E39AE16D03950800A06
:105050008F0FD8B009D0000E2B6E000E2C6E000EF4
:105060002D6E000E2E6E1200D89038323732363246
:105070003532393EF9D715D0170E39640FD0000EEE
:105080002B6E000E2C6E000E2D6E000E2E6E12007A
:10509000D890353636363736383639063950D8A4B2
:1050A000F7D73450D8B408D0381E371E361E356CAA
:1050B000000E36223722382235C02BF036C02CF0B5
:1050C00037C02DF038C02EF0120017C01BF01C6A3C
:1050D0001D6A16341B3601E31C801B501E6E1E50C9
:1050E000D8A407D0000E156E000E166E000E176EB7
:1050F00012001AC01BF01C6A1D6A19341B3601E32A
:105100001C801B50236E2350D8A407D0000E156EB0
:10511000000E166E000E176E120023507B0F1E2617
:1051200017C023F01A50231A800E2316168E198EDC
:10513000FF0E1816FF0E1916000E1A16000E1F6E1F
:10514000000E206E000E216E070E226E15A006D0F6
:1051500018501F26195020221A502122D890173299
:1051600016321532D890183619361A36222EEED746
:10517000090E226E15A006D018501F2619502022A5
:105180001A502122D890173216321532D890213277
:1051900020321F32222EEED71FC001F020C002F0B5
:1051A00021C003F01EC004F023C005F0C9EC2AF0B2
:1051B00001C015F002C016F003C017F0120065C060
:1051C0000FF066C010F0000E126E030E116E1FEC91
:1051D00033F063C05BF064C05CF00F505B2610508E
:1051E0005C225BC0F6FF5CC0F7FF0900F5CF67F0FB
:1051F0000900F5CF68F00A00F5CF69F03FD067C02D
:1052000018F068C019F069C01AF060C015F061C0EC
:1052100016F062C017F065EC28F015C04FF016C00C
:1052200050F017C051F0000E126E030E116E000107
:105230006507D8A0660765C00FF066C010F01FECC8
:1052400033F063C05BF064C05CF00F505B2610501D
:105250005C225BC0F6FF5CC0F7FF0900F5CF52F09F
:105260000900F5CF53F00A00F5CF54F0B4EC1EF06E
:105270004FC067F050C068F051C069F0000165513F
:1052800000016611D8A4BBD767C060F068C061F0A8
:1052900069C062F01200020191AF1DD08FC295F279
:1052A00090C296F291C297F20201951F961F971F26
:1052B000952B000E96239723000E020195250201DF
:1052C0008F6F000E020196210201906F800E020185
:1052D00097210201916F020194AF1DD092C295F205
:1052E00093C296F294C297F20201951F961F971FE0
:1052F000952B000E96239723000E0201952502019F
:10530000926F000E020196210201936F800E02013E
:1053100097210201946F000E02018F1B000E020103
:10532000901B800E0201911B000E0201921B000EC9
:105330000201931B800E0201941B02019251020193
:105340008F5D0201935102019059020194510201B3
:105350009159D8B002D0D8901200D8801200000E17
:1053600002019A6F020198AF08D00201976D981F51
:10537000D8B0982B010E02019A6F020196AF08D0A7
:105380000201956D961FD8B0962B010E02019A1B53
:10539000000E02019C6F000E9B6F020197510201EB
:1053A0009811D8B42CD0010E0201996F06D00201D9
:1053B000D890973798370201992B020198AFF7D709
:1053C0000201D8909B379C37020197510201955DED
:1053D0000201985102019659D8A00AD002019751B2
:1053E0000201955F020198510201965B02019B81C7
:1053F0000201D890983397330201992FE1D7020127
:105400009A510201D8B405D002019B6D9C1FD8B0FF
:105410009C2B9BC295F29CC296F21200000E0201D8
:10542000976F000E986F000E996F000E9A6F020131
:105430009351020194110201951102019611D8B401
:1054400042D0010E02019B6F08D00201D890933721
:1054500094379537963702019B2B020196AFF5D70B
:105460000201D8909737983799379A3702019351AC
:1054700002018F5D02019451020190590201955180
:10548000020191590201965102019259D8A012D0FD
:105490000201935102018F5F020194510201905B5E
:1054A000020195510201915B020196510201925B4A
:1054B000020197810201D890963395339433933348
:1054C00002019B2FCDD797C28FF298C290F299C25A
:1054D00091F29AC292F212002D0E0201916F040E07
:1054E0000201926F530EDDEC26F0310E0201916F36
:1054F0000B0E0201926F530EDDEC26F02C0E020112
:10550000916F0A0E0201926F530EDDEC26F02E0E03
:105510000201916F000E0201926F530EDDEC26F036
:10552000280E0201916F050E0201926F530EDDEC01
:1055300026F0290E0201916F140E0201926F530E94
:10554000DDEC26F02F0E0201916F000E0201926F2A
:10555000530EDDEC26F02E0E0201916F040E0201B7
:10556000926F530EDDEC26F02D0E0201916F080EA6
:105570000201926F530EDDEC26F0000E0201916FD6
:10558000010E0201926F530E8AEC1FF002010951C5
:1055900012000450D8B405D0015002100310D8A452
:1055A0000CD0000E016E000E026E000E036E120093
:1055B000042AD890033202320132000E0114066E22
:1055C000000E0214076EFE0E0314086E065007103C
:1055D0000810D8B40CD0ECD7042A010E0126000E16
:1055E0000222000E0322D890033202320132000E52
:1055F0000114066E000E0214076EFF0E0314086EEF
:10560000065007100810D8B406D0E6D70406D89084
:1056100001360236033602BE03D0020E0460F6D70E
:1056200004A0029ED8900432045003120550D8A45E
:10563000038E01C001F002C002F003C003F01200AB
:10564000000E0201946F020190AF08D002018F6D2D
:10565000901FD8B0902B010E0201946F020192AFFF
:1056600005D00201916D921FD8B0922B0201915189
:1056700002019211D8B426D0010E0201936F06D018
:105680000201D890913792370201932B020192AF19
:10569000F7D70201915102018F5D0201925102017F
:1056A0009059D8A008D00201915102018F5F0201E8
:1056B00092510201905B0201D89092339133020122
:1056C000932FE7D7020194510201D8B405D002010B
:1056D0008F6D901FD8B0902B8FC28FF290C290F236
:1056E00012000201A0510201A1110201A211020146
:1056F000A311D8B43AD0010E0201A46F08D0020160
:10570000D890A037A137A237A3370201A42B0201FA
:10571000A3AFF5D70201A05102019C5D0201A15186
:1057200002019D590201A25102019E590201A35199
:1057300002019F59D8A010D00201A05102019C5F24
:105740000201A15102019D5B0201A25102019E5B77
:105750000201A35102019F5B0201D890A333A2333F
:10576000A133A0330201A42FD5D79CC29CF29DC2C5
:105770009DF29EC29EF29FC29FF212000001D94B81
:10578000DA2B0001D74BD82BE80E0001D95D030EB0
:105790000001DA59D8A024D044EC10F0920E000198
:1057A000866F100E0001876FD4C088F0D5C089F0D5
:1057B000D6C08AF0E7C08BF000018C6B8CEC19F03E
:1057C0000001AC6F0001AC5100018D6F8E6B5DEC80
:1057D0000CF00001EC2B000E0001DA6F000ED96F07
:1057E000040E0001D7190001D811D8A407D0C9ECC4
:1057F0002FF0000E0001D86F000ED76F3C0E000195
:10580000EC19D8A412000001EA2B000E0001EC6F85
:1058100012000FAE16D00DC013F00EC014F00FC062
:1058200015F0131E141E151E132A000E1422152225
:10583000000E13240D6E000E14200E6E800E152027
:105840000F6E12AE16D010C013F011C014F012C0BB
:1058500015F0131E141E151E132A000E14221522F5
:10586000000E1324106E000E1420116E800E1520F1
:10587000126E000E0D1A000E0E1A800E0F1A000E78
:10588000101A000E111A800E121A10500D5C1150D1
:105890000E5812500F58D8B002D0D8901200D880AD
:1058A0001200015002100310D8A40FD004C0D9FF79
:1058B00005C0DAFF000EDE6E000EDD6E000E016E1A
:1058C000000E026E000E036E120003507F0B066E78
:1058D000076AD8900636073604C0D9FF05C0DAFF3C
:1058E00006C0DEFF07C0DDFF02AE03D0066A062A4F
:1058F00001D0066A065004C0D9FF05C0DAFFDE12E7
:10590000000EDD1204C0D9FF05C0DAFF820EDE26CC
:10591000FF0EDD2203800382038403860388038A4B
:10592000039C029E01C001F002C002F003C003F01C
:1059300012005BC044F05CC045F05DC046F029EC4D
:105940002EF044C04CF045C04DF046C04EF032EC55
:1059500033F04CC04FF04DC050F04EC051F05BC022
:1059600052F05CC053F05DC054F0B4EC1EF04FC078
:1059700060F050C061F051C062F05BC04FF05CC09D
:1059800050F05DC051F060C052F061C053F062C091
:1059900054F0B4EC1EF04FC05BF050C05CF051C04E
:1059A0005DF05BC044F05CC045F05DC046F029ECA2
:1059B0002EF044C05BF045C05CF046C05DF01200C4
:1059C000320E036E060E046E530EE2EC23F009C293
:1059D00001F002010A5182EC33F001C006F002C06E
:1059E00007F0000E096E100E086E92EC2FF006C044
:1059F0000FF207C010F20BC201F002010C5182EC51
:105A000033F001C006F002C007F0000E096E100E60
:105A1000086E92EC2FF006C011F207C012F20DC210
:105A200001F002010E5182EC33F001C006F002C019
:105A300007F0000E096E100E086E92EC2FF006C0F3
:105A400013F207C014F21200000E0C6E0AAE06D05C
:105A5000096C0A1ED8B00A2A010E0C6E08AE06D0D8
:105A6000076C081ED8B0082A010E0C1A000E0E6E24
:105A7000000E0D6E09500A10D8B41CD0010E0B6E2A
:105A800004D0D89009360A360B2A0AAEFAD7D89035
:105A90000D360E360950075C0A500858D8A005D0BC
:105AA0000950075E0A50085A0D80D8900A32093210
:105AB0000B2EEDD70C50D8B404D00D6C0E1ED8B000
:105AC0000E2A0DC007F00EC008F0120003EE50F0D1
:105AD0001BEEB8F0EE6AE550E150FCE1E250FAE16D
:105AE00003EE00F0500EEE6AE806FDE102EE00F073
:105AF0008F0EEE6AE806FDE101EEE4F00F0EEE6AAD
:105B0000E806FDE100EEBCF0350EEE6AE806FDE1C8
:105B1000FD0EF66E670EF76E000EF86E0900F5CFFB
:105B2000F3F1FA0EF66E670EF76E000EF86E0900CE
:105B3000F5CFF1F00900F5CFF2F00900F5CFF3F061
:105B40005F905F92000EF86E0001F4EF30F00001FC
:105B5000F051010D000EF324D96E030EF420DA6E1D
:105B6000E1EC32F0DF6E0001F051DAEC33F0020EBE
:105B70000001F019D8A406D002C3EBF00001EB51EC
:105B8000DAEC33F00001EB51036E046A030E0326D6
:105B9000000E04220001F051056E066A0350055CF8
:105BA0000650800A076E0450800A0758D8A00DD00E
:105BB000FB0EDAEC33F0000E0001F06F0001DD4B5C
:105BC000DE2B010E0201246F12000001F02B1200E7
:105BD000000E096E000E0A6E000E0B6E000E0C6EAB
:105BE0000550061007100810D8B42AD0010E0D6E0B
:105BF00006D0D89005360636073608360D2A08AE88
:105C0000F8D7D89009360A360B360C360550015CA9
:105C1000065002580750035808500458D8A009D01D
:105C20000550015E0650025A0750035A0850045AA4
:105C30000980D89008320732063205320D2EE1D79E
:105C400009C001F00AC002F00BC003F00CC004F060
:105C5000120044C001F045C002F046C003F04A0EF5
:105C6000046E000E056E51EC2CF04BAE07D0000E0A
:105C7000446E000E456E000E466E12004B5004E15D
:105C8000150E4A5CD8A007D044C044F045C045F08A
:105C900046C046F0120044C02BF045C02CF046C070
:105CA0002DF0EBEC27F02BC03AF02CC03BF02DC0D0
:105CB0003CF02EC03DF0E5EC2EF03AC047F03BC082
:105CC00048F03CC049F047C044F048C045F049C0E6
:105CD00046F012008E0E02019F6F08D00201D8908C
:105CE0009A3399339833973302019F2B000E0201A8
:105CF000971502019B6F000E0201981502019C6F1F
:105D0000000E0201991502019D6FFF0E02019A1506
:105D100002019E6F02019B5102019C1102019D1123
:105D200002019E11D8A4DAD797C28FF298C290F2DE
:105D300099C291F29FC292F2000E0201936F65EC3C
:105D400027F08FC297F290C298F291C299F2120096
:105D50000201906F90C2C9FFC6AE02D0FF0E1200C2
:105D6000C6500F0B080AD8B40FD0C6500F0B0B0A41
:105D7000D8B40AD0C6889EA6FED7C7A4C7B002D0A2
:105D8000FE0E1200000E1200C6500F0B080AD8B407
:105D900005D0C6500F0B0B0AD8A41200C7B0FED70F
:105DA000C7A404D002018F6B8F2B02D002018F6B2E
:105DB000C5501F0B02018F110009D8A4F1D7C5AC43
:105DC00002D0FE0E1200000E1200000E436E8E0E68
:105DD000426E3DAE11D03D1E3C1E3B1E3A6C000E85
:105DE0003B223C223D22010E436E06D0D8903D322C
:105DF0003C323B323A32422A000E3A143E6E000EDA
:105E00003B143F6E000E3C14406EFF0E3D14416E7D
:105E10003E503F1040104110D8A4E8D73AC001F0DE
:105E20003BC002F03CC003F042C004F043C005F0A8
:105E3000C9EC2AF001C03AF002C03BF003C03CF0CC
:105E40001200026E02C0C9FFC6AE02D0FF0E1200E1
:105E5000C6500F0B080AD8B40FD0C6500F0B0B0A50
:105E6000D8B40AD0C6889EA6FED7C7A4C7B002D0B1
:105E7000FE0E1200000E1200C6500F0B080AD8B416
:105E800005D0C6500F0B0B0AD8A41200C7B0FED71E
:105E9000C7A403D0016A012A01D0016AC5501F0BB3
:105EA00001100009D8A4F4D7C5AC02D0FE0E120030
:105EB000000E1200000E066E02AE06D0016C021E2D
:105EC000D8B0022A010E066E04AE04D0036C041E84
:105ED000D8B0042A03500410D8B418D0010E056EAF
:105EE00004D0D89003360436052A04AEFAD70350FE
:105EF000015C04500258D8A004D00350015E045045
:105F0000025AD89004320332052EF1D70650D8B485
:105F100004D0016C021ED8B0022A01C001F002C0F8
:105F200002F0120008C00AF0FF0E0A26010E0B6EE6
:105F3000000E0C6E0A2A03D0D8900B360C360A2EAF
:105F4000FBD706500B1607500C160B500C10D8B48C
:105F50001BD0000E0E6E000E0D6E061C0D6E071C83
:105F60000E6E010E0D240D6E000E0E200E6E0DC075
:105F70000AF00EC00BF00A1E0B1E0A4A0B2A0AC0BA
:105F800006F00BC007F0120006C006F007C007F0CD
:105F90001200000E446E99EC32F005C045F006C0C8
:105FA00046F0D8900101F035D96E0101F135DA6E75
:105FB000500ED926030EDA2245C0DEFF46C0DDFFB3
:105FC000E80E0101F05D030E0101F159D8A00FD0D8
:105FD000A9EC17F00101F26F0101F251D8A4F2C14E
:105FE000E7F0000E0101F16F000EF06F03D0010128
:105FF000F04BF12B0101F351020F0101F36F12007D
:106000001250131014101510D8B424D0010E166EAF
:1060100006D0D8901236133614361536162A15AE19
:10602000F8D712500E5C13500F58145010581550DA
:106030001158D8A008D012500E5E13500F5A1450A9
:10604000105A1550115AD890153214321332123298
:10605000162EE7D70EC00EF00FC00FF010C010F0D4
:1060600011C011F012000201936F000EC26E000EFB
:10607000C16E000EC06E02018F517C0BC26E90C2C9
:10608000C1FF93C291F20201D89091370201D890DA
:106090009137380E0201911793C292F20201923B9E
:1060A0000F0E9217070E0201921702019351800BF7
:1060B0000201921102019111C06E02018FAF03D053
:1060C0009E9C9D8CF28CC28012000201916F000E8A
:1060D000AC6E000EAB6E020191B1AC88020191A3CF
:1060E00002D0AC8CAB8C020191B5AC8E020191A7B1
:1060F00002D0AB8801D0AB8A020191B9AC84020115
:1061000091BBAB86020191AD02D09D8A01D09D9AD0
:10611000020191AF02D09D8801D09D988FC2AFFF40
:1061200002019051B06EAC8AAB8E12000201946FE6
:1061300011D0970E0201256F850E0201216FED0E21
:1061400007D0D70E0201256F000E0201216FE50E68
:10615000206F08D002019451010AD8B4EAD7030A8B
:10616000D8B4EFD7020194510201D8A403D0F8ECBF
:1061700033F01200020125510CEC33F020C28FF2F3
:1061800021C290F2B8EC33F0F29412008E0E116E30
:1061900006D0D8900C320B320A320932112A000E86
:1061A00009140D6E000E0A140E6E000E0B140F6E05
:1061B000FF0E0C14106E0D500E100F101010D8A4FE
:1061C000E8D709C001F00AC002F00BC003F011C00B
:1061D00004F0000E056EC9EC2AF001C009F002C0FF
:1061E0000AF003C00BF0120067EC32F0AE0E0201B1
:1061F000CE6F100E0201CF6F60EC08F0030100516A
:10620000C1EC33F002012451D8A4F8D7000E0201EA
:10621000ED6F080E0201ED6501D00FD00201ED51C6
:10622000010D000EF324D96E030EF420DA6EDF5058
:10623000C1EC33F00201ED2BECD7000E0201246F0C
:10624000DDD7000E066E000E056E03500410D8B4A4
:106250001CD0010E076E04D0D89003360436072AEE
:1062600004AEFAD7D890053606360350015C0450C8
:106270000258D8A005D00350015E0450025A058090
:10628000D89004320332072EEDD705C001F006C0C6
:1062900002F012000201CB510201CC110201CD111A
:1062A000D8B409D0000E0201CB1B000E0201CC1B9A
:1062B000800E0201CD1BC8C2BCF2C9C2BDF2CAC267
:1062C000BEF2CBC2BFF2CCC2C0F2CDC2C1F25DEC15
:1062D0001CF0BCC2C8F2BDC2C9F2BEC2CAF21200F2
:1062E000000163510001641100016511D8B409D0A7
:1062F000000E0001631B000E0001641B800E0001F4
:10630000651B60C04FF061C050F062C051F063C0C7
:1063100052F064C053F065C054F0B4EC1EF04FC0AE
:1063200060F050C061F051C062F012006DC06AF0C0
:106330006EC06BF06FC06CF081EC24F06AC070F03E
:106340006BC071F06CC072F070C015F071C016F0C7
:1063500072C017F05C0E186EDE0E196E3E0E1A6ECD
:1063600065EC28F015C06DF016C06EF017C06FF028
:1063700012000F013A970F013A9994869488C69AB1
:10638000000E02018F6F080E56EC33F0130EC86E2C
:10639000C7A404D00201916B912B02D00201916B32
:1063A000C5501F0B020191110009D8B41200F0D79B
:1063B000010E0001ED6F82B604D00001AD6BAD2B74
:1063C00002D00001AD6B0001AD47AD47AD47825033
:1063D0000001AD19F70BAD19826EBEEC2BF020C297
:1063E00001F021C202F0CAEC33F0F2941200000E68
:1063F0000201946F000E0201936F000E926F5C0E0B
:106400000201946F000E0201936F330E926F4F0ED4
:10641000AB16AC9ACF0E9D1692C28FF293C290F239
:106420000201945165EC30F01200000E0C6E0AAEC1
:1064300006D0096C0A1ED8B00A2A010E0C6E09C0DB
:1064400001F00AC002F0036A8E0E046E0CC005F063
:10645000C9EC2AF001C009F002C00AF003C00BF039
:10646000120002019D5102019F03F3CFA1F2F4CF6C
:10647000A2F202019D510201A003F3500201A227E2
:1064800002019E5102019F03F3500201A227A1C203
:106490009DF2A2C29EF21200000E0201946F000E45
:1064A0000201956F000E0201966FA10E0201946F1A
:1064B000270E0201956FFC0E0201966F95C28FF2B6
:1064C00096C290F20201945133EC30F01200F4ECD9
:1064D00033F0CAEC32F0F7EC31F0000E0201936FAA
:1064E000020E96EC30F09AEC33F04CEC32F0B9EC52
:1064F00031F06CEC2AF002019E6FF28CF28E1200E9
:10650000000E086E000E076EB70EAEEC33F0FBEC1B
:1065100033F0EEEC33F00009D8A4FBD7E1EC33F014
:1065200001C007F002C008F007C005F008C006F07F
:106530001200000E086E000E076EAF0EAEEC33F0C8
:10654000FBEC33F0EEEC33F00009D8A4FBD7E1EC20
:1065500033F001C007F002C008F007C005F008C022
:1065600006F0120002018F510201901102019111F7
:10657000D8B409D0000E02018F1B000E0201901B3F
:10658000800E0201911B8FC28FF290C290F291C2D5
:1065900091F212000F013A9D0F013A9F949C948E44
:1065A0000F013A95949482949296809693880F0165
:1065B0003989938A0F01398B93800F01399181902A
:1065C0001200F20E0001EE17ABAC06D00001EE9106
:1065D000ABA002D00001EE81ABA402D00001EE8599
:1065E000ABA202D00001EE87AECF01F00150120045
:1065F00002AE0DD001C003F002C004F0031E041E61
:10660000034A042A03C001F004C002F0120001C0D2
:1066100001F002C002F0120002018F6F02018F51DF
:106620007F0BD56E000ED76E000ED66EF29402016F
:106630008FAF02D0F28A01D0F29AD58E12000F509D
:106640001102F3CF13F0F4CF14F00F501202F350F5
:10665000142610501102F350142613C00FF014C06A
:1066600010F012004C504D104E10D8B406D0000E51
:106670004C1A000E4D1A800E4E1A4CC04CF04DC0F4
:106680004DF04EC04EF0120009C001F00AC002F0F9
:10669000036A8E0E046E000E056EC9EC2AF001C06E
:1066A00009F002C00AF003C00BF012000201906F63
:1066B0003F0EC716000EC66E000EC56E0201905149
:1066C000C61202018F51C712C68A1200C6500F0BA4
:1066D000080AD8B404D0C6500F0B0B0AD8B4C5862C
:1066E000C7A0FED7C9501200C6500F0B080AD8B475
:1066F00004D0C6500F0B0B0AD8B4C586C7A0FED76E
:10670000C9501200056E015005C003F0046A03C0B1
:1067100004F0036A0310016E0450026E12000201BD
:106720008F6FACAC04D0AC900001EEB3AC808FC2E4
:10673000ADFF1200F1949F8A9D8A9E9AF288F18C97
:10674000F19EF28CF28E1200016EACAC04D0AC90D3
:106750000001EEB3AC8001C0ADFF1200026E02C0BA
:1067600001F07C0E0116C250830B0110C26E1200A4
:106770008FC291F290C292F292C2D7FF91C2D6FF1D
:1067800012000201906FACA2FED7020190518FEC73
:1067900033F0120001C003F002C004F004C0D7FFC0
:1067A00003C0D6FF120002018F6F9EA8FED78FC2D2
:1067B000ADFF1200026EACA2FED70250A4EC33F083
:1067C0001200C450036EC350016E03C002F01200E9
:1067D000016E9EA8FED701C0ADFF1200C2A202D07A
:1067E000010E1200000E1200D388D38AD38C12003F
:0E67F000D59EF29A1200C282120000004002F2
:020000040030CA
:0E000000FF331F3CFFBF85FF0FC00FE00F4016
:00000001FF
