:0400000060EF00F0BD
:100008005F82FACFA5F0FBCFA6F0E9CFA7F0EACF41
:10001800A8F0E1CFA9F0E2CFAAF0D9CFABF0DACFC0
:10002800ACF0F3CFADF0F4CFAEF0F6CFAFF0F7CF42
:10003800B0F0F8CFB1F0F5CFB2F0F2B4CAEC1DF0E1
:100048009EAA03D0A1EC1EF09E9AF2A217D02FEC24
:1000580008F068C092F069C093F06AC094F0F3C0E9
:1000680095F0CA0E0001966F28EC17F0300E036E5B
:10007800010E046E530E7FEC12F0F292B2C0F5FF3F
:10008800B1C0F8FFB0C0F7FFAFC0F6FFAEC0F4FFD5
:10009800ADC0F3FFACC0DAFFABC0D9FFAAC0E2FF26
:1000A800A9C0E1FFA8C0EAFFA7C0E9FFA6C0FBFFFF
:0C00B800A5C0FAFF5F921100F3EF19F0F1
:101000000001000A006400E80310270000000080CF
:101010003FF0FFBEE2A93E8376BEAE2B3E3CC3BD91
:10102000D2133D78D3BB50756572746F20636F6EB9
:10103000666967757261646F2E2E2E0A00536D61AA
:1010400072742053686972742076312E30005265B4
:1010500063696269646F3A2025640A000000000E2B
:1010600000016E6FA00E00016F6F400E0001706FE7
:10107000330E00016B6F530E00016C6F400E0001C8
:101080006D6FF00E0001716F3F0E0001726F400E28
:101090000001736FC00E0001746F8F0E0001756F39
:1010A000450E0001766F900E0001776F8E0E0001E5
:1010B000786F450E0001796F000E0001806F4D0EB4
:1010C0000001816F440E0001826F330E446E530E97
:1010D000456E400E466E58EC1EF005C009F006C085
:1010E0000AF008EC1EF009C041F00AC042F00BC043
:1010F00043F0D2EC15F041C050F042C051F043C073
:1011000052F0000E536E800E546E440E556E4CEC31
:1011100016F050C086F051C087F052C088F086C0EB
:1011200050F087C051F088C052F06EC053F06FC0CD
:1011300054F070C055F04CEC16F050C086F051C021
:1011400087F052C088F074C033F075C034F076C0B8
:1011500035F080C030F081C031F082C032F070ECE8
:101160000FF030C053F031C054F032C055F080C0A1
:1011700050F081C051F082C052F04CEC16F050C0DB
:101180007AF051C07BF052C07CF071C053F072C055
:1011900054F073C055F086C050F087C051F088C03D
:1011A00052F04CEC16F050C030F051C031F052C04B
:1011B00032F07AC033F07BC034F07CC035F070EC94
:1011C0000FF030C083F031C084F032C085F083C0AE
:1011D00044F084C045F085C046F077C041F078C047
:1011E00042F079C043F0D2EC15F041C050F042C05B
:1011F00051F043C052F0000E336E800E346E3F0E3D
:10120000356E83C02DF084C02EF085C02FF02EECFB
:101210001FF02DC030F02EC031F02FC032F070EC36
:101220000FF030C053F031C054F032C055F04CECE8
:1012300016F050C08FF051C090F052C091F08FC0A6
:101240000DF090C00EF091C00FF0DA0E106EE30EAC
:10125000116E440E126EDEEC18F0D8A058D0720E4B
:10126000536ECF0E546E450E556E8FC050F090C029
:1012700051F091C052F04CEC16F050C062F051C0E9
:1012800063F052C064F067EC1DF062C089F063C087
:101290008AF064C08BF02B0E0001626F750E0001A6
:1012A000636F3F0E0001646F67EC1DF062C053F086
:1012B00063C054F064C055F0000E446E800E456E5D
:1012C000BF0E466E89C041F08AC042F08BC043F029
:1012D000D2EC15F041C050F042C051F043C052F082
:1012E0004CEC16F050C08CF051C08DF052C08EF016
:1012F0008CC041F08DC042F08EC043F0000E446EB1
:10130000800E456EBF0E466ED2EC15F09FD18FC099
:101310000DF090C00EF091C00FF0A30E106EB80E3D
:10132000116E440E126EDEEC18F0D8A058D01C0ED0
:10133000536EC80E546E450E556E8FC050F090C05F
:1013400051F091C052F04CEC16F050C062F051C018
:1013500063F052C064F067EC1DF062C089F063C0B6
:101360008AF064C08BF0760E0001626F750E00018A
:10137000636F3F0E0001646F67EC1DF062C053F0B5
:1013800063C054F064C055F0000E446E800E456E8C
:10139000BF0E466E89C041F08AC042F08BC043F058
:1013A000D2EC15F041C050F042C051F043C052F0B1
:1013B0004CEC16F050C08CF051C08DF052C08EF045
:1013C0008CC041F08DC042F08EC043F0000E446EE0
:1013D000800E456EBF0E466ED2EC15F037D18FC031
:1013E0000DF090C00EF091C00FF09A0E106E960E98
:1013F000116E440E126EDEEC18F0D8A058D0300EEC
:10140000536EBF0E546E450E556E8FC050F090C097
:1014100051F091C052F04CEC16F050C062F051C047
:1014200063F052C064F067EC1DF062C089F063C0E5
:101430008AF064C08BF0C80E0001626F750E000167
:10144000636F3F0E0001646F67EC1DF062C053F0E4
:1014500063C054F064C055F0000E446E800E456EBB
:10146000BF0E466E89C041F08AC042F08BC043F087
:10147000D2EC15F041C050F042C051F043C052F0E0
:101480004CEC16F050C08CF051C08DF052C08EF074
:101490008CC041F08DC042F08EC043F0000E446E0F
:1014A000800E456EBF0E466ED2EC15F0CFD08FC0C9
:1014B0000DF090C00EF091C00FF0060E106E770E7A
:1014C000116E440E126EDEEC18F0D8A058D0190E32
:1014D000536EB70E546E450E556E8FC050F090C0CF
:1014E00051F091C052F04CEC16F050C062F051C077
:1014F00063F052C064F067EC1DF062C089F063C015
:101500008AF064C08BF00C0E0001626F760E000151
:10151000636F3F0E0001646F67EC1DF062C053F013
:1015200063C054F064C055F0000E446E800E456EEA
:10153000BF0E466E89C041F08AC042F08BC043F0B6
:10154000D2EC15F041C050F042C051F043C052F00F
:101550004CEC16F050C08CF051C08DF052C08EF0A3
:101560008CC041F08DC042F08EC043F0000E446E3E
:10157000800E456EBF0E466ED2EC15F067D08FC060
:101580000DF090C00EF091C00FF0ED0E106E4A0EEF
:10159000116E440E126EDEEC18F0D8A05DD0400E35
:1015A000536EAE0E546E450E556E8FC050F090C007
:1015B00051F091C052F04CEC16F050C062F051C0A6
:1015C00063F052C064F067EC1DF062C089F063C044
:1015D0008AF064C08BF0510E0001626F760E00013C
:1015E000636F3F0E0001646F67EC1DF062C053F043
:1015F00063C054F064C055F0000E446E800E456E1A
:10160000BF0E466E89C041F08AC042F08BC043F0E5
:10161000D2EC15F041C050F042C051F043C052F03E
:101620004CEC16F050C08CF051C08DF052C08EF0D2
:101630008CC041F08DC042F08EC043F0000E446E6D
:10164000800E456EBF0E466ED2EC15F041C07DF0A7
:1016500042C07EF043C07FF07DC0D6F07EC0D7F0A0
:101660007FC0D8F0000E0001686F800E0001696F26
:101670003F0E00016A6F1200000E0101D56F000ECF
:10168000D46F000E0101D26F000E0101D36F21EE65
:10169000E4F011EEC8F0090EDBCFE3FFE806FCE250
:1016A000000E0101DB6F000EDA6F000E0101DC6F2E
:1016B000000E0101E16F000E0101E36F000EE26F09
:1016C000000E0101D76F000ED66F000E0101D96F19
:1016D000000EE8CF4FFB000E0101E36F010EE26F39
:1016E000E80E0101E25D030E0101E359D8B048D0D4
:1016F0004F0E0101E225D96E0B0E0101E321DA6ED6
:10170000E2C150F0E3C151F0D89050365136020E8C
:101710005026000E51227F0E5024E16E030E512000
:10172000E26EE6CF52F0E5CF53F0FE0E546EFF0EA0
:10173000556EE2C156F0E3C157F0D8905636573691
:1017400054505626555057227F0E5624E16E030EF4
:101750005720E26EE6CF58F0E5CF59F0581E591EDB
:10176000584A592A52505824016E53505920026E3B
:10177000CFEC1EF00150DF6E0101E24BE32BB0D73E
:10178000000E0101E36F000EE26F0101E35113E16E
:101790001F0E0101E25DD8B00ED04F0E0101E2250F
:1017A000D96E0B0E0101E321DA6E000EDF6E01012E
:1017B000E24BE32BEAD7000E0101DE6F000EDD6F76
:1017C0000101DEBF08D0E80E0101DD5D030E01015D
:1017D000DE59D8B023D04F0E0101DD25D96E0B0E96
:1017E0000101DE21DA6EDF50506E50500101D65DEE
:1017F000000ED759D8B00ED04F0E0101DD25D96E9D
:101800000B0E0101DE21DA6EDF50506E50500101E7
:10181000D66FD76B0101DD4BDE2BD2D7330E446E72
:10182000330E456E3F0E466ED6C109F0D7C10AF0A1
:101830001CEC1FF009C041F00AC042F00BC043F09D
:10184000D2EC15F041C00CF042C00DF043C00EF0D8
:1018500058EC15F00CC0F7F10DC0F8F1000E0101C5
:10186000E06F000EDF6F0101E0BF08D0E90E01015B
:10187000DF5D030E0101E059D8B09ED04F0E01018B
:10188000DF25D96E0B0E0101E021DA6EDF50506EBC
:1018900050500101F75D000EF859D8B079D0010120
:1018A000D9510101D8A474D04F0E0101DF25D96EA2
:1018B0000B0E0101E021DA6EDF50506E516A01011A
:1018C000E151020D140EF326000EF422000EF32453
:1018D000D96E010EF420DA6E50C0DEFF51C0DDFF7C
:1018E0000101E151020D280EF326000EF422000E34
:1018F000F324D96E010EF420DA6EDFC1DEFFE0C101
:10190000DDFF0101E1510101D8B43DD00101E151F8
:10191000020D280EF326000EF422000EF324D96ED9
:10192000010EF420DA6EDECF50F0DDCF51F0010170
:10193000E151526E536AD89052365336260E5226D3
:10194000000E5322000E5224D96E010E5320DA6E7F
:10195000DECF54F0DDCF55F0541E551E544A552AA3
:1019600050505426515055220101DC51020DC80E31
:10197000F324D96E010EF420DA6E54C0DEFF55C098
:10198000DDFF0101DC2B0101E12B010E0101D96F0B
:101990000101D905D8A40CD01E0E0101D36506D0D3
:1019A000000E0101D96F000E0101D36F0101D32B8D
:1019B0000101DF4BE02B57D7000E0101D86F19D082
:1019C0000101D851020DC80EF324D96E010EF42086
:1019D000DA6EDECF50F0DDCF51F00101DA51502444
:1019E0000101DA6F0101DB5151200101DB6F0101BF
:1019F000D82B0101DC510101D85DD8A0E1D7DAC1B3
:101A000001F0DBC102F0DCC103F0046AB1EC19F0B3
:101A100001C0DAF102C0DBF13A0E026E980E016EDF
:101A2000DAC103F0DBC104F018EC1DF001C0D4F101
:101A300002C0D5F1D4C1D2F10101D4511200000E7F
:101A40000001626F200E0001636F410E0001646FA0
:101A500021EEEEF010EE66F0080EDBCFE3FFE806B5
:101A6000FCE2000E0001616F000E606F41D01EECC1
:101A700013F066C030F067C031F068C032F0B3C018
:101A800033F0B4C034F0B5C035F070EC0FF030C0B6
:101A900066F031C067F032C068F069C030F06AC0EB
:101AA00031F06BC032F0B6C033F0B7C034F0B8C01C
:101AB00035F070EC0FF030C069F031C06AF032C020
:101AC0006BF06CC030F06DC031F06EC032F0B9C058
:101AD00033F0BAC034F0BBC035F070EC0FF030C05A
:101AE0006CF031C06DF032C06EF00001604B612BC4
:101AF00060C009F061C00AF008EC1EF009C00DF0EA
:101B00000AC00EF00BC00FF062C010F063C011F0FD
:101B100064C012F0DEEC18F0D8A0A9D7000E0001C6
:101B2000706F000E6F6F000170BF08D00001705120
:101B30003DE1030E00016F5DD8B038D06FC001F0F9
:101B400070C002F0000E046E030E036EF6EC1EF081
:101B5000660E0124D96E000E0220DA6E6FC001F00D
:101B600070C002F0000E046E030E036EF6EC1EF061
:101B7000660E0124E16E000E0220E26EE6CF50F008
:101B8000E6CF51F0E5CF52F062C053F063C054F09D
:101B900064C055F04CEC16F050C0DEFF51C0DEFFC3
:101BA00052C0DEFF00016F4B702BBDD766C03CF00A
:101BB00067C03DF068C03EF026EC19F03CC071F003
:101BC0003DC072F03EC073F069C03CF06AC03DF0A9
:101BD0006BC03EF026EC19F03CC074F03DC075F0CF
:101BE0003EC076F06CC03CF06DC03DF06EC03EF083
:101BF00026EC19F03CC077F03DC078F03EC079F09B
:101C0000000E0001656F00017151000172110001A9
:101C10007311D8A415D00001745100017511000191
:101C20007611D8A40DD0800E0001781909E13F0E7D
:101C30000001791900017711D8A402D0010E75D0E6
:101C4000000171510001721100017311D8A415D067
:101C5000000174510001751100017611D8A40DD056
:101C6000800E0001781909E1BF0E00017919000109
:101C70007711D8A402D0020E58D000017151000192
:101C8000721100017311D8A415D0800E00017519CE
:101C900011E1BF0E0001761900017411D8A40AD019
:101CA000000177510001781100017911D8A402D008
:101CB000030E3BD00001715100017211000173113C
:101CC000D8A415D0800E0001751911E13F0E000156
:101CD000761900017411D8A40AD0000177510001CF
:101CE000781100017911D8A402D0040E1ED0800E04
:101CF0000001721919E1BF0E000173190001711181
:101D0000D8A412D0000174510001751100017611A0
:101D1000D8A40AD00001775100017811000179118F
:101D2000D8A402D0050E01D0000E0001656F00019D
:101D300065511200176E0001DD69AB0E0001DE6F08
:101D4000CC0E0001DB6FCC0E0001DC6F0001D96905
:101D5000CB0E0001DA6F7E0E0201096F000E020148
:101D60000A6F610E02010B6F010E02010C6F000E73
:101D700002010D6FDDC00EF2DEC00FF2000E020197
:101D8000106F440E0201116F000E0201126F000E5F
:101D90000201136FD9C014F2DAC015F2DBC016F2DB
:101DA000DCC017F2000E0201186F000E0201196F5D
:101DB000E5C001F0E6C002F0000E046E010E036EF5
:101DC00050EC1FF002011A6FE5C001F0E6C002F00E
:101DD000000E046E020E036E50EC1FF002011B6F2A
:101DE0004D0E02011C6F000E196E280E196401D0F1
:101DF00056D01950156E166AD89015361636140E30
:101E00001526000E1622090E1524D96E020E162074
:101E1000DA6E1750280D1950F326000EF422D890D0
:101E2000F336F4367F0EF324E16E030EF420E26EF7
:101E3000E6CF01F0E5CF02F0000E046E010E036E56
:101E400050EC1FF0DF6E1950156E166AD8901536DB
:101E50001636150E1526000E1622090E1524D96EFB
:101E6000020E1620DA6E1750280D1950F326000EB8
:101E7000F422D890F336F4367F0EF324E16E030E8D
:101E8000F420E26EE6CF01F0E5CF02F0000E046E22
:101E9000020E036E50EC1FF0DF6E192AA6D7090E52
:101EA000086E020E096EE6EC17F002016D6F000E6F
:101EB000186E640E186401D00FD0ACA2FED7185073
:101EC000010D090EF324D96E020EF420DA6EDF50F4
:101ED000A9EC1FF0182AEDD70001E54BE62B120004
:101EE00032C036F0376A386A3134363601E337802B
:101EF00036503B6E35C036F0376A386A3434363681
:101F000001E3378036503A6E3B50D8B40BD03A508C
:101F10003B5CD8B00ED03B5000083A24366E180E09
:101F2000366407D033C030F034C031F035C032F001
:101F300012003A50D8B40BD03B503A5CD8B00ED017
:101F40003A5000083B24366E180E366407D030C075
:101F500030F031C031F032C032F01200060E396E6E
:101F600032BE398E35BE398C318EFF0E3016FF0EE3
:101F70003116000E3216348EFF0E3316FF0E341655
:101F8000000E35163A503B5CD8B01BD0D890333693
:101F9000343635363A063B503A18D8B40DD03906A7
:101FA00039C036F0070E3616D8B406D0EFD7D89021
:101FB0003232313230323B2A3A503B18D8B41FD03B
:101FC000F6D73B503A5CD8B01AD0D890303631367C
:101FD00032363B063B503A18D8B40DD0390639C0DA
:101FE00036F0070E3616D8B406D0EFD7D890353273
:101FF000343233323A2A3A503B18D8A4F7D739AEA4
:102000000CD0FF0E301AFF0E311AFF0E321A010EDD
:102010003026000E3122000E322239AC0CD0FF0ED9
:10202000331AFF0E341AFF0E351A010E3326000E36
:102030003422000E3522000E396E305033263150D6
:1020400034223250352235AE0ED0FF0E331AFF0E39
:10205000341AFF0E351A010E3326000E3422000EFC
:102060003522010E396E33C001F034C002F035C0A4
:1020700003F03BC004F039C005F03FEC18F001C09C
:1020800030F002C031F003C032F012000201796F6B
:10209000000E0201786FC580C5B0FED702017951EC
:1020A00079250201796FC9CF78F202017951FE0BCF
:1020B000F4EC1AF002017B6F02017B29D8A403D053
:1020C000C9CF78F2C69E02017B510201D8A4EDD798
:1020D000000E02017B6FC7A404D00201716B712B4B
:1020E00002D00201716BC5501F0B02017111000972
:1020F000D8A4F1D702016F51F4EC1AF002017B6F02
:1021000002017B29D8A403D0C9CF78F2C69E020170
:102110007B510201D8A4EED7000E02017B6FC7A449
:1021200004D00201716B712B02D00201716BC5509A
:102130001F0B020171110009D8A4F1D7C582C5B2E5
:10214000FED7C9CF78F2020179510109F4EC1AF0F7
:1021500002017B6F02017B29D8A403D0C9CF78F29A
:10216000C69E02017B510201D8A4EDD7000E0201E8
:102170007B6FC7A404D00201716B712B02D00201E6
:10218000716BC5501F0B020171110009D8A4F1D762
:10219000000E02017A6F000E02017A6F41D0020137
:1021A0007A51010D000EF324D96E020EF420DA6E7E
:1021B00060EC1FF0DF6EFF0E0201716FFF0E020177
:1021C000726F020170510201736F746B02017151E1
:1021D00002017327020172510201742302017A5134
:1021E0000201756F766B020173510201755D020188
:1021F0007651800A0201776F02017451800A020150
:102200007759D8B005D0C59AC588C5A807D0FDD7DD
:10221000C58AC588C5B8FED7C5B8FED702017A2BD6
:102220000201705102017A5DD8A0B9D7C584C5A456
:102230001200FDD77AC00CF07BC00DF07CC00EF010
:1022400058EC15F00C500001826F000E446EC80E61
:10225000456E420E466E840E3F6E000E406E7AC092
:102260003CF07BC03DF07CC03EF0A9EC1BF03CC0D4
:1022700041F03DC042F03EC043F0D2EC15F041C009
:102280007FF042C080F043C081F07FC00CF080C07E
:102290000DF081C00EF058EC15F00C500001836F6A
:1022A0000001DD69AB0E0001DE6FCC0E0001DB6FBB
:1022B000CC0E0001DC6F0001D969CB0E0001DA6F92
:1022C0007E0E0201096F000E02010A6F150E020157
:1022D0000B6F010E02010C6F000E02010D6FDDC0CD
:1022E0000EF2DEC00FF2000E0201106F440E02016A
:1022F000116F000E0201126F000E0201136FD9C0A0
:1023000014F2DAC015F2DBC016F2DCC017F2000ED0
:102310000201186F000E0201196FE5C001F0E6C05E
:1023200002F0000E046E010E036E50EC1FF002016D
:102330001A6FE5C001F0E6C002F0000E046E020E56
:10234000036E50EC1FF002011B6FC70E02011C6FE1
:1023500082C01DF283C01EF27DC01FF27EC020F23B
:10236000090E086E020E096EE6EC17F00201216FED
:10237000000E0001876F190E0001876501D011D092
:10238000ACA2FED700018751010D090EF324D96ECE
:10239000020EF420DA6EDF50A9EC1FF00001872B4B
:1023A000EAD70001E54BE62B12007B0E02017C6FA1
:1023B000020E02017D6F94D0250E02018219D8B45D
:1023C00005D002018251C5EC1FF08AD0000E020137
:1023D0007E6F79C2F6FF7AC2F7FF0201794B7A2B42
:1023E0000800F5CF82F202018251000AD8B412002F
:1023F000640AD8B403D00D0AD8A472D07CC2D9FF25
:102400007DC2DAFFDECF80F2DDCF81F2020E020163
:102410007C27000E7D23020181AF08D0030E02014C
:102420007E130201806D811FD8B0812B010E020145
:10243000826F050E02018219D8B416D002018251B2
:10244000020D010EF324F66E100EF420F76E090053
:10245000F5500201805D0900F55002018159D8A0B4
:1024600003D00201822BE5D77EC27BF2030E02016C
:102470007B17D8B403D02D0EC5EC1FF082C27FF2BB
:1024800029D002017F51020D010EF324F66E100EC9
:10249000F420F76E0900F5CF6FF20A00F5CF70F265
:1024A00080C26DF281C26EF231EC1BF06DC274F22B
:1024B0006EC275F2000E0201776F0A0E766F86EC1F
:1024C0001CF002017451300F0201826F020182512F
:1024D000C5EC1FF002017F0702017F29D8A4D1D7E4
:1024E00079C2F6FF7AC2F7FF0201794B7A2B080016
:1024F000F5CF82F202018251D8B412005DD70C6E82
:10250000000E0D6EC580C5B0FED70C500C240C6EAD
:10251000C9CF0DF00C50FE0BE4EC1BF00F6E0F2832
:10252000D8A403D0C9CF0DF0C69E0F50D8A4F2D7BF
:10253000000E0F6EC7A403D0056A052A01D0056AF4
:10254000C5501F0B05100009D8A4F4D70350E4ECC4
:102550001BF00F6E0F28D8A403D0C9CF0DF0C69E74
:102560000F50D8A4F3D7000E0F6EC7A403D0056A8E
:10257000052A01D0056AC5501F0B05100009D8A413
:10258000F4D7C582C5B2FED7C9CF0DF00C500109F2
:10259000E4EC1BF00F6E0F28D8A403D0C9CF0DF0C8
:1025A000C69E0F50D8A4F2D7000E0F6EC7A403D05A
:1025B000056A052A01D0056AC5501F0B05100009E0
:1025C000D8A4F4D7000E0E6E000E0E6E2FD00E5053
:1025D000010D000EF324D96E020EF420DA6E6EECBB
:1025E0001FF0DF6EFF0E056EFF0E066E0450076EC5
:1025F000086A05500726065008220E50096E0A6A1E
:102600000750095C0A50800A0B6E0850800A0B586C
:10261000D8B005D0C59AC588C5A807D0FDD7C58A4A
:10262000C588C5B8FED7C5B8FED70E2A04500E5CC3
:10263000D8A0CDD7C584C5A41200FDD76DEC19F084
:10264000BCC02DF0BDC02EF0BEC02FF02EEC1FF090
:102650002DC033F02EC034F02FC035F0C5C009F0C6
:10266000C6C00AF008EC1EF009C030F00AC031F014
:102670000BC032F070EC0FF030C041F031C042F0CE
:1026800032C043F09A0E446E790E456E3B0E466E94
:10269000D2EC15F041C0B3F042C0B4F043C0B5F085
:1026A000BFC02DF0C0C02EF0C1C02FF02EEC1FF027
:1026B0002DC033F02EC034F02FC035F0C7C009F064
:1026C000C8C00AF008EC1EF009C030F00AC031F0B2
:1026D0000BC032F070EC0FF030C041F031C042F06E
:1026E00032C043F09A0E446E790E456E3B0E466E34
:1026F000D2EC15F041C0B6F042C0B7F043C0B8F01C
:10270000C2C02DF0C3C02EF0C4C02FF02EEC1FF0BD
:102710002DC033F02EC034F02FC035F0C9C009F001
:10272000CAC00AF008EC1EF009C030F00AC031F04F
:102730000BC032F070EC0FF030C041F031C042F00D
:1027400032C043F09A0E446E790E456E3B0E466ED3
:10275000D2EC15F041C0B9F042C0BAF043C0BBF0B2
:1027600012005EAE0CD0000E0001F06F210EEF6F74
:10277000000E5C6E000E5D6E000E5E6E12005C5010
:102780005D105E10D8A40CD0000E0001F06F220E78
:10279000EF6F000E5C6E000E5D6E000E5E6E12003E
:1027A000000E446E000E456E400E466E600E046EC6
:1027B000000E056E5CC001F05DC002F05EC003F06B
:1027C00096EC18F001C041F002C042F003C043F0A3
:1027D000D2EC15F041C030F042C031F043C032F0CD
:1027E000000E336E800E346EBF0E356E70EC0FF03F
:1027F00030C05CF031C05DF032C05EF000016007B7
:10280000D8A061075CC050F05DC051F05EC052F0CE
:102810000B0E536E100E546E000E566E080E556E53
:10282000BFEC16F050C05CF051C05DF052C05EF0DD
:10283000720E446E310E456E3F0E466E60C009F05A
:1028400061C00AF008EC1EF009C041F00AC042F075
:102850000BC043F0D2EC15F041C030F042C031F073
:1028600043C032F05CC033F05DC034F05EC035F080
:1028700070EC0FF030C05CF031C05DF032C05EF043
:1028800012000F0E126E000E136E7DD0250E18185A
:10289000D8B404D01850D9EC1FF075D0000E146EC7
:1028A0000DC0F6FF0EC0F7FF0D4A0E2A0800F5CF47
:1028B00018F01850000AD8B41200640AD8B403D033
:1028C0000D0AD8A460D012C0D9FF13C0DAFFDECF42
:1028D00016F0DDCF17F0020E1226000E132217AEEF
:1028E00006D0030E1412166C171ED8B0172A010E4C
:1028F000186E050E1818D8B412D01850020D010E1B
:10290000F324F66E100EF420F76E0900F550165CF5
:102910000900F5501758D8A002D0182AEAD714C0D9
:1029200011F0030E1116D8B403D02D0ED9EC1FF000
:1029300018C015F024D01550020D010EF324F66EC8
:10294000100EF420F76E0900F5CF03F00A00F5CF62
:1029500004F016C001F017C002F018EC1DF001C021
:1029600008F002C009F0000E0B6E0A0E0A6E8AEC27
:102970001DF00850300F186E1850D9EC1FF01506D6
:102980001528D8A4D8D70DC0F6FF0EC0F7FF0D4A02
:102990000E2A0800F5CF18F01850D8B4120076D7D8
:1029A0000201736F000E0201726FC580C5B0FED7C1
:1029B0000201735173250201736FC9CF72F20201D4
:1029C0007351FE0BF4EC1AF00201746F02017429CA
:1029D000D8A403D0C9CF72F2C69E0201745102017D
:1029E000D8A4EDD7000E0201746FC7A404D0020171
:1029F000716B712B02D00201716BC5501F0B02016C
:102A000071110009D8A4F1D702016F51F4EC1AF04A
:102A10000201746F02017429D8A403D0C9CF72F2E5
:102A2000C69E020174510201D8A4EED7000E020125
:102A3000746FC7A404D00201716B712B02D0020124
:102A4000716BC5501F0B020171110009D8A4F1D799
:102A5000C9CF72F202017051F4EC1AF00201746FE6
:102A600002017429D8A403D0C9CF72F2C69E020114
:102A700074510201D8A4EED7000E0201746FC7A4EE
:102A800004D00201716B712B02D00201716BC55031
:102A90001F0B020171110009D8A4F1D7C58AC5889E
:102AA000C5B8FED7C5B8FED7C584C5A41200FDD7EA
:102AB0000EC010F0116A126A0D34103601E3118055
:102AC00010501A6E1A50D8A409D0000E0C6E000EC9
:102AD0000D6E000E0E6E000E0F6E1200170E106EB1
:102AE0000CC011F00DC012F00EC013F01028146EBF
:102AF00004D0D890133212321132142EFAD711505A
:102B0000156E0D8EFF0E0C16FF0E0D16000E0E1616
:102B10000C50166E0D50176E0E50186E196A8E0EF0
:102B20001A5E1AAE16D01A50800A8F0FD8B009D08C
:102B3000000E0C6E000E0D6E000E0E6E000E0F6E6F
:102B40001200D89019321832173216321A3EF9D7BD
:102B500015D0170E1A640FD0000E0C6E000E0D6EFD
:102B6000000E0E6E000E0F6E1200D890163617363D
:102B7000183619361A061A50D8A4F7D71550D8B4F3
:102B800008D0191E181E171E166C000E17221822C8
:102B9000192216C00CF017C00DF018C00EF019C0A5
:102BA0000FF0120043C047F0486A496A4234473682
:102BB00001E3488047504A6E4A50D8A407D0000E1F
:102BC000416E000E426E000E436E120046C047F08A
:102BD000486A496A4534473601E3488047504F6E9A
:102BE0004F50D8A407D0000E416E000E426E000E6A
:102BF000436E12004F507B0F4A2643C04FF04650A1
:102C00004F1A800E4F16428E458EFF0E4416FF0E51
:102C10004516000E4616000E4B6E000E4C6E000E52
:102C20004D6E070E4E6E41A006D044504B264550C7
:102C30004C2246504D22D890433242324132D890F5
:102C40004436453646364E2EEED7090E4E6E41A01E
:102C500006D044504B2645504C2246504D22D89029
:102C6000433242324132D8904D324C324B324E2EAA
:102C7000EED74BC001F04CC002F04DC003F04AC08B
:102C800004F04FC005F03FEC18F001C041F002C065
:102C900042F003C043F0120052C056F0576A586A1F
:102CA0005134563601E3578056505D6E5D50D8A4BE
:102CB00007D0000E506E000E516E000E526E1200C4
:102CC00055C056F0576A586A5434563601E3578057
:102CD00056505E6E5E50D8A407D0000E506E000EA7
:102CE000516E000E526E1200000E5A6E000E5B6E98
:102CF000000E5C6E5E50890F5D5E52C05EF05550F6
:102D00005E1A800E5E16518EFF0E5016FF0E511683
:102D1000000E5216548EFF0E5316FF0E5416000E60
:102D20005516180E596ED8905A365B365C3653508D
:102D3000505C5450515855505258D8A007D0535059
:102D4000505E5450515A5550525A5A80D89050366D
:102D500051365236592EE7D75AC001F05BC002F007
:102D60005CC003F05DC004F05EC005F03FEC18F0FD
:102D700001C050F002C051F003C052F0120055C023
:102D800001F056C002F0000E046E030E036EF6EC66
:102D90001EF053C057F054C058F00150572602504F
:102DA000582257C0F6FF58C0F7FF0900F5CF59F079
:102DB0000900F5CF5AF00A00F5CF5BF03ED059C0BC
:102DC00044F05AC045F05BC046F050C041F051C0DD
:102DD00042F052C043F0D2EC15F041C030F042C096
:102DE00031F043C032F0000E046E030E036E550640
:102DF000D8A0560655C001F056C002F0F6EC1EF001
:102E000053C057F054C058F0015057260250582272
:102E100057C0F6FF58C0F7FF0900F5CF33F009009F
:102E2000F5CF34F00A00F5CF35F070EC0FF030C07C
:102E300059F031C05AF032C05BF055505610D8A44A
:102E4000BED759C050F05AC051F05BC052F01200CA
:102E500020EECBF010EE9AF0040EDBCFE3FFE80695
:102E6000FCE292C00CF093C00DF094C00EF058EC50
:102E700015F00C5000019F6F000E446EC80E456E99
:102E8000420E466EA10E3F6E000E406E92C03CF0A8
:102E900093C03DF094C03EF0A9EC1BF03CC041F063
:102EA0003DC042F03EC043F0D2EC15F041C097F077
:102EB00042C098F043C099F097C00CF098C00DF054
:102EC00099C00EF058EC15F00C500001A06FC70E21
:102ED00000019A6F9FC09BF0A0C09CF095C09DF030
:102EE00096C09EF0000E0001A46F040E0001A465C0
:102EF00001D012000001A451010D9A0EF324D96EE5
:102F0000000EF420DA6EDF50D9EC1FF00001A42B84
:102F1000ECD72D0E02016F6F040E0201706F530E7D
:102F2000D0EC14F0310E02016F6F0B0E0201706FC6
:102F3000530ED0EC14F02C0E02016F6F0A0E02013A
:102F4000706F530ED0EC14F02E0E02016F6F000E56
:102F50000201706F530ED0EC14F0280E02016F6F57
:102F6000050E0201706F530ED0EC14F0290E020111
:102F70006F6F140E0201706F530ED0EC14F02F0E11
:102F800002016F6F000E0201706F530ED0EC14F04F
:102F90002E0E02016F6F040E0201706F530ED0EC03
:102FA00014F02D0E02016F6F080E0201706F530EA8
:102FB000D0EC14F0000E02016F6F010E0201706F71
:102FC000530E46EC10F0020100511200000E106E7C
:102FD000000E0F6E000E126E000E116E000E146EBB
:102FE000000E136E20EE02F00850D9260950DA22A6
:102FF000DF50016E20EE01F00850D9260950DA2288
:10300000DF5009EC1FF001C00DF002C00EF0000E01
:10301000126E030E116E10D011500824D96E12508A
:103020000920DA6EDF500A6E0A501324136E000E68
:103030001420146E114A122A020E0D240A6E000E7C
:103040000E200B6E11500A5C0B50800A0C6E125051
:10305000800A0C58D8B0E0D713500F6E106A13C016
:103060000AF014C00BF00A1E0B1E0A4A0B2AFF0EB0
:103070000A240F6E000E0B20106E0F501200045029
:10308000D8B405D0015002100310D8A40CD0000E03
:10309000016E000E026E000E036E1200042AD8901C
:1030A000033202320132000E0114066E000E0214C9
:1030B000076EFE0E0314086E065007100810D8B4F1
:1030C0000CD0ECD7042A010E0126000E0222000EBD
:1030D0000322D890033202320132000E0114066E30
:1030E000000E0214076EFF0E0314086E0650071040
:1030F0000810D8B406D0E6D70406D89001360236B8
:10310000033602BE03D0020E0460F6D704A0029E6E
:10311000D8900432045003120550D8A4038E01C085
:1031200001F002C002F003C003F0120001500210CF
:103130000310D8A40FD004C0D9FF05C0DAFF000ED9
:10314000DE6E000EDD6E000E016E000E026E000ED1
:10315000036E120003507F0B066E076AD890063686
:10316000073604C0D9FF05C0DAFF06C0DEFF07C07E
:10317000DDFF02AE03D0066A062A01D0066A0650B9
:1031800004C0D9FF05C0DAFFDE12000EDD1204C054
:10319000D9FF05C0DAFF820EDE26FF0EDD22038096
:1031A0000382038403860388038A039C029E01C072
:1031B00001F002C002F003C003F012000FAE16D0FF
:1031C0000DC013F00EC014F00FC015F0131E141E26
:1031D000151E132A000E14221522000E13240D6E44
:1031E000000E14200E6E800E15200F6E12AE16D03B
:1031F00010C013F011C014F012C015F0131E141EED
:10320000151E132A000E14221522000E1324106E10
:10321000000E1420116E800E1520126E000E0D1A75
:10322000000E0E1A800E0F1A000E101A000E111A40
:10323000800E121A10500D5C11500E5812500F587B
:10324000D8B002D0D8901200D88012003CC025F02F
:103250003DC026F03EC027F034EC1AF025C02DF01A
:1032600026C02EF027C02FF02EEC1FF02DC030F01E
:103270002EC031F02FC032F03CC033F03DC034F0EE
:103280003EC035F070EC0FF030C03FF031C040F080
:1032900032C041F03CC030F03DC031F03EC032F0B1
:1032A0003FC033F040C034F041C035F070EC0FF057
:1032B00030C03CF031C03DF032C03EF03CC025F0A3
:1032C0003DC026F03EC027F034EC1AF025C03CF09B
:1032D00026C03DF027C03EF01200320E036E060EEF
:1032E000046E530E7FEC12F000C201F00201015196
:1032F0007CEC1FF001C006F002C007F0000E096E62
:10330000100E086E1DEC1CF006C0C5F007C0C6F01C
:1033100002C201F0020103517CEC1FF001C006F073
:1033200002C007F0000E096E100E086E1DEC1CF0B6
:1033300006C0C7F007C0C8F004C201F00201055181
:103340007CEC1FF001C006F002C007F0000E096E11
:10335000100E086E1DEC1CF006C0C9F007C0CAF0C4
:103360001200000E066E04AE06D0036C041ED8B028
:10337000042A010E066E02AE06D0016C021ED8B001
:10338000022A010E061A000E086E000E076E035088
:103390000410D8B41CD0010E056E04D0D8900336AA
:1033A0000436052A04AEFAD7D890073608360350FB
:1033B000015C04500258D8A005D00350015E0450AF
:1033C000025A0780D89004320332052EEDD70650FA
:1033D000D8B404D0076C081ED8B0082A07C001F082
:1033E00008C002F0120003EE7FF01BEEB8F0EE6AA8
:1033F000E550E150FCE1E250FAE103EE00F07F0E0F
:10340000EE6AE806FDE102EE00F06D0EEE6AE806F7
:10341000FDE101EEE4F0180EEE6AE806FDE100EED3
:10342000B3F04A0EEE6AE806FDE1D30EF66E3F0EEB
:10343000F76E000EF86E0900F5CFFCF1D00EF66EB7
:103440003F0EF76E000EF86E0900F5CFFDF0090093
:10345000F5CFFEF00900F5CFFFF05F905F92000E10
:10346000F86E000189EF1FF025C001F026C002F0C0
:1034700027C003F02B0E046E000E056E96EC18F0BC
:103480002CAE07D0000E256E000E266E000E276EA5
:1034900012002C5004E1150E2B5CD8A007D025C0DB
:1034A00025F026C026F027C027F0120025C00CF01A
:1034B00026C00DF027C00EF058EC15F00CC01BF024
:1034C0000DC01CF00EC01DF00FC01EF06DEC1BF007
:1034D0001BC028F01CC029F01DC02AF028C025F010
:1034E00029C026F02AC027F01200000E5A6E71EC97
:1034F0001EF005C05BF006C05CF0D8900101F93504
:10350000D96E0101FA35DA6E7F0ED926030EDA2262
:103510005BC0DEFF5CC0DDFFE80E0101F95D030E5C
:103520000101FA59D8A019D03CEC0BF00101FB6F56
:103530000101FB51D8A4FBC1F3F0000E0101FA6FA9
:10354000000EF96F000E5D6E190E5D6401D008D09B
:103550005D509AEC0EF05D2AF7D70101F94BFA2B7A
:103560000101FC51020F0101FC6F12000001E14B4F
:10357000E22B0001DF4BE02BE80E0001E15D030EC2
:103580000001E259D8A017D02FEC08F0D6C07AF08D
:10359000D7C07BF0D8C07CF0F3C07DF01FEC0DF0FD
:1035A00000017E6F1AEC11F00001F82B000E0001F3
:1035B000E26F000EE16F040E0001DF190001E0115F
:1035C000D8A407D075EC1AF0000E0001E06F000ED1
:1035D000DF6F3C0E0001F819D8A412000001F72B90
:1035E000000E0001F86F120002016E6F6EC2C9FF7B
:1035F000C6AE02D0FF0E1200C6500F0B080AD8B498
:103600000FD0C6500F0B0B0AD8B40AD0C6889EA69E
:10361000FED7C7A4C7B002D0FE0E1200000E1200E3
:10362000C6500F0B080AD8B405D0C6500F0B0B0AB2
:10363000D8A41200C7B0FED7C7A404D002016D6B96
:103640006D2B02D002016D6BC5501F0B02016D1175
:103650000009D8A4F1D7C5AC02D0FE0E1200000EAE
:103660001200000E0201726F000E716F02016F51A5
:1036700002017011D8B42CD0010E0201736F06D074
:103680000201D8906F3770370201732B020170AFBF
:10369000F7D70201D8907137723702016F510201DA
:1036A0006D5D0201705102016E59D8A00AD002016D
:1036B0006F5102016D5F0201705102016E5B0201E8
:1036C00071810201D89070336F330201732FE1D7FB
:1036D00071C26DF272C26EF21200000E246E8E0E76
:1036E000236E1EAE11D01E1E1D1E1C1E1B6C000E56
:1036F0001C221D221E22010E246E06D0D8901E32DE
:103700001D321C321B32232A000E1B141F6E000EAA
:103710001C14206E000E1D14216EFF0E1E14226E4E
:103720001F50201021102210D8A4E8D71BC001F090
:103730001CC002F01DC003F023C004F024C005F03B
:103740003FEC18F001C01BF002C01CF003C01DF0DC
:1037500012003CC00CF03DC00DF03EC00EF058EC25
:1037600015F00CC01BF00DC01CF00EC01DF0E9ECF4
:103770001DF03FC0D9FF40C0DAFF1BC0DEFF1CC0F8
:10378000DEFF1DC0DEFF3FC0D9FF40C0DAFFDECF45
:103790002DF0DECF2EF0DDCF2FF02EEC1FF02DC060
:1037A00030F02EC031F02FC032F03CC033F03DC0BD
:1037B00034F03EC035F070EC0FF030C03CF031C05A
:1037C0003DF032C03EF01200026E02C0C9FFC6AE2C
:1037D00002D0FF0E1200C6500F0B080AD8B40FD04B
:1037E000C6500F0B0B0AD8B40AD0C6889EA6FED7C7
:1037F000C7A4C7B002D0FE0E1200000E1200C650C1
:103800000F0B080AD8B405D0C6500F0B0B0AD8A46A
:103810001200C7B0FED7C7A403D0016A012A01D0A5
:10382000016AC5501F0B01100009D8A4F4D7C5AC1C
:1038300002D0FE0E1200000E120008C00AF0FF0EA9
:103840000A26010E0B6E000E0C6E0A2A03D0D890C9
:103850000B360C360A2EFBD706500B1607500C16EB
:103860000B500C10D8B41BD0000E0E6E000E0D6E57
:10387000061C0D6E071C0E6E010E0D240D6E000E43
:103880000E200E6E0DC00AF00EC00BF00A1E0B1EAD
:103890000A4A0B2A0AC006F00BC007F0120006C045
:1038A00006F007C007F012000201716F000EC26E31
:1038B000000EC16E000EC06E02016D517C0BC26E17
:1038C0006EC2C1FF71C26FF20201D8906F37020160
:1038D000D8906F37380E02016F1771C270F2020173
:1038E000703B0F0E7017070E020170170201715125
:1038F000800B0201701102016F11C06E02016DAFE9
:1039000003D09E9C9D8CF28CC280120002017651E5
:1039100002017711D8B426D0010E0201786F06D0CB
:103920000201D890763777370201782B020177AF02
:10393000F7D7020176510201745D0201775102014D
:103940007559D8A008D0020176510201745F0201B6
:1039500077510201755B0201D8907733763302010B
:10396000782FE7D774C274F275C275F212000201A3
:103970006F6F000EAC6E000EAB6E02016FB1AC88C3
:1039800002016FA302D0AC8CAB8C02016FB5AC8E80
:1039900002016FA702D0AB8801D0AB8A02016FB9D8
:1039A000AC8402016FBBAB8602016FAD02D09D8A71
:1039B00001D09D9A02016FAF02D09D8801D09D98E1
:1039C0006DC2AFFF02016E51B06EAC8AAB8E1200B9
:1039D0000201726F11D0970E0201086F850E02016D
:1039E000076FED0E07D0D70E0201086F000E02011F
:1039F000076FE50E066F08D002017251010AD8B4B4
:103A0000EAD7030AD8B4EFD7020172510201D8A451
:103A100003D0E3EC1FF0120002010851E3EC1EF0AA
:103A200006C26DF207C26EF2B3EC1FF0F294120000
:103A3000000E066E000E056E03500410D8B41CD0A4
:103A4000010E076E04D0D89003360436072A04AE60
:103A5000FAD7D890053606360350015C0450025858
:103A6000D8A005D00350015E0450025A0580D890BA
:103A700004320332072EEDD705C001F006C002F074
:103A80001200000E0201856F000E0201846F000E0D
:103A9000836F1C0E0201856F000E0201846F330ECE
:103AA000836F4F0EAB16AC9ACF0E9D1683C26DF28C
:103AB00084C26EF202018551B7EC1CF0260E0201A1
:103AC000796F100E02017A6FD5EC11F0120062C00E
:103AD0005CF063C05DF064C05EF0B1EC13F05CC0FC
:103AE00065F05DC066F05EC067F065C041F066C01D
:103AF00042F067C043F05C0E446EDE0E456E3E0E33
:103B0000466ED2EC15F041C062F042C063F043C093
:103B100064F012000A500B10D8B418D0010E0C6ECD
:103B200004D0D8900A360B360C2A0BAEFAD70A50BE
:103B3000085C0B500958D8A004D00A50085E0B50FE
:103B4000095AD8900B320A320C2EF1D708C008F06F
:103B500009C009F012000F013A970F013A999486B3
:103B60009488C69A000E02016D6F080E40EC1FF09B
:103B7000130EC86EC7A404D002016F6B6F2B02D066
:103B800002016F6BC5501F0B02016F110009D8B401
:103B90001200F0D7010E0001F96F82B604D00001C7
:103BA000926B922B02D00001926B000192479247D8
:103BB0009247825000019219F70B9219826EB6EC6F
:103BC0001AF006C201F007C202F0BCEC1FF0F2943A
:103BD0001200000E1E6E1DAE08D01D1E1C1E1B6C9A
:103BE000000E1C221D22010E1E6E1BC001F01CC007
:103BF00002F01DC003F08E0E046E1EC005F03FECF7
:103C000018F001C01BF002C01CF003C01DF0120030
:103C1000000E0C6E0AAE06D0096C0A1ED8B00A2A35
:103C2000010E0C6E09C001F00AC002F0036A8E0E8C
:103C3000046E0CC005F03FEC18F001C009F002C0A2
:103C40000AF003C00BF01200000E0201726F000EAA
:103C50000201736F000E0201746FA10E0201726FF8
:103C6000270E0201736FFC0E0201746F73C26DF2B6
:103C700074C26EF20201725154EC1CF01200DFECBF
:103C80001FF08AEC1EF041EC1DF0000E0201716F76
:103C9000020EE8EC1CF094EC1FF024EC1EF0ABECF0
:103CA0001DF089EC17F00201866FF28CF28E120083
:103CB000000E086E000E076EB70E9FEC1FF0E6ECCC
:103CC0001FF0D3EC1FF00009D8A4FBD7CCEC1FF0F9
:103CD00001C007F002C008F007C005F008C006F0F8
:103CE0001200000E086E000E076EAF0E9FEC1FF064
:103CF000E6EC1FF0D3EC1FF00009D8A4FBD7CCEC06
:103D00001FF001C007F002C008F007C005F008C0AE
:103D100006F012000F013A9D0F013A9F949C948E79
:103D20000F013A95949482949296809693880F010D
:103D30003989938A0F01398B93800F0139918190D2
:103D400012000001FC51010D000EF324D96E030E88
:103D5000F420DA6EB8EC1EF0DF6E4E0E0D6E100E13
:103D60000E6E00C30FF0106A41EC14F09E9A120020
:103D7000F20E0001FA17ABAC06D00001FA91ABA02D
:103D800002D00001FA81ABA402D00001FA85ABA2F7
:103D900002D00001FA87AECF01F00150120002AE4E
:103DA0000DD001C003F002C004F0031E041E034A3C
:103DB000042A03C001F004C002F0120001C001F0A7
:103DC00002C002F0120002016D6F02016D517F0B03
:103DD000D56E000ED76E000ED66EF29402016DAF56
:103DE00002D0F28A01D0F29AD58E1200015003025D
:103DF000F3CF05F0F4CF06F001500402F35006268D
:103E000002500302F350062605C001F006C002F07E
:103E10001200056E000E076E000E066E0550046E51
:103E2000036A01500324066E000E0420076E06C0CC
:103E300001F007C002F0120009C001F00AC002F050
:103E4000036A8E0E046E000E056E3FEC18F001C082
:103E500009F002C00AF003C00BF012002D502E1022
:103E60002F10D8B406D0000E2D1A000E2E1A800E78
:103E70002F1A2DC02DF02EC02EF02FC02FF01200C3
:103E800002016E6F3F0EC716000EC66E000EC56EA5
:103E900002016E51C61202016D51C712C68A12008C
:103EA000000E056E020E03180410D8B401C005F010
:103EB00003040410D8A402D00250056E055012006D
:103EC000C6500F0B080AD8B404D0C6500F0B0B0A0B
:103ED000D8B4C586C7A0FED7C9501200C6500F0B74
:103EE000080AD8B404D0C6500F0B0B0AD8B4C58644
:103EF000C7A0FED7C9501200056E015005C003F0DF
:103F0000046A03C004F0036A0310016E0450026ED9
:103F100012003FEC1EF03D0E0201796F100E0201FF
:103F20007A6FD5EC11F0FFD7F1949F8A9D8A9E9A03
:103F3000F288F18CF19EF28CF28EF28E1200026EFB
:103F400002C001F07C0E0116C250830B0110C26E3C
:103F50001200016EACAC04D0AC900001FAB3AC809E
:103F600001C0ADFF12006DC26FF26EC270F270C27E
:103F7000D7FF6FC2D6FF120001C003F002C004F0E9
:103F800004C0D7FF03C0D6FF120002016D6F9EA8C8
:103F9000FED76DC2ADFF1200C450036EC350016E58
:103FA00003C002F01200C2A202D0010E1200000EE5
:103FB0001200016E9EA8FED701C0ADFF1200D3888B
:103FC000D38AD38C1200D59EF29A1200C2821200BC
:043FD00000004002AB
:020000040030CA
:0E000000FF331F3CFFBF85FF0FC00FE00F4016
:00000001FF
