:040000005FEF00F0BE
:100008005F82FACFB0F0FBCFB1F0E9CFB2F0EACF20
:10001800B3F0E1CFB4F0E2CFB5F0D9CFB6F0DACF94
:10002800B7F0F3CFB8F0F4CFB9F0F6CFBAF0F7CF16
:10003800BBF0F8CFBCF0F5CFBDF0F2B478EC32F0FD
:10004800A4BAA3AA01D0A49AF2A217D044EC10F043
:1000580073C09DF074C09EF075C09FF0ECC0A0F016
:10006800CA0E0001A16F39EC2AF0300E036E010EA2
:10007800046E530EEBEC23F0F292BDC0F5FFBCC04A
:10008800F8FFBBC0F7FFBAC0F6FFB9C0F4FFB8C0AD
:10009800F3FFB7C0DAFFB6C0D9FFB5C0E2FFB4C0FE
:1000A800E1FFB3C0EAFFB2C0E9FFB1C0FBFFB0C0D7
:0A00B800FAFF5F9211008CEF2FF0A9
:1010000000010000000A00000064000000E8030086
:101010000010270000A086010040420F0080969833
:101020000000E1F50500CA9A3B00803FCDCC3DD7DA
:10103000233C12833AB7D138C62737388635C0D615
:1010400033CC2B32708930E7DB2EE53C1E42A20DFB
:1010500000803F00204100C842007A44401C4650B6
:10106000C34724744997184BBCBE4C6B6E4E031596
:101070005079AD60F3497100000000803FF0FFBE81
:10108000E2A93E8376BEAE2B3E3CC3BDD2133D7873
:10109000D3BB0A092054656D703A20256609464382
:1010A0003A25640920506F733A2025642000536D5F
:1010B0006172742053686972742076312E3000009A
:1010C000C10E0201CA6F020E0201CB6FE7D3250EDB
:1010D0000201DD19D8B405D00201DD5154EC34F021
:1010E000DDD3000E0201CD6F000ECC6F03D00201E4
:1010F000CD8518D0BFC2F6FFC0C2F7FF0201BF4BBB
:10110000C02B0800F5CFDDF20201DD51000AD8B492
:101110001200640AD8B406D0020AD8B4E8D70F0A7D
:10112000D8A4BCD3070E0201CD15D8B404D3000E49
:101130000201CF6F060ECE6FCAC2D9FFCBC2DAFF53
:10114000DECFDAF2DECFDBF2DDCFDCF2030E02011E
:10115000CA27000ECB230201DCAF11D0DAC280F225
:10116000DBC281F2DCC282F253EC33F080C2DAF2ED
:1011700081C2DBF282C2DCF2030E0201CC13000E4C
:101180000201D56F000ED46F0201DA510201DB11AA
:101190000201DC11D8B49BD0820E0201C16FFF0E98
:1011A0000201C26FDAC2C3F2DBC2C4F2DCC2C5F212
:1011B000DDC2C6F2100E06D00201D890C633C53388
:1011C000C433C333E82EF8D70201C3510201C1254D
:1011D0000201D46F000E0201C2210201D56F02018B
:1011E000D407D8A0D507D4C28EF2D5C28FF2000E94
:1011F0000201916F030E906FD2EC32F08EC2D4F2E6
:101200008FC2D5F2D4C286F2D5C287F2000E020197
:10121000896F0A0E886F9CEC2AF086C2D4F287C2CE
:10122000D5F20201D5AF04D00201D407D8A0D5076A
:101230000201D451000863EC13F0A3C2D6F2A4C299
:10124000D7F2A5C2D8F2D6C294F2D7C295F2D8C2CC
:1012500096F2DAC297F2DBC298F2DCC299F2FAECAB
:1012600021F094C2D6F295C2D7F296C2D8F2D6C275
:1012700080F2D7C281F2D8C282F2000E0201836FDF
:10128000800E0201846F3F0E0201856FD5EC29F0BC
:101290000201D8B005D00201D407D8A0D50717D0D5
:1012A000D6C280F2D7C281F2D8C282F2000E020109
:1012B000836F200E0201846F410E0201856FD5EC11
:1012C00029F00201D8A003D00201D44BD52B020192
:1012D000CFBF08D00201CF511DE10D0E0201CE5D3E
:1012E000D8B018D0DAC2ADF2DBC2AEF2DCC2AFF2D7
:1012F0000201CE5110EC1BF0A3C2B0F2A4C2B1F2B5
:10130000A5C2B2F266EC1CF0ADC2DAF2AEC2DBF2FC
:10131000AFC2DCF20201D5BF08D00201D5512AE1EB
:101320000A0E0201D45DD8B025D00201DA510201C3
:10133000DB110201DC11D8B463D0DAC2AAF2DBC23D
:10134000ABF2DCC2ACF2A9EC22F00201AA5102011C
:10135000AB110201AC110201AD11D8A451D00201B0
:10136000D5BF4ED00201D55105E1020E0201D45D78
:10137000D8A046D0D6C280F2D7C281F2D8C282F2BB
:10138000700E0201836F890E0201846F400E02010C
:10139000856FD5EC29F00201D8B003D00201F70E19
:1013A00002D00201F80ED427FF0ED5230201D4513A
:1013B00063EC13F0A3C2D6F2A4C2D7F2A5C2D8F24E
:1013C000DAC280F2DBC281F2DCC282F2D6C283F2E0
:1013D000D7C284F2D8C285F267EC20F080C2D0F286
:1013E00081C2D1F282C2D2F283C2D3F2000E0201D4
:1013F000DA6F000E0201DB6F000E0201DC6F33D0EA
:10140000DAC2AAF2DBC2ABF2DCC2ACF2A9EC22F087
:10141000AAC2D0F2ABC2D1F2ACC2D2F2ADC2D3F208
:10142000DAC2B9F2DBC2BAF2DCC2BBF2D0C288F2D5
:10143000D1C289F2D2C28AF2D3C28BF2D5EC2EF09D
:1014400088C2BCF289C2BDF28AC2BEF2C7EC31F0DA
:10145000B9C2DAF2BAC2DBF2BBC2DCF2000E0201A0
:10146000D56F000ED46F010E0201DD6F0A0E02016E
:10147000DD19D8B41ED00201DD51040D010EF32494
:10148000F66E100EF420F76E0900F5500201D05DE3
:101490000900F5500201D1590900F5500201D25955
:1014A0000900F5500201D359D8A003D00201DD2B69
:1014B000DDD7030E0201CC150201C16F000E02013F
:1014C000CD150201C26F0201C1510201C211D8B48F
:1014D0004BD02D0E54EC34F047D0D0C280F2D1C2A4
:1014E00081F2D2C282F2D3C283F20201DD51040D35
:1014F000010EF324F66E100EF420F76E0900F5CFFE
:1015000084F20900F5CF85F20900F5CF86F20A00D2
:10151000F5CF87F2FBEC2AF080C2D6F281C2D7F277
:1015200082C2D8F283C2D9F2D6C28DF2D7C28EF26D
:10153000D8C28FF2D9C290F20A0E0201916F000E4A
:10154000926F000E936F000E946F5EEC2CF08DC2C4
:10155000D6F28EC2D7F28FC2D8F290C2D9F202016F
:10156000D651300F54EC34F00201DD070201DD29C1
:10157000D8B408D0B2D7300E54EC34F00201D407FE
:10158000D8A0D5070201D5BF07D00201D551F3E19C
:101590000201D405D8B0EFD70201CFBF0CD00201B1
:1015A000CF5105E1090E0201CE5DD8A004D0080E8E
:1015B0000201DD6F02D0CEC2DDF20201DD51020177
:1015C000CE5F000E0201DDBFFF0E0201CF5B020104
:1015D000DD510201D8B403D02E0E54EC34F00201D8
:1015E000DD5163EC13F0A3C2C7F2A4C2C8F2A5C2D6
:1015F000C9F2DAC297F2DBC298F2DCC299F2C7C232
:1016000094F2C8C295F2C9C296F2FAEC21F094C2E3
:10161000AAF295C2ABF296C2ACF2A9EC22F0AAC231
:10162000D0F2ABC2D1F2ACC2D2F2ADC2D3F26ED024
:10163000D0C280F2D1C281F2D2C282F2D3C283F28E
:101640000201DD51040D010EF324F66E100EF4209C
:10165000F76E0900F5CF84F20900F5CF85F2090095
:10166000F5CF86F20A00F5CF87F2FBEC2AF080C2B4
:10167000D6F281C2D7F282C2D8F283C2D9F2D6C2E0
:101680008DF2D7C28EF2D8C28FF2D9C290F20A0E72
:101690000201916F000E926F000E936F000E946F17
:1016A0005EEC2CF08DC2D6F28EC2D7F28FC2D8F289
:1016B00090C2D9F20201D651300F54EC34F0D0C2AE
:1016C0008DF2D1C28EF2D2C28FF2D3C290F2020159
:1016D000DD51040D010EF324F66E100EF420F76EAA
:1016E0000900F5CF91F20900F5CF92F20900F5CF8C
:1016F00093F20A00F5CF94F25EEC2CF08DC2D0F29A
:101700008EC2D1F28FC2D2F290C2D3F20201DD07B3
:101710000201DD29D8B408D08BD7300E54EC34F058
:101720000201CE07D8A0CF070201CE510201CF118E
:10173000D8B4B4D0F2D7CAC2D9FFCBC2DAFFDECF59
:10174000D0F2DDCFD1F20201000ED1BFFF0ED26F79
:10175000D36F020E0201CA27000ECB230201D3AFC2
:101760000CD0030E0201CC130201D31FD21FD11FD4
:10177000D06D000ED123D223D323010E0201DD6FE1
:101780000A0E0201DD19D8B41ED00201DD51040D8C
:10179000010EF324F66E100EF420F76E0900F550DA
:1017A0000201D05D0900F5500201D1590900F55040
:1017B0000201D2590900F5500201D359D8A003D033
:1017C0000201DD2BDDD7030E0201CC150201C16F32
:1017D000000E0201CD150201C26F0201C1510201CA
:1017E000C211D8B403D02D0E54EC34F00201DD51F7
:1017F0000201CE6FCF6BCEBFCF0745D0CEC2C1F2B4
:10180000CFC2C2F20201D890C137C2370201D890CC
:10181000C137C237010E0201C125F66E100EC2217A
:10182000F76E0900F5CF84F20900F5CF85F20900C3
:10183000F5CF86F20A00F5CF87F2D0C280F2D1C28E
:1018400081F2D2C282F2D3C283F2FBEC2AF080C2D0
:101850008DF281C28EF282C28FF283C290F20A0EA2
:101860000201916F000E926F000E936F000E946F45
:101870005EEC2CF002018D51300F0201DD6F020190
:10188000DD5154EC34F00201CE07D8A0CF0702019D
:10189000CE29B4E10201CF29D8A4B0D7BFC2F6FF48
:1018A000C0C2F7FF0201BF4BC02B0800F5CFDDF22D
:1018B0000201DD51D8B412000AD4880E0001986FDD
:1018C000000E0001996FD1D3250E0001AB19D8B4D9
:1018D00005D00001AB5168EC34F0C7D3000E000115
:1018E0009B6F000E9A6F03D000019B8518D086C0B5
:1018F000F6FF87C0F7FF0001864B872B0800F5CF66
:10190000ABF00001AB51000AD8B41200640AD8B49D
:1019100006D0020AD8B4E8D70F0AD8A4A6D3070E77
:1019200000019B15D8B4F0D2000E00019D6F060E89
:101930009C6F98C0D9FF99C0DAFFDECFA8F0DECF48
:10194000A9F0DDCFAAF0030E00019827000E99231D
:101950000001AAAF11D0A8C04CF0A9C04DF0AAC098
:101960004EF0B7EC33F04CC0A8F04DC0A9F04EC01B
:10197000AAF0030E00019A13000E0001A36F000EDF
:10198000A26F0001A8510001A9110001AA11D8B449
:1019900091D0820E00018F6FFF0E0001906FA8C0E2
:1019A00091F0A9C092F0AAC093F0ABC094F0100ED1
:1019B00006D00001D8909433933392339133E82EBC
:1019C000F8D70001915100018F250001A26F000E90
:1019D000000190210001A36F0001A207D8A0A30776
:1019E000A2C00FF0A3C010F0000E126E030E116E15
:1019F00092EC33F00FC0A2F010C0A3F0A2C007F029
:101A0000A3C008F0000E0A6E0A0E096E11EC2EF04B
:101A100007C0A2F008C0A3F00001A3AF04D00001EA
:101A2000A207D8A0A3070001A2510008BAEC15F044
:101A300024C0A4F025C0A5F026C0A6F0A4C015F0CF
:101A4000A5C016F0A6C017F0A8C018F0A9C019F0DC
:101A5000AAC01AF075EC28F015C0A4F016C0A5F0C5
:101A600017C0A6F0A4C00DF0A5C00EF0A6C00FF0E0
:101A7000000E106E800E116E3F0E126EF6EC2CF002
:101A8000D8B005D00001A207D8A0A30713D0A4C0E6
:101A90000DF0A5C00EF0A6C00FF0000E106E200EC7
:101AA000116E410E126EF6EC2CF0D8A003D000019E
:101AB000A24BA32B00019DBF08D000019D511DE149
:101AC0000D0E00019C5DD8B018D0A8C04FF0A9C081
:101AD00050F0AAC051F000019C519AEC1DF024C0B6
:101AE00052F025C053F026C054F0BDEC1EF04FC09C
:101AF000A8F050C0A9F051C0AAF00001A3BF08D0BF
:101B00000001A35126E10A0E0001A25DD8B021D048
:101B10000001A8510001A9110001AA11D8B45BD09D
:101B2000A8C02BF0A9C02CF0AAC02DF0EFEC28F033
:101B30002B502C102D102E10D8A44DD00001A3BF77
:101B40004AD00001A35105E1020E0001A25DD8A018
:101B500042D0A4C00DF0A5C00EF0A6C00FF0700ECC
:101B6000106E890E116E400E126EF6EC2CF0D8B08D
:101B700003D00001F70E02D00001F80EA227FF0EDD
:101B8000A3230001A251BAEC15F024C0A4F025C093
:101B9000A5F026C0A6F0A8C001F0A9C002F0AAC016
:101BA00003F0A4C004F0A5C005F0A6C006F026EC22
:101BB00025F001C09EF002C09FF003C0A0F004C059
:101BC000A1F0000E0001A86F000E0001A96F000E29
:101BD0000001AA6F33D0A8C02BF0A9C02CF0AAC076
:101BE0002DF0EFEC28F02BC09EF02CC09FF02DC004
:101BF000A0F02EC0A1F0A8C060F0A9C061F0AAC0FA
:101C000062F09EC009F09FC00AF0A0C00BF0A1C016
:101C10000CF070EC31F009C063F00AC064F00BC046
:101C200065F0EDEC31F060C0A8F061C0A9F062C0D1
:101C3000AAF0000E0001A36F000EA26F010E0001BA
:101C4000AB6F0A0E0001AB19D8B41ED00001AB5126
:101C5000040D010EF324F66E100EF420F76E090049
:101C6000F55000019E5D0900F55000019F590900E3
:101C7000F5500001A0590900F5500001A159D8A064
:101C800003D00001AB2BDDD7030E00019A15000134
:101C90008F6F000E00019B150001906F00018F51A6
:101CA00000019011D8B44AD02D0E68EC34F046D023
:101CB0009EC001F09FC002F0A0C003F0A1C004F0DC
:101CC0000001AB51040D010EF324F66E100EF4204A
:101CD000F76E0900F5CF05F00900F5CF06F0090011
:101CE000F5CF07F00A00F5CF08F053EC2EF001C055
:101CF000A4F002C0A5F003C0A6F004C0A7F0A4C0E1
:101D00000EF0A5C00FF0A6C010F0A7C011F00A0E8B
:101D1000126E000E136E000E146E000E156EAAECFD
:101D200030F00EC0A4F00FC0A5F010C0A6F011C096
:101D3000A7F00001A451300F68EC34F00001AB07AC
:101D40000001AB29D8B408D0B3D7300E68EC34F01A
:101D50000001A207D8A0A3070001A3BF07D000017C
:101D6000A351F3E10001A205D8B0EFD700019DBF58
:101D70000CD000019D5105E1090E00019C5DD8A029
:101D800004D0080E0001AB6F02D09CC0ABF0000184
:101D9000AB5100019C5F000E0001ABBFFF0E0001C4
:101DA0009D5B0001AB510001D8B403D02E0E68EC4E
:101DB00034F00001AB51BAEC15F024C095F025C009
:101DC00096F026C097F0A8C018F0A9C019F0AAC0D4
:101DD0001AF095C015F096C016F097C017F075EC84
:101DE00028F015C02BF016C02CF017C02DF0EFEC2A
:101DF00028F02BC09EF02CC09FF02DC0A0F02EC06C
:101E0000A1F06DD09EC001F09FC002F0A0C003F011
:101E1000A1C004F00001AB51040D010EF324F66ED5
:101E2000100EF420F76E0900F5CF05F00900F5CF8C
:101E300006F00900F5CF07F00A00F5CF08F053ECE3
:101E40002EF001C0A4F002C0A5F003C0A6F004C0AB
:101E5000A7F0A4C00EF0A5C00FF0A6C010F0A7C058
:101E600011F00A0E126E000E136E000E146E000EAC
:101E7000156EAAEC30F00EC0A4F00FC0A5F010C093
:101E8000A6F011C0A7F00001A451300F68EC34F0A7
:101E90009EC00EF09FC00FF0A0C010F0A1C011F0C6
:101EA0000001AB51040D010EF324F66E100EF42068
:101EB000F76E0900F5CF12F00900F5CF13F0090015
:101EC000F5CF14F00A00F5CF15F0AAEC30F00EC0F3
:101ED0009EF00FC09FF010C0A0F011C0A1F0000153
:101EE000AB070001AB29D8B408D08CD7300E68EC12
:101EF00034F000019C07D8A09D0700019C5100010F
:101F00009D11D8B4B2D0F2D798C0D9FF99C0DAFFEA
:101F1000DECF9EF0DDCF9FF00001000E9FBFFF0ED1
:101F2000A06FA16F020E00019827000E99230001F7
:101F3000A1AF0CD0030E00019A130001A11FA01F36
:101F40009F1F9E6D000E9F23A023A123010E000161
:101F5000AB6F0A0E0001AB19D8B41ED00001AB5113
:101F6000040D010EF324F66E100EF420F76E090036
:101F7000F55000019E5D0900F55000019F590900D0
:101F8000F5500001A0590900F5500001A159D8A051
:101F900003D00001AB2BDDD7030E00019A15000121
:101FA0008F6F000E00019B150001906F00018F5193
:101FB00000019011D8B403D02D0E68EC34F000016C
:101FC000AB5100019C6F9D6B9CBF9D0743D09CC093
:101FD0008FF09DC090F00001D8908F3790370001AE
:101FE000D8908F379037010E00018F25F66E100EB6
:101FF0009021F76E0900F5CF05F00900F5CF06F046
:102000000900F5CF07F00A00F5CF08F09EC001F0F7
:102010009FC002F0A0C003F0A1C004F053EC2EF06A
:1020200001C00EF002C00FF003C010F004C011F0A8
:102030000A0E126E000E136E000E146E000E156E58
:10204000AAEC30F00E50300F0001AB6F0001AB5125
:1020500068EC34F000019C07D8A09D0700019C2982
:10206000B6E100019D29D8A4B2D786C0F6FF87C08B
:10207000F7FF0001864B872B0800F5CFABF000017E
:10208000AB51D8B4120020D4000E0001796FA00E1D
:1020900000017A6F400E00017B6F330E0001766FF6
:1020A000530E0001776F400E0001786FF00E0001B3
:1020B0007C6F3F0E00017D6F400E00017E6FC00EF1
:1020C00000017F6F8F0E0001806F450E0001816F50
:1020D000900E0001826F8E0E0001836F450E00018D
:1020E000846F000E00018B6F4D0E00018C6F440E4B
:1020F00000018D6F330E186E530E196E400E1A6E5E
:1021000021EC33F005C009F006C00AF0B6EC32F05D
:1021100009C015F00AC016F00BC017F075EC28F0D6
:1021200015C060F016C061F017C062F0000E00012B
:10213000636F800E0001646F440E0001656F4BEC0D
:1021400023F060C091F061C092F062C093F091C042
:1021500060F092C061F093C062F079C063F07AC021
:1021600064F07BC065F04BEC23F060C091F061C07F
:1021700092F062C093F07FC052F080C053F081C0F3
:1021800054F08BC04FF08CC050F08DC051F0BDECBE
:102190001EF04FC063F050C064F051C065F08BC0BA
:1021A00060F08CC061F08DC062F04BEC23F060C039
:1021B00085F061C086F062C087F07CC063F07DC0AE
:1021C00064F07EC065F091C060F092C061F093C091
:1021D00062F04BEC23F060C04FF061C050F062C081
:1021E00051F085C052F086C053F087C054F0BDEC6A
:1021F0001EF04FC08EF050C08FF051C090F08EC0D6
:1022000018F08FC019F090C01AF082C015F083C08A
:1022100016F084C017F075EC28F015C060F016C0F9
:1022200061F017C062F0000E526E800E536E3F0ECA
:10223000546E8EC04CF08FC04DF090C04EF0B7EC95
:1022400033F04CC04FF04DC050F04EC051F0BDECDB
:102250001EF04FC063F050C064F051C065F04BEC0D
:1022600023F060C09AF061C09BF062C09CF09AC0FD
:102270000DF09BC00EF09CC00FF0DA0E106EE30E56
:10228000116E440E126EF6EC2CF0D8A05BD0720EDC
:102290000001636FCF0E0001646F450E0001656F92
:1022A0009AC060F09BC061F09CC062F04BEC23F0E0
:1022B00060C06DF061C06EF062C06FF036EC32F05D
:1022C0006DC094F06EC095F06FC096F02B0E0001BB
:1022D0006D6F750E00016E6F3F0E00016F6F36EC73
:1022E00032F06DC063F06EC064F06FC065F0000E38
:1022F000186E800E196EBF0E1A6E94C015F095C040
:1023000016F096C017F075EC28F015C060F016C0F6
:1023100061F017C062F04BEC23F060C097F061C031
:1023200098F062C099F097C015F098C016F099C067
:1023300017F0000E186E800E196EBF0E1A6E75EC37
:1023400028F0ABD19AC00DF09BC00EF09CC00FF0EE
:10235000A30E106EB80E116E440E126EF6EC2CF039
:10236000D8A05BD01C0E0001636FC80E0001646F23
:10237000450E0001656F9AC060F09BC061F09CC083
:1023800062F04BEC23F060C06DF061C06EF062C093
:102390006FF036EC32F06DC094F06EC095F06FC007
:1023A00096F0760E00016D6F750E00016E6F3F0E98
:1023B00000016F6F36EC32F06DC063F06EC064F0F8
:1023C0006FC065F0000E186E800E196EBF0E1A6E8B
:1023D00094C015F095C016F096C017F075EC28F073
:1023E00015C060F016C061F017C062F04BEC23F02E
:1023F00060C097F061C098F062C099F097C015F086
:1024000098C016F099C017F0000E186E800E196E65
:10241000BF0E1A6E75EC28F040D19AC00DF09BC02B
:102420000EF09CC00FF09A0E106E960E116E440EB8
:10243000126EF6EC2CF0D8A05BD0300E0001636F6A
:10244000BF0E0001646F450E0001656F9AC060F019
:102450009BC061F09CC062F04BEC23F060C06DF05B
:1024600061C06EF062C06FF036EC32F06DC094F077
:102470006EC095F06FC096F0C80E00016D6F750EBE
:1024800000016E6F3F0E00016F6F36EC32F06DC0D1
:1024900063F06EC064F06FC065F0000E186E800EC1
:1024A000196EBF0E1A6E94C015F095C016F096C046
:1024B00017F075EC28F015C060F016C061F017C079
:1024C00062F04BEC23F060C097F061C098F062C0FE
:1024D00099F097C015F098C016F099C017F0000E4B
:1024E000186E800E196EBF0E1A6E75EC28F0D5D0DE
:1024F0009AC00DF09BC00EF09CC00FF0060E106E3F
:10250000770E116E440E126EF6EC2CF0D8A05BD054
:10251000190E0001636FB70E0001646F450E0001D4
:10252000656F9AC060F09BC061F09CC062F04BEC9C
:1025300023F060C06DF061C06EF062C06FF036ECE9
:1025400032F06DC094F06EC095F06FC096F00C0E36
:1025500000016D6F760E00016E6F3F0E00016F6F10
:1025600036EC32F06DC063F06EC064F06FC065F0A1
:10257000000E186E800E196EBF0E1A6E94C015F004
:1025800095C016F096C017F075EC28F015C060F0F5
:1025900016C061F017C062F04BEC23F060C097F0FA
:1025A00061C098F062C099F097C015F098C016F01D
:1025B00099C017F0000E186E800E196EBF0E1A6EBD
:1025C00075EC28F06AD09AC00DF09BC00EF09CC04C
:1025D0000FF0ED0E106E4A0E116E440E126EF6ECF8
:1025E0002CF0D8A060D0400E0001636FAE0E000149
:1025F000646F450E0001656F9AC060F09BC061F08A
:102600009CC062F04BEC23F060C06DF061C06EF0D6
:1026100062C06FF036EC32F06DC094F06EC095F091
:102620006FC096F0510E00016D6F760E00016E6F57
:102630003F0E00016F6F36EC32F06DC063F06EC07C
:1026400064F06FC065F0000E186E800E196EBF0E3C
:102650001A6E94C015F095C016F096C017F075EC80
:1026600028F015C060F016C061F017C062F04BECA6
:1026700023F060C097F061C098F062C099F097C0F5
:1026800015F098C016F099C017F0000E186E800E65
:10269000196EBF0E1A6E75EC28F015C088F016C0C2
:1026A00089F017C08AF088C0DBF089C0DCF08AC0EE
:1026B000DDF0000E0001736F800E0001746F3F0E9D
:1026C0000001756F12000201A96F0201A9AF2AD1A2
:1026D0000201A96D0201A951800A120FD8A0ACD045
:1026E000000E0201916F030E906F000E0201896FC0
:1026F0000A0E886F000E0201836F640E826F020162
:10270000A9510201806F816B80BF81070DEC2CF015
:1027100080C286F281C287F29CEC2AF0090E020187
:10272000862502018E6F000E0201872102018F6F44
:10273000D2EC32F0290E02018E25F66E100E020147
:102740008F21F76E0900F5CF97F20900F5CF98F2C7
:102750000A00F5CF99F2000E0201896F640E886FAE
:102760000201A9510201866F876B86BF87079CEC27
:102770002AF0120E0201862502018E6F000E020160
:10278000872102018F6F000E0201916F030E906F7F
:10279000D2EC32F0290E02018E25F66E100E0201E7
:1027A0008F21F76E0900F5CF94F20900F5CF95F26D
:1027B0000A00F5CF96F2FAEC21F094C2A6F295C287
:1027C000A7F296C2A8F2A6C294F2A7C295F2A8C236
:1027D00096F2000E0201916F030E906F000E02013F
:1027E000836F0A0E826F0201A9510201806F816B13
:1027F00080BF81070DEC2CF080C28EF281C28FF277
:10280000D2EC32F0290E02018E25F66E100E020176
:102810008F21F76E0900F5CF97F20900F5CF98F2F6
:102820000A00F5CF99F2FAEC21F094C2A3F295C216
:10283000A4F296C2A5F212000201A951800A750FF6
:10284000D8A05DD0000E0201896F0A0E886F0201C8
:10285000A9510201866F876B86BF87079CEC2AF01F
:10286000090E0201862502018E6F000E02018721EA
:1028700002018F6F000E0201916F030E906FD2EC78
:1028800032F0290E02018E25F66E100E02018F2104
:10289000F76E0900F5CF94F20900F5CF95F20A0022
:1028A000F5CF96F2000E0201916F030E906F000EAD
:1028B0000201836F0A0E826F0201A9510201806F2B
:1028C000816B80BF81070DEC2CF080C28EF281C23B
:1028D0008FF2D2EC32F0290E02018E25F66E100E28
:1028E00002018F21F76E0900F5CF97F20900F5CFAD
:1028F00098F20A00F5CF99F2FAEC21F096D702018E
:10290000A951030D290EF324F66E100EF420F76E74
:102910000900F5CFA3F20900F5CFA4F20A00F5CF24
:10292000A5F212000201A951800A120FD8A0ACD062
:10293000000E0201916F030E906F000E0201896F6D
:102940000A0E886F000E0201836F640E826F02010F
:10295000A9510201806F816B80BF81070DEC2CF0C3
:1029600080C286F281C287F29CEC2AF0090E020135
:10297000862502018E6F000E0201872102018F6FF2
:10298000D2EC32F0500E02018E25F66E100E0201CE
:102990008F21F76E0900F5CF97F20900F5CF98F275
:1029A0000A00F5CF99F2000E0201896F640E886F5C
:1029B0000201A9510201866F876B86BF87079CECD5
:1029C0002AF0120E0201862502018E6F000E02010E
:1029D000872102018F6F000E0201916F030E906F2D
:1029E000D2EC32F0500E02018E25F66E100E02016E
:1029F0008F21F76E0900F5CF94F20900F5CF95F21B
:102A00000A00F5CF96F2FAEC21F094C2A6F295C234
:102A1000A7F296C2A8F2A6C294F2A7C295F2A8C2E3
:102A200096F2000E0201916F030E906F000E0201EC
:102A3000836F0A0E826F0201A9510201806F816BC0
:102A400080BF81070DEC2CF080C28EF281C28FF224
:102A5000D2EC32F0500E02018E25F66E100E0201FD
:102A60008F21F76E0900F5CF97F20900F5CF98F2A4
:102A70000A00F5CF99F2FAEC21F094C2A3F295C2C4
:102A8000A4F296C2A5F212000201A951800A750FA4
:102A9000D8A05DD0000E0201896F0A0E886F020176
:102AA000A9510201866F876B86BF87079CEC2AF0CD
:102AB000090E0201862502018E6F000E0201872198
:102AC00002018F6F000E0201916F030E906FD2EC26
:102AD00032F0500E02018E25F66E100E02018F218B
:102AE000F76E0900F5CF94F20900F5CF95F20A00D0
:102AF000F5CF96F2000E0201916F030E906F000E5B
:102B00000201836F0A0E826F0201A9510201806FD8
:102B1000816B80BF81070DEC2CF080C28EF281C2E8
:102B20008FF2D2EC32F0500E02018E25F66E100EAE
:102B300002018F21F76E0900F5CF97F20900F5CF5A
:102B400098F20A00F5CF99F2FAEC21F096D702013B
:102B5000A951030D500EF324F66E100EF420F76EFB
:102B60000900F5CFA3F20900F5CFA4F20A00F5CFD2
:102B7000A5F212002A6E2AAEFBD02A6C2A50800AD7
:102B8000120FD8A091D0000E126E030E116E000E1F
:102B90000A6E0A0E096E000E046E640E036E2A5051
:102BA000016E026A01BE02063BEC30F001C007F084
:102BB00002C008F011EC2EF0090E07240F6E000E73
:102BC0000820106E92EC33F0290E0F24F66E100ED2
:102BD0001020F76E0900F5CF18F00900F5CF19F0B5
:102BE0000A00F5CF1AF0000E0A6E640E096E2A5024
:102BF000076E086A07BE080611EC2EF0120E0724B5
:102C00000F6E000E0820106E000E126E030E116E75
:102C100092EC33F0290E0F24F66E100E1020F76E92
:102C20000900F5CF15F00900F5CF16F00A00F5CF31
:102C300017F075EC28F015C027F016C028F017C063
:102C400029F027C015F028C016F029C017F0000E93
:102C5000126E030E116E000E046E0A0E036E2A50E1
:102C6000016E026A01BE02063BEC30F001C00FF0BB
:102C700002C010F092EC33F0290E0F24F66E100E05
:102C80001020F76E0900F5CF18F00900F5CF19F004
:102C90000A00F5CF1AF075EC28F015C024F016C024
:102CA00025F017C026F012002A50800A750FD8A010
:102CB0004DD0000E0A6E0A0E096E2A50076E086A81
:102CC00007BE080611EC2EF0090E07240F6E000E49
:102CD0000820106E000E126E030E116E92EC33F08F
:102CE000290E0F24F66E100E1020F76E0900F5CF96
:102CF00015F00900F5CF16F00A00F5CF17F0000E19
:102D0000126E030E116E000E046E0A0E036E2A5030
:102D1000016E026A01BE02063BEC30F001C00FF00A
:102D200002C010F092EC33F0290E0F24F66E100E54
:102D30001020F76E0900F5CF18F00900F5CF19F053
:102D40000A00F5CF1AF075EC28F0A7D72A50030D2A
:102D5000290EF324F66E100EF420F76E0900F5CF5D
:102D600024F00900F5CF25F00A00F5CF26F0120077
:102D70002A50800A120FD8A091D0000E126E030EB6
:102D8000116E000E0A6E0A0E096E000E046E640EBD
:102D9000036E2A50016E026A01BE02063BEC30F05F
:102DA00001C007F002C008F011EC2EF0090E072454
:102DB0000F6E000E0820106E92EC33F0500E0F24B0
:102DC000F66E100E1020F76E0900F5CF18F009000E
:102DD000F5CF19F00A00F5CF1AF0000E0A6E640E56
:102DE000096E2A50076E086A07BE080611EC2EF01D
:102DF000120E07240F6E000E0820106E000E126EC9
:102E0000030E116E92EC33F0500E0F24F66E100E7E
:102E10001020F76E0900F5CF15F00900F5CF16F078
:102E20000A00F5CF17F075EC28F015C027F016C092
:102E300028F017C029F027C015F028C016F029C0C7
:102E400017F0000E126E030E116E000E046E0A0EC5
:102E5000036E2A50016E026A01BE02063BEC30F09E
:102E600001C00FF002C010F092EC33F0500E0F24AE
:102E7000F66E100E1020F76E0900F5CF18F009005D
:102E8000F5CF19F00A00F5CF1AF075EC28F015C04F
:102E900024F016C025F017C026F012002A50800A30
:102EA000750FD8A04DD0000E0A6E0A0E096E2A507A
:102EB000076E086A07BE080611EC2EF0090E0724FB
:102EC0000F6E000E0820106E000E126E030E116EB3
:102ED00092EC33F0500E0F24F66E100E1020F76EA9
:102EE0000900F5CF15F00900F5CF16F00A00F5CF6F
:102EF00017F0000E126E030E116E000E046E0A0E15
:102F0000036E2A50016E026A01BE02063BEC30F0ED
:102F100001C00FF002C010F092EC33F0500E0F24FD
:102F2000F66E100E1020F76E0900F5CF18F00900AC
:102F3000F5CF19F00A00F5CF1AF075EC28F0A7D7F5
:102F40002A50030D500EF324F66E100EF420F76E87
:102F50000900F5CF24F00900F5CF25F00A00F5CFE0
:102F600026F01200000E0101D56F000ED46F000E86
:102F70000101D26F000E0101D36F21EEE4F011EEDA
:102F8000C8F0090EDBCFE3FFE806FCE2000E01010A
:102F9000DB6F000EDA6F000E0101DC6F000E010125
:102FA000E16F000E0101E36F000EE26F000E010100
:102FB000D76F000ED66F000E0101D96F000EE8CF5B
:102FC000AEFA000E0101E36F010EE26FE80E01019F
:102FD000E25D030E0101E359D8B048D0AE0E010105
:102FE000E225D96E0A0E0101E321DA6EE2C13AF060
:102FF000E3C13BF0D8903A363B36020E3A26000E3B
:103000003B22DE0E3A24E16E020E3B20E26EE6CF5A
:103010003CF0E5CF3DF0FE0E3E6EFF0E3F6EE2C18E
:1030200040F0E3C141F0D890403641363E50402652
:103030003F504122DE0E4024E16E020E4120E26E3E
:10304000E6CF42F0E5CF43F0421E431E424A432AF8
:103050003C504224016E3D504320026E6BEC33F035
:103060000150DF6E0101E24BE32BB0D7000E0101EE
:10307000E36F000EE26F0101E35113E11F0E010146
:10308000E25DD8B00ED0AE0E0101E225D96E0A0E77
:103090000101E321DA6E000EDF6E0101E24BE32B4A
:1030A000EAD7000E0101DE6F000EDD6F0101DEBF09
:1030B00008D0E80E0101DD5D030E0101DE59D8B034
:1030C00023D0AE0E0101DD25D96E0A0E0101DE21ED
:1030D000DA6EDF503A6E3A500101D65D000ED759D4
:1030E000D8B00ED0AE0E0101DD25D96E0A0E010159
:1030F000DE21DA6EDF503A6E3A500101D66FD76B9F
:103100000101DD4BDE2BD2D7330E186E330E196E54
:103110003F0E1A6ED6C109F0D7C10AF0A5EC33F004
:1031200009C015F00AC016F00BC017F075EC28F0B6
:1031300015C02BF016C02CF017C02DF0EFEC28F0C6
:103140002BC0EEF12CC0EFF1000E0101E06F000E7C
:10315000DF6F0101E0BF08D0E90E0101DF5D030E62
:103160000101E059D8B09ED0AE0E0101DF25D96E25
:103170000A0E0101E021DA6EDF503A6E3A50010189
:10318000EE5D000EEF59D8B079D00101D95101019F
:10319000D8A474D0AE0E0101DF25D96E0A0E01014C
:1031A000E021DA6EDF503A6E3B6A0101E151020D17
:1031B000140EF326000EF422000EF324D96E010E35
:1031C000F420DA6E3AC0DEFF3BC0DDFF0101E151C1
:1031D000020D280EF326000EF422000EF324D96E01
:1031E000010EF420DA6EDFC1DEFFE0C1DDFF010178
:1031F000E1510101D8B43DD00101E151020D280E89
:10320000F326000EF422000EF324D96E010EF420F2
:10321000DA6EDECF3AF0DDCF3BF00101E1513C6EDA
:103220003D6AD8903C363D36260E3C26000E3D22A7
:10323000000E3C24D96E010E3D20DA6EDECF3EF04A
:10324000DDCF3FF03E1E3F1E3E4A3F2A3A503E260B
:103250003B503F220101DC51020DC80EF324D96E10
:10326000010EF420DA6E3EC0DEFF3FC0DDFF01013B
:10327000DC2B0101E12B010E0101D96F0101D90500
:10328000D8A40CD01E0E0101D36506D0000E01019A
:10329000D96F000E0101D36F0101D32B0101DF4B68
:1032A000E02B57D7000E0101D86F19D00101D8517A
:1032B000020DC80EF324D96E010EF420DA6EDECFB3
:1032C0003AF0DDCF3BF00101DA513A240101DA6F27
:1032D0000101DB513B200101DB6F0101D82B010112
:1032E000DC510101D85DD8A0E1D7DAC107F0DBC11C
:1032F00008F0DCC109F00A6A11EC2EF007C0DAF11F
:1033000008C0DBF13A0E026E980E016EDAC103F0CE
:10331000DBC104F09EEC31F001C0D4F102C0D5F164
:10332000D4C1D2F10101D4511200000E00016E6F20
:10333000200E00016F6F410E0001706F20EEC7F08C
:1033400010EE72F0080EDBCFE3FFE806FCE2000EA1
:1033500000016D6F000E6C6F41D053EC26F072C00F
:103360004FF073C050F074C051F0BEC052F0BFC0F7
:1033700053F0C0C054F0BDEC1EF04FC072F050C00E
:1033800073F051C074F075C04FF076C050F077C044
:1033900051F0C1C052F0C2C053F0C3C054F0BDECF4
:1033A0001EF04FC075F050C076F051C077F078C075
:1033B0004FF079C050F07AC051F0C4C052F0C5C08F
:1033C00053F0C6C054F0BDEC1EF04FC078F050C0B2
:1033D00079F051C07AF000016C4B6D2B6CC009F094
:1033E0006DC00AF0B6EC32F009C00DF00AC00EF064
:1033F0000BC00FF06EC010F06FC011F070C012F073
:10340000F6EC2CF0D8A0A9D7000E00017C6F000EBE
:103410007B6F00017CBF08D000017C513DE1030EB1
:1034200000017B5DD8B038D07BC00FF07CC010F0BD
:10343000000E126E030E116E92EC33F0720E0F241A
:10344000D96E000E1020DA6E7BC00FF07CC010F039
:10345000000E126E030E116E92EC33F0720E0F24FA
:10346000E16E000E1020E26EE6CF60F0E6CF61F074
:10347000E5CF62F06EC063F06FC064F070C065F0BD
:103480004BEC23F060C0DEFF61C0DEFF62C0DEFFF8
:1034900000017B4B7C2BBDD772C05BF073C05CF02E
:1034A00074C05DF086EC2DF05BC07DF05CC07EF0FA
:1034B0005DC07FF075C05BF076C05CF077C05DF0FA
:1034C00086EC2DF05BC080F05CC081F05DC082F0C6
:1034D00078C05BF079C05CF07AC05DF086EC2DF0CE
:1034E0005BC083F05CC084F05DC085F0000E00011D
:1034F000716F00017D5100017E1100017F11D8A480
:1035000015D0000180510001811100018211D8A461
:103510000DD0800E0001841909E13F0E00018519CC
:1035200000018311D8A402D0010E75D000017D5195
:1035300000017E1100017F11D8A415D00001805137
:103540000001811100018211D8A40DD0800E00016C
:10355000841909E1BF0E0001851900018311D8A467
:1035600002D0020E58D000017D5100017E110001F1
:103570007F11D8A415D0800E0001811911E1BF0E72
:103580000001821900018011D8A40AD000018351E2
:103590000001841100018511D8A402D0030E3BD094
:1035A00000017D5100017E1100017F11D8A415D0CA
:1035B000800E0001811911E13F0E00018219000106
:1035C0008011D8A40AD000018351000184110001A8
:1035D0008511D8A402D0040E1ED0800E00017E19E1
:1035E00019E1BF0E00017F1900017D11D8A412D08E
:1035F000000180510001811100018211D8A40AD07C
:10360000000183510001841100018511D8A402D06A
:10361000050E01D0000E0001716F00017151120002
:103620000201AC6F6D0E0201AC65BAD0000E020152
:10363000916F030E906F000E0201896F0A0E886F62
:10364000000E0201836F640E826FACC280F2020131
:10365000816B0DEC2CF080C286F281C287F29CEC6B
:103660002AF0090E0201862502018E6F000E02016A
:10367000872102018F6FD2EC32F0290E02018E25D4
:10368000F66E100E02018F21F76E0900F5CF97F24A
:103690000900F5CF98F20A00F5CF99F2000E020169
:1036A000896F640E886FACC286F20201876B9CEC56
:1036B0002AF0120E0201862502018E6F000E020111
:1036C000872102018F6F000E0201916F030E906F30
:1036D000D2EC32F0290E02018E25F66E100E020198
:1036E0008F21F76E0900F5CF94F20900F5CF95F21E
:1036F0000A00F5CF96F2FAEC21F094C2A9F295C235
:10370000AAF296C2ABF2000E0201916F030E906F07
:10371000000E0201836F0A0E826FACC280F20201BA
:10372000816B0DEC2CF080C28EF281C28FF2D2EC54
:1037300032F0290E02018E25F66E100E02018F2145
:10374000F76E0900F5CF97F20900F5CF98F20A005D
:10375000F5CF99F2A9C294F2AAC295F2ABC296F241
:10376000FAEC21F094C2A6F295C2A7F296C2A8F292
:10377000A6C294F2A7C295F2A8C296F2000E020168
:10378000976F000E0201986F3F0E0201996FFAECDD
:1037900021F094C2A3F295C2A4F296C2A5F212003F
:1037A0000A0E0201AC656ED0000E0201916F030E8D
:1037B000906F000E0201836F0A0E826FACC280F21E
:1037C0000201816B0DEC2CF080C28EF281C28FF26F
:1037D000D2EC32F0290E02018E25F66E100E020197
:1037E0008F21F76E0900F5CF97F20900F5CF98F217
:1037F0000A00F5CF99F2000E0201896F0A0E886F58
:10380000ACC286F20201876B9CEC2AF0090E020121
:10381000862502018E6F000E0201872102018F6F43
:10382000000E0201916F030E906FD2EC32F0290E60
:1038300002018E25F66E100E02018F21F76E09002F
:10384000F5CF94F20900F5CF95F20A00F5CF96F284
:10385000FAEC21F094C2A9F295C2AAF296C2ABF298
:10386000A9C294F2AAC295F2ABC296F2000E02016E
:10387000976F000E0201986F3F0E0201996FFAECEC
:1038800021F087D70201AC51030D290EF324F66E07
:10389000100EF420F76E0900F5CF94F20900F5CF71
:1038A00095F20A00F5CF96F2000E0201976F000E16
:1038B0000201986F3F0E0201996FFAEC21F094C259
:1038C000A3F295C2A4F296C2A5F21200AFC2B3F25F
:1038D0000201B46BB56B0201AE350201B33701E3EF
:1038E000B4810201B3510201B86FB2C2B3F2020156
:1038F000B46BB56B0201B1350201B33701E3B4819A
:103900000201B3510201B76F0201B8510201D8B4EC
:1039100011D00201B7510201B85DD8B012D0020136
:10392000B85100080201B7250201B36F180E020159
:10393000B36507D0B0C2ADF2B1C2AEF2B2C2AFF25F
:1039400012000201B7510201D8B411D00201B851DE
:103950000201B75DD8B012D00201B75100080201D0
:10396000B8250201B36F180E0201B36507D0ADC2CE
:10397000ADF2AEC2AEF2AFC2AFF21200060E02015D
:10398000B66F0201AFAF02D00201B68F0201B2AF33
:1039900002D00201B68D0201AE8FFF0E0201AD17FB
:1039A000FF0E0201AE17000E0201AF170201B18F28
:1039B000FF0E0201B017FF0E0201B117000E020147
:1039C000B2170201B7510201B85DD8B025D002018B
:1039D000D890B037B137B2370201B7070201B851FA
:1039E0000201B719D8B411D00201B607B6C2B3F2BA
:1039F000070E0201B317D8B408D0E9D70201D89056
:103A0000AF33AE33AD330201B82B0201B75102011F
:103A1000B819D8B42BD0F2D70201B8510201B75D62
:103A2000D8B024D00201D890AD37AE37AF370201FD
:103A3000B8070201B8510201B719D8B411D0020178
:103A4000B607B6C2B3F2070E0201B317D8B408D056
:103A5000E9D70201D890B233B133B0330201B72BAA
:103A60000201B7510201B819D8A4F3D70201B6AFC9
:103A700012D0FF0E0201AD1BFF0E0201AE1BFF0EA6
:103A80000201AF1B010E0201AD27000E0201AE23A1
:103A9000000E0201AF230201B6AD12D0FF0E0201EB
:103AA000B01BFF0E0201B11BFF0E0201B21B010E83
:103AB0000201B027000E0201B123000E0201B22361
:103AC000000E0201B66F0201AD510201B0270201E2
:103AD000AE510201B1230201AF510201B223020132
:103AE000B2AF15D0FF0E0201B01BFF0E0201B11BD9
:103AF000FF0E0201B21B010E0201B027000E0201EF
:103B0000B123000E0201B223010E0201B66FB0C252
:103B100080F2B1C281F2B2C282F2B8C283F2B6C2FE
:103B200084F26EEC27F080C2ADF281C2AEF282C2A6
:103B3000AFF212002D6E6D0E2D649FD0000E126E2E
:103B4000030E116E000E0A6E0A0E096E000E046E50
:103B5000640E036E2DC001F0026A3BEC30F001C030
:103B600007F002C008F011EC2EF0090E07240F6ECA
:103B7000000E0820106E92EC33F0290E0F24F66E22
:103B8000100E1020F76E0900F5CF18F00900F5CFE0
:103B900019F00A00F5CF1AF0000E0A6E640E096ED5
:103BA0002DC007F0086A11EC2EF0120E07240F6EDC
:103BB000000E0820106E000E126E030E116E92ECB5
:103BC00033F0290E0F24F66E100E1020F76E090048
:103BD000F5CF15F00900F5CF16F00A00F5CF17F074
:103BE00075EC28F015C02AF016C02BF017C02CF089
:103BF000000E126E030E116E000E046E0A0E036E9E
:103C00002DC001F0026A3BEC30F001C00FF002C0A1
:103C100010F092EC33F0290E0F24F66E100E1020E7
:103C2000F76E0900F5CF18F00900F5CF19F00A007A
:103C3000F5CF1AF02AC015F02BC016F02CC017F0E3
:103C400075EC28F015C027F016C028F017C029F031
:103C500027C015F028C016F029C017F0000E186E06
:103C6000000E196E3F0E1A6E75EC28F015C024F088
:103C700016C025F017C026F012000A0E2D645DD084
:103C8000000E126E030E116E000E046E0A0E036E0D
:103C90002DC001F0026A3BEC30F001C00FF002C011
:103CA00010F092EC33F0290E0F24F66E100E102057
:103CB000F76E0900F5CF18F00900F5CF19F00A00EA
:103CC000F5CF1AF0000E0A6E0A0E096E2DC007F02D
:103CD000086A11EC2EF0090E07240F6E000E082062
:103CE000106E000E126E030E116E92EC33F0290E60
:103CF0000F24F66E100E1020F76E0900F5CF15F0A8
:103D00000900F5CF16F00A00F5CF17F075EC28F092
:103D100015C02AF016C02BF017C02CF02AC015F0E1
:103D20002BC016F02CC017F0000E186E000E196E86
:103D30003F0E1A6E75EC28F099D72D50030D290E01
:103D4000F324F66E100EF420F76E0900F5CF15F08F
:103D50000900F5CF16F00A00F5CF17F0000E186E27
:103D6000000E196E3F0E1A6E75EC28F015C024F087
:103D700016C025F017C026F0120051C055F0566A43
:103D8000576A5034553601E3568055505A6E54C028
:103D900055F0566A576A5334553601E356805550EC
:103DA000596E5A50D8B40BD059505A5CD8B00ED076
:103DB0005A5000085924556E180E556407D052C049
:103DC0004FF053C050F054C051F012005950D8B4C5
:103DD0000BD05A50595CD8B00ED0595000085A2414
:103DE000556E180E556407D04FC04FF050C050F0BC
:103DF00051C051F01200060E586E51BE588E54BE7E
:103E0000588C508EFF0E4F16FF0E5016000E511696
:103E1000538EFF0E5216FF0E5316000E54165950B5
:103E20005A5CD8B01BD0D890523653365436590607
:103E30005A505918D8B40DD0580658C055F0070E2E
:103E40005516D8B406D0EFD7D890513250324F32F1
:103E50005A2A59505A18D8B41FD0F6D75A50595C1C
:103E6000D8B01AD0D8904F36503651365A065A50DC
:103E70005918D8B40DD0580658C055F0070E55162D
:103E8000D8B406D0EFD7D890543253325232592A90
:103E900059505A18D8A4F7D758AE0CD0FF0E4F1A65
:103EA000FF0E501AFF0E511A010E4F26000E50221F
:103EB000000E512258AC0CD0FF0E521AFF0E531AAE
:103EC000FF0E541A010E5226000E5322000E5422E9
:103ED000000E586E4F5052265050532251505422CB
:103EE00054AE0ED0FF0E521AFF0E531AFF0E541A84
:103EF000010E5226000E5322000E5422010E586E5F
:103F000052C001F053C002F054C003F05AC004F094
:103F100058C005F0B6EC2BF001C04FF002C050F0D5
:103F200003C051F0120002018C6F000E02018B6F72
:103F3000C580C5B0FED702018C518C2502018C6F63
:103F4000C9CF8BF202018C51FE0B13EC2FF0020152
:103F50008E6F02018E29D8A403D0C9CF8BF2C69EE2
:103F600002018E510201D8A4EDD7000E02018E6F1E
:103F7000C7A404D00201846B842B02D00201846B9D
:103F8000C5501F0B020184110009D8A4F1D702010A
:103F9000825113EC2FF002018E6F02018E29D8A4FA
:103FA00003D0C9CF8BF2C69E02018E510201D8A464
:103FB000EED7000E02018E6FC7A404D00201846BFD
:103FC000842B02D00201846BC5501F0B02018411A7
:103FD0000009D8A4F1D7C582C5B2FED7C9CF8BF2EC
:103FE00002018C51010913EC2FF002018E6F0201C6
:103FF0008E29D8A403D0C9CF8BF2C69E02018E5160
:104000000201D8A4EDD7000E02018E6FC7A404D020
:104010000201846B842B02D00201846BC5501F0BFC
:10402000020184110009D8A4F1D7000E02018D6F9E
:10403000000E02018D6F41D002018D51010D710EF4
:10404000F324D96E020EF420DA6EFAEC33F0DF6E50
:10405000FF0E0201846FFF0E0201856F0201835182
:104060000201866F876B02018451020186270201DB
:1040700085510201872302018D510201886F896BEE
:10408000020186510201885D02018951800A020104
:104090008A6F02018751800A02018A59D8B005D07F
:1040A000C59AC588C5A807D0FDD7C58AC588C5B833
:1040B000FED7C5B8FED702018D2B02018351020144
:1040C0008D5DD8A0B9D7C584C5A41200FDD782C222
:1040D00086F20201876B886B020181350201863707
:1040E00001E387810201865102018E6F02018E5128
:1040F000D8A40AD0000E0201806F000E816F000E5E
:10410000826F000E836F120085C286F20201876BF8
:10411000886B020184350201863701E38781020141
:10412000865102018D6F02018D51D8A40AD0000E74
:104130000201806F000E816F000E826F000E836F90
:1041400012000201818FFF0E02018017FF0E020193
:104150008117000E020182170201848FFF0E0201F7
:104160008317FF0E02018417000E02018517000E4F
:104170000201896F000E8A6F000E8B6F000E8C6F2C
:104180007F0E02018E5F02018D51980F02018E5F3A
:10419000180E02018D6F0201D89089378A378B374C
:1041A0008C37020183510201805D020184510201BA
:1041B00081590201855102018259D8A00ED0020115
:1041C00083510201805F020184510201815B02017F
:1041D00085510201825B020189810201D8908037FA
:1041E0008137823702018D2FD6D702018EAF1AD0C8
:1041F00002018E51800A970FD8B00AD0000E02013A
:10420000806F000E816F000E826F000E836F1200B0
:104210000201D8908C338B338A33893302018E3F6D
:10422000F7D71BD0170E02018E6512D0000E0201C7
:10423000806F000E816F000E826F000E836F120080
:104240000201D89089378A378B378C3702018E0765
:1042500002018E510201D8A4F3D789C280F28AC22A
:1042600081F28BC282F28CC283F21200020182358B
:10427000833502018B6F02018B51D8A40AD0000E46
:104280000201806F000E816F000E826F000E836F3F
:10429000120002018535863502018A6F02018A51BA
:1042A000D8A40AD0000E0201806F000E816F000EAC
:1042B000826F000E836F12000201828FFF0E0201D7
:1042C0008017FF0E8117FF0E8217000E8317020161
:1042D000858FFF0E02018317FF0E8417FF0E8517CF
:1042E000000E8617000E0201866F000E876F000E0B
:1042F000886F000E896F7F0E02018B5F02018A5169
:10430000A00F02018B5F200E02018A6F0201D8907C
:104310008637873788378937020183510201805DEC
:104320000201845102018159020185510201825921
:104330000201865102018359D8A012D00201835193
:104340000201805F020184510201815B02018551FB
:104350000201825B020186510201835B02018681B8
:104360000201D890803781378237833702018A2F44
:10437000CDD702018BAF1AD002018B51800A9F0F5B
:10438000D8B00AD0000E0201806F000E816F000EBF
:10439000826F000E836F12000201D8908933883338
:1043A0008733863302018B3FF7D71BD01F0E0201E4
:1043B0008B6512D0000E0201806F000E816F000E1F
:1043C000826F000E836F12000201D8908637873704
:1043D0008837893702018B0702018B510201D8A46B
:1043E000F3D786C280F287C281F288C282F289C284
:1043F00083F2120096C29AF202019B6B9C6B02013F
:10440000953502019A3701E39B8102019A5102011D
:104410009D6F02019D51D8A40AD0000E0201946F35
:10442000000E0201956F000E0201966F120099C2F4
:104430009AF202019B6B9C6B0201983502019A373C
:1044400001E39B8102019A510201A26F0201A25174
:10445000D8A40AD0000E0201946F000E0201956FDD
:10446000000E0201966F12000201A2517B0F0201A1
:104470009D2796C2A2F2020199510201A21B800E51
:104480000201A2170201958F0201988FFF0E02010F
:104490009717FF0E02019817000E02019917000EE0
:1044A00002019E6F000E02019F6F000E0201A06FBD
:1044B000070E0201A16F020194A10CD002019751D5
:1044C00002019E270201985102019F230201995186
:1044D0000201A0230201D890963395339433020150
:1044E000D8909737983799370201A12FE4D7090E52
:1044F0000201A16F020194A10CD0020197510201A7
:104500009E270201985102019F2302019951020145
:10451000A0230201D8909633953394330201D890AA
:10452000A0339F339E330201A12FE4D79EC280F2B5
:104530009FC281F2A0C282F29DC283F2A2C284F223
:104540006EEC27F080C294F281C295F282C296F29C
:104550001200ACC2AEF20201AF6BB06B0201AB3520
:104560000201AE3701E3AF810201AE510201B86F23
:104570000201B851D8A40AD0000E0201AA6F000EA1
:10458000AB6F000EAC6F000EAD6F1200170E020184
:10459000AE6FAAC2AFF2ABC2B0F2ACC2B1F20201CE
:1045A000AE290201B26F05D00201D890B133B03309
:1045B000AF330201B22FF8D70201AF510201B36F3E
:1045C0000201AB8FFF0E0201AA17FF0E0201AB170B
:1045D000000E0201AC170201AA510201B46F0201E0
:1045E000AB510201B56F0201AC510201B66F02017D
:1045F000B76B8E0E0201B85F0201B8AF1AD002018C
:10460000B851800A8F0FD8B00AD0000E0201AA6FED
:10461000000EAB6F000EAC6F000EAD6F120002010A
:10462000D890B733B633B533B4330201B83FF7D7B8
:104630001BD0170E0201B86512D0000E0201AA6F3E
:10464000000EAB6F000EAC6F000EAD6F12000201DA
:10465000D890B437B537B637B7370201B80702017B
:10466000B8510201D8A4F3D70201B3510201D8B462
:1046700009D00201B71FB61FB51FB46D000EB523D8
:10468000B623B723B4C2AAF2B5C2ABF2B6C2ACF23B
:10469000B7C2ADF2120062C05BF05C6A5D6A0001F5
:1046A00061355B3601E35C805B5000016A6F00019D
:1046B0006A51D8A40AD0000E0001606F000E0001FC
:1046C000616F000E0001626F120065C05BF05C6AF2
:1046D0005D6A000164355B3601E35C805B5000017C
:1046E0006B6F00016B51D8A40AD0000E0001606FFF
:1046F000000E0001616F000E0001626F1200000EDB
:104700000001676F000E0001686F000E0001696F05
:1047100000016B51890F00016A5F62C06BF00001FC
:10472000655100016B1B800E00016B170001618F4A
:10473000FF0E00016017FF0E00016117000E00015F
:1047400062170001648FFF0E00016317FF0E000166
:104750006417000E00016517180E0001666F000156
:10476000D890673768376937000163510001605D91
:104770000001645100016159000165510001625955
:10478000D8A00ED0000163510001605F00016451A8
:104790000001615B000165510001625B00016781FE
:1047A0000001D8906037613762370001662FD7D794
:1047B00067C001F068C002F069C003F06AC004F08D
:1047C0006BC005F0B6EC2BF001C060F002C061F0E8
:1047D00003C062F012000C6E000E0D6EC580C5B0F5
:1047E000FED70C500C240C6EC9CF0DF00C50FE0BF4
:1047F00002EC30F00F6E0F28D8A403D0C9CF0DF013
:10480000C69E0F50D8A4F2D7000E0F6EC7A403D0D7
:10481000056A052A01D0056AC5501F0B051000095D
:10482000D8A4F4D7035002EC30F00F6E0F28D8A4B0
:1048300003D0C9CF0DF0C69E0F50D8A4F3D7000EF9
:104840000F6EC7A403D0056A052A01D0056AC550BA
:104850001F0B05100009D8A4F4D7C582C5B2FED736
:10486000C9CF0DF00C50010902EC30F00F6E0F288B
:10487000D8A403D0C9CF0DF0C69E0F50D8A4F2D74C
:10488000000E0F6EC7A403D0056A052A01D0056A81
:10489000C5501F0B05100009D8A4F4D7000E0E6EEA
:1048A000000E0E6E2FD00E50010D710EF324D96E36
:1048B000020EF420DA6E08EC34F0DF6EFF0E056EA7
:1048C000FF0E066E0450076E086A05500726065054
:1048D00008220E50096E0A6A0750095C0A50800AC5
:1048E0000B6E0850800A0B58D8B005D0C59AC58801
:1048F000C5A807D0FDD7C58AC588C5B8FED7C5B835
:10490000FED70E2A04500E5CD8A0CDD7C584C5A40E
:104910001200FDD700016CAF0FD0000E0001E96F4F
:10492000210EE86F000E00016A6F000E00016B6F30
:10493000000E00016C6F120000016A5100016B1142
:1049400000016C11D8A40FD0000E0001E96F220EF7
:10495000E86F000E00016A6F000E00016B6F000E21
:1049600000016C6F1200000E186E000E196E400EE2
:104970001A6E5D0E046E000E056E6AC001F06BC00B
:1049800002F06CC003F03EEC2DF001C015F002C047
:1049900016F003C017F075EC28F015C04FF016C0E4
:1049A00050F017C051F0000E526E800E536EBF0EC5
:1049B000546EBDEC1EF04FC06AF050C06BF051C099
:1049C0006CF05D06D8A05E066AC060F06BC061F056
:1049D0006CC062F0770E0001636F100E0001646F0F
:1049E000000E0001666F080E656F69EC29F060C06B
:1049F0006AF061C06BF062C06CF0720E186E310E1E
:104A0000196E3F0E1A6E5DC009F05EC00AF0B6EC7A
:104A100032F009C015F00AC016F00BC017F075ECA3
:104A200028F015C04FF016C050F017C051F06AC002
:104A300052F06BC053F06CC054F0BDEC1EF04FC090
:104A40006AF050C06BF051C06CF0120003C007F068
:104A5000086A096A0234073601E3088007500F6EBE
:104A60000F50D8A409D0000E016E000E026E000E89
:104A7000036E000E046E120006C007F0086A096A91
:104A80000534073601E3088007500E6E0E50D8A497
:104A900009D0000E016E000E026E000E036E000EB5
:104AA000046E1200028EFF0E0116FF0E0216000E9B
:104AB0000316058EFF0E0416FF0E0516000E0616D1
:104AC000000E0A6E000E0B6E000E0C6E000E0D6EC8
:104AD0007F0E0F5E0E50980F0F5E180E0E6ED89060
:104AE0000A360B360C360D360450015C0550025860
:104AF00006500358D8A007D00450015E0550025A52
:104B00000650035A0A80D8900136023603360E2E1C
:104B1000E6D70FAE16D00F50800A970FD8B009D045
:104B2000000E016E000E026E000E036E000E046E8B
:104B30001200D8900D320C320B320A320F3EF9D7E8
:104B400015D0170E0F640FD0000E016E000E026E0E
:104B5000000E036E000E046E1200D8900A360B365B
:104B60000C360D360F060F50D8A4F7D70AC001F047
:104B70000BC002F00CC003F00DC004F012000334AF
:104B800004340C6E0C50D8A409D0000E016E000E37
:104B9000026E000E036E000E046E1200063407341F
:104BA0000B6E0B50D8A409D0000E016E000E026EE1
:104BB000000E036E000E046E1200038EFF0E01162F
:104BC000FF0E0216FF0E0316000E0416068EFF0ED1
:104BD0000416FF0E0516FF0E0616000E0716000E31
:104BE000076E000E086E000E096E000E0A6E7F0E34
:104BF0000C5E0B50A00F0C5E200E0B6ED89007368B
:104C0000083609360A360450015C05500258065031
:104C1000035807500458D8A009D00450015E05502D
:104C2000025A0650035A0750045A0780D89001369A
:104C30000236033604360B2EE1D70CAE16D00C50DC
:104C4000800A9F0FD8B009D0000E016E000E026ED0
:104C5000000E036E000E046E1200D8900A32093264
:104C6000083207320C3EF9D715D01F0E0C640FD056
:104C7000000E016E000E026E000E036E000E046E3A
:104C80001200D8900736083609360A360C060C5042
:104C9000D8A4F7D707C001F008C002F009C003F09C
:104CA0000AC004F01200CDEC2DF068C24CF069C2CD
:104CB0004DF06AC24EF0B7EC33F04CC052F04DC02C
:104CC00053F04EC054F077C209F078C20AF0B6EC47
:104CD00032F009C04FF00AC050F00BC051F0BDECEB
:104CE0001EF04FC015F050C016F051C017F09A0ECC
:104CF000186E790E196E3B0E1A6E75EC28F015C001
:104D0000BEF016C0BFF017C0C0F06BC24CF06CC252
:104D10004DF06DC24EF0B7EC33F04CC052F04DC0C8
:104D200053F04EC054F079C209F07AC20AF0B6ECE2
:104D300032F009C04FF00AC050F00BC051F0BDEC8A
:104D40001EF04FC015F050C016F051C017F09A0E6B
:104D5000186E790E196E3B0E1A6E75EC28F015C0A0
:104D6000C1F016C0C2F017C0C3F06EC24CF06FC2E3
:104D70004DF070C24EF0B7EC33F04CC052F04DC065
:104D800053F04EC054F07BC209F07CC20AF0B6EC7E
:104D900032F009C04FF00AC050F00BC051F0BDEC2A
:104DA0001EF04FC015F050C016F051C017F09A0E0B
:104DB000186E790E196E3B0E1A6E75EC28F015C040
:104DC000C4F016C0C5F017C0C6F012000201866F0D
:104DD000000E0201856FC580C5B0FED70201865165
:104DE00086250201866FC9CF85F202018651FE0B2E
:104DF00013EC2FF00201876F02018729D8A403D09A
:104E0000C9CF85F2C69E020187510201D8A4EDD711
:104E1000000E0201876FC7A404D00201846B842BAB
:104E200002D00201846BC5501F0B020184110009DE
:104E3000D8A4F1D70201825113EC2FF00201876F41
:104E400002018729D8A403D0C9CF85F2C69E0201EA
:104E500087510201D8A4EED7000E0201876FC7A4C4
:104E600004D00201846B842B02D00201846BC550F4
:104E70001F0B020184110009D8A4F1D7C9CF85F214
:104E80000201835113EC2FF00201876F0201872981
:104E9000D8A403D0C9CF85F2C69E02018751020172
:104EA000D8A4EED7000E0201876FC7A404D0020178
:104EB000846B842B02D00201846BC5501F0B02014E
:104EC00084110009D8A4F1D7C58AC588C5B8FED712
:104ED000C5B8FED7C584C5A41200FDD70201835111
:104EE0000201D8B408D002018051020181110201EF
:104EF0008211D8A411D0000E0201806F000E0201B1
:104F0000816F000E0201826F12000201832B0201E9
:104F1000D890823381338033000E02018015020164
:104F2000856F000E020181150201866FFE0E0201DF
:104F300082150201876F020185510201861102016B
:104F40008711D8B411D0E1D70201832B010E0201E1
:104F50008027000E02018123000E0201822302013C
:104F6000D890823381338033000E02018015020114
:104F7000856F000E020181150201866FFF0E02018E
:104F800082150201876F020185510201861102011B
:104F90008711D8B408D0D8D7020183070201D8906E
:104FA000803781378237020181BF04D0020E0201AF
:104FB0008361F2D7020183B102D00201819F020115
:104FC000D89083330201835102018213020184517C
:104FD0000201D8B402D00201828F80C280F281C265
:104FE00081F282C282F21200000E466E3AEC33F079
:104FF00005C047F006C048F0D8900101F035D96EE1
:105000000101F135DA6EDE0ED926020EDA2247C032
:10501000DEFF48C0DDFFE80E0101F05D030E010177
:10502000F159D8A00FD0B2EC17F00101F26F0101D5
:10503000F251D8A4F2C1ECF0000E0101F16F000EA4
:10504000F06F03D00101F04BF12B0101F451010D80
:10505000000EF324D96E020EF420DA6E47C001F080
:1050600048C002F0000E046E010E036EEAEC33F04D
:10507000DF6E0101F451446E456A010E4426000EB4
:105080004522000E4424D96E020E4520DA6E47C038
:1050900001F048C002F0000E046E020E036EEAEC4E
:1050A00033F0DF6E0101F451020F0101F46F650E60
:1050B0000101F46512004D0E0201006FF3C101F20F
:1050C000000E466E650E466401D002D0462AFAD71D
:1050D000020E0101F46F0101F32BFD0E0101F365D6
:1050E0001200000E0101F36F120017C01BF01C6AC2
:1050F0001D6A16341B3601E31C801B501E6E1E50A9
:10510000D8A407D0000E156E000E166E000E176E96
:1051100012001AC01BF01C6A1D6A19341B3601E309
:105120001C801B50236E2350D8A407D0000E156E90
:10513000000E166E000E176E120023507B0F1E26F7
:1051400017C023F01A50231A800E2316168E198EBC
:10515000FF0E1816FF0E1916000E1A16000E1F6EFF
:10516000000E206E000E216E070E226E15A006D0D6
:1051700018501F26195020221A502122D890173279
:1051800016321532D890183619361A36222EEED726
:10519000090E226E15A006D018501F261950202285
:1051A0001A502122D890173216321532D890213257
:1051B00020321F32222EEED71FC001F020C002F095
:1051C00021C003F01EC004F023C005F0B6EC2BF0A4
:1051D00001C015F002C016F003C017F012002DC078
:1051E0002FF0306A316A2C342F3601E330802F5093
:1051F000396E3950D8A409D0000E2B6E000E2C6EDB
:10520000000E2D6E000E2E6E1200170E2F6E2BC08C
:1052100030F02CC031F02DC032F02F28336E04D086
:10522000D890323231323032332EFAD73050346E99
:105230002C8EFF0E2B16FF0E2C16000E2D162B504B
:10524000356E2C50366E2D50376E386A8E0E395EA4
:1052500039AE16D03950800A8F0FD8B009D0000E61
:105260002B6E000E2C6E000E2D6E000E2E6E120098
:10527000D8903832373236323532393EF9D715D0F8
:10528000170E39640FD0000E2B6E000E2C6E000E20
:105290002D6E000E2E6E1200D8903536363637360B
:1052A000383639063950D8A4F7D73450D8B408D096
:1052B000381E371E361E356C000E36223722382235
:1052C00035C02BF036C02CF037C02DF038C02EF092
:1052D000120065C00FF066C010F0000E126E030ED3
:1052E000116E92EC33F063C05BF064C05CF00F5061
:1052F0005B2610505C225BC0F6FF5CC0F7FF090024
:10530000F5CF67F00900F5CF68F00A00F5CF69F036
:105310003FD067C018F068C019F069C01AF060C0CB
:1053200015F061C016F062C017F075EC28F015C0DA
:105330004FF016C050F017C051F0000E126E030E61
:10534000116E00016507D8A0660765C00FF066C042
:1053500010F092EC33F063C05BF064C05CF00F506F
:105360005B2610505C225BC0F6FF5CC0F7FF0900B3
:10537000F5CF52F00900F5CF53F00A00F5CF54F005
:10538000BDEC1EF04FC067F050C068F051C069F02E
:105390000001655100016611D8A4BBD767C060F059
:1053A00068C061F069C062F01200020182AF1DD0D6
:1053B00080C286F281C287F282C288F20201861F11
:1053C000871F881F862B000E87238823000E02016B
:1053D00086250201806F000E020187210201816F84
:1053E000800E020188210201826F020185AF1DD06B
:1053F00083C286F284C287F285C288F20201861FC8
:10540000871F881F862B000E87238823000E02012A
:1054100086250201836F000E020187210201846F3D
:10542000800E020188210201856F000E0201801B9F
:10543000000E0201811B800E0201821B000E020180
:10544000831B000E0201841B800E0201851B0201DA
:1054500083510201805D02018451020181590201E0
:10546000855102018259D8B002D0D8901200D8805C
:10547000120020EED0F010EEA5F0040EDBCFE3FF1B
:10548000E806FCE29DC02BF09EC02CF09FC02DF0E2
:10549000EFEC28F02B500001AA6F000E186EC80E1A
:1054A000196E420E1A6EAC0E0001636F000E000101
:1054B000646F9DC060F09EC061F09FC062F0C7EC59
:1054C0002FF060C015F061C016F062C017F075ECE7
:1054D00028F015C0A2F016C0A3F017C0A4F0A2C017
:1054E0002BF0A3C02CF0A4C02DF0EFEC28F02B5033
:1054F0000001AB6FC70E0001A56FAAC0A6F0ABC03C
:10550000A7F0A0C0A8F0A1C0A9F0000E0001AF6FE5
:10551000040E0001AF6501D012000001AF51010D72
:10552000A50EF324D96E000EF420DA6EDF5068EC7D
:1055300034F00001AF2BECD7000E02018B6F02019B
:1055400089AF08D00201886D891FD8B0892B010E60
:1055500002018B6F020187AF08D00201866D871FA1
:10556000D8B0872B010E02018B1B000E02018D6F3C
:10557000000E8C6F0201885102018911D8B42CD021
:10558000010E02018A6F06D00201D8908837893750
:1055900002018A2B020189AFF7D70201D8908C371C
:1055A0008D37020188510201865D02018951020195
:1055B0008759D8A00AD0020188510201865F0201F2
:1055C00089510201875B02018C810201D8908933E5
:1055D000883302018A2FE1D702018B510201D8B42E
:1055E00005D002018C6D8D1FD8B08D2B8CC286F238
:1055F0008DC287F21200000E0201886F000E896FC3
:10560000000E8A6F000E8B6F02018451020185111A
:105610000201861102018711D8B442D0010E0201A5
:105620008C6F08D00201D89084378537863787374A
:1056300002018C2B020187AFF5D70201D890883781
:1056400089378A378B37020184510201805D02015C
:1056500085510201815902018651020182590201DC
:10566000875102018359D8A012D00201845102014E
:10567000805F020185510201815B020186510201B6
:10568000825B020187510201835B02018881020172
:10569000D890873386338533843302018C2FCDD75E
:1056A00088C280F289C281F28AC282F28BC283F2FE
:1056B00012002D0E0201826F040E0201836F530E41
:1056C000E6EC26F0310E0201826F0B0E0201836FB1
:1056D000530EE6EC26F02C0E0201826F0A0E020138
:1056E000836F530EE6EC26F02E0E0201826F000E41
:1056F0000201836F530EE6EC26F0280E0201826F42
:10570000050E0201836F530EE6EC26F0290E02010E
:10571000826F140E0201836F530EE6EC26F02F0EFB
:105720000201826F000E0201836F530EE6EC26F039
:105730002E0E0201826F040E0201836F530EE6ECFF
:1057400026F02D0E0201826F080E0201836F530EA8
:10575000E6EC26F0000E0201826F010E0201836F5B
:10576000530E93EC1FF00201715112000450D8B493
:1057700005D0015002100310D8A40CD0000E016E09
:10578000000E026E000E036E1200042AD89003323F
:1057900002320132000E0114066E000E0214076E72
:1057A000FE0E0314086E065007100810D8B40CD073
:1057B000ECD7042A010E0126000E0222000E03225D
:1057C000D890033202320132000E0114066E000E30
:1057D0000214076EFF0E0314086E0650071008101F
:1057E000D8B406D0E6D70406D89001360236033680
:1057F00002BE03D0020E0460F6D704A0029ED89029
:105800000432045003120550D8A4038E01C001F0E5
:1058100002C002F003C003F01200000E0201856F07
:10582000020181AF08D00201806D811FD8B0812BA9
:10583000010E0201856F020183AF05D00201826D66
:10584000831FD8B0832B0201825102018311D8B487
:1058500026D0010E0201846F06D00201D890823753
:1058600083370201842B020183AFF7D702018251F3
:105870000201805D0201835102018159D8A008D044
:10588000020182510201805F020183510201815BAA
:105890000201D890833382330201842FE7D70201BB
:1058A00085510201D8B405D00201806D811FD8B0A6
:1058B000812B80C280F281C281F2120002019151DB
:1058C000020192110201931102019411D8B43AD04D
:1058D000010E0201956F08D00201D89091379237DE
:1058E000933794370201952B020194AFF5D702014B
:1058F000915102018D5D0201925102018E59020106
:10590000935102018F590201945102019059D8A07C
:1059100010D00201915102018D5F020192510201EA
:105920008E5B0201935102018F5B020194510201CF
:10593000905B0201D89094339333923391330201F8
:10594000952FD5D78DC28DF28EC28EF28FC28FF277
:1059500090C290F212000001E04BE12B0001DE4BFF
:10596000DF2BE80E0001E05D030E0001E159D8A035
:1059700024D044EC10F0920E0001866F100E00014E
:10598000876FDBC088F0DCC089F0DDC08AF0ECC036
:105990008BF000018C6B95EC19F00001AC6F0001ED
:1059A000AC5100018D6F8E6B5DEC0CF00001F02BA3
:1059B000000E0001E16F000EE06F040E0001DE1921
:1059C0000001DF11D8A407D0F4EC27F0000E00018D
:1059D000DF6F000EDE6F3C0E0001F019D8A412003C
:1059E0000001EF2B000E0001F06F12000FAE16D079
:1059F0000DC013F00EC014F00FC015F0131E141ECE
:105A0000151E132A000E14221522000E13240D6EEB
:105A1000000E14200E6E800E15200F6E12AE16D0E2
:105A200010C013F011C014F012C015F0131E141E94
:105A3000151E132A000E14221522000E1324106EB8
:105A4000000E1420116E800E1520126E000E0D1A1D
:105A5000000E0E1A800E0F1A000E101A000E111AE8
:105A6000800E121A10500D5C11500E5812500F5823
:105A7000D8B002D0D8901200D88012000150021085
:105A80000310D8A40FD004C0D9FF05C0DAFF000E60
:105A9000DE6E000EDD6E000E016E000E026E000E58
:105AA000036E120003507F0B066E076AD89006360D
:105AB000073604C0D9FF05C0DAFF06C0DEFF07C005
:105AC000DDFF02AE03D0066A062A01D0066A065040
:105AD00004C0D9FF05C0DAFFDE12000EDD1204C0DB
:105AE000D9FF05C0DAFF820EDE26FF0EDD2203801D
:105AF0000382038403860388038A039C029E01C0F9
:105B000001F002C002F003C003F012005BC044F0D9
:105B10005CC045F05DC046F094EC2EF044C04CF003
:105B200045C04DF046C04EF0B7EC33F04CC04FF0DE
:105B30004DC050F04EC051F05BC052F05CC053F00D
:105B40005DC054F0BDEC1EF04FC060F050C061F07D
:105B500051C062F05BC04FF05CC050F05DC051F0CE
:105B600060C052F061C053F062C054F0BDEC1EF052
:105B70004FC05BF050C05CF051C05DF05BC044F0C2
:105B80005CC045F05DC046F094EC2EF044C05BF084
:105B900045C05CF046C05DF01200320E036E060E8A
:105BA000046E530EEBEC23F071C201F0020172514E
:105BB00016EC34F001C006F002C007F0000E096ECA
:105BC000100E086E73EC30F006C077F207C078F262
:105BD00073C201F00201745116EC34F001C006F0FA
:105BE00002C007F0000E096E100E086E73EC30F064
:105BF00006C079F207C07AF275C201F0020176514F
:105C000016EC34F001C006F002C007F0000E096E79
:105C1000100E086E73EC30F006C07BF207C07CF209
:105C20001200000E0C6E0AAE06D0096C0A1ED8B027
:105C30000A2A010E0C6E08AE06D0076C081ED8B0FA
:105C4000082A010E0C1A000E0E6E000E0D6E095081
:105C50000A10D8B41CD0010E0B6E04D0D8900936AF
:105C60000A360B2A0AAEFAD7D8900D360E360950EE
:105C7000075C0A500858D8A005D00950075E0A50A2
:105C8000085A0D80D8900A3209320B2EEDD70C50ED
:105C9000D8B404D00D6C0E1ED8B00E2A0DC007F07B
:105CA0000EC008F01200000E096E000E0A6E000E03
:105CB0000B6E000E0C6E0550061007100810D8B4BD
:105CC0002AD0010E0D6E06D0D8900536063607365E
:105CD00008360D2A08AEF8D7D89009360A360B36A2
:105CE0000C360550015C0650025807500358085006
:105CF0000458D8A009D00550015E0650025A07503A
:105D0000035A0850045A0980D890083207320632E4
:105D100005320D2EE1D709C001F00AC002F00BC018
:105D200003F00CC004F0120044C001F045C002F0C2
:105D300046C003F04A0E046E000E056E3EEC2DF0D8
:105D40004BAE07D0000E446E000E456E000E466E40
:105D500012004B5004E1150E4A5CD8A007D044C095
:105D600044F045C045F046C046F0120044C02BF058
:105D700045C02CF046C02DF0EFEC28F02BC03AF0D7
:105D80002CC03BF02DC03CF02EC03DF050EC2FF06D
:105D90003AC047F03BC048F03CC049F047C044F02F
:105DA00048C045F049C046F012008E0E0201906FC7
:105DB00008D00201D8908B338A33893388330201AB
:105DC000902B000E0201881502018C6F000E02015B
:105DD000891502018D6F000E02018A1502018E6F76
:105DE000FF0E02018B1502018F6F02018C5102011F
:105DF0008D1102018E1102018F11D8A4DAD788C249
:105E000080F289C281F28AC282F290C283F2000ECD
:105E10000201846F6EEC27F080C288F281C289F2A1
:105E200082C28AF212000201816F81C2C9FFC6AE2E
:105E300002D0FF0E1200C6500F0B080AD8B40FD0C4
:105E4000C6500F0B0B0AD8B40AD0C6889EA6FED740
:105E5000C7A4C7B002D0FE0E1200000E1200C6503A
:105E60000F0B080AD8B405D0C6500F0B0B0AD8A4E4
:105E70001200C7B0FED7C7A404D00201806B802BEC
:105E800002D00201806BC5501F0B02018011000976
:105E9000D8A4F1D7C5AC02D0FE0E1200000E12003D
:105EA000000E436E8E0E426E3DAE11D03D1E3C1E66
:105EB0003B1E3A6C000E3B223C223D22010E436EFB
:105EC00006D0D8903D323C323B323A32422A000E64
:105ED0003A143E6E000E3B143F6E000E3C14406EB2
:105EE000FF0E3D14416E3E503F1040104110D8A4AB
:105EF000E8D73AC001F03BC002F03CC003F042C01A
:105F000004F043C005F0B6EC2BF001C03AF002C03B
:105F10003BF003C03CF0120002EEDEF01BEEB8F0E6
:105F2000EE6AE550E150FCE1E250FAE102EE00F0E9
:105F3000800EEE6AE806FDE101EEE4F0100EEE6A76
:105F4000E806FDE100EEBEF0340EEE6AE806FDE183
:105F5000F10EF66E680EF76E000EF86E0900F5CFC2
:105F6000F4F1EE0EF66E680EF76E000EF86E090094
:105F7000F5CFF2F00900F5CFF3F00900F5CFF4F01A
:105F80005F905F92000EF86E000123EF34F060C066
:105F90002BF061C02CF062C02DF0EFEC28F02BC08C
:105FA0003AF02CC03BF02DC03CF097EC32F063C0CF
:105FB000D9FF64C0DAFF3AC0DEFF3BC0DEFF3CC061
:105FC000DEFF63C0D9FF64C0DAFFDECF4CF0DECF66
:105FD0004DF0DDCF4EF0B7EC33F04CC04FF04DC07C
:105FE00050F04EC051F060C052F061C053F062C03A
:105FF00054F0BDEC1EF04FC060F050C061F051C0D5
:1060000062F01200026E02C0C9FFC6AE02D0FF0EDF
:106010001200C6500F0B080AD8B40FD0C6500F0B91
:106020000B0AD8B40AD0C6889EA6FED7C7A4C7B0AC
:1060300002D0FE0E1200000E1200C6500F0B080A0E
:10604000D8B405D0C6500F0B0B0AD8A41200C7B0A5
:10605000FED7C7A403D0016A012A01D0016AC55046
:106060001F0B01100009D8A4F4D7C5AC02D0FE0E56
:106070001200000E1200000E066E02AE06D0016C79
:10608000021ED8B0022A010E066E04AE04D0036CC4
:10609000041ED8B0042A03500410D8B418D0010E3E
:1060A000056E04D0D89003360436052A04AEFAD71C
:1060B0000350015C04500258D8A004D00350015E84
:1060C0000450025AD89004320332052EF1D70650FC
:1060D000D8B404D0016C021ED8B0022A01C001F06D
:1060E00002C002F0120008C00AF0FF0E0A26010EDC
:1060F0000B6E000E0C6E0A2A03D0D8900B360C36AD
:106100000A2EFBD706500B1607500C160B500C101E
:10611000D8B41BD0000E0E6E000E0D6E061C0D6E58
:10612000071C0E6E010E0D240D6E000E0E200E6E5D
:106130000DC00AF00EC00BF00A1E0B1E0A4A0B2AF5
:106140000AC006F00BC007F0120006C006F007C038
:1061500007F012001250131014101510D8B424D0E8
:10616000010E166E06D0D890123613361436153638
:10617000162A15AEF8D712500E5C13500F58145053
:10618000105815501158D8A008D012500E5E135058
:106190000F5A1450105A1550115AD8901532143203
:1061A00013321232162EE7D70EC00EF00FC00FF0CA
:1061B00010C010F011C011F012000201846F000E27
:1061C000C26E000EC16E000EC06E020180517C0BCB
:1061D000C26E81C2C1FF84C282F20201D8908237AE
:1061E0000201D8908237380E0201821784C283F2EE
:1061F0000201833B0F0E8317070E02018317020172
:106200008451800B0201831102018211C06E0201D0
:1062100080AF03D09E9C9D8CF28CC2801200020144
:10622000826F000EAC6E000EAB6E020182B1AC88C4
:10623000020182A302D0AC8CAB8C020182B5AC8E81
:10624000020182A702D0AB8801D0AB8A020182B9D9
:10625000AC84020182BBAB86020182AD02D09D8A72
:1062600001D09D9A020182AF02D09D8801D09D98F5
:1062700080C2AFFF02018151B06EAC8AAB8E1200BA
:106280000201856F11D0970E02017F6F850E02010A
:106290007E6FED0E07D0D70E02017F6F000E020158
:1062A0007E6FE50E7D6F08D002018551010AD8B4DA
:1062B000EAD7030AD8B4EFD7020185510201D8A466
:1062C00003D072EC34F0120002017F517FEC33F006
:1062D0007DC280F27EC281F242EC34F0F294120070
:1062E0008E0E116E06D0D8900C320B320A32093263
:1062F000112A000E09140D6E000E0A140E6E000E07
:106300000B140F6EFF0E0C14106E0D500E100F10AC
:106310001010D8A4E8D709C001F00AC002F00BC0E1
:1063200003F011C004F0000E056EB6EC2BF001C0B6
:1063300009F002C00AF003C00BF01200000E066E56
:10634000000E056E03500410D8B41CD0010E076E69
:1063500004D0D89003360436072A04AEFAD7D89072
:10636000053606360350015C04500258D8A005D00B
:106370000350015E0450025A0580D8900432033263
:10638000072EEDD705C001F006C002F01200020191
:10639000BC510201BD110201BE11D8B409D0000EDA
:1063A0000201BC1B000E0201BD1B800E0201BE1BC0
:1063B000B9C2ADF2BAC2AEF2BBC2AFF2BCC2B0F269
:1063C000BDC2B1F2BEC2B2F266EC1CF0ADC2B9F20F
:1063D000AEC2BAF2AFC2BBF21200000163510001BB
:1063E000641100016511D8B409D0000E0001631BCF
:1063F000000E0001641B800E0001651B60C04FF0A1
:1064000061C050F062C051F063C052F064C053F0FC
:1064100065C054F0BDEC1EF04FC060F050C061F09C
:1064200051C062F01200000E0201856F000E0201E1
:10643000846F000E836F949C948E1C0E0201856FF6
:10644000000E0201846F330E836F4F0EAB16AC9AB1
:10645000CF0E9D1683C280F284C281F20201855163
:106460000FEC31F09F8A9D8A9E9A12006DC06AF0EF
:106470006EC06BF06FC06CF08AEC24F06AC070F0F4
:106480006BC071F06CC072F070C015F071C016F086
:1064900072C017F05C0E186EDE0E196E3E0E1A6E8C
:1064A00075EC28F015C06DF016C06EF017C06FF0D7
:1064B00012000F013A970F013A9994869488C69A70
:1064C000000E0201806F080EDAEC33F0130EC86E76
:1064D000C7A404D00201826B822B02D00201826B1E
:1064E000C5501F0B020182110009D8B41200F0D769
:1064F000010E0001F16F82B604D00001AD6BAD2B2F
:1065000002D00001AD6B0001AD47AD47AD478250F1
:106510000001AD19F70BAD19826EABEC2CF07DC20A
:1065200001F07EC202F04BEC34F0F2941200000E47
:106530003D6E3CAE08D03C1E3B1E3A6C000E3B222A
:106540003C22010E3D6E3AC001F03BC002F03CC05F
:1065500003F08E0E046E3DC005F0B6EC2BF001C0CA
:106560003AF002C03BF003C03CF01200000E0C6E8B
:106570000AAE06D0096C0A1ED8B00A2A010E0C6EAB
:1065800009C001F00AC002F0036A8E0E046E0CC04E
:1065900005F0B6EC2BF001C009F002C00AF003C010
:1065A0000BF0120002018E5102019003F3CF92F220
:1065B000F4CF93F202018E5102019103F3500201D4
:1065C000932702018F5102019003F3500201932798
:1065D00092C28EF293C28FF21200000E0201856FFA
:1065E000000E0201866F000E0201876FA10E0201EC
:1065F000856F270E0201866FFC0E0201876F86C22F
:1066000080F287C281F202018551DDEC30F0120088
:106610006EEC34F0C9EC33F013EC32F0000E0201F2
:10662000846F020E40EC31F02EEC34F0EDEC32F0E1
:1066300059EC32F059EC2BF002018F6FF28CF28E94
:106640001200000E086E000E076EB70E38EC34F024
:1066500075EC34F062EC34F00009D8A4FBD75BECA5
:1066600034F001C007F002C008F007C005F008C010
:1066700006F01200000E086E000E076EAF0E38EC2A
:1066800034F075EC34F062EC34F00009D8A4FBD798
:106690005BEC34F001C007F002C008F007C005F061
:1066A00008C006F0120002018051020181110201AE
:1066B0008211D8B409D0000E0201801B000E020125
:1066C000811B800E0201821B80C280F281C281F296
:1066D00082C282F2120002AE0DD001C003F002C0ED
:1066E00004F0031E041E034A042A03C001F004C080
:1066F00002F0120001C001F002C002F0120002011B
:10670000806F020180517F0BD56E000ED76E000E98
:10671000D66EF294020180AF02D0F28A01D0F29AD2
:10672000D58E12000F501102F3CF13F0F4CF14F0F6
:106730000F501202F350142610501102F350142679
:1067400013C00FF014C010F0120009C001F00AC00D
:1067500002F0036A8E0E046E000E056EB6EC2BF08E
:1067600001C009F002C00AF003C00BF012004C5047
:106770004D104E10D8B406D0000E4C1A000E4D1A13
:10678000800E4E1A4CC04CF04DC04DF04EC04EF035
:1067900012000F013A959494829492968096938871
:1067A0000F013989938A0F01398B93800F01399139
:1067B000819012000201816F3F0EC716000EC66E57
:1067C000000EC56E02018151C61202018051C7122E
:1067D000C68A1200000E056E020E03180410D8B40B
:1067E00001C005F003040410D8A402D00250056EC5
:1067F00005501200C6500F0B080AD8B404D0C6507A
:106800000F0B0B0AD8B4C586C7A0FED7C95012001B
:10681000C6500F0B080AD8B404D0C6500F0B0B0A91
:10682000D8B4C586C7A0FED7C9501200056E015066
:1068300005C003F0046A03C004F0036A0310016E8C
:106840000450026E120008EC33F0AE0E0201BF6F6E
:10685000100E0201C06F60EC08F0FFD7F1949F8A20
:106860009D8A9E9AF288F18CF19EF28CF28E120033
:10687000026E02C001F07C0E0116C250830B0110A3
:10688000C26E120080C282F281C283F283C2D7FF3D
:1068900082C2D6FF120001C003F002C004F004C09F
:1068A000D7FF03C0D6FF12000201806F9EA8FED75B
:1068B00080C2ADFF1200C450036EC350016E03C00E
:1068C00002F01200C2A202D0010E1200000E12004D
:1068D000016E9EA8FED701C0ADFF1200D388D38AF7
:1068E000D38C1200D59EF29A1200C28212000000D0
:0268F000400264
:020000040030CA
:0E000000FF331F3CFFBF85FF0FC00FE00F4016
:00000001FF
