:0400000054EF00F0C9
:100008005F82FACF40F0FBCF41F0E9CF42F0EACF70
:1000180043F0E1CF44F0E2CF45F0D9CF46F0DACF54
:1000280047F0F3CF48F0F4CF49F0F6CF4AF0F7CFD6
:100038004BF0F8CF4CF0F5CF4DF0F2B4F1A402D06C
:10004800A0EC19F09EBA9DAA03D008EC17F09E9A6E
:10005800F2A208D0300E036E010E046E530E4CEC63
:100068000FF0F2924DC0F5FF4CC0F8FF4BC0F7FF00
:100078004AC0F6FF49C0F4FF48C0F3FF47C0DAFFA3
:1000880046C0D9FF45C0E2FF44C0E1FF43C0EAFFD4
:1000980042C0E9FF41C0FBFF40C0FAFF5F92110078
:0400A80012EF16F04D
:101000000001000A006400E80310270000000080CF
:101010003FF0FFBEE2A93E8376BEAE2B3E3CC3BD91
:10102000D2133D78D3BB536D6172742053686972DB
:10103000742076312E30005365673A202564000015
:10104000000E0001B46FA00E0001B56F400E00014C
:10105000B66F330E0001B16F530E0001B26F400E38
:101060000001B36FF00E0001B76F3F0E0001B86FC3
:10107000400E0001B96FC00E0001BA6F8F0E000163
:10108000BB6F450E0001BC6F900E0001BD6F8E0E50
:101090000001BE6F450E0001BF6F000E0001C66F5C
:1010A0004D0E0001C76F440E0001C86F330E106E65
:1010B000530E116E400E126ED4EC19F005C009F0FB
:1010C00006C00AF069EC19F009C00DF00AC00EF074
:1010D0000BC00FF088EC12F00DC028F00EC029F004
:1010E0000FC02AF0000E2B6E800E2C6E440E2D6E5B
:1010F00002EC13F028C0CCF029C0CDF02AC0CEF00D
:10110000CCC028F0CDC029F0CEC02AF0B4C02BF05E
:10111000B5C02CF0B6C02DF002EC13F028C0CCF016
:1011200029C0CDF02AC0CEF0BAC01FF0BBC020F05D
:10113000BCC021F0C6C01CF0C7C01DF0C8C01EF066
:10114000F8EC0CF01CC02BF01DC02CF01EC02DF0D4
:10115000C6C028F0C7C029F0C8C02AF002EC13F0BE
:1011600028C0C0F029C0C1F02AC0C2F0B7C02BF01F
:10117000B8C02CF0B9C02DF0CCC028F0CDC029F0FB
:10118000CEC02AF002EC13F028C01CF029C01DF0DC
:101190002AC01EF0C0C01FF0C1C020F0C2C021F0A4
:1011A000F8EC0CF01CC0C9F01DC0CAF01EC0CBF09A
:1011B000C9C010F0CAC011F0CBC012F0BDC00DF014
:1011C000BEC00EF0BFC00FF088EC12F00DC028F0CA
:1011D0000EC029F00FC02AF0000E1F6E800E206E88
:1011E0003F0E216EC9C001F0CAC002F0CBC003F0AF
:1011F00080EC1AF001C01CF002C01DF003C01EF00C
:10120000F8EC0CF01CC02BF01DC02CF01EC02DF013
:1012100002EC13F028C0D5F029C0D6F02AC0D7F0D0
:10122000D5C001F0D6C002F0D7C003F0DA0E046ECC
:10123000E30E056E440E066E41EC15F0D8A055D0B5
:10124000720E2B6ECF0E2C6E450E2D6ED5C028F073
:10125000D6C029F0D7C02AF002EC13F028C039F02C
:1012600029C03AF02AC03BF0CBEC18F039C0CFF0DF
:101270003AC0D0F03BC0D1F02B0E396E750E3A6EED
:101280003F0E3B6ECBEC18F039C02BF03AC02CF07F
:101290003BC02DF0000E106E800E116EBF0E126E50
:1012A000CFC00DF0D0C00EF0D1C00FF088EC12F01E
:1012B0000DC028F00EC029F00FC02AF002EC13F088
:1012C00028C0D2F029C0D3F02AC0D4F0D2C00DF08B
:1012D000D3C00EF0D4C00FF0000E106E800E116E51
:1012E000BF0E126E88EC12F093D1D5C001F0D6C0BB
:1012F00002F0D7C003F0A30E046EB80E056E440EC4
:10130000066E41EC15F0D8A055D01C0E2B6EC80E01
:101310002C6E450E2D6ED5C028F0D6C029F0D7C052
:101320002AF002EC13F028C039F029C03AF02AC0A4
:101330003BF0CBEC18F039C0CFF03AC0D0F03BC056
:10134000D1F0760E396E750E3A6E3F0E3B6ECBECD9
:1013500018F039C02BF03AC02CF03BC02DF0000E35
:10136000106E800E116EBF0E126ECFC00DF0D0C089
:101370000EF0D1C00FF088EC12F00DC028F00EC0B6
:1013800029F00FC02AF002EC13F028C0D2F029C0D7
:10139000D3F02AC0D4F0D2C00DF0D3C00EF0D4C028
:1013A0000FF0000E106E800E116EBF0E126E88ECE4
:1013B00012F02ED1D5C001F0D6C002F0D7C003F094
:1013C0009A0E046E960E056E440E066E41EC15F0F4
:1013D000D8A055D0300E2B6EBF0E2C6E450E2D6E44
:1013E000D5C028F0D6C029F0D7C02AF002EC13F0FF
:1013F00028C039F029C03AF02AC03BF0CBEC18F0F5
:1014000039C0CFF03AC0D0F03BC0D1F0C80E396E31
:10141000750E3A6E3F0E3B6ECBEC18F039C02BF0D8
:101420003AC02CF03BC02DF0000E106E800E116EF5
:10143000BF0E126ECFC00DF0D0C00EF0D1C00FF0B5
:1014400088EC12F00DC028F00EC029F00FC02AF071
:1014500002EC13F028C0D2F029C0D3F02AC0D4F097
:10146000D2C00DF0D3C00EF0D4C00FF0000E106E3D
:10147000800E116EBF0E126E88EC12F0C9D0D5C06E
:1014800001F0D6C002F0D7C003F0060E046E770E4E
:10149000056E440E066E41EC15F0D8A055D0190E1D
:1014A0002B6EB70E2C6E450E2D6ED5C028F0D6C013
:1014B00029F0D7C02AF002EC13F028C039F029C077
:1014C0003AF02AC03BF0CBEC18F039C0CFF03AC06C
:1014D000D0F03BC0D1F00C0E396E760E3A6E3F0E56
:1014E0003B6ECBEC18F039C02BF03AC02CF03BC06F
:1014F0002DF0000E106E800E116EBF0E126ECFC05A
:101500000DF0D0C00EF0D1C00FF088EC12F00DC07D
:1015100028F00EC029F00FC02AF002EC13F028C00A
:10152000D2F029C0D3F02AC0D4F0D2C00DF0D3C07D
:101530000EF0D4C00FF0000E106E800E116EBF0EB4
:10154000126E88EC12F064D0D5C001F0D6C002F063
:10155000D7C003F0ED0E046E4A0E056E440E066E03
:1015600041EC15F0D8A05AD0400E2B6EAE0E2C6E6A
:10157000450E2D6ED5C028F0D6C029F0D7C02AF070
:1015800002EC13F028C039F029C03AF02AC03BF031
:10159000CBEC18F039C0CFF03AC0D0F03BC0D1F05E
:1015A000510E396E760E3A6E3F0E3B6ECBEC18F054
:1015B00039C02BF03AC02CF03BC02DF0000E106E5D
:1015C000800E116EBF0E126ECFC00DF0D0C00EF0A7
:1015D000D1C00FF088EC12F00DC028F00EC029F039
:1015E0000FC02AF002EC13F028C0D2F029C0D3F0CB
:1015F0002AC0D4F0D2C00DF0D3C00EF0D4C00FF08A
:10160000000E106E800E116EBF0E126E88EC12F07E
:101610000DC0C3F00EC0C4F00FC0C5F0C3C089F048
:10162000C4C08AF0C5C08BF01200000E0101D56F56
:10163000000ED46F000E0101D26F000E0101D36FB6
:1016400021EEE4F011EEC8F0090EDBCFE3FFE8066F
:10165000FCE2000E0101DB6F000EDA6F000E0101EB
:10166000DC6F000E0101E16F000E0101E36F000E5F
:10167000E26F000E0101D76F000ED66F000E010160
:10168000D96F000EE8CFA8FA000E0101E36F010E3A
:10169000E26FE80E0101E25D030E0101E359D8B0EB
:1016A00048D0A80E0101E225D96E0A0E0101E321FE
:1016B000DA6EE2C12BF0E3C12CF0D8902B362C3639
:1016C000020E2B26000E2C22D80E2B24E16E020EC9
:1016D0002C20E26EE6CF2DF0E5CF2EF0FE0E2F6E21
:1016E000FF0E306EE2C131F0E3C132F0D8903136F6
:1016F00032362F50312630503222D80E3124E16E4E
:10170000020E3220E26EE6CF33F0E5CF34F0331E26
:10171000341E334A342A2D503324016E2E50342087
:10172000026E33EC1AF00150DF6E0101E24BE32B45
:10173000B0D7000E0101E36F000EE26F0101E3512B
:1017400013E11F0E0101E25DD8B00ED0A80E010119
:10175000E225D96E0A0E0101E321DA6E000EDF6E7A
:101760000101E24BE32BEAD7000E0101DE6F000E10
:10177000DD6F0101DEBF08D0E80E0101DD5D030E63
:101780000101DE59D8B023D0A80E0101DD25D96EA4
:101790000A0E0101DE21DA6EDF502B6E2B500101A3
:1017A000D65D000ED759D8B00ED0A80E0101DD25A8
:1017B000D96E0A0E0101DE21DA6EDF502B6E2B503E
:1017C0000101D66FD76B0101DD4BDE2BD2D7330E73
:1017D000106E330E116E3F0E126ED6C109F0D7C1D6
:1017E0000AF092EC1AF009C00DF00AC00EF00BC01E
:1017F0000FF088EC12F00DC01CF00EC01DF00FC0F1
:101800001EF00EEC12F01CC0EEF11DC0EFF1000E48
:101810000101E06F000EDF6F0101E0BF08D0E90EAB
:101820000101DF5D030E0101E059D8B09ED0A80E82
:101830000101DF25D96E0A0E0101E021DA6EDF50C9
:101840002B6E2B500101EE5D000EEF59D8B079D010
:101850000101D9510101D8A474D0A80E0101DF25DE
:10186000D96E0A0E0101E021DA6EDF502B6E2C6A70
:101870000101E151020D140EF326000EF422000EB8
:10188000F324D96E010EF420DA6E2BC0DEFF2CC0DB
:10189000DDFF0101E151020D280EF326000EF422B6
:1018A000000EF324D96E010EF420DA6EDFC1DEFFE4
:1018B000E0C1DDFF0101E1510101D8B43DD00101DA
:1018C000E151020D280EF326000EF422000EF3243F
:1018D000D96E010EF420DA6EDECF2BF0DDCF2CF0C6
:1018E0000101E1512D6E2E6AD8902D362E36260E2E
:1018F0002D26000E2E22000E2D24D96E010E2E2034
:10190000DA6EDECF2FF0DDCF30F02F1E301E2F4AE3
:10191000302A2B502F262C5030220101DC51020D91
:10192000C80EF324D96E010EF420DA6E2FC0DEFF4C
:1019300030C0DDFF0101DC2B0101E12B010E0101B3
:10194000D96F0101D905D8A40CD01E0E0101D365B1
:1019500006D0000E0101D96F000E0101D36F010105
:10196000D32B0101DF4BE02B57D7000E0101D86FBD
:1019700019D00101D851020DC80EF324D96E010E01
:10198000F420DA6EDECF2BF0DDCF2CF00101DA513E
:101990002B240101DA6F0101DB512C200101DB6FE7
:1019A0000101D82B0101DC510101D85DD8A0E1D79C
:1019B000DAC101F0DBC102F0DCC103F0046AD0EC53
:1019C00015F001C0DAF102C0DBF13A0E026E980E9A
:1019D000016EDAC103F0DBC104F0A2EC18F001C023
:1019E000D4F102C0D5F1D4C1D2F10101D451120019
:1019F0001EC022F0236A246A1D34223601E32380AC
:101A00002250276E21C022F0236A246A2034223615
:101A100001E323802250266E2750D8B40BD02650E5
:101A2000275CD8B00ED0275000082624226E180E4E
:101A3000226407D01FC01CF020C01DF021C01EF082
:101A400012002650D8B40BD02750265CD8B00ED048
:101A5000265000082724226E180E226407D01CC0CE
:101A60001CF01DC01DF01EC01EF01200060E256EDB
:101A70001EBE258E21BE258C1D8EFF0E1C16FF0E50
:101A80001D16000E1E16208EFF0E1F16FF0E2016AE
:101A9000000E21162650275CD8B01BD0D8901F36D8
:101AA00020362136260627502618D8B40DD0250614
:101AB00025C022F0070E2216D8B406D0EFD7D89052
:101AC0001E321D321C32272A26502718D8B41FD0A8
:101AD000F6D72750265CD8B01AD0D8901C361D36C1
:101AE0001E36270627502618D8B40DD0250625C047
:101AF00022F0070E2216D8B406D0EFD7D8902132A4
:101B000020321F32262A26502718D8A4F7D725AE10
:101B10000CD0FF0E1C1AFF0E1D1AFF0E1E1A010E0E
:101B20001C26000E1D22000E1E2225AC0CD0FF0E1E
:101B30001F1AFF0E201AFF0E211A010E1F26000E7B
:101B40002022000E2122000E256E1C501F261D5043
:101B500020221E50212221AE0ED0FF0E1F1AFF0E92
:101B6000201AFF0E211A010E1F26000E2022000E41
:101B70002122010E256E1FC001F020C002F021C0FD
:101B800003F027C004F025C005F0A2EC14F001C05A
:101B90001CF002C01DF003C01EF012000201C56F50
:101BA000000E0201C46FC580C5B0FED70201C55149
:101BB000C5250201C56FC9CFC4F20201C551FE0B94
:101BC00053EC16F00201C76F0201C729D8A403D055
:101BD000C9CFC4F2C69E0201C7510201D8A4EDD7F5
:101BE000000E0201C76FC7A404D00201BD6BBD2B5C
:101BF00002D00201BD6BC5501F0B0201BD110009CF
:101C0000D8A4F1D70201BB5153EC16F00201C76F03
:101C10000201C729D8A403D0C9CFC4F2C69E0201CD
:101C2000C7510201D8A4EED7000E0201C76FC7A4A6
:101C300004D00201BD6BBD2B02D00201BD6BC550AB
:101C40001F0B0201BD110009D8A4F1D7C582C5B28E
:101C5000FED7C9CFC4F20201C551010953EC16F0F9
:101C60000201C76F0201C729D8A403D0C9CFC4F2AB
:101C7000C69E0201C7510201D8A4EDD7000E020191
:101C8000C76FC7A404D00201BD6BBD2B02D00201F7
:101C9000BD6BC5501F0B0201BD110009D8A4F1D7BF
:101CA000000E0201C66F000E0201C66F41D0020194
:101CB000C651010D720EF324D96E000EF420DA6EB7
:101CC000C3EC1AF0DF6EFF0E0201BD6FFF0E0201C2
:101CD000BE6F0201BC510201BF6FC06B0201BD515A
:101CE0000201BF270201BE510201C0230201C651F9
:101CF0000201C16FC26B0201BF510201C15D02014D
:101D0000C251800A0201C36F0201C051800A020160
:101D1000C359D8B005D0C59AC588C5A807D0FDD786
:101D2000C58AC588C5B8FED7C5B8FED70201C62B7F
:101D30000201BC510201C65DD8A0B9D7C584C5A4B3
:101D40001200FDD7C70E0201C86F020E0201C96F53
:101D500094D0250E0201CE19D8B405D00201CE517F
:101D600021EC1BF08AD0000E0201CA6FC5C2F6FF3B
:101D7000C6C2F7FF0201C54BC62B0800F5CFCEF255
:101D80000201CE51000AD8B41200640AD8B403D0BC
:101D90000D0AD8A472D0C8C2D9FFC9C2DAFFDECFFB
:101DA000CCF2DDCFCDF2020E0201C827000EC9230E
:101DB0000201CDAF08D0030E0201CA130201CC6D9F
:101DC000CD1FD8B0CD2B010E0201CE6F050E020142
:101DD000CE19D8B416D00201CE51020D010EF32453
:101DE000F66E100EF420F76E0900F5500201CC5D7E
:101DF0000900F5500201CD59D8A003D00201CE2B25
:101E0000E5D7CAC2C7F2030E0201C717D8B403D080
:101E10002D0E21EC1BF0CEC2CBF229D00201CB510A
:101E2000020D010EF324F66E100EF420F76E090079
:101E3000F5CFBBF20A00F5CFBCF2CCC2B9F2CDC2ED
:101E4000BAF290EC16F0B9C2C0F2BAC2C1F2000EFA
:101E50000201C36F0A0EC26FE1EC17F00201C0511C
:101E6000300F0201CE6F0201CE5121EC1BF00201B6
:101E7000CB070201CB29D8A4D1D7C5C2F6FFC6C271
:101E8000F7FF0201C54BC62B0800F5CFCEF20201C9
:101E9000CE51D8B412005DD70C6E000E0D6EC58009
:101EA000C5B0FED70C500C240C6EC9CF0DF00C50F1
:101EB000FE0B43EC17F00F6E0F28D8A403D0C9CF48
:101EC0000DF0C69E0F50D8A4F2D7000E0F6EC7A417
:101ED00003D0056A052A01D0056AC5501F0B0510FD
:101EE0000009D8A4F4D7035043EC17F00F6E0F2865
:101EF000D8A403D0C9CF0DF0C69E0F50D8A4F3D7F5
:101F0000000E0F6EC7A403D0056A052A01D0056A2A
:101F1000C5501F0B05100009D8A4F4D7C582C5B25F
:101F2000FED7C9CF0DF00C50010943EC17F00F6E2E
:101F30000F28D8A403D0C9CF0DF0C69E0F50D8A447
:101F4000F2D7000E0F6EC7A403D0056A052A01D090
:101F5000056AC5501F0B05100009D8A4F4D7000E60
:101F60000E6E000E0E6E2FD00E50010D720EF32469
:101F7000D96E000EF420DA6ED1EC1AF0DF6EFF0E8F
:101F8000056EFF0E066E0450076E086A05500726A0
:101F9000065008220E50096E0A6A0750095C0A5062
:101FA000800A0B6E0850800A0B58D8B005D0C59A2D
:101FB000C588C5A807D0FDD7C58AC588C5B8FED7CE
:101FC000C5B8FED70E2A04500E5CD8A0CDD7C58464
:101FD000C5A41200FDD70F0E126E000E136E7DD039
:101FE000250E1818D8B404D018504BEC1BF075D03F
:101FF000000E146E0DC0F6FF0EC0F7FF0D4A0E2A3C
:102000000800F5CF18F01850000AD8B41200640A7E
:10201000D8B403D00D0AD8A460D012C0D9FF13C021
:10202000DAFFDECF16F0DDCF17F0020E1226000E1B
:10203000132217AE06D0030E1412166C171ED8B05A
:10204000172A010E186E050E1818D8B412D01850A1
:10205000020D010EF324F66E100EF420F76E090047
:10206000F550165C0900F5501758D8A002D0182A70
:10207000EAD714C011F0030E1116D8B403D02D0EF8
:102080004BEC1BF018C015F024D01550020D010EBA
:10209000F324F66E100EF420F76E0900F5CF03F06E
:1020A0000A00F5CF04F016C001F017C002F0A2EC50
:1020B00018F001C008F002C009F0000E0B6E0A0E05
:1020C0000A6EEEEC18F00850300F186E18504BECFA
:1020D0001BF015061528D8A4D8D70DC0F6FF0EC0E2
:1020E000F7FF0D4A0E2A0800F5CF18F01850D8B4A3
:1020F000120076D736AE0CD0000E00019F6F210E75
:102100009E6F000E346E000E356E000E366E12009D
:10211000345035103610D8A40CD0000E00019F6F3B
:10212000220E9E6F000E346E000E356E000E366E5F
:102130001200000E106E000E116E400E126E370E61
:10214000046E000E056E34C001F035C002F036C0DA
:1021500003F0F9EC14F001C00DF002C00EF003C062
:102160000FF088EC12F00DC01CF00EC01DF00FC077
:102170001EF0000E1F6E800E206EBF0E216EF8EC5A
:102180000CF01CC034F01DC035F01EC036F0370610
:10219000D8A0380634C028F035C029F036C02AF05F
:1021A0000B0E2B6E100E2C6E000E2E6E080E2D6E6A
:1021B00075EC13F028C034F029C035F02AC036F091
:1021C000720E106E310E116E3F0E126E37C009F096
:1021D00038C00AF069EC19F009C00DF00AC00EF021
:1021E0000BC00FF088EC12F00DC01CF00EC01DF0FB
:1021F0000FC01EF034C01FF035C020F036C021F0F3
:10220000F8EC0CF01CC034F01DC035F01EC036F0E8
:1022100012000201BF6F000E0201BE6FC580C5B083
:10222000FED70201BF51BF250201BF6FC9CFBEF269
:102230000201BF51FE0B53EC16F00201C06F020108
:10224000C029D8A403D0C9CFBEF2C69E0201C05196
:102250000201D8A4EDD7000E0201C06FC7A404D0BC
:102260000201BD6BBD2B02D00201BD6BC5501F0B1F
:102270000201BD110009D8A4F1D70201BB5153ECF2
:1022800016F00201C06F0201C029D8A403D0C9CF43
:10229000BEF2C69E0201C0510201D8A4EED7000EC4
:1022A0000201C06FC7A404D00201BD6BBD2B02D0D8
:1022B0000201BD6BC5501F0B0201BD110009D8A45E
:1022C000F1D7C9CFBEF20201BC5153EC16F00201A6
:1022D000C06F0201C029D8A403D0C9CFBEF2C69EE8
:1022E0000201C0510201D8A4EED7000E0201C06F56
:1022F000C7A404D00201BD6BBD2B02D00201BD6B8F
:10230000C5501F0B0201BD110009D8A4F1D7C58A21
:10231000C588C5B8FED7C5B8FED7C584C5A4120008
:10232000FDD7000E0201C86F000EC76F000E02013C
:10233000CA6F000EC96F000E0201CC6F000ECB6F8A
:10234000020120EE02F0C051D926C151DA22DF503D
:102350000201B96F020120EE01F0C051D926C1512E
:10236000DA22DF504CEC19F0B9C2C5F2BAC2C6F29B
:10237000000E0201CA6F030EC96F1BD00201C951C2
:102380000201C025D96E0201CA510201C121DA6ED3
:10239000DF500201C26F0201C2510201CB250201CE
:1023A000CB6F000E0201CC210201CC6F0201C94BA0
:1023B000CA2B020E0201C5250201C26F000E0201E6
:1023C000C6210201C36F0201C9510201C25D0201AF
:1023D000C351800A0201C46F0201CA51800A02017E
:1023E000C459D8B0CBD70201CB510201C76FC86B1B
:1023F000CBC2C2F2CCC2C3F20201C21FC31FC24B86
:10240000C32BFF0E0201C2250201C76F000E02019D
:10241000C3210201C86F0201C75112001EC020F083
:10242000216A226A1D34203601E3218020502A6E61
:102430002A50D8A409D0000E1C6E000E1D6E000E8E
:102440001E6E000E1F6E1200170E206E1CC021F0B3
:102450001DC022F01EC023F02028246E04D0D89086
:10246000233222322132242EFAD72150256E1D8E9E
:10247000FF0E1C16FF0E1D16000E1E161C50266E9B
:102480001D50276E1E50286E296A8E0E2A5E2AAEB7
:1024900016D02A50800A8F0FD8B009D0000E1C6EBB
:1024A000000E1D6E000E1E6E000E1F6E1200D890E4
:1024B00029322832273226322A3EF9D715D0170E74
:1024C0002A640FD0000E1C6E000E1D6E000E1E6ED4
:1024D000000E1F6E1200D890263627362836293671
:1024E0002A062A50D8A4F7D72550D8B408D0291ED8
:1024F000281E271E266C000E27222822292226C0ED
:102500001CF027C01DF028C01EF029C01FF01200CB
:102510000FC013F0146A156A0E34133601E31480E9
:102520001350166E1650D8A407D0000E0D6E000E74
:102530000E6E000E0F6E120012C013F0146A156AB0
:102540001134133601E3148013501B6E1B50D8A4B2
:1025500007D0000E0D6E000E0E6E000E0F6E1200F4
:102560001B507B0F16260FC01BF012501B1A800E3B
:102570001B160E8E118EFF0E1016FF0E1116000E7A
:102580001216000E176E000E186E000E196E070E52
:102590001A6E0DA006D01050172611501822125096
:1025A0001922D8900F320E320D32D89010361136D3
:1025B00012361A2EEED7090E1A6E0DA006D0105044
:1025C00017261150182212501922D8900F320E32AD
:1025D0000D32D8901932183217321A2EEED717C092
:1025E00001F018C002F019C003F016C004F01BC0BF
:1025F00005F0A2EC14F001C00DF002C00EF003C013
:102600000FF012002AC02EF02F6A306A29342E36BD
:1026100001E32F802E50356E3550D8A407D0000E20
:10262000286E000E296E000E2A6E12002DC02EF0AC
:102630002F6A306A2C342E3601E32F802E50366EEE
:102640003650D8A407D0000E286E000E296E000E5A
:102650002A6E1200000E326E000E336E000E346EC3
:102660003650890F355E2AC036F02D50361A800E4E
:102670003616298EFF0E2816FF0E2916000E2A1672
:102680002C8EFF0E2B16FF0E2C16000E2D16180E7C
:10269000316ED8903236333634362B50285C2C507D
:1026A00029582D502A58D8A007D02B50285E2C50DE
:1026B000295A2D502A5A3280D890283629362A365F
:1026C000312EE7D732C001F033C002F034C003F03E
:1026D00035C004F036C005F0A2EC14F001C028F0BB
:1026E00002C029F003C02AF012002DC001F02EC054
:1026F00002F0000E046E030E036E6DEC1AF02BC098
:102700002FF02CC030F001502F26025030222FC065
:10271000F6FF30C0F7FF0900F5CF31F00900F5CF23
:1027200032F00A00F5CF33F03ED031C010F032C0A5
:1027300011F033C012F028C00DF029C00EF02AC0ED
:102740000FF088EC12F00DC01CF00EC01DF00FC091
:102750001EF0000E046E030E036E2D06D8A02E068A
:102760002DC001F02EC002F06DEC1AF02BC02FF03E
:102770002CC030F001502F26025030222FC0F6FF1F
:1027800030C0F7FF0900F5CF1FF00900F5CF20F0AA
:102790000A00F5CF21F0F8EC0CF01CC031F01DC0A0
:1027A00032F01EC033F02D502E10D8A4BED731C049
:1027B00028F032C029F033C02AF012000201D06F95
:1027C000020120EE01F0CD51D926CE51DA22DF50A0
:1027D0000201B96FCDC2D9FFCEC2DAFFDF5028ECBB
:1027E0001BF07E0E0201506F000E0201516F080EA9
:1027F0000201526F010E0201536F000E0201546F6D
:10280000AFC055F2B0C056F2CDC2D9FFCEC2DAFF8A
:10281000DE28D8A40CD0020120EE01F0CD51D9263B
:10282000CE51DA22DE28D8A402D0040E01D0000E48
:102830000201576F540E0201586F000E0201596FCA
:10284000D0C25AF2500E0201C06F020E0201C16FD7
:1028500091EC11F002015B6F000E0201D16F0C0EC2
:102860000201D16501D01200ACA2FED70201D15104
:10287000010D500EF324D96E020EF420DA6EDF50F3
:10288000E9EC1AF00201D12BEAD72D0E0201BB6F41
:10289000040E0201BC6F530E09EC11F0310E02015F
:1028A000BB6F0B0E0201BC6F530E09EC11F02C0E26
:1028B0000201BB6F0A0E0201BC6F530E09EC11F04E
:1028C0002E0E0201BB6F000E0201BC6F530E09EC0D
:1028D00011F0280E0201BB6F050E0201BC6F530EF2
:1028E00009EC11F0290E0201BB6F140E0201BC6F3E
:1028F000530E09EC11F02F0E0201BB6F000E020106
:10290000BC6F530E09EC11F02E0E0201BB6F040ECA
:102910000201BC6F530E09EC11F02D0E0201BB6FCA
:10292000080E0201BC6F530E09EC11F0000E0201FB
:10293000BB6F010E0201BC6F530ECEEC0DF0000117
:10294000725112000450D8B405D001500210031087
:10295000D8A40CD0000E016E000E026E000E036EA5
:102960001200042AD890033202320132000E011400
:10297000066E000E0214076EFE0E0314086E06505B
:1029800007100810D8B40CD0ECD7042A010E012689
:10299000000E0222000E0322D890033202320132CE
:1029A000000E0114066E000E0214076EFF0E0314D3
:1029B000086E065007100810D8B406D0E6D70406F3
:1029C000D89001360236033602BE03D0020E0460F0
:1029D000F6D704A0029ED89004320450031205508A
:1029E000D8A4038E01C001F002C002F003C003F0BE
:1029F0001200015002100310D8A40FD004C0D9FF58
:102A000005C0DAFF000EDE6E000EDD6E000E016EF8
:102A1000000E026E000E036E120003507F0B066E56
:102A2000076AD8900636073604C0D9FF05C0DAFF1A
:102A300006C0DEFF07C0DDFF02AE03D0066A062A2D
:102A400001D0066A065004C0D9FF05C0DAFFDE12C5
:102A5000000EDD1204C0D9FF05C0DAFF820EDE26AB
:102A6000FF0EDD2203800382038403860388038A2A
:102A7000039C029E01C001F002C002F003C003F0FB
:102A8000120003AE16D001C007F002C008F003C068
:102A900009F0071E081E091E072A000E0822092237
:102AA000000E0724016E000E0820026E800E092021
:102AB000036E06AE16D004C007F005C008F006C0CD
:102AC00009F0071E081E091E072A000E0822092207
:102AD000000E0724046E000E0820056E800E0920EB
:102AE000066E000E011A000E021A800E031A000E66
:102AF000041A000E051A800E061A0450015C0550D7
:102B0000025806500358D8B002D0D8901200D8808E
:102B10001200BBEC19F01DEC1AF0260E0201C56F75
:102B2000100E0201C66FA2EC0EF073EC18F000015B
:102B3000A405D8A4FAD7000E0201D76F0ED0020167
:102B4000D751010D000EF324D96E020EF420DA6E77
:102B5000DF5006EC1BF00201D72B0201D751020116
:102B6000D26FD36B0001A8510201D46FD56B030E55
:102B70000201D427000ED5230201D2510201D45DF7
:102B80000201D551800A0201D66F0201D351800A99
:102B90000201D659D8B0D3D7000E0001A46FC5D713
:102BA000000E066E04AE06D0036C041ED8B0042AD4
:102BB000010E066E02AE06D0016C021ED8B0022ACB
:102BC000010E061A000E086E000E076E0350041068
:102BD000D8B41CD0010E056E04D0D890033604364C
:102BE000052A04AEFAD7D890073608360350015CA0
:102BF00004500258D8A005D00350015E0450025A78
:102C00000780D89004320332052EEDD70650D8B491
:102C100004D0076C081ED8B0082A07C001F008C00D
:102C200002F0120002EED8F01BEEB8F0EE6AE550AA
:102C3000E150FCE1E250FAE102EE00F0B90EEE6A7A
:102C4000E806FDE101EEE4F00F0EEE6AE806FDE1B4
:102C500000EE60F0510EEE6AE806FDE100EE4EF087
:102C6000100EEE6AE806FDE1C00EF66E360EF76E47
:102C7000000EF86E0900F5CFD8F00900F5CFD9F0B5
:102C80000900F5CFDAF0C30EF66E360EF76E000EC1
:102C9000F86E0900F5CF5EF05F905F92000EF86E5F
:102CA000000189EF15F00201BA6FBAC2C9FFC6AEC2
:102CB00002D0FF0E1200C6500F0B080AD8B40FD076
:102CC000C6500F0B0B0AD8B40AD0C6889EA6FED7F2
:102CD000C7A4C7B002D0FE0E1200000E1200C650EC
:102CE0000F0B080AD8B405D0C6500F0B0B0AD8A496
:102CF0001200C7B0FED7C7A404D00201B96BB92B2C
:102D000002D00201B96BC5501F0B0201B9110009B5
:102D1000D8A4F1D7C5AC02D0FE0E1200000E1200EE
:102D2000000E0201BF6F000EBE6F0201BB51020117
:102D3000BC11D8B42CD0010E0201BD6F06D0020127
:102D4000D890BB37BC370201BD2B0201BCAFF7D70F
:102D50000201D890BE37BF370201BB510201B95DF5
:102D60000201BC510201BA59D8A00AD00201BB51DC
:102D70000201B95F0201BC510201BA5B0201BE81CE
:102D80000201D890BC33BB330201BD2FE1D7BEC2D4
:102D9000B9F2BFC2BAF212000001944B952B0001A8
:102DA000904B912BE80E0001945D030E00019559A4
:102DB000D8A017D020EC08F0370E0D6E100E0E6E56
:102DC0005AC00FF0106AEBEC0FF05A2A000E000107
:102DD000956F000E946F5B2A5B28D8A402D0000E7A
:102DE0005B6E040E0001901900019111D8A407D068
:102DF0007CEC17F0000E0001916F000E906F3C0EFE
:102E00005A18D8A412000001A72B000E5A6E120007
:102E10005D50010D000EF324D96E020EF420DA6E1F
:102E2000B4EC1AF0DF6E5D503DEC1BF0020E5D1845
:102E3000D8A406D002C2A8F00001A8513DEC1BF0B6
:102E40000001A851036E046A030E0326000E04223B
:102E50005D50056E066A0350055C0650800A076ED9
:102E60000450800A0758D8A00CD0FB0E3DEC1BF094
:102E7000000E5D6E0001984B992B010E0001A46FAE
:102E800012005D2A1200026E02C0C9FFC6AE02D057
:102E9000FF0E1200C6500F0B080AD8B40FD0C65050
:102EA0000F0B0B0AD8B40AD0C6889EA6FED7C7A4BB
:102EB000C7B002D0FE0E1200000E1200C6500F0B5B
:102EC000080AD8B405D0C6500F0B0B0AD8A41200BC
:102ED000C7B0FED7C7A403D0016A012A01D0016A96
:102EE000C5501F0B01100009D8A4F4D7C5AC02D0FF
:102EF000FE0E1200000E1200000E356EEDEC19F001
:102F000005C036F006C037F0D8900101F035D96E13
:102F10000101F135DA6ED80ED926020EDA2236C05A
:102F2000DEFF37C0DDFFE80E0101F05D030E010199
:102F3000F159D8A00DD015EC0BF0596E5950D8A40A
:102F400059C0F2F1000E0101F16F000EF06F03D0D5
:102F50000101F04BF12B5E50020F5E6E1200020178
:102F6000BD6F000EC26E000EC16E000EC06E02017B
:102F7000B9517C0BC26EBAC2C1FFBDC2BBF2020125
:102F8000D890BB370201D890BB37380E0201BB176F
:102F9000BDC2BCF20201BC3B0F0EBC17070E020102
:102FA000BC170201BD51800B0201BC110201BB1113
:102FB000C06E0201B9AF03D09E9C9D8CF28CC28082
:102FC00012000201C2510201C311D8B426D0010E71
:102FD0000201C46F06D00201D890C237C337020184
:102FE000C42B0201C3AFF7D70201C2510201C05D79
:102FF0000201C3510201C159D8A008D00201C25137
:103000000201C05F0201C3510201C15B0201D890FD
:10301000C333C2330201C42FE7D7C0C2C0F2C1C25A
:10302000C1F212000201BB6F000EAC6E000EAB6E5F
:103030000201BBB1AC880201BBA302D0AC8CAB8C4B
:103040000201BBB5AC8E0201BBA702D0AB8801D098
:10305000AB8A0201BBB9AC840201BBBBAB860201E7
:10306000BBAD02D09D8A01D09D9A0201BBAF02D0B8
:103070009D8801D09D98B9C2AFFF0201BA51B06ED0
:10308000AC8AAB8E12000201BE6F11D0970E000108
:10309000AB6F850E0001936FED0E07D0D70E0001C8
:1030A000AB6F000E0001936FE50E926F08D0020126
:1030B000BE51010AD8B4EAD7030AD8B4EFD7020147
:1030C000BE510201D8A403D05BEC1BF0120000013A
:1030D000AB515AEC1AF092C0B9F293C0BAF2FDECBF
:1030E0001AF0F294120025D00001AA510001D8A4D0
:1030F00005D0000E5B6E010E0001AA6F1D0E5B6411
:103100001200010E0001A66F000E0001AA6F12004E
:103110000001AA510001D8B447EC1AF00001A30540
:10312000D8A41200030E0001A66F000E0001A36FC9
:1031300012000001A651000AD8B4D6D7010AD8A4BB
:103140001200E6D7000E066E000E056E0350041046
:10315000D8B41CD0010E076E04D0D89003360436C4
:10316000072A04AEFAD7D890053606360350015C1C
:1031700004500258D8A005D00350015E0450025AF2
:103180000580D89004320332072EEDD705C001F038
:1031900006C002F0120039C034F03AC035F03BC02E
:1031A00036F07AEC10F034C03CF035C03DF036C05B
:1031B0003EF03CC00DF03DC00EF03EC00FF05C0E86
:1031C000106EDE0E116E3E0E126E88EC12F00DC007
:1031D00039F00EC03AF00FC03BF012000A500B104D
:1031E000D8B418D0010E0C6E04D0D8900A360B3625
:1031F0000C2A0BAEFAD70A50085C0B500958D8A01D
:1032000004D00A50085E0B50095AD8900B320A328B
:103210000C2EF1D708C008F009C009F012000F0108
:103220003A970F013A9994869488C69A000E020143
:10323000B96F080EA4EC1AF0130EC86EC7A404D020
:103240000201BB6BBB2B02D00201BB6BC5501F0B35
:103250000201BB110009D8B41200F0D7000E020120
:10326000BE6F000E0201BD6F000EBC6F5C0E02014E
:10327000BE6F000E0201BD6F330EBC6F4F0EAB165A
:10328000AC9ACF0E9D16BCC2B9F2BDC2BAF2020111
:10329000BE5112EC18F012000201BD6F000E0201C7
:1032A000BF6F000EBE6F0201BD510201BC6FBB6B50
:1032B0000201B9510201BB250201BE6F0201000EDD
:1032C0000201BC210201BF6FBEC2B9F2BFC2BAF295
:1032D0001200000E0C6E0AAE06D0096C0A1ED8B0A1
:1032E0000A2A010E0C6E09C001F00AC002F0036A3E
:1032F0008E0E046E0CC005F0A2EC14F001C009F0B3
:1033000002C00AF003C00BF01200000E0201BE6FF3
:10331000000E0201BF6F000E0201C06FA10E02017C
:10332000BE6F270E0201BF6FFC0E0201C06FBFC24D
:10333000B9F2C0C2BAF20201BE51AFEC17F01200EE
:10334000010E0001AC6F82B603D03F6A3F2A01D064
:103350003F6A3F463F463F4682503F18F70B3F18B3
:10336000826ECCEC16F092C001F093C002F018EC23
:103370001BF0F294120057EC1BF006EC1AF02EEC46
:1033800019F0000E0201BD6F020E43EC18F0DFECE5
:103390001AF085EC19F00FEC19F045EC14F002016D
:1033A000C86FF28CF28E1200000E086E000E076ECF
:1033B000B70EF3EC1AF05EEC1BF051EC1BF00009B9
:1033C000D8A4FBD744EC1BF001C007F002C008F002
:1033D00007C005F008C006F01200000E086E000ECF
:1033E000076EAF0EF3EC1AF05EEC1BF051EC1BF025
:1033F0000009D8A4FBD744EC1BF001C007F002C0C1
:1034000008F007C005F008C006F012000F013A9D51
:103410000F013A9F949C948E0F013A959494829454
:103420009296809693880F013989938A0F01398B80
:1034300093800F01399181901200000E0001A66F58
:10344000000E0201B96F000E28EC1BF0000E020105
:10345000B96F000E36EC1BF0CB0E0201B96FFF0EF8
:103460002FEC1BF0120002AE0DD001C003F002C021
:1034700004F0031E041E034A042A03C001F004C022
:1034800002F0120001C001F002C002F01200FF0EB3
:103490000201B96FFF0E28EC1BF0AF0E0201CD6FD9
:1034A000000E0201CE6F0001AD51DEEC13F0000101
:1034B000AD2B12000201B96F0201B9517F0BD56E1D
:1034C000000ED76E000ED66EF2940201B9AF02D094
:1034D000F28A01D0F29AD58E120001500302F3CF86
:1034E00005F0F4CF06F001500402F3500626025016
:1034F0000302F350062605C001F006C002F01200D8
:10350000015002100310D8B406D0000E011A000EAC
:10351000021A800E031A01C001F002C002F003C0BB
:1035200003F0120009C001F00AC002F0036A8E0E17
:10353000046E000E056EA2EC14F001C009F002C08A
:103540000AF003C00BF012000201BA6F3F0EC7165B
:10355000000EC66E000EC56E0201BA51C6120201FF
:10356000B951C712C68A1200F20E5C16ABAC03D07A
:103570005C90ABB05C80ABB45C84ABB25C86AECF2D
:1035800001F001501200C6500F0B080AD8B404D045
:10359000C6500F0B0B0AD8B4C586C7A0FED7C950BA
:1035A0001200C6500F0B080AD8B404D0C6500F0B37
:1035B0000B0AD8B4C586C7A0FED7C9501200F18443
:1035C0009F8A9D8A9E9AF288F18CF19EF28CF28EEF
:1035D00012000201B96FACAC03D0AC905CB2AC800D
:1035E000B9C2ADFF1200026E02C001F07C0E0116DE
:1035F000C250830B0110C26E1200B9C2BBF2BAC234
:10360000BCF2BCC2D7FFBBC2D6FF12000201BA6F28
:10361000ACA2FED70201BA51E9EC1AF01200016E19
:10362000ACAC03D0AC905CB2AC8001C0ADFF12007A
:1036300001C003F002C004F004C0D7FF03C0D6FFEE
:1036400012000201B96F9EA8FED7B9C2ADFF1200E9
:103650000201BA6FBAC2AFF0B9C2B0F012000201F3
:10366000BA6FBAC28EF0B9C28FF012000201BA6FFF
:10367000BAC28CF0B9C28DF01200026EACA2FED7B5
:1036800002500FEC1BF01200C450036EC350016EC9
:1036900003C002F01200016E9EA8FED701C0ADFF6C
:1036A0001200C2A202D0010E1200000E1200D38836
:1036B000D38AD38C1200D59EF29A1200C2821200D5
:0436C00000004002C4
:020000040030CA
:0E000000FF331F3CFFBF85FF0FC00FE00F4016
:00000001FF
