:0400000060EF00F0BD
:100008005F82FACFA5F0FBCFA6F0E9CFA7F0EACF41
:10001800A8F0E1CFA9F0E2CFAAF0D9CFABF0DACFC0
:10002800ACF0F3CFADF0F4CFAEF0F6CFAFF0F7CF42
:10003800B0F0F8CFB1F0F5CFB2F0F2B4FFEC1CF0AD
:100048009EAA03D0D6EC1DF09E9AF2A217D02FECF0
:1000580008F068C092F069C093F06AC094F0EDC0EF
:1000680095F0CA0E0001966F9EEC16F0300E036EE6
:10007800010E046E530EEEEC10F0F292B2C0F5FFD2
:10008800B1C0F8FFB0C0F7FFAFC0F6FFAEC0F4FFD5
:10009800ADC0F3FFACC0DAFFABC0D9FFAAC0E2FF26
:1000A800A9C0E1FFA8C0EAFFA7C0E9FFA6C0FBFFFF
:0C00B800A5C0FAFF5F92110069EF19F07B
:101000000001000A006400E80310270000000080CF
:101010003FF0FFBEE2A93E8376BEAE2B3E3CC3BD91
:10102000D2133D78D3BB50756572746F20636F6EB9
:10103000666967757261646F2E2E2E0A00536D61AA
:1010400072742053686972742076312E30005265B4
:1010500063696269646F3A2025640A000000000E2B
:1010600000016E6FA00E00016F6F400E0001706FE7
:10107000330E00016B6F530E00016C6F400E0001C8
:101080006D6FF00E0001716F3F0E0001726F400E28
:101090000001736FC00E0001746F8F0E0001756F39
:1010A000450E0001766F900E0001776F8E0E0001E5
:1010B000786F450E0001796F000E0001806F4D0EB4
:1010C0000001816F440E0001826F330E446E530E97
:1010D000456E400E466E8DEC1DF005C009F006C051
:1010E0000AF03DEC1DF009C041F00AC042F00BC00F
:1010F00043F048EC15F041C050F042C051F043C0FD
:1011000052F0000E536E800E546E440E556EC2ECBB
:1011100015F050C086F051C087F052C088F086C0EC
:1011200050F087C051F088C052F06EC053F06FC0CD
:1011300054F070C055F0C2EC15F050C086F051C0AC
:1011400087F052C088F074C033F075C034F076C0B8
:1011500035F080C030F081C031F082C032F09AECBE
:101160000EF030C053F031C054F032C055F080C0A2
:1011700050F081C051F082C052F0C2EC15F050C066
:101180007AF051C07BF052C07CF071C053F072C055
:1011900054F073C055F086C050F087C051F088C03D
:1011A00052F0C2EC15F050C030F051C031F052C0D6
:1011B00032F07AC033F07BC034F07CC035F09AEC6A
:1011C0000EF030C083F031C084F032C085F083C0AF
:1011D00044F084C045F085C046F077C041F078C047
:1011E00042F079C043F048EC15F041C050F042C0E5
:1011F00051F043C052F0000E336E800E346E3F0E3D
:10120000356E83C02DF084C02EF085C02FF063ECC6
:101210001EF02DC030F02EC031F02FC032F09AEC0D
:101220000EF030C053F031C054F032C055F0C2EC73
:1012300015F050C08FF051C090F052C091F08FC0A7
:101240000DF090C00EF091C00FF0DA0E106EE30EAC
:10125000116E440E126E54EC18F0D8A058D0720ED5
:10126000536ECF0E546E450E556E8FC050F090C029
:1012700051F091C052F0C2EC15F050C062F051C074
:1012800063F052C064F09CEC1CF062C089F063C053
:101290008AF064C08BF02B0E0001626F750E0001A6
:1012A000636F3F0E0001646F9CEC1CF062C053F052
:1012B00063C054F064C055F0000E446E800E456E5D
:1012C000BF0E466E89C041F08AC042F08BC043F029
:1012D00048EC15F041C050F042C051F043C052F00C
:1012E000C2EC15F050C08CF051C08DF052C08EF0A1
:1012F0008CC041F08DC042F08EC043F0000E446EB1
:10130000800E456EBF0E466E48EC15F09FD18FC023
:101310000DF090C00EF091C00FF0A30E106EB80E3D
:10132000116E440E126E54EC18F0D8A058D01C0E5A
:10133000536EC80E546E450E556E8FC050F090C05F
:1013400051F091C052F0C2EC15F050C062F051C0A3
:1013500063F052C064F09CEC1CF062C089F063C082
:101360008AF064C08BF0760E0001626F750E00018A
:10137000636F3F0E0001646F9CEC1CF062C053F081
:1013800063C054F064C055F0000E446E800E456E8C
:10139000BF0E466E89C041F08AC042F08BC043F058
:1013A00048EC15F041C050F042C051F043C052F03B
:1013B000C2EC15F050C08CF051C08DF052C08EF0D0
:1013C0008CC041F08DC042F08EC043F0000E446EE0
:1013D000800E456EBF0E466E48EC15F037D18FC0BB
:1013E0000DF090C00EF091C00FF09A0E106E960E98
:1013F000116E440E126E54EC18F0D8A058D0300E76
:10140000536EBF0E546E450E556E8FC050F090C097
:1014100051F091C052F0C2EC15F050C062F051C0D2
:1014200063F052C064F09CEC1CF062C089F063C0B1
:101430008AF064C08BF0C80E0001626F750E000167
:10144000636F3F0E0001646F9CEC1CF062C053F0B0
:1014500063C054F064C055F0000E446E800E456EBB
:10146000BF0E466E89C041F08AC042F08BC043F087
:1014700048EC15F041C050F042C051F043C052F06A
:10148000C2EC15F050C08CF051C08DF052C08EF0FF
:101490008CC041F08DC042F08EC043F0000E446E0F
:1014A000800E456EBF0E466E48EC15F0CFD08FC053
:1014B0000DF090C00EF091C00FF0060E106E770E7A
:1014C000116E440E126E54EC18F0D8A058D0190EBC
:1014D000536EB70E546E450E556E8FC050F090C0CF
:1014E00051F091C052F0C2EC15F050C062F051C002
:1014F00063F052C064F09CEC1CF062C089F063C0E1
:101500008AF064C08BF00C0E0001626F760E000151
:10151000636F3F0E0001646F9CEC1CF062C053F0DF
:1015200063C054F064C055F0000E446E800E456EEA
:10153000BF0E466E89C041F08AC042F08BC043F0B6
:1015400048EC15F041C050F042C051F043C052F099
:10155000C2EC15F050C08CF051C08DF052C08EF02E
:101560008CC041F08DC042F08EC043F0000E446E3E
:10157000800E456EBF0E466E48EC15F067D08FC0EA
:101580000DF090C00EF091C00FF0ED0E106E4A0EEF
:10159000116E440E126E54EC18F0D8A05DD0400EBF
:1015A000536EAE0E546E450E556E8FC050F090C007
:1015B00051F091C052F0C2EC15F050C062F051C031
:1015C00063F052C064F09CEC1CF062C089F063C010
:1015D0008AF064C08BF0510E0001626F760E00013C
:1015E000636F3F0E0001646F9CEC1CF062C053F00F
:1015F00063C054F064C055F0000E446E800E456E1A
:10160000BF0E466E89C041F08AC042F08BC043F0E5
:1016100048EC15F041C050F042C051F043C052F0C8
:10162000C2EC15F050C08CF051C08DF052C08EF05D
:101630008CC041F08DC042F08EC043F0000E446E6D
:10164000800E456EBF0E466E48EC15F041C07DF031
:1016500042C07EF043C07FF07DC0D6F07EC0D7F0A0
:101660007FC0D8F0000E0001686F800E0001696F26
:101670003F0E00016A6F1200000E0101D56F000ECF
:10168000D46F000E0101D26F000E0101D36F21EE65
:10169000E4F011EEC8F0090EDBCFE3FFE806FCE250
:1016A000000E0101DB6F000EDA6F000E0101DC6F2E
:1016B000000E0101E16F000E0101E36F000EE26F09
:1016C000000E0101D76F000ED66F000E0101D96F19
:1016D000000EE8CF4FFB000E0101E36F010EE26F39
:1016E000E80E0101E25D030E0101E359D8B048D0D4
:1016F0004F0E0101E225D96E0B0E0101E321DA6ED6
:10170000E2C150F0E3C151F0D89050365136020E8C
:101710005026000E51227F0E5024E16E030E512000
:10172000E26EE6CF52F0E5CF53F0FE0E546EFF0EA0
:10173000556EE2C156F0E3C157F0D8905636573691
:1017400054505626555057227F0E5624E16E030EF4
:101750005720E26EE6CF58F0E5CF59F0581E591EDB
:10176000584A592A52505824016E53505920026E3B
:1017700004EC1EF00150DF6E0101E24BE32BB0D709
:10178000000E0101E36F000EE26F0101E35113E16E
:101790001F0E0101E25DD8B00ED04F0E0101E2250F
:1017A000D96E0B0E0101E321DA6E000EDF6E01012E
:1017B000E24BE32BEAD7000E0101DE6F000EDD6F76
:1017C0000101DEBF08D0E80E0101DD5D030E01015D
:1017D000DE59D8B023D04F0E0101DD25D96E0B0E96
:1017E0000101DE21DA6EDF50506E50500101D65DEE
:1017F000000ED759D8B00ED04F0E0101DD25D96E9D
:101800000B0E0101DE21DA6EDF50506E50500101E7
:10181000D66FD76B0101DD4BDE2BD2D7330E446E72
:10182000330E456E3F0E466ED6C109F0D7C10AF0A1
:1018300051EC1EF009C041F00AC042F00BC043F069
:1018400048EC15F041C00CF042C00DF043C00EF062
:10185000CEEC14F00CC0F7F10DC0F8F1000E010150
:10186000E06F000EDF6F0101E0BF08D0E90E01015B
:10187000DF5D030E0101E059D8B09ED04F0E01018B
:10188000DF25D96E0B0E0101E021DA6EDF50506EBC
:1018900050500101F75D000EF859D8B079D0010120
:1018A000D9510101D8A474D04F0E0101DF25D96EA2
:1018B0000B0E0101E021DA6EDF50506E516A01011A
:1018C000E151020D140EF326000EF422000EF32453
:1018D000D96E010EF420DA6E50C0DEFF51C0DDFF7C
:1018E0000101E151020D280EF326000EF422000E34
:1018F000F324D96E010EF420DA6EDFC1DEFFE0C101
:10190000DDFF0101E1510101D8B43DD00101E151F8
:10191000020D280EF326000EF422000EF324D96ED9
:10192000010EF420DA6EDECF50F0DDCF51F0010170
:10193000E151526E536AD89052365336260E5226D3
:10194000000E5322000E5224D96E010E5320DA6E7F
:10195000DECF54F0DDCF55F0541E551E544A552AA3
:1019600050505426515055220101DC51020DC80E31
:10197000F324D96E010EF420DA6E54C0DEFF55C098
:10198000DDFF0101DC2B0101E12B010E0101D96F0B
:101990000101D905D8A40CD01E0E0101D36506D0D3
:1019A000000E0101D96F000E0101D36F0101D32B8D
:1019B0000101DF4BE02B57D7000E0101D86F19D082
:1019C0000101D851020DC80EF324D96E010EF42086
:1019D000DA6EDECF50F0DDCF51F00101DA51502444
:1019E0000101DA6F0101DB5151200101DB6F0101BF
:1019F000D82B0101DC510101D85DD8A0E1D7DAC1B3
:101A000001F0DBC102F0DCC103F0046A27EC19F03D
:101A100001C0DAF102C0DBF13A0E026E980E016EDF
:101A2000DAC103F0DBC104F04DEC1CF001C0D4F1CD
:101A300002C0D5F1D4C1D2F10101D4511200000E7F
:101A40000001626F200E0001636F410E0001646FA0
:101A500021EEEEF010EE66F0080EDBCFE3FFE806B5
:101A6000FCE2000E0001616F000E606F41D08DEC52
:101A700011F066C030F067C031F068C032F0B3C01A
:101A800033F0B4C034F0B5C035F09AEC0EF030C08D
:101A900066F031C067F032C068F069C030F06AC0EB
:101AA00031F06BC032F0B6C033F0B7C034F0B8C01C
:101AB00035F09AEC0EF030C069F031C06AF032C0F7
:101AC0006BF06CC030F06DC031F06EC032F0B9C058
:101AD00033F0BAC034F0BBC035F09AEC0EF030C031
:101AE0006CF031C06DF032C06EF00001604B612BC4
:101AF00060C009F061C00AF03DEC1DF009C00DF0B6
:101B00000AC00EF00BC00FF062C010F063C011F0FD
:101B100064C012F054EC18F0D8A0A9D7000E000150
:101B2000706F000E6F6F000170BF08D00001705120
:101B30003DE1030E00016F5DD8B038D06FC001F0F9
:101B400070C002F0000E046E030E036E3EEC1EF039
:101B5000660E0124D96E000E0220DA6E6FC001F00D
:101B600070C002F0000E046E030E036E3EEC1EF019
:101B7000660E0124E16E000E0220E26EE6CF50F008
:101B8000E6CF51F0E5CF52F062C053F063C054F09D
:101B900064C055F0C2EC15F050C0DEFF51C0DEFF4E
:101BA00052C0DEFF00016F4B702BBDD766C03CF00A
:101BB00067C03DF068C03EF09CEC18F03CC071F08E
:101BC0003DC072F03EC073F069C03CF06AC03DF0A9
:101BD0006BC03EF09CEC18F03CC074F03DC075F05A
:101BE0003EC076F06CC03CF06DC03DF06EC03EF083
:101BF0009CEC18F03CC077F03DC078F03EC079F026
:101C0000000E0001656F00017151000172110001A9
:101C10007311D8A415D00001745100017511000191
:101C20007611D8A40DD0800E0001781909E13F0E7D
:101C30000001791900017711D8A402D0010E75D0E6
:101C4000000171510001721100017311D8A415D067
:101C5000000174510001751100017611D8A40DD056
:101C6000800E0001781909E1BF0E00017919000109
:101C70007711D8A402D0020E58D000017151000192
:101C8000721100017311D8A415D0800E00017519CE
:101C900011E1BF0E0001761900017411D8A40AD019
:101CA000000177510001781100017911D8A402D008
:101CB000030E3BD00001715100017211000173113C
:101CC000D8A415D0800E0001751911E13F0E000156
:101CD000761900017411D8A40AD0000177510001CF
:101CE000781100017911D8A402D0040E1ED0800E04
:101CF0000001721919E1BF0E000173190001711181
:101D0000D8A412D0000174510001751100017611A0
:101D1000D8A40AD00001775100017811000179118F
:101D2000D8A402D0050E01D0000E0001656F00019D
:101D30006551120032C036F0376A386A31343636AF
:101D400001E3378036503B6E35C036F0376A386A6B
:101D50003434363601E3378036503A6E3B50D8B4CF
:101D60000BD03A503B5CD8B00ED03B5000083A2420
:101D7000366E180E366407D033C030F034C031F000
:101D800035C032F012003A50D8B40BD03B503A5C18
:101D9000D8B00ED03A5000083B24366E180E366488
:101DA00007D030C030F031C031F032C032F0120014
:101DB000060E396E32BE398E35BE398C318EFF0E2D
:101DC0003016FF0E3116000E3216348EFF0E33160B
:101DD000FF0E3416000E35163A503B5CD8B01BD0BF
:101DE000D8903336343635363A063B503A18D8B4A4
:101DF0000DD0390639C036F0070E3616D8B406D0E5
:101E0000EFD7D8903232313230323B2A3A503B1839
:101E1000D8B41FD0F6D73B503A5CD8B01AD0D8907F
:101E20003036313632363B063B503A18D8B40DD0F6
:101E3000390639C036F0070E3616D8B406D0EFD7BB
:101E4000D8903532343233323A2A3A503B18D8A43B
:101E5000F7D739AE0CD0FF0E301AFF0E311AFF0E35
:101E6000321A010E3026000E3122000E322239AC19
:101E70000CD0FF0E331AFF0E341AFF0E351A010E66
:101E80003326000E3422000E3522000E396E3050FB
:101E90003326315034223250352235AE0ED0FF0E6B
:101EA000331AFF0E341AFF0E351A010E3326000EB8
:101EB0003422000E3522010E396E33C001F034C0D9
:101EC00002F035C003F03BC004F039C005F0B5ECBA
:101ED00017F001C030F002C031F003C032F0120040
:101EE00002018B6F000E02018A6FC580C5B0FED75C
:101EF00002018B518B2502018B6FC9CF8AF202013F
:101F00008B51FE0B29EC1AF002018D6F02018D2915
:101F1000D8A403D0C9CF8AF2C69E02018D51020116
:101F2000D8A4EDD7000E02018D6FC7A404D0020122
:101F3000836B832B02D00201836BC5501F0B020100
:101F400083110009D8A4F1D70201815129EC1AF0BC
:101F500002018D6F02018D29D8A403D0C9CF8AF266
:101F6000C69E02018D510201D8A4EED7000E0201D7
:101F70008D6FC7A404D00201836B832B02D00201B2
:101F8000836BC5501F0B020183110009D8A4F1D740
:101F9000C582C5B2FED7C9CF8AF202018B510109B1
:101FA00029EC1AF002018D6F02018D29D8A403D00B
:101FB000C9CF8AF2C69E02018D510201D8A4EDD785
:101FC000000E02018D6FC7A404D00201836B832B26
:101FD00002D00201836BC5501F0B0201831100095F
:101FE000D8A4F1D7000E02018C6F000E02018C6F95
:101FF00041D002018C51010D760EF324D96E020EF0
:10200000F420DA6E95EC1EF0DF6EFF0E0201836F96
:10201000FF0E0201846F020182510201856F866BFF
:1020200002018351020185270201845102018623A6
:1020300002018C510201876F886B020185510201F8
:10204000875D02018851800A0201896F0201865171
:10205000800A02018959D8B005D0C59AC588C5A89B
:1020600007D0FDD7C58AC588C5B8FED7C5B8FED785
:1020700002018C2B0201825102018C5DD8A0B9D7DC
:10208000C584C5A41200FDD78D0E02018E6F020E0D
:1020900002018F6F94D0250E02019419D8B405D097
:1020A00002019451FAEC1EF08AD0000E0201906FEA
:1020B0008BC2F6FF8CC2F7FF02018B4B8C2B080002
:1020C000F5CF94F202019451000AD8B41200640AC8
:1020D000D8B403D00D0AD8A472D08EC2D9FF8FC253
:1020E000DAFFDECF92F2DDCF93F2020E02018E27ED
:1020F000000E8F23020193AF08D0030E020190134C
:102100000201926D931FD8B0932B010E0201946FC0
:10211000050E02019419D8B416D002019451020D93
:10212000010EF324F66E100EF420F76E0900F55040
:102130000201925D0900F55002019359D8A003D025
:102140000201942BE5D790C28DF2030E02018D1788
:10215000D8B403D02D0EFAEC1EF094C291F229D01F
:1021600002019151020D010EF324F66E100EF420BF
:10217000F76E0900F5CF81F20A00F5CF82F292C224
:102180007FF293C280F266EC1AF07FC286F280C2C0
:1021900087F2000E0201896F0A0E886FBBEC1BF0FC
:1021A00002018651300F0201946F02019451FAEC42
:1021B0001EF00201910702019129D8A4D1D78BC248
:1021C000F6FF8CC2F7FF02018B4B8C2B0800F5CF7A
:1021D00094F202019451D8B412005DD70C6E000E37
:1021E0000D6EC580C5B0FED70C500C240C6EC9CF47
:1021F0000DF00C50FE0B19EC1BF00F6E0F28D8A43D
:1022000003D0C9CF0DF0C69E0F50D8A4F2D7000E50
:102210000F6EC7A403D0056A052A01D0056AC55010
:102220001F0B05100009D8A4F4D7035019EC1BF0BC
:102230000F6E0F28D8A403D0C9CF0DF0C69E0F5043
:10224000D8A4F3D7000E0F6EC7A403D0056A052AE1
:1022500001D0056AC5501F0B05100009D8A4F4D79A
:10226000C582C5B2FED7C9CF0DF00C50010919ECDB
:102270001BF00F6E0F28D8A403D0C9CF0DF0C69E57
:102280000F50D8A4F2D7000E0F6EC7A403D0056A72
:10229000052A01D0056AC5501F0B05100009D8A4F6
:1022A000F4D7000E0E6E000E0E6E2FD00E50010DE4
:1022B000760EF324D96E020EF420DA6EA3EC1EF033
:1022C000DF6EFF0E056EFF0E066E0450076E086A85
:1022D00005500726065008220E50096E0A6A07505C
:1022E000095C0A50800A0B6E0850800A0B58D8B05F
:1022F00005D0C59AC588C5A807D0FDD7C58AC588A9
:10230000C5B8FED7C5B8FED70E2A04500E5CD8A0BB
:10231000CDD7C584C5A41200FDD7E3EC18F0BCC02E
:102320002DF0BDC02EF0BEC02FF063EC1EF02DC00E
:1023300033F02EC034F02FC035F0C5C009F0C6C050
:102340000AF03DEC1DF009C030F00AC031F00BC0BE
:1023500032F09AEC0EF030C041F031C042F032C0A1
:1023600043F09A0E446E790E456E3B0E466E48EC75
:1023700015F041C0B3F042C0B4F043C0B5F0BFC0E7
:102380002DF0C0C02EF0C1C02FF063EC1EF02DC0A8
:1023900033F02EC034F02FC035F0C7C009F0C8C0EC
:1023A0000AF03DEC1DF009C030F00AC031F00BC05E
:1023B00032F09AEC0EF030C041F031C042F032C041
:1023C00043F09A0E446E790E456E3B0E466E48EC15
:1023D00015F041C0B6F042C0B7F043C0B8F0C2C07B
:1023E0002DF0C3C02EF0C4C02FF063EC1EF02DC042
:1023F00033F02EC034F02FC035F0C9C009F0CAC088
:102400000AF03DEC1DF009C030F00AC031F00BC0FD
:1024100032F09AEC0EF030C041F031C042F032C0E0
:1024200043F09A0E446E790E456E3B0E466E48ECB4
:1024300015F041C0B9F042C0BAF043C0BBF0120081
:102440005EAE0CD0000E0001EA6F210EE96F000EA7
:102450005C6E000E5D6E000E5E6E12005C505D10D4
:102460005E10D8A40CD0000E0001EA6F220EE96FB6
:10247000000E5C6E000E5D6E000E5E6E1200000EB1
:10248000446E000E456E400E466E600E046E000EE9
:10249000056E5CC001F05DC002F05EC003F00CECA4
:1024A00018F001C041F002C042F003C043F048EC14
:1024B00015F041C030F042C031F043C032F0000EA0
:1024C000336E800E346EBF0E356E9AEC0EF030C057
:1024D0005CF031C05DF032C05EF000016007D8A052
:1024E00061075CC050F05DC051F05EC052F00B0E51
:1024F000536E100E546E000E566E080E556E35EC6F
:1025000016F050C05CF051C05DF052C05EF0720E2B
:10251000446E310E456E3F0E466E60C009F061C0DC
:102520000AF03DEC1DF009C041F00AC042F00BC0BA
:1025300043F048EC15F041C030F042C031F043C0E8
:1025400032F05CC033F05DC034F05EC035F09AEC20
:102550000EF030C05CF031C05DF032C05EF01200B1
:102560000F0E126E000E136E7DD0250E1818D8B403
:1025700004D018500EEC1FF075D0000E146E0DC074
:10258000F6FF0EC0F7FF0D4A0E2A0800F5CF18F02F
:102590001850000AD8B41200640AD8B403D00D0A47
:1025A000D8A460D012C0D9FF13C0DAFFDECF16F076
:1025B000DDCF17F0020E1226000E132217AE06D042
:1025C000030E1412166C171ED8B0172A010E186EBF
:1025D000050E1818D8B412D01850020D010EF324AD
:1025E000F66E100EF420F76E0900F550165C090027
:1025F000F5501758D8A002D0182AEAD714C011F005
:10260000030E1116D8B403D02D0E0EEC1FF018C017
:1026100015F024D01550020D010EF324F66E100EA5
:10262000F420F76E0900F5CF03F00A00F5CF04F0AF
:1026300016C001F017C002F04DEC1CF001C008F00C
:1026400002C009F0000E0B6E0A0E0A6EBFEC1CF001
:102650000850300F186E18500EEC1FF01506152894
:10266000D8A4D8D70DC0F6FF0EC0F7FF0D4A0E2A2A
:102670000800F5CF18F01850D8B4120076D7020130
:10268000856F000E0201846FC580C5B0FED70201C0
:10269000855185250201856FC9CF84F202018551DC
:1026A000FE0B29EC1AF00201866F02018629D8A4DC
:1026B00003D0C9CF84F2C69E020186510201D8A47C
:1026C000EDD7000E0201866FC7A404D00201836B10
:1026D000832B02D00201836BC5501F0B02018311B3
:1026E0000009D8A4F1D70201815129EC1AF00201A6
:1026F000866F02018629D8A403D0C9CF84F2C69E72
:10270000020186510201D8A4EED7000E0201866FA5
:10271000C7A404D00201836B832B02D00201836B18
:10272000C5501F0B020183110009D8A4F1D7C9CFEE
:1027300084F20201825129EC1AF00201866F020133
:102740008629D8A403D0C9CF84F2C69E020186513F
:102750000201D8A4EED7000E0201866FC7A404D0F0
:102760000201836B832B02D00201836BC5501F0BC8
:10277000020183110009D8A4F1D7C58AC588C5B85C
:10278000FED7C5B8FED7C584C5A41200FDD722EE7A
:1027900068F010EE82F00D0EDBCFE3FFE806FCE2FE
:1027A0007AC00CF07BC00DF07CC00EF0CEEC14F0C3
:1027B0000C500001906F000E446EC80E456E420E24
:1027C000466E920E3F6E000E406E7AC03CF07BC0AB
:1027D0003DF07CC03EF0DEEC1AF03CC041F03DC064
:1027E00042F03EC043F048EC15F041C07FF042C0DB
:1027F00080F043C081F07FC00CF080C00DF081C03C
:102800000EF0CEEC14F00C500001916F0001D9696C
:10281000AB0E0001DA6F7E0E0001826F000E000128
:10282000836F0A0E0001846F010E0001856F000E98
:102830000001866FD9C087F0DAC088F0000E000171
:10284000896FC70E00018A6F90C08BF091C08CF029
:102850007DC08DF07EC08EF0820E086E000E096E77
:102860005CEC17F000018F6F000E0001956F0D0EEC
:102870000001956501D01200ACA2FED70001955170
:10288000010D820EF324D96E000EF420DA6EDF50B3
:10289000D4EC1EF00001952BEAD7000E5C6EA6EC7E
:1028A0001DF005C05DF006C05EF0D8900101F9355D
:1028B000D96E0101FA35DA6E7F0ED926030EDA22BF
:1028C0005DC0DEFF5EC0DDFFE80E0101F95D030EB5
:1028D0000101FA59D8A00FD03CEC0BF00101FB6FBD
:1028E0000101FB51D8A4FBC1EDF0000E0101FA6F0C
:1028F000000EF96F03D00101F94BFA2B0101FD51D4
:10290000010D000EF324D96E020EF420DA6E5DC0C4
:1029100001F05EC002F0000E046E010E036E85EC45
:102920001EF0DF6E0101FD515A6E5B6A010E5A26E0
:10293000000E5B22000E5A24D96E020E5B20DA6E66
:102940005DC001F05EC002F0000E046E020E036E68
:1029500085EC1EF0DF6E0101FD51020F0101FD6FDC
:10296000650E0101FD6512004D0E0201006FFCC1F4
:1029700001F2000E5C6E650E5C6401D002D05C2A30
:10298000FAD7020E0101FD6F0101FC2BFD0E0101C2
:10299000FC651200000E0101FC6F12000EC010F069
:1029A000116A126A0D34103601E3118010501A6E4C
:1029B0001A50D8A409D0000E0C6E000E0D6E000E39
:1029C0000E6E000E0F6E1200170E106E0CC011F07E
:1029D0000DC012F00EC013F01028146E04D0D89061
:1029E000133212321132142EFAD71150156E0D8E89
:1029F000FF0E0C16FF0E0D16000E0E160C50166E66
:102A00000D50176E0E50186E196A8E0E1A5E1AAEA1
:102A100016D01A50800A8F0FD8B009D0000E0C6E55
:102A2000000E0D6E000E0E6E000E0F6E1200D8908E
:102A300019321832173216321A3EF9D715D0170E3E
:102A40001A640FD0000E0C6E000E0D6E000E0E6E8E
:102A5000000E0F6E1200D89016361736183619363B
:102A60001A061A50D8A4F7D71550D8B408D0191E92
:102A7000181E171E166C000E17221822192216C0D7
:102A80000CF017C00DF018C00EF019C00FF01200B6
:102A900043C047F0486A496A4234473601E34880F8
:102AA00047504A6E4A50D8A407D0000E416E000E1F
:102AB000426E000E436E120046C047F0486A496AF3
:102AC0004534473601E3488047504F6E4F50D8A4F5
:102AD00007D0000E416E000E426E000E436E1200D3
:102AE0004F507B0F4A2643C04FF046504F1A800E7E
:102AF0004F16428E458EFF0E4416FF0E4516000EF1
:102B00004616000E4B6E000E4C6E000E4D6E070EFC
:102B10004E6E41A006D044504B2645504C224650A4
:102B20004D22D890433242324132D8904436453615
:102B300046364E2EEED7090E4E6E41A006D04450BA
:102B40004B2645504C2246504D22D89043324232BB
:102B50004132D8904D324C324B324E2EEED74BC0D4
:102B600001F04CC002F04DC003F04AC004F04FC069
:102B700005F0B5EC17F001C041F002C042F003C00F
:102B800043F0120052C056F0576A586A5134563614
:102B900001E3578056505D6E5D50D8A407D0000EFB
:102BA000506E000E516E000E526E120055C056F05F
:102BB000576A586A5434563601E3578056505E6E51
:102BC0005E50D8A407D0000E506E000E516E000E5D
:102BD000526E1200000E5A6E000E5B6E000E5C6E9E
:102BE0005E50890F5D5E52C05EF055505E1A800ED9
:102BF0005E16518EFF0E5016FF0E5116000E521625
:102C0000548EFF0E5316FF0E5416000E5516180E56
:102C1000596ED8905A365B365C365350505C5450DF
:102C2000515855505258D8A007D05350505E545068
:102C3000515A5550525A5A80D890503651365236C1
:102C4000592EE7D75AC001F05BC002F05CC003F018
:102C50005DC004F05EC005F0B5EC17F001C050F0A7
:102C600002C051F003C052F0120055C001F056C02E
:102C700002F0000E046E030E036E3EEC1EF053C015
:102C800057F054C058F0015057260250582257C0F0
:102C9000F6FF58C0F7FF0900F5CF59F00900F5CF4E
:102CA0005AF00A00F5CF5BF03ED059C044F05AC04C
:102CB00045F05BC046F050C041F051C042F052C0F8
:102CC00043F048EC15F041C030F042C031F043C051
:102CD00032F0000E046E030E036E5506D8A05606A1
:102CE00055C001F056C002F03EEC1EF053C057F044
:102CF00054C058F0015057260250582257C0F6FFD2
:102D000058C0F7FF0900F5CF33F00900F5CF34F0D4
:102D10000A00F5CF35F09AEC0EF030C059F031C012
:102D20005AF032C05BF055505610D8A4BED759C0E7
:102D300050F05AC051F05BC052F0120020EECBF0C0
:102D400010EE9AF0040EDBCFE3FFE806FCE292C03F
:102D50000CF093C00DF094C00EF0CEEC14F00C50BB
:102D600000019F6F000E446EC80E456E420E466E07
:102D7000A10E3F6E000E406E92C03CF093C03DF03D
:102D800094C03EF0DEEC1AF03CC041F03DC042F091
:102D90003EC043F048EC15F041C097F042C098F0B7
:102DA00043C099F097C00CF098C00DF099C00EF098
:102DB000CEEC14F00C500001A06FC70E00019A6F0A
:102DC0009FC09BF0A0C09CF095C09DF096C09EF067
:102DD000000E0001A46F040E0001A46501D01200D2
:102DE0000001A451010D9A0EF324D96E000EF420B7
:102DF000DA6EDF500EEC1FF00001A42BECD72D0E85
:102E00000201816F040E0201826F530E3FEC13F03A
:102E1000310E0201816F0B0E0201826F530E3FECE7
:102E200013F02C0E0201816F0A0E0201826F530E05
:102E30003FEC13F02E0E0201816F000E0201826F33
:102E4000530E3FEC13F0280E0201816F050E0201B4
:102E5000826F530E3FEC13F0290E0201816F140EA6
:102E60000201826F530E3FEC13F02F0E0201816FAF
:102E7000000E0201826F530E3FEC13F02E0E020182
:102E8000816F040E0201826F530E3FEC13F02D0E82
:102E90000201816F080E0201826F530E3FEC13F0A6
:102EA000000E0201816F010E0201826F530E70EC61
:102EB0000FF0020176511200000E106E000E0F6E20
:102EC000000E126E000E116E000E146E000E136EC8
:102ED00020EE02F00850D9260950DA22DF50016EA8
:102EE00020EE01F00850D9260950DA22DF502BECF1
:102EF0001EF001C00DF002C00EF0000E126E030EA7
:102F0000116E10D011500824D96E12500920DA6EBB
:102F1000DF500A6E0A501324136E000E1420146E34
:102F2000114A122A020E0D240A6E000E0E200B6E9C
:102F300011500A5C0B50800A0C6E1250800A0C581B
:102F4000D8B0E0D713500F6E106A13C00AF014C047
:102F50000BF00A1E0B1E0A4A0B2AFF0E0A240F6EE4
:102F6000000E0B20106E0F5012000450D8B405D084
:102F7000015002100310D8A40CD0000E016E000EF8
:102F8000026E000E036E1200042AD8900332023241
:102F90000132000E0114066E000E0214076EFE0EC2
:102FA0000314086E065007100810D8B40CD0ECD7E4
:102FB000042A010E0126000E0222000E0322D890E0
:102FC000033202320132000E0114066E000E0214AA
:102FD000076EFF0E0314086E065007100810D8B4D1
:102FE00006D0E6D70406D89001360236033602BE74
:102FF00003D0020E0460F6D704A0029ED8900432DB
:10300000045003120550D8A4038E01C001F002C081
:1030100002F003C003F01200015002100310D8A404
:103020000FD004C0D9FF05C0DAFF000EDE6E000E1F
:10303000DD6E000E016E000E026E000E036E1200B9
:1030400003507F0B066E076AD8900636073604C019
:10305000D9FF05C0DAFF06C0DEFF07C0DDFF02AE04
:1030600003D0066A062A01D0066A065004C0D9FFBA
:1030700005C0DAFFDE12000EDD1204C0D9FF05C064
:10308000DAFF820EDE26FF0EDD2203800382038438
:1030900003860388038A039C029E01C001F002C0DC
:1030A00002F003C003F012000FAE16D00DC013F0F3
:1030B0000EC014F00FC015F0131E141E151E132A97
:1030C000000E14221522000E13240D6E000E142083
:1030D0000E6E800E15200F6E12AE16D010C013F0BB
:1030E00011C014F012C015F0131E141E151E132A61
:1030F000000E14221522000E1324106E000E142050
:10310000116E800E1520126E000E0D1A000E0E1A92
:10311000800E0F1A000E101A000E111A800E121ACD
:1031200010500D5C11500E5812500F58D8B002D0EC
:10313000D8901200D88012003CC025F03DC026F087
:103140003EC027F0AAEC19F025C02DF026C02EF0C5
:1031500027C02FF063EC1EF02DC030F02EC031F0F0
:103160002FC032F03CC033F03DC034F03EC035F0EB
:103170009AEC0EF030C03FF031C040F032C041F068
:103180003CC030F03DC031F03EC032F03FC033F0C3
:1031900040C034F041C035F09AEC0EF030C03CF045
:1031A00031C03DF032C03EF03CC025F03DC026F0BD
:1031B0003EC027F0AAEC19F025C03CF026C03DF037
:1031C00027C03EF01200320E036E060E046E530E40
:1031D000EEEC10F076C201F002017751B1EC1EF076
:1031E00001C006F002C007F0000E096E100E086E56
:1031F00052EC1BF006C0C5F007C0C6F078C201F063
:1032000002017951B1EC1EF001C006F002C007F0D6
:10321000000E096E100E086E52EC1BF006C0C7F0CF
:1032200007C0C8F07AC201F002017B51B1EC1EF078
:1032300001C006F002C007F0000E096E100E086E05
:1032400052EC1BF006C0C9F007C0CAF01200000E15
:10325000066E04AE06D0036C041ED8B0042A010E1C
:10326000066E02AE06D0016C021ED8B0022A010E14
:10327000061A000E086E000E076E03500410D8B434
:103280001CD0010E056E04D0D89003360436052AF2
:1032900004AEFAD7D890073608360350015C0450C4
:1032A0000258D8A005D00350015E0450025A07808E
:1032B000D89004320332052EEDD70650D8B404D08E
:1032C000076C081ED8B0082A07C001F008C002F039
:1032D000120003EE7FF01BEEB8F0EE6AE550E1500D
:1032E000FCE1E250FAE103EE00F07F0EEE6AE80640
:1032F000FDE102EE00F07F0EEE6AE806FDE101EE70
:10330000E4F0190EEE6AE806FDE100EEB3F0430EBC
:10331000EE6AE806FDE13D0EF66E3E0EF76E000E1B
:10332000F86E0900F5CFFDF13A0EF66E3E0EF76E1F
:10333000000EF86E0900F5CFF6F00900F5CFF7F0B2
:103340000900F5CFF8F05F905F92000EF86E000173
:10335000BEEF1EF025C001F026C002F027C003F02A
:103360002B0E046E000E056E0CEC18F02CAE07D080
:10337000000E256E000E266E000E276E12002C50D9
:1033800004E1150E2B5CD8A007D025C025F026C07F
:1033900026F027C027F0120025C00CF026C00DF043
:1033A00027C00EF0CEEC14F00CC01BF00DC01CF0CA
:1033B0000EC01DF00FC01EF0A2EC1AF01BC028F0CA
:1033C0001CC029F01DC02AF028C025F029C026F015
:1033D0002AC027F012000001DD4BDE2B0001DB4B81
:1033E000DC2BE80E0001DD5D030E0001DE59D8A0E4
:1033F00017D02FEC08F0D6C07AF0D7C07BF0D8C039
:103400007CF0EDC07DF01FEC0DF000017E6FC7EC8D
:1034100013F00001F22B000E0001DE6F000EDD6FD5
:10342000040E0001DB190001DC11D8A407D04DEC1B
:1034300014F0000E0001DC6F000EDB6F3C0E00018B
:10344000F219D8A412000001F12B000E0001F26F56
:1034500012000201806F80C2C9FFC6AE02D0FF0E0B
:103460001200C6500F0B080AD8B40FD0C6500F0B6D
:103470000B0AD8B40AD0C6889EA6FED7C7A4C7B088
:1034800002D0FE0E1200000E1200C6500F0B080AEA
:10349000D8B405D0C6500F0B0B0AD8A41200C7B081
:1034A000FED7C7A404D002017F6B7F2B02D002019C
:1034B0007F6BC5501F0B02017F110009D8A4F1D703
:1034C000C5AC02D0FE0E1200000E1200000E02016A
:1034D000846F000E836F0201815102018211D8B402
:1034E0002CD0010E0201856F06D00201D8908137E1
:1034F00082370201852B020182AFF7D70201D890F3
:10350000833784370201815102017F5D02018251BC
:1035100002018059D8A00AD00201815102017F5FC7
:10352000020182510201805B020183810201D89075
:10353000823381330201852FE1D783C27FF284C2B7
:1035400080F21200000E246E8E0E236E1EAE11D07D
:103550001E1E1D1E1C1E1B6C000E1C221D221E2268
:10356000010E246E06D0D8901E321D321C321B3242
:10357000232A000E1B141F6E000E1C14206E000E5A
:103580001D14216EFF0E1E14226E1F5020102110DC
:103590002210D8A4E8D71BC001F01CC002F01DC047
:1035A00003F023C004F024C005F0B5EC17F001C00F
:1035B0001BF002C01CF003C01DF012003CC00CF058
:1035C0003DC00DF03EC00EF0CEEC14F00CC01BF070
:1035D0000DC01CF00EC01DF01EEC1DF03FC0D9FF49
:1035E00040C0DAFF1BC0DEFF1CC0DEFF1DC0DEFFD7
:1035F0003FC0D9FF40C0DAFFDECF2DF0DECF2EF086
:10360000DDCF2FF063EC1EF02DC030F02EC031F076
:103610002FC032F03CC033F03DC034F03EC035F036
:103620009AEC0EF030C03CF031C03DF032C03EF0BC
:103630001200026E02C0C9FFC6AE02D0FF0E120019
:10364000C6500F0B080AD8B40FD0C6500F0B0B0A88
:10365000D8B40AD0C6889EA6FED7C7A4C7B002D0E9
:10366000FE0E1200000E1200C6500F0B080AD8B44E
:1036700005D0C6500F0B0B0AD8A41200C7B0FED756
:10368000C7A403D0016A012A01D0016AC5501F0BEB
:1036900001100009D8A4F4D7C5AC02D0FE0E120068
:1036A000000E120008C00AF0FF0E0A26010E0B6E73
:1036B000000E0C6E0A2A03D0D8900B360C360A2E58
:1036C000FBD706500B1607500C160B500C10D8B435
:1036D0001BD0000E0E6E000E0D6E061C0D6E071C2C
:1036E0000E6E010E0D240D6E000E0E200E6E0DC01E
:1036F0000AF00EC00BF00A1E0B1E0A4A0B2A0AC063
:1037000006F00BC007F0120006C006F007C007F075
:1037100012000201836F000EC26E000EC16E000E19
:10372000C06E02017F517C0BC26E80C2C1FF83C29A
:1037300081F20201D89081370201D8908137380E8A
:103740000201811783C282F20201823B0F0E8217AF
:10375000070E0201821702018351800B02018211C0
:1037600002018111C06E02017FAF03D09E9C9D8C2F
:10377000F28CC28012000201885102018911D8B472
:1037800026D0010E02018A6F06D00201D890883738
:10379000893702018A2B020189AFF7D702018851CC
:1037A0000201865D0201895102018759D8A008D023
:1037B000020188510201865F020189510201875B83
:1037C0000201D8908933883302018A2FE7D786C255
:1037D00086F287C287F212000201816F000EAC6E82
:1037E000000EAB6E020181B1AC88020181A302D050
:1037F000AC8CAB8C020181B5AC8E020181A702D0EA
:10380000AB8801D0AB8A020181B9AC84020181BBD3
:10381000AB86020181AD02D09D8A01D09D9A020142
:1038200081AF02D09D8801D09D987FC2AFFF020179
:103830008051B06EAC8AAB8E12000201846F11D041
:10384000970E02017E6F850E02017D6FED0E07D08F
:10385000D70E02017E6F000E02017D6FE50E7C6FB8
:1038600008D002018451010AD8B4EAD7030AD8B4B7
:10387000EFD7020184510201D8A403D018EC1FF045
:10388000120002017E5118EC1EF07CC27FF27DC254
:1038900080F2E8EC1EF0F2941200000E066E000EAC
:1038A000056E03500410D8B41CD0010E076E04D06E
:1038B000D89003360436072A04AEFAD7D8900536D6
:1038C00006360350015C04500258D8A005D00350BE
:1038D000015E0450025A0580D89004320332072E4C
:1038E000EDD705C001F006C002F01200000E020183
:1038F000976F000E0201966F000E956F1C0E02016D
:10390000976F000E0201966F330E956F4F0EAB1638
:10391000AC9ACF0E9D1695C27FF296C280F202013C
:103920009751ECEC1BF0260E02018B6F100E02017A
:103930008C6F44EC10F0120062C05CF063C05DF06C
:1039400064C05EF020EC12F05CC065F05DC066F013
:103950005EC067F065C041F066C042F067C043F0EA
:103960005C0E446EDE0E456E3E0E466E48EC15F063
:1039700041C062F042C063F043C064F012000A50DC
:103980000B10D8B418D0010E0C6E04D0D8900A36A3
:103990000B360C2A0BAEFAD70A50085C0B500958AC
:1039A000D8A004D00A50085E0B50095AD8900B32A8
:1039B0000A320C2EF1D708C008F009C009F0120035
:1039C0000F013A970F013A9994869488C69A000E8F
:1039D00002017F6F080E75EC1EF0130EC86EC7A4AF
:1039E00004D00201816B812B02D00201816BC55092
:1039F0001F0B020181110009D8B41200F0D7010E8B
:103A00000001F36F82B604D00001966B962B02D0B2
:103A10000001966B00019647964796478250000139
:103A20009619F70B9619826EEBEC19F07CC201F037
:103A30007DC202F0F1EC1EF0F2941200000E1E6E38
:103A40001DAE08D01D1E1C1E1B6C000E1C221D224C
:103A5000010E1E6E1BC001F01CC002F01DC003F061
:103A60008E0E046E1EC005F0B5EC17F001C01BF001
:103A700002C01CF003C01DF01200000E0C6E0AAE56
:103A800006D0096C0A1ED8B00A2A010E0C6E09C0B5
:103A900001F00AC002F0036A8E0E046E0CC005F03D
:103AA000B5EC17F001C009F002C00AF003C00BF03A
:103AB0001200000E0201846F000E0201856F000EDD
:103AC0000201866FA10E0201846F270E0201856F2D
:103AD000FC0E0201866F85C27FF286C280F202016F
:103AE000845189EC1BF0120014EC1FF0BFEC1DF0A8
:103AF00076EC1CF0000E0201836F020E1DEC1CF030
:103B0000C9EC1EF059EC1DF0E0EC1CF0FFEC16F0D7
:103B10000201986FF28CF28E1200000E086E000EF9
:103B2000076EB70EDEEC1EF01BEC1FF008EC1FF06A
:103B30000009D8A4FBD701EC1FF001C007F002C0B8
:103B400008F007C005F008C006F01200000E086E6D
:103B5000000E076EAF0EDEEC1EF01BEC1FF008EC43
:103B60001FF00009D8A4FBD701EC1FF001C007F03B
:103B700002C008F007C005F008C006F012000F01EF
:103B80003A9D0F013A9F949C948E0F013A9594941C
:103B900082949296809693880F013989938A0F01B7
:103BA000398B93800F013991819012000001F551FA
:103BB000010D000EF324D96E030EF420DA6EEDEC45
:103BC0001DF0DF6E4E0E0D6E100E0E6E00C30FF068
:103BD000106AB0EC12F09E9A1200F20E0001F41777
:103BE000ABAC06D00001F491ABA002D00001F4818F
:103BF000ABA402D00001F485ABA202D00001F4878F
:103C0000AECF01F00150120002AE0DD001C003F0A2
:103C100002C004F0031E041E034A042A03C001F07C
:103C200004C002F0120001C001F002C002F0120054
:103C300002017F6F02017F517F0BD56E000ED76EA0
:103C4000000ED66EF29402017FAF02D0F28A01D04C
:103C5000F29AD58E1200056E000E076E000E066EEB
:103C60000550046E036A01500324066E000E042002
:103C7000076E06C001F007C002F0120001500302F7
:103C8000F3CF05F0F4CF06F001500402F3500626FE
:103C900002500302F350062605C001F006C002F0F0
:103CA000120009C001F00AC002F0036A8E0E046E11
:103CB000000E056EB5EC17F001C009F002C00AF065
:103CC00003C00BF012002D502E102F10D8B406D0C8
:103CD000000E2D1A000E2E1A800E2F1A2DC02DF058
:103CE0002EC02EF02FC02FF012000201806F3F0E69
:103CF000C716000EC66E000EC56E02018051C612B8
:103D000002017F51C712C68A1200000E056E020E14
:103D100003180410D8B401C005F003040410D8A49B
:103D200002D00250056E05501200C6500F0B080A53
:103D3000D8B404D0C6500F0B0B0AD8B4C586C7A0A0
:103D4000FED7C9501200C6500F0B080AD8B404D0D1
:103D5000C6500F0B0B0AD8B4C586C7A0FED7C950F2
:103D60001200056E015005C003F0046A03C004F0A0
:103D7000036A0310016E0450026E120074EC1DF011
:103D80003D0E02018B6F100E02018C6F44EC10F09F
:103D9000FFD7F1949F8A9D8A9E9AF288F18CF19EBA
:103DA000F28CF28EF28E1200016EACAC04D0AC90AC
:103DB0000001F4B3AC8001C0ADFF1200026E02C07E
:103DC00001F07C0E0116C250830B0110C26E12006E
:103DD0007FC281F280C282F282C2D7FF81C2D6FF47
:103DE000120001C003F002C004F004C0D7FF03C0FA
:103DF000D6FF120002017F6F9EA8FED77FC2ADFFE3
:103E00001200C450036EC350016E03C002F01200D2
:103E1000C2A202D0010E1200000E1200016E9EA876
:103E2000FED701C0ADFF1200D388D38AD38C120015
:0E3E3000D59EF29A1200C282120000004002DB
:020000040030CA
:0E000000FF331F3CFFBF85FF0FC00FE00F4016
:00000001FF
